:100000000C942E0D0C945F0D0C945F0D0C945F0DF1
:100010000C945F0D0C945F0D0C945F0D0C945F0DB0
:100020000C945F0D0C945F0D0C945F0D0C945F0DA0
:100030000C945F0D0C945F0D0C945F0D0C945F0D90
:100040000C945F0D0C94F3490C945F0D0C945F0DB0
:100050000C945F0D0C945F0D0C94395D0C94E35A75
:100060000C945F0D0C9487490C945F0D0C945F0DFC
:100070000C945F0D0C945F0D0C945F0D0C945F0D50
:100080000C945F0D0C945F0D0C945F0D0C945F0D40
:100090000C945F0D0C945F0D0C945F0D0C945F0D30
:1000A0000C945F0D0C945F0D0C945F0D0C945F0D20
:1000B0000C945F0D0C945F0D0C945F0D0C945F0D10
:1000C0000C945F0D0C945F0D0C945F0D0C945F0D00
:1000D0000C945F0D0C945F0D0C945F0D0C945F0DF0
:1000E0000C945F0D32593559245928592E596C59A1
:1000F00039593D59435947594B59515955595959EE
:100100006C595F5963596759FF59045A095A135A70
:100110001D5A965A275A2F5A375A415A4B5A555AEE
:10012000645A6E5A965A785A825A8C5A9D5DAB5DC3
:10013000CA5DD85DF35DF65DF95DFC5DFF5D025E55
:10014000055E085E125E084AD73B3BCE016E84BC5A
:10015000BFFDC12F3D6C74319ABD56833DDA3D0021
:10016000C77F11BED9E4BB4C3E916BAAAABE00006A
:1001700000803F05A84CCDB2D44EB93836A9020C48
:1001800050B9918688083CA6AAAA2ABE0000008021
:100190003F0664EC1B3C04BC163E3BE5B93CC93C45
:1001A00037C29E5A3D660498083EEA69AAAA3E00F4
:1001B0000000803F4E414E494E495459494E46CD6C
:1001C000CCCC3D0AD7233C17B7D13877CC2B32950E
:1001D00095E6241FB14F0A000020410000C84200EC
:1001E000401C4620BCBE4CCA1B0E5AAEC59D744373
:1001F0004F4D4D554E49434154494F4E004452597D
:1002000052554E004552524F525300494E464F00F0
:100210004543484F0047322F4733206261642070C6
:100220006172616D65746572730A00205A3A20002C
:1002300020593A200042656420583A2000466169FE
:100240006C656420746F20726561636820746172EC
:100250006765740A002569730025696D2025697337
:10026000002569682025696D20256973002569646A
:10027000202569682025696D202569730025697925
:1002800020256964202569682025696D202569730A
:10029000005072696E742074696D653A2000507266
:1002A0006F7465637465642050696E0A0010020BF8
:1002B000020402FD01EF016F6666004445425547A6
:1002C0003A004B494C4C45442E20004D31313320EF
:1002D00053006F6B003F0A0020573A004649524DC9
:1002E000574152455F4E414D453A4D61726C696EC2
:1002F00020312E312E302D524342756746697820C9
:10030000284769746875622920534F555243455FE9
:10031000434F44455F55524C3A68747470733A2F9A
:100320002F6769746875622E636F6D2F4D61726CF3
:10033000696E4669726D776172652F4D61726C6985
:100340006E2050524F544F434F4C5F5645525349C5
:100350004F4E3A312E30204D414348494E455F546F
:100360005950453A3344205072696E746572204585
:10037000585452554445525F434F554E543A3120DC
:10038000555549443A63656465326132662D3431AE
:1003900061322D343734382D396231322D633535A1
:1003A0006336326633363766660A007A5F6D617887
:1003B0003A20007A5F6D696E3A2000795F6D61784E
:1003C0003A2000795F6D696E3A2000785F6D696E42
:1003D0003A20005265706F7274696E6720656E64B2
:1003E00073746F70207374617475730A005365744D
:1003F00074696E672054726176656C204163636531
:100400006C65726174696F6E3A200053657474692B
:100410006E67205265747261637420416363656C1A
:1004200065726174696F6E3A200053657474696E09
:1004300067205072696E7420416363656C657261F8
:1004400074696F6E3A200053657474696E6720504A
:1004500072696E7420616E642054726176656C20DE
:10046000416363656C65726174696F6E3A20002048
:100470005A00205900580020204D61783A20002071
:100480005A00205900580020204D696E3A20004F34
:10049000666600536F667420656E6473746F707364
:1004A0003A200020643A0020693A0020703A002087
:1004B000643A0020693A0020703A0043290A00613A
:1004C000626C656420286D696E2074656D70200013
:1004D000436F6C6420657874727564657320617213
:1004E0006520004B64200023646566696E652020EA
:1004F00044454641554C545F004B692000236465D8
:1005000066696E65202044454641554C545F004B5A
:1005100070200023646566696E652020444546416D
:10052000554C545F00504944204175746F74756E8A
:10053000652066696E697368656421205075742052
:10054000746865206C617374204B702C204B69209B
:10055000616E64204B6420636F6E7374616E74739C
:100560002066726F6D2062656C6F7720696E746FA4
:1005700020436F6E66696775726174696F6E2E686D
:100580000A00504944204175746F74756E65206689
:1005900061696C6564212074696D656F75740A000A
:1005A000504944204175746F74756E6520666169A9
:1005B0006C6564212054656D706572617475726537
:1005C00020746F6F20686967680A00204B643A20C6
:1005D00000204B693A2000204B703A20000A20434B
:1005E0006C617373696320504944200A002054757C
:1005F0003A2000204B753A2000206D61783A2000A7
:10060000206D696E3A200020643A20002062696102
:10061000733A2000426564204C6576656C696E67AC
:1006200020004661696C656420746F20656E6162AC
:100630006C6520426564204C6576656C696E670A5E
:1006400000546F6F206661722066726F6D20726554
:10065000666572656E636520706F696E740A004529
:100660004550524F4D2064697361626C65640A00A5
:100670003A20007A5F6D61783A20007A5F6D696E8A
:100680003A20005A204F6666736574004175746F96
:100690006D617469630A00452F4420726174696F4B
:1006A0003A2000416476616E636520666163746F11
:1006B000723A20004E6F2063617365206C69676831
:1006C000740A0041637469766520457874727564B4
:1006D00065723A2000556E6B6E6F776E20636F6D9A
:1006E0006D616E643A202200202B000A436F727203
:1006F0006563746564204265642048656967687451
:100700002076732E2042656420546F706F6C6F6783
:10071000793A0A00202B000A42656420486569671F
:10072000687420546F706F6772617068793A0A203C
:1007300020202B2D2D2D204241434B202D2D2B0AE7
:100740002020207C20202020202020202020207CF1
:100750000A204C207C20202020282B29202020200B
:100760007C20520A2045207C202020202020202090
:100770002020207C20490A2046207C20282D29206A
:100780004E20282B29207C20470A2054207C202022
:100790002020202020202020207C20480A202020EB
:1007A0007C20202020282D29202020207C20540A55
:1007B0002020207C20202020202020202020207C81
:1007C0000A2020204F2D2D2046524F4E54202D2DF3
:1007D0002B0A2028302C30290A004D65616E206FCD
:1007E000662073616D706C656420706F696E7473E0
:1007F0003A200020643A200020623A200045716EC1
:1008000020636F656666696369656E74733A20611B
:100810003A200028422961636B00284629726F6ED6
:1008200074002852296967687400284C2965667429
:10083000003F4E756D626572206F662070726F6248
:100840006520706F696E747320697320696D706CB8
:1008500061757369626C65202832206D696E696DFF
:10086000756D292E0A0052756E6E696E6720696E6D
:10087000204452592D52554E206D6F64650A004731
:100880003239204175746F20426564204C6576656D
:100890006C696E670A003F2856296572626F73653E
:1008A000204C6576656C20697320696D706C61758C
:1008B0007369626C652028302D34292E0A00656E1C
:1008C0007175657565696E672022004E6F204C69F1
:1008D0006E65204E756D626572207769746820635D
:1008E0006865636B73756D2C204C617374204C6963
:1008F0006E653A20004B494C4C45442E2000507206
:10090000696E7465722073746F70706564206475AD
:100910006520746F206572726F72732E204669783D
:1009200020746865206572726F7220616E64207534
:100930007365204D39393920746F20726573746185
:1009400072742E202854656D7065726174757265BD
:100950002069732072657365742E20536574206955
:100960007420616674657220726573746172746953
:100970006E67290A004E6F20436865636B73756D5F
:100980002077697468206C696E65206E756D62658C
:10099000722C204C617374204C696E653A200063A0
:1009A0006865636B73756D206D69736D61746368E1
:1009B0002C204C617374204C696E653A20004C69A0
:1009C0006E65204E756D626572206973206E6F745E
:1009D000204C617374204C696E65204E756D6265A4
:1009E000722B312C204C617374204C696E653A2057
:1009F000004D3131300020496E76616C69642065AC
:100A0000787472756465722000000048430000919C
:100A1000439A99FD4200001CC20000000000000043
:100A200000205A3A200020593A200042656420589C
:100A30003A200020706F736974696F6E206F75744F
:100A4000206F662072616E67652E0A003F50726FDC
:100A50006265200024F4D43050C38E20C2A2401717
:100A6000828B7011127A910D816CD90AA861E1080C
:100A7000C7586607615143061E4B5D05C145A70473
:100A80001A411104093D9803713931034036DB02E4
:100A900065339102D4305402802E1D02632CEE0186
:100AA000752AC501B028A001102781018F25640196
:100AB0002B244B01E0223401AC211F018D200D01BC
:100AC000801FFC00841EED00971DDF00B81CD200C3
:100AD000E61BC600201BBC00641AB200B219A800B5
:100AE0000A19A0006A189900D117910040178B00CD
:100AF000B516840031167E00B31579003A157300DF
:100B0000C7146F0058146A00EE1366008813630060
:100B100025135E00C7125B006C12570015125400BB
:100B2000C111510070114F0021114B00D610490026
:100B30008D1047004610440002104200C00F4000D4
:100B4000800F3E00420F3C00060F3B00CB0E3800EA
:100B5000930E37005C0E3500270E3400F30D320083
:100B6000C10D3100900D3000600D2E00320D2D00B2
:100B7000050D2C00D90C2B00AE0C2900850C29008A
:100B80005C0C2700350C27000E0C2600E80B240017
:100B9000C40B2400A00B23007D0B23005A0B210063
:100BA000390B2100180B2000F80A1F00D90A1E007B
:100BB000BB0A1E009D0A1D00800A1D00630A1C005E
:100BC000470A1B002C0A1B00110A1A00F7091A0019
:100BD000DD091900C4091900AB09190092091700B1
:100BE0007B091800630917004C0916003609160026
:100BF000200916000A091500F5081500E008140080
:100C0000CC081400B8081400A408140090081300BD
:100C10007D0812006B0813005808120046081200E5
:100C200034081100230811001208110001081100F6
:100C3000F0071000E0071000D0071000C0071000F8
:100C4000B0070F00A107100091070E0083070F00E7
:100C500074070F0065070E0057070E0049070E00C6
:100C60003B070D002E070E0020070D0013070D0097
:100C700006070D00F9060C00ED060D00E0060C005D
:100C8000D4060C00C8060C00BC060C00B0060C0014
:100C9000A4060B0099060C008D060B0082060B00C3
:100CA00077060B006C060B0061060A0057060B0066
:100CB0004C060A0042060A0038060A002E060A0000
:100CC00024060A001A060A001006090007060A0090
:100CD000FD050900F4050900EB050900E20509001E
:100CE000D9050900D0050900C7050900BE0509009E
:100CF000B5050800AD050800A50509009C0508001C
:100D0000940508008C050800840508007C0508008F
:100D1000740508006C050700650508005D050700FF
:100D2000560508004E050700470507004005080066
:100D300038050700310507002A05070023050700CD
:100D40001C050600160507000F050700080506002C
:100D500002050700FB040600F5040700EE04060088
:100D6000E8040600E2040700DB040600D5040600E0
:100D7000CF040600C9040600C3040600BD04060033
:100D8000B7040600B1040500AC040600A604060082
:100D9000A00405009B0406009504050090040600CD
:100DA0008A04050085040500800406007A04050015
:100DB00075040500700405006B0405006604050059
:100DC000610405005C040500570405005204050099
:100DD0004D04050048040500430405003E040400DA
:100DE0003A04050035040500300404002C04050015
:100DF00027040400230405001E0404001A04040050
:100E000016040500110404000D0404000904050083
:100E10000404040000040400FC030400F8030400BC
:100E2000F4030400F0030400EC030400E8030400EE
:100E3000E4030400E0030400DC030400D80304001E
:100E4000D4030400D0030400CC030400C80303004F
:100E5000C503030024F404D9201BC40C5C0E9804C1
:100E6000C4095F0265077101F405F900FB04B300D2
:100E700048048700C1036900580355000303450077
:100E8000BE023A008402310053022A0029022500E2
:100E900004022000E4011C00C8011900AF01170082
:100EA0009801140084011300710110006101100009
:100EB00051010E0043010D0036010B002B010B0008
:100EC00020010B00150109000C01090003010800B5
:100ED000FB000800F3000800EB000700E400060038
:100EE000DE000600D8000600D2000600CC00050097
:100EF000C7000500C2000500BD000400B9000400E1
:100F0000B5000400B1000400AD000400A900040015
:100F1000A5000300A20003009F0004009B00030043
:100F20009800030095000200930003009000030066
:100F30008D0002008B000300880002008600020082
:100F400084000300810002007F0002007D00020097
:100F50007B000200790002007700010076000200A9
:100F60007400020072000100710002006F000200B4
:100F70006D0001006C0002006A00010069000200BF
:100F800067000100660001006500010064000200C6
:100F90006200010061000100600001005F000200CA
:100FA0005D0001005C0001005B0001005A000100CF
:100FB00059000100580001005700010056000100CF
:100FC00055000100540001005300000053000100CF
:100FD0005200010051000100500001004F000100CB
:100FE0004E0000004E0001004D0001004C000100C9
:100FF0004B0000004B0001004A00010049000100C5
:1010000048000000480001004700010046000000C1
:1010100046000100450000004500010044000100B9
:1010200043000000430001004200000042000100B4
:101030004100000041000100400001003F000000AD
:101040003F0001003E0000003E0001003D000000A6
:101050003D0001003C0000003C0000003C0001009D
:101060003B0000003B0001003A0000003A00010094
:10107000390000003900010038000000380000008D
:101080003800010037000000370001003600000082
:101090003600000036000100350000003500000079
:1010A000350001003400000034000000340001006D
:1010B0003300000033000000330001003200000064
:1010C0003200000032000100310000003100000059
:1010D000310001003000000030000000300001004D
:1010E0002F0000002F0000002F0000002F00010043
:1010F0002E0000002E0000002E0001002D00000038
:101100002D0000002D0000002D0001002C0000002B
:101110002C0000002C0000002C0001002B0000001F
:101120002B0000002B0000002B0001002A00000013
:101130002A0000002A0000002A0001002900000007
:1011400029000000290000002900000029000100FA
:1011500028000000280000002800000028000000EF
:1011600028000100270000002700000027000000E1
:1011700027000000270001002600000026000000D4
:1011800026000000260000002600010025000000C7
:1011900025000000250000002500000025000000BB
:1011A00025000100240000002400000024000000AD
:1011B00024000000240001002300000023000000A0
:1011C0002300000023000000230000002300000093
:1011D0002300010022000000220000002200000085
:1011E0002200000022000000220001002100000077
:1011F000210000002100000021000000210000006B
:10120000210000002100010020000000200000005B
:10121000200000002000000020000000200000004E
:1012200020000000200001001F0000001F0000003F
:101230001F0000001F0000001F0000001F00000032
:101240001F0001001E0000001E0000001E00000024
:101250001E000000000020002300260029002C00B2
:101260002F003200000100000301060109010505FD
:101270000505070508080808020202020A0A08080C
:10128000040404040101010101010101030303033A
:1012900003030303040707070C0C0C0C0C0C0C0CC9
:1012A0000202020206060606060606060B0B0B0BDA
:1012B0000B0B0B0B010210202008081020401020FF
:1012C000408002010201080402010102040810200A
:1012D0004080804020100804020180040201804008
:1012E0002010080402010804020101020408102071
:1012F0004080010204081020408000000A0B02090F
:101300000C0D0E080703040100000000000000009F
:1013100000000000000000000000000000000000CD
:10132000000000000000121110000000000000008A
:1013300000000000000000000000000000000000AD
:101340004B494C4C45442E2000202D20496E76619F
:101350006C6964206578747275646572206E756D51
:1013600062657220210A004572726F723A00202075
:10137000506C616E6E657242756666657242797414
:1013800065733A20002046726565204D656D6F7269
:10139000793A2000436F6D70696C65643A204A7534
:1013A0006C20203720323031370A00207C204175F4
:1013B00074686F723A20286F70656E617373656D23
:1013C000626C6965732E636F6D2C20436F6E666966
:1013D0006720666F722046444D3444204D61636837
:1013E000696E652C204475616C2045787472756453
:1013F0006572290A00323031362D31322D303620D7
:1014000031323A303000204C617374205570646181
:101410007465643A2000312E312E302D52434275CE
:10142000674669780A004D61726C696E0020536FDF
:101430006674776172652052657365740A0020577F
:1014400061746368646F672052657365740A002075
:1014500042726F776E206F75742052657365740ADF
:10146000002045787465726E616C205265736574F6
:101470000A00506F77657255700A00737461727458
:101480000A00205A3A0020593A0020583A00656E66
:101490006473746F7073206869743A200020666901
:1014A0007273740A005A0059005800486F6D652025
:1014B000006563686F3A001000C90210012C0140FA
:1014C00001220170011801B0010E01F00104015068
:1014D00002FA00B002F0003003E600D003DC009016
:1014E00004D2007005C800A006BE000008B400B019
:1014F00009AA00D00BA000600E960060118C0000BD
:1015000015820020197800C01D6E00A0226400B072
:10151000275A00902C500000314600E0343C001067
:10152000383200903A2800603C1E00A03D14008034
:101530003E0A00203F00006265640A002C20737997
:101540007374656D2073746F7070656421204865D5
:10155000617465725F49443A20001000C002600364
:10156000D800B006AF00000A9800500D8900A01006
:101570007D00F013730040176A00901A6300E01DAD
:101580005B003021550080244E00D0274700202BDF
:101590004100702E3A00C031320010352A00603808
:1015A0001F00B03B1100003F0000544845524D4120
:1015B0004C2052554E4157415900546865726D6137
:1015C0006C2052756E61776179004572723A204DD8
:1015D000494E54454D5020424544004572723A20D0
:1015E0004D494E54454D50004D494E54454D5020A7
:1015F000747269676765726564004572723A204D5E
:10160000415854454D5020424544004572723A209D
:101610004D415854454D50004D415854454D502072
:1016200074726967676572656400000021002400B8
:1016300027002A002D0030003300010100000401C2
:1016400007010A0100002200250028002B002E00BF
:101650003100340002010000050108010B01507245
:10166000696E7465722068616C7465642E206B69A4
:101670006C6C28292063616C6C6564210A00000091
:101680001CC2000000009A99FD425761726E696E9B
:10169000673A20486F6D696E672042756D7020440F
:1016A000697669736F72203C20310A000000A04007
:1016B0000000A0400000004000006F430000914384
:1016C0009A99FD42FFFF0148617264636F6465642B
:1016D0002044656661756C742053657474696E6727
:1016E00073204C6F616465640A0020204D383531E9
:1016F000205A005A2D50726F6265204F66667365DE
:101700007420286D6D293A0A0020204D3230302097
:1017100044300A0020204D323030204400204469FB
:101720007361626C65640A0046696C616D656E7414
:101730002073657474696E67733A00204400204911
:101740000020204D33303420500020440020490038
:1017500020204D33303120500050494420736574AF
:1017600074696E67733A0A0020204D34323020537A
:10177000004175746F20426564204C6576656C6924
:101780006E673A0A00205A0020590020204D32305E
:1017900036205800486F6D65206F6666736574204B
:1017A000286D6D290A00204500205A00205900208C
:1017B000580020420020540020204D323035205364
:1017C00000416476616E636564207661726961626E
:1017D0006C65733A20533D4D696E20666565647291
:1017E00061746520286D6D2F73292C20543D4D693F
:1017F0006E2074726176656C2066656564726174D2
:101800006520286D6D2F73292C20423D6D696E690E
:101810006D756D207365676D656E742074696D6597
:1018200020286D73292C20583D6D6178696D756D88
:10183000205859206A65726B20286D6D2F73292CF2
:1018400020205A3D6D6178696D756D205A206A655A
:10185000726B20286D6D2F73292C2020453D6D6102
:1018600078696D756D2045206A65726B20286D6DF5
:101870002F73290A0020540020520020204D3230BE
:1018800034205000416363656C65726174696F6EEA
:10189000733A20503D7072696E74696E672C2052E5
:1018A0003D7265747261637420616E6420543D748E
:1018B000726176656C0A00204500205A00205900AC
:1018C00020204D3230312058004D6178696D756DA2
:1018D00020416363656C65726174696F6E20286D69
:1018E0006D2F7332293A0A00204500205A002059F2
:1018F0000020204D3230332058004D6178696D75DD
:101900006D2066656564726174657320286D6D2F46
:1019100073293A0A00204500205A0020590020204F
:101920004D393220580053746570732070657220F1
:10193000756E69743A0A0020746F6F206C6F6E6761
:1019400020657874727573696F6E20707265766544
:101950006E7465640A0020636F6C6420657874722D
:101960007573696F6E2070726576656E7465640A52
:10197000003E20342D706F696E7420617869732089
:101980007371756172696E670A002042403A0020E7
:10199000403A00202F0020423A00202F0020543AE5
:1019A000003F0A0020573A00205A3A0020593A00D6
:1019B00020436F756E7420583A0020453A00205A33
:1019C0003A0020593A00583A00526573656E643AFD
:1019D00020006F6B0020746F6F206C6F6E67206546
:1019E0007874727573696F6E2070726576656E7447
:1019F00065640A0020636F6C642065787472757387
:101A0000696F6E2070726576656E7465640A006237
:101A10007573793A2070617573656420666F722002
:101A2000696E7075740A00627573793A2070617519
:101A300073656420666F7220757365720A00627543
:101A400073793A2070726F63657373696E670A0009
:101A50004B494C4C45442E200000718811241FBE78
:101A6000CFEFD1E2DEBFCDBF00E00CBF14E0A0E0BD
:101A7000B2E0E8E6F4E301E00BBF02C007900D928C
:101A8000A830B107D9F72EE0A8E0B4E001C01D925C
:101A9000A231B207E1F71DE0CEE2DDE000E006C0D2
:101AA00021970109802FFE010E94099ACD32D107AA
:101AB00080E00807A9F70E94D7880C94329A0C940A
:101AC00000002F923F924F925F926F927F928F927F
:101AD0009F92AF92BF92CF92DF92EF92FF920F93BD
:101AE0001F93CF93DF93CDB7DEB7C857D1090FB699
:101AF000F894DEBF0FBECDBF0091F00B20E6029F31
:101B0000800111240D5E1B4F1093940500939305E3
:101B10008091620D80FF18C0E1EBF4E184917F01B8
:101B20003FEFE31AF30A882321F00E942B44F701C8
:101B3000F5CFD8018D918D01882319F00E942B4497
:101B4000F8CF8AE00E942B442091930530919405B0
:101B5000F90180812F5F3F4F8032D1F3F0939405DC
:101B6000E09393058E3469F01091930500919405EC
:101B70006AE270E0812F902F0E94179A0097D1F4AB
:101B800020C0818190ED980F9A3010F08D3261F76E
:101B90003296DF0131962C9120532A30D0F3CD01BB
:101BA000FC01019620812032D9F3F0939405E09353
:101BB0009305DACFFC0131968291803231F08A327E
:101BC00021F0A12FB02F2D9102C01082F5CFFD0181
:101BD000808111968032D9F380538A3020F0E1EB76
:101BE000F4E10C94CA27E12CF12C3AE03E9DB001BF
:101BF0003F9D700D11247B01B0E3EB1AF108819138
:101C0000E80EF11C87FDFA94808190ED980F9A30D0
:101C100068F38E32B1F4AF014F5F5F4FD12CFA0100
:101C20004F5F5F4F308180ED830F8A3058F48D2DE8
:101C3000880F982F990F990F890F8053D82ED30EA4
:101C4000EECFD12CDF0131968C918032D9F3B09355
:101C50001204A093110481E090E09093EF0D809323
:101C6000EE0D2D3411F40C944A16243511F40C9415
:101C70008B27273411F00C94A327EDE1EE16F10425
:101C800009F41DC6B8F424E0E216F10438F480919A
:101C9000390232E0E316F10498F13CC044E0E41666
:101CA000F10409F47DC55CE1E516F10409F4BEC553
:101CB0000C94C12787E2E816F10409F432C760F4F6
:101CC000AEE1EA16F10409F4FEC5B6E2EB16F10442
:101CD00009F4BAC60C94C127EBE5EE16F10409F439
:101CE00024C7FCE5EF16F10409F424C72AE5E2163F
:101CF000F10411F00C94C127109210040C94C12728
:101D0000882311F40C94C1270E9427420E949185D8
:101D10000C94C127882311F40C94C12711E032E000
:101D2000E316F10409F010E00E94274282E50E94C8
:101D30007741882309F42AC10E94FE416B017C018E
:101D40004090BF0B5090C00B6090C10B7090C20BC5
:101D50008091C30B9091C40BA091C50BB091C60BA1
:101D60008AA39BA3ACA3BDA32091FE0C3091FF0CD2
:101D70004091000D5091010D2EA33FA348A759A7F4
:101D80008091020D9091030DA091040DB091050D6D
:101D90008EA79FA7A8ABB9AB20E030E0A901C7018F
:101DA000B6010E94E192882309F4E0C4A3019201E4
:101DB0006EA17FA188A599A50E94E19281110DC015
:101DC0002AA13BA14CA15DA16EA57FA588A999A9D7
:101DD0000E94E192882309F4C9C420E030E0A901FF
:101DE000C701B6010E94E192881F8827881F181337
:101DF00009C020E030E040E85FE32AAF3BAF4CAFE2
:101E00005DAF08C080E090E0A0E8BFEB8AAF9BAF79
:101E1000ACAFBDAFA30192016EA17FA188A599A52A
:101E20000E94E1966AAB7BAB8CAB9DAB2AA13BA138
:101E30004CA15DA16EA57FA588A999A90E94E196F4
:101E40006EAB7FAB88AF99AF2AA93BA94CA95DA91E
:101E5000CA01B9010E9446934B015C012EA93FA91A
:101E600048AD59ADCA01B9010E9446939B01AC012E
:101E7000C501B4010E94E2960E944D996AA77BA712
:101E80008CA79DA720E030E040E05FE30E944693EE
:101E90004B015C01A7019601C701B6010E94469360
:101EA0006B017C01A5019401C501B4010E94469318
:101EB0009B01AC01C701B6010E94E1960E944D99B9
:101EC0009B01AC016AAD7BAD8CAD9DAD0E9446938C
:101ED0004B015C012EA13FA148A559A5C301B20148
:101EE0000E94E29620E030E040E05FE30E944693EB
:101EF0006B017C016EA97FA988AD99AD90582AA588
:101F00003BA54CA55DA50E94BE979B01AC01C501F8
:101F1000B4010E9446939B01AC01C701B6010E9427
:101F2000E296A30192010E94E1966B017C012EA52D
:101F30003FA548A959A96AA17BA18CA19DA10E9496
:101F4000E29620E030E040E05FE30E9446932B0100
:101F50003C012AA53BA54CA55DA56AA97BA98CA936
:101F60009DA90E94BE979B01AC01C501B4010E94CE
:101F700046939B01AC01C301B2010E94E2962AA1E3
:101F80003BA14CA15DA10E94E19614C089E40E948E
:101F90007741882329F00E94FE416B017C0103C038
:101FA000C12CD12C76018AE40E9477418823D9F094
:101FB0000E94FE416AA37BA38CA39DA320E030E096
:101FC000A901C701B6010E94E19281111AC020E067
:101FD00030E0A9016AA17BA18CA19DA10E94E192A0
:101FE00081110FC0C3C320E030E0A901C701B601D1
:101FF0000E94E192882309F4B9C31AA21BA21CA271
:102000001DA2A7019601C701B6010E9446934B018C
:102010005C012AA13BA14CA15DA1CA01B9010E94AA
:1020200046939B01AC01C501B4010E94E2960E9457
:102030004D992E966CAF7DAF8EAF9FAF2E972091AE
:10204000BF0B3091C00B4091C10B5091C20B2EA71A
:102050003FA748AB59ABA70196016EA57FA588A9FC
:1020600099A90E94E29666966CAF7DAF8EAF9FAF46
:1020700066978091C30B9091C40BA091C50BB09152
:10208000C60B8AAB9BABACABBDAB2AA13BA14CA1B1
:102090005DA1BC01CD010E94E2966A966CAF7DAF56
:1020A0008EAF9FAF6A972091C70B3091C80B4091BC
:1020B000C90B5091CA0B2AAF3BAF4CAF5DAF6091DB
:1020C000060D7091070D8091080D9091090D0E94E9
:1020D000E1966AA77BA78CA79DA780910A0D909196
:1020E0000B0DA0910C0DB0910D0D62968CAF9DAFB4
:1020F000AEAFBFAF62972091CB0B3091CC0B40912C
:10210000CD0B5091CE0B22962CAF3DAF4EAF5FAFB3
:102110002297D701C601B0588EA39FA3A8A7B9A73D
:102120004AA05BA06CA07DA077FA709477F87094B9
:102130002091FE0C3091FF0C4091000D5091010D4B
:102140002EAB3FAB48AF59AF66962CAD3DAD4EAD13
:102150005FAD66976EA97FA988AD99AD0E94E196A3
:102160006B017C018091020D9091030DA091040DF3
:10217000B091050D2A968CAF9DAFAEAFBFAF2A9739
:102180006A962CAD3DAD4EAD5FAD6A97BC01CD01F9
:102190000E94E1964B015C01A70196016EA17FA10F
:1021A00088A599A50E94469326966CAF7DAF8EAF09
:1021B0009FAF2697A5019401C301B2010E944693E7
:1021C0009B01AC0126966CAD7DAD8EAD9FAD269783
:1021D0000E94E29626966CAF7DAF8EAF9FAF26979A
:1021E000A50194016EA17FA188A599A50E9446939F
:1021F0004B015C01A7019601C301B2010E94469305
:102200009B01AC01C501B4010E94E19626962CAD5C
:102210003DAD4EAD5FAD26970E9455976B017C0199
:1022200020E030E0A9010E94E19287FF0AC02BED77
:102230003FE049EC50E4C701B6010E94E2966B0111
:102240007C01112351F02BED3FE049EC50E4C70134
:10225000B6010E94E1966B017C0120E030E0A9010B
:10226000C701B6010E94E192811124C02EA93FA9A5
:1022700048AD59AD6EA57FA588A999A90E94E192A4
:10228000811118C02A962CAD3DAD4EAD5FAD2A9799
:102290006AA97BA98CA99DA90E94E19281110AC01B
:1022A0002BED3FE049EC50E4C701B6010E94E296F5
:1022B0006B017C012E962CAD3DAD4EAD5FAD2E97E2
:1022C000C701B6010E9446939B01AC010E94469350
:1022D0004B015C012AA53BA54CA55DA5CA01B9012E
:1022E0000E9446939B01AC01C501B4010E94E29695
:1022F0000E944D994B015C012FE632E143E85AE31D
:102300000E94E19287FD2EC2C501B4010E94579838
:102310000E942B987FAB6EABDB01AB2B21F4E1E08D
:10232000F0E0FFABEEAB2EA93FA9B90180E090E051
:102330000E94E5924B015C019B01AC01C701B60113
:102340000E94BE976EA77FA788AB99ABA5019401A9
:102350006AA57BA58CA59DA50E94BE976E966CAFC5
:102360007DAF8EAF9FAF6E9722962CAD3DAD4EAD3B
:102370005FAD229762966CAD7DAD8EAD9FAD6297DD
:102380000E94E196A50194010E94BE97A2966CAFAF
:102390007DAF8EAF9FAFA2972EA53FA548A959A9A3
:1023A000CA01B9010E94469320E030E040E05FE3BB
:1023B0000E9446939B01AC0160E070E080E89FE3DF
:1023C0000E94E1962A966CAF7DAF8EAF9FAF2A97A1
:1023D0008AAD9BADACADBDAD89879A87AB87BC8715
:1023E00022962CAD3DAD4EAD5FAD22972D873E8739
:1023F0004F87588B60916B0270916C02072E000C16
:10240000880B990B0E94E79220916D0230916E0229
:1024100040916F02509170020E9446932AE037ED7E
:1024200043E25CE30E9446932E966CAF7DAF8EAF85
:102430009FAF2E970E94D75A9B01AC0128533F4F64
:102440004F4F5F4F62962CAF3DAF4EAF5FAF62977D
:102450003EA13AA74FA14AAB28A439A481E090E05D
:102460009FAF8EAF1AAEEEADFFAD2EA93FA9E2171A
:10247000F30709F433C10E9498600E94D75ADC0127
:10248000CB0162962CAD3DAD4EAD5FAD6297821B28
:10249000930BA40BB50BB7FD10C00E94D75A9B013C
:1024A000AC0128533F4F4F4F5F4F62962CAF3DAF6B
:1024B0004EAF5FAF62970E94FB823AAD3F5F3AAF8B
:1024C0003931F4F52A962CAD3DAD4EAD5FAD2A976E
:1024D000C301B2010E9446936B017C012EA53FA56A
:1024E00048A959A96AA57AA9C1010E944693A701E2
:1024F00096010E94E2967B018C012A962CAD3DAD9F
:102500004EAD5FAD2A976AA57AA9C1010E94469394
:102510004B015C012EA53FA548A959A9C301B201F1
:102520000E9446939B01AC01C501B4010E94E19653
:102530006AA77AAB1C01C701D8012C013D014FC02D
:102540004EAD5FADBA0180E090E00E94E5922EA50D
:102550003FA548A959A90E9446934B015C010E94DE
:10256000BB976B017C01C501B4010E9443994B01EB
:102570005C01A70196016EA17FA188A599A50E9483
:1025800046932B013C01A50194016AA17BA18CA17A
:102590009DA10E9446939B01AC01C301B2010E9420
:1025A000E2966AA77AAB1C01A50194016EA17FA1F6
:1025B00088A599A50E9446934B015C01A70196014D
:1025C0006AA17BA18CA19DA10E9446939B01AC01B5
:1025D000C501B4010E94E1962B013C011AAE2AA567
:1025E0003AA9A10166966CAD7DAD8EAD9FAD6697A3
:1025F0000E94E2966B017C0169837A838B839C83C2
:10260000A30192016A966CAD7DAD8EAD9FAD6A97C8
:102610000E94E29626966CAF7DAF8EAF9FAF269755
:102620006D837E838F83988729853A854B855C856A
:102630006E966CAD7DAD8EAD9FAD6E970E94E296AD
:102640004B015C0169877A878B879C87A2962CADAA
:102650003DAD4EAD5FADA2976D857E858F85988926
:102660000E94E2966D877E878F87988B10910B046E
:10267000CE8ADF8AE88EF98E26968CAD9DADAEAD02
:10268000BFAD26978A8F9B8FAC8FBD8F8E8E9F8E0E
:10269000A8A2B9A2AE01425E5F4FBE01665E7F4F47
:1026A000CE0146960E94A67BC12E2E96ECACFDACC8
:1026B0000EAD1FAD2E979E01235F3F4FAE01425ED0
:1026C0005F4FBE01665E7F4FCE0146960E949A6BB9
:1026D000AEADBFAD1196BFAFAEAFC5CEC0900B04CF
:1026E0008091FE0C9091FF0CA091000DB091010D16
:1026F0008E8B9F8BA88FB98F8091020D9091030DC7
:10270000A091040DB091050D8A8F9B8FAC8FBD8F6A
:102710008091060D9091070DA091080DB091090DC3
:102720008E8F9F8FA8A3B9A3AE01425E5F4FBE01FB
:10273000665E7F4FCE0146960E94A67B2E96ECAC3D
:10274000FDAC0EAD1FAD2E972AE03DE0AE01425E1E
:102750005F4FBE01665E7F4FCE0146960E949A6B28
:102760000E94FD400E94E8430C94C127E7E6F3E194
:1027700084918F010F5F1F4F882321F00E942B440B
:10278000F801F6CFE5E1F2E084918F010F5F1F4F72
:10279000882311F40C94C1270E942B44F801F4CF34
:1027A00080E50E947741882371F080910804909120
:1027B00009044AE050E060E070E001960E94359123
:1027C0006B017C0103C0C12CD12C760183E50E94F2
:1027D0007741882361F00E94FE4120E030E04AE723
:1027E00054E40E9446930E942B986B017C010E9446
:1027F00099610E94E8438091F00D9091F10DA091B4
:10280000F20DB091F30DC80ED91EEA1EFB1E0E94F8
:10281000D75ADC01CB018C199D09AE09BF09B7FD60
:1028200002C00C94C1270E94FB82F1CF0E949961E3
:1028300080E00E9499400E940C4481E0809338021D
:1028400088E50E947741E82E89E50E947741082FAC
:102850008AE50E947741F82EE11005C0011105C0FC
:1028600011E0182705C0011102C010E001C0182FA7
:102870000E94F340111105C0F11003C0E11007C020
:102880000CC082E090E00E94776A1123B9F380E0E7
:1028900090E00E94776A111102C0002321F081E0CC
:1028A00090E00E94776A0E94964280910E0D80937C
:1028B00038020E94F3430E949C7C0C94C1270E9422
:1028C000842A0C94C12788E50E947741882319F057
:1028D0000E94FE410EC020E030E048EC51E46091DF
:1028E000BF0B7091C00B8091C10B9091C20B0E94E5
:1028F000E2966E8B7F8B888F998F89E50E94774156
:10290000882319F00E94FE410EC020E030E040EC28
:1029100051E46091C30B7091C40B8091C50B9091F1
:10292000C60B0E94E2966B017C0169837A838B83DC
:102930009C8380901C0D90901D0DA0901E0DB0905A
:102940001F0D2091140D3091150D4091160D5091D1
:10295000170D6E897F89888D998D0E94E19620914F
:10296000180D3091190D40911A0D50911B0D2AA38D
:102970003BA34CA35DA320E030E048EC51E40E946F
:10298000E1962B013C012AE130E04CE152EC0E943F
:10299000089987FF02C00C94C12727E030E048E483
:1029A00053E4C301B2010E94E192181614F40C948E
:1029B000C1272AA13BA14CA15DA1C701B6010E947C
:1029C000E19620E030E040EC51E40E94E1966B019A
:1029D0007C0127E137EB41ED58EB0E94089987FF16
:1029E00002C00C94C12723E030E041E953E4C70161
:1029F000B6010E94E192181614F40C94C12720E04D
:102A000030E0A901C501B4010E94E296A50194013C
:102A10000E94E1966B017C0127E137EB41ED58EB19
:102A20000E94089987FF02C00C94C12727EA39E960
:102A30004DEF52E4C701B6010E94E192181614F45A
:102A40000C94C1270C94E5278EEF8D0D823010F089
:102A50000C94C1270E9427420E940C447EEFE72E6F
:102A60007CE0F72EEFEBAE2EEBE0BE2E00E010E0A8
:102A7000D7016D917D918D919D917D01F501219100
:102A80003191419151915F010E94E1969F772EEA29
:102A900037E441EE5CE30E94089987FD3BC086E481
:102AA0000E947741811113C0000F111F000F111FE9
:102AB000F801EE5EFC4F80819181A281B381809309
:102AC0006D0290936E02A0936F02B09370020E9409
:102AD000607F882321F00E94F3430C94C127F2E029
:102AE000DF12F9CFE7E6F3E184918F010F5F1F4F0B
:102AF000882321F00E942B44F801F6CFEDE3F2E0A9
:102B000084918F010F5F1F4F882329F30E942B446C
:102B1000F801F6CF0F5F1F4F0330110509F0A8CF62
:102B2000DACF0E9477800C94C12781E08093100453
:102B30000C94C22785E40E947741B82E811102C00F
:102B40000E94996136E7832E32E0932E4FEBC42E1C
:102B50004BE0D42E52EFE52E5CE0F52E00E010E0C5
:102B6000A12CD4018D914D010E9477418823F1F170
:102B7000F6012081318142815381E8962FAFE89799
:102B8000E9963FAFE997E7964FAFE797E6965FAFD5
:102B9000E6970E94FE41D6016D937D938D939C93A1
:102BA0001397E8962FADE897E9963FADE997E7963A
:102BB0004FADE797E6965FADE69703301105B1F0AC
:102BC0000E94E1969B01AC01F701608171818281D5
:102BD00093810E94E296D7016D937D938D939C9390
:102BE0001397C8010E94A043AA24A3940F5F1F4F0C
:102BF000B4E0CB0ED11CE4E0EE0EF11C0430110564
:102C000009F0AFCFAA2019F00E9496423FC0BB2026
:102C1000E9F1C090CB0BD090CC0BE090CD0BF090B5
:102C2000CE0B2091350630913606409137065091F3
:102C30003806C701B6010E9446930E94139960931B
:102C40004E0C70934F0C8093500C9093510CC0928B
:102C50003E0CD0923F0CE092400CF092410CC70128
:102C6000B6010E9426982FB7F8946093740C709365
:102C7000750C8093760C9093770C2FBF10922E0CCE
:102C800010922F0C1092300C1092310C0E949C7CF0
:102C90000C94C127FCE8EF16F10409F406C408F00F
:102CA0009DC038E6E316F10409F4E6C208F052C00C
:102CB0005DE4E516F10409F4DBC200F59FE1E916D5
:102CC000F10409F47BC160F4B1E1EB16F10409F4FD
:102CD0005FC1E2E1EE16F10409F4D3C50C94C127FB
:102CE000FBE4EF16F10409F4A5C208F0A7C23AE22A
:102CF000E316F10409F458C20C94C12743E5E41625
:102D0000F10409F4B9C578F481E5E816F10409F491
:102D10009DC592E5E916F10411F00C94C1271092BB
:102D20000F040C94C127A5E5EA16F10409F4E0C5E7
:102D300008F4A7C5ECE5EE16F10411F00C94C127D8
:102D400066E7C62E62E0D62E79E2E72E76E0F72E11
:102D500010E0E9C5FFE6EF16F10409F4D5C2D0F49E
:102D60003BE6E316F10409F459C560F459E6E516AB
:102D7000F10409F4B1C38AE6E816F10409F424C5A4
:102D80000C94C1279DE6E916F10409F4C2C308F4C6
:102D900058C39EC2B3E7EB16F10409F448C658F4D1
:102DA000F1E7EF16F10409F454C308F03CC682ECD5
:102DB00092E00E94776B38E7E316F10409F4E7C666
:102DC00049E7E416F10409F4E9C657E7E516F1040A
:102DD00011F00C94C127E3EDF3E037C680E3E81669
:102DE00081E0F80611F40C94FB2008F060C0AEEC12
:102DF000EA16F10411F40C943C1F48F5E9ECEE16C8
:102E0000F10409F41DC760F42EEBE216F10409F495
:102E1000D7C438ECE316F10409F4C6C60C94C127F4
:102E20004CECE416F10409F445C708F0AFC78BEC8D
:102E3000E816F10411F00C94C12792E4E92E9DE00C
:102E4000F92E06E712E024E0D22ED00E23C792EE30
:102E5000E916F10411F40C943020B0F4BCEDEB163B
:102E6000F10411F40C940A20EDEDEE16F10411F4C6
:102E70000C941720F3EDEF16F10411F00C94C12718
:102E8000E1EBF4E10C94841F2EE2E21621E0F2065D
:102E900011F40C94782110F00C94E9214DE2E41621
:102EA00041E0F40611F40C945C200C94C1275CEA18
:102EB000E51651E0F50611F40C942A2598F591E9F0
:102EC000E91691E0F90611F40C94D62490F4B3E6D7
:102ED000EB16B1E0FB0611F40C946427E0E9EE1662
:102EE000E1E0FE0611F00C94C1270E9499610C9458
:102EF000C127FAE9EF16F1E0FF0609F4A6C224EAB9
:102F0000E21621E0F20611F40C94DA2432E9E31619
:102F100031E0F30611F00C94C12780E00E94AA4032
:102F20000C94C12747EFE41641E0F40611F40C9429
:102F30000A26A8F485EFE81681E0F80611F40C944F
:102F4000012610F00C940726A4EFEA16A1E0FA0679
:102F500011F00C94C127E7E6F3E10C94EA25B9E8F7
:102F6000EB16B3E0FB0611F40C944D26E7EEEE16DB
:102F7000E3E0FE0611F40C947D27F3E5EF16F3E091
:102F8000FF0611F00C94C127E1EBF4E10C94162636
:102F90005F9812988A9847989FB7F8948091080193
:102FA0008E7F809308019FBF9FB7F894809108019E
:102FB0008D7F809308019FBF0C94C1278091540C92
:102FC0009091550C019719F40E94D75A08C060914E
:102FD0005E0C70915F0C8091600C9091610C00917F
:102FE0005A0C10915B0C20915C0C30915D0C601BB5
:102FF000710B820B930B28EE33E040E050E00E940F
:10300000A6968091560C9091570CA091580CB091B7
:10301000590CBC01CD01620F731F841F951F2CE357
:10302000C22ED12CE12CF12CA70196010E94A6966C
:10303000762E672ECA01B901A70196010E94A696B5
:103040006B017C01CA01B90128E130E040E050E0A9
:103050000E94A6964B015C01C9016DE671E00E94D9
:10306000C6998E010F5F1F4F6115710599F06F9220
:103070007F92DF92CF929F928F929F938F937F93B5
:103080006F938DE792E09F938F931F930F930E940E
:10309000B29226C0009789F06F927F92DF92CF9212
:1030A0009F928F929F938F938DE692E09F938F9341
:1030B0001F930F930E94B29213C081149104A10434
:1030C000B104B1F06F927F92DF92CF929F928F9274
:1030D00081E692E09F938F931F930F930E94B29289
:1030E0000FB6F894DEBF0FBECDBFE1EBF4E123C015
:1030F000C114D104E104F10469F06F927F92DF9270
:10310000CF9289E592E09F938F931F930F930E9434
:10311000B292E6CF6F927F9285E592E09F938F9374
:103120001F930F930E94B2920F900F900F900F90E9
:103130000F900F90DACF84917F01BFEFEB1AFB0A5B
:10314000882321F00E942B44F701F5CFB80181E9D3
:1031500092E00E9468448AE00E942B4480913906E4
:10316000882311F40C94C127109239066091820CC7
:103170007091830C072E000C880B990B0E94E7922C
:103180002091210230912202409123025091240289
:103190000E940899181614F00C94C1271092830C01
:1031A0001092820C0C94C12783E50E9477418823FA
:1031B00011F40C94C1270E94F1417C018F3F9105CD
:1031C00019F010F00C94C12780E50E947741882304
:1031D00039F00E94F1418C0197FF04C00C94C12783
:1031E0000DE010E0D02EEAE7F2E0C8019927219126
:1031F00031912817390731F022E0E03DF207B9F7A5
:103200000C94452807E613E1F8018491882329F0FE
:103210000F5F1F4F0E942B44F7CF0EE912E0F80119
:103220008491882311F40C94C1270F5F1F4F0E94D3
:103230002B44F5CF0E94CD550C94C1278091540C9E
:103240009091550C019711F00C94C12782E090E009
:103250009093550C8093540C0E94D75A60935E0C47
:1032600070935F0C8093600C9093610C0C94C12759
:103270000E946C550C94C12788E690E00E942C4770
:1032800081110C94C1278091620D83FF02C00C94C0
:10329000C12783E50E9477418823B1F00E94FE4157
:1032A0000E9426987093830C6093820C0E94FE41CA
:1032B00020E030E04AEA52E40E94E192181614F04D
:1032C0000E946C550E94FE410E94ED520C94C12751
:1032D0008EE40E947741882311F40C94C1278091D9
:1032E0000804909109044AE050E060E070E0019623
:1032F0000E940D906093EA0D7093EB0D8093EC0D9E
:103300009093ED0D0C94C12783E50E9477418823AB
:1033100019F00E948A4101C080E08093620DE1EBC8
:10332000F4E184918F010F5F1F4F882321F00E94E9
:103330002B44F801F6CFEBEBF2E084918F010F5FA5
:103340001F4F882321F00E942B44F801F6CF809173
:10335000620D8823A1F10DEAC02E02E0D02EE12CEF
:10336000F12C20E08091620D90E00E2C02C095952A
:1033700087950A94E2F780FF17C0BB24B394B20E7E
:10338000222319F08CE20E942B44F60125913491FE
:10339000F901849189010F5F1F4F882321F00E945A
:1033A0002B449801F5CF2B2DFFEFEF1AFF0A32E0E7
:1033B000C30ED11C45E0E416F104A1F63DC0E7EBD5
:1033C000F2E084918F010F5F1F4F8823A9F10E94C3
:1033D0002B44F801F6CF80E20E942B448AE50E943C
:1033E0007741882311F40C943F260E94FE416B0123
:1033F0007C0120E030E040E252EC0E94089987FF17
:1034000002C00C942E2620E030E040E252E4C701D6
:10341000B6010E94E192181614F40C942E26C09264
:103420005502D0925602E0925702F092580242E0C2
:10343000C701B6010E9464478AE00E942B440C94A5
:10344000C127109218020C94C1270E94777C0C941B
:10345000C12783E50E947741882369F00E948A4151
:10346000809371028D3310F40C94C1278CE3809308
:1034700071020C94C127E1EBF4E184918F010F5F9D
:103480001F4F882321F00E942B44F801F6CF409172
:10349000710250E060E070E08BEC92E00E94F44436
:1034A0008AE00E942B440C94C1278091620D83FF17
:1034B00002C00C94C12783E50E947741882311F450
:1034C0000C94C1270E94FE410E9426987093810CA3
:1034D0006093800C0C94C12789E690E00E942C47F1
:1034E000811111C0E2EDF2E084918F010F5F1F4F57
:1034F000882321F00E942B44F801F6CF0E945B7DC7
:103500008AE00E942B441092EF0D1092EE0D0C9465
:103510006A2A8DE690E00E942C4781110C94C12705
:103520008091620D83FF02C00C94C12783E50E9445
:1035300077418EA7811105C082E50E9477418823DB
:10354000B1F00E94FE410E9426987093830C609314
:10355000820C0E94FE4120E030E04AEA52E40E94E0
:10356000E192181614F40C9462280E946C550E9483
:10357000ED5281E0809318021092EF0D1092EE0D43
:103580001EA21FA218A619A61AA61BA61CA61DA637
:103590001AA21AAA5CE35EAB8CE18AAF96E49EAFF6
:1035A000C12CD12CB0E8EB2E1FEBF12E812C912CED
:1035B00054016091820C7091830C072E000C880BD3
:1035C000990B0E94E792162F072F782E692E262F2F
:1035D000372F482F592FB601C7010E94E192882347
:1035E000D9F020917C0C30917D0C40917E0C509153
:1035F0007F0C612F702F872D962D0E94E192881FDE
:103600008827881F8AA3AEA5AA2351F0882341F0FA
:10361000809118020C94C1271C2D0D2D7E2C6F2C2F
:103620000E94D75A6B017C01DC01CB012AA53BA586
:103630004CA55DA5821B930BA40BB50BB7FD45C034
:10364000D701C60188519C4FAF4FBF4F8AA79BA798
:10365000ACA7BDA70E945B7DE8EDF2E084912F014D
:103660009FEF491A590A882321F00E942B44F20146
:10367000F5CF81149104A104B104D1F0D501C401A6
:10368000805C904EAF4FBF4FBC01CD016C197D09DE
:103690008E099F0928EE33E040E050E00E94A69694
:1036A000CA01B9010E940F458AE00E942B440DC057
:1036B000E5EDF2E084912F01AFEF4A1A5A0A882310
:1036C00021F00E942B44F201F5CF0E94FB820E9460
:1036D000E84320907C0C30907D0C40907E0C509004
:1036E0007F0C9101A201612F702F872D962D0E94D2
:1036F000E1969F7781149104A104B10449F420E07C
:1037000030E040E050E40E94E19287FF0BC008C027
:1037100020E030E040E850E40E940899181614F4C4
:1037200046015701BAA1BB2379F12EA13FA148A5BB
:1037300059A5211531054105510541F0D701C601B3
:10374000821B930BA40BB50BB7FD1EC09101A20108
:103750006AA97EA98AAD9EAD0E94E19620E030E084
:1037600040EC5FE30E94E19287FD52CFD701C60192
:10377000805A9541AF4FBF4F8EA39FA3A8A7B9A76B
:103780002AAA3EAA4AAE5EAE80911802882309F4A6
:103790003FCF81149104A104B10429F4C12ED02E8D
:1037A000E72CF62C06CF90E4C91A9FE1D90AE1086C
:1037B000F108C818D908EA08FB08F7FE29CFEECFB0
:1037C0000E94E37D0C94C12783E50E947741882302
:1037D00021F00E94E4418C0102C00FEF10E080E56F
:1037E0000E947741882341F00E94E4418230910594
:1037F00010F00C94C12702C080E090E0FC01EE0FB5
:10380000FF1FE25AF24F98010F3F110519F010F017
:103810002FEF30E0318320830C94C12780E50E9494
:103820007741882341F00E94E4418230910510F0F5
:103830000C94C12702C080E090E0880F991FFC0122
:10384000E25AF24F118210820C94C1270E94B15C9F
:103850000E9499610E942B8510925F0D10925E0D5F
:103860001092610D1092600D68EE73E080E090E0C0
:103870000E949F5A0C94C12781E080930F040C94FE
:10388000C22783E50E9477418823A1F00E94FE4170
:1038900020E030E04AE754E40E9446930E942B98CF
:1038A0006093720270937302809374029093750216
:1038B0000C94C12788E50E94774181110C946628F9
:1038C00089E50E94774181110C9466288AE50E945F
:1038D000774181110C94662885E40E94774181111B
:1038E0000C9466280E9499610E942B850C94C12734
:1038F00083E50E947741882311F40C94C1270E942C
:10390000FE4120E030E04AE754E40E9446930E94E2
:103910002B986093F40D7093F50D8093F60D9093B2
:10392000F70D0C94C127D6018D916D010E9477414E
:10393000882309F46DC0133009F063C00E94FE4172
:103940004B015C0120E030E040EA51E40E94E1924A
:1039500087FF4EC0A501940160913506709136062F
:1039600080913706909138060E94BE972B013C014A
:103970009B01AC016091320D7091330D8091340D3B
:103980009091350D0E9446936093320D7093330DE4
:103990008093340D9093350DA301920160914E0DEB
:1039A00070914F0D8091500D9091510D0E94469352
:1039B00060934E0D70934F0D8093500D9093510D69
:1039C0006091150670911606809117069091180661
:1039D0000E94E592A30192010E9446930E942B98B7
:1039E0006093150670931606809317069093180639
:1039F0008092350690923606A0923706B09238062D
:103A000007C00E94FE41F701608371838283938324
:103A10001F5FF4E0EF0EF11C143009F084CF0E9418
:103A200083540C94C1270E949C7C0C94C127ECED1C
:103A3000F2E084918F010F5F1F4F882311F40C94E3
:103A4000C1270E942B44F801F4CF84918F010F5FAE
:103A50001F4F882321F00E942B44F801F6CFEBEC96
:103A6000F3E084918F010F5F1F4F882321F00E94A4
:103A70002B44F801F6CF8091030180FD03C002E4DE
:103A800013E002C007E413E0D8018D918D01882373
:103A900019F00E942B44F8CF8AE00E942B44E3ECFB
:103AA000F3E084918F010F5F1F4F882321F00E9464
:103AB0002B44F801F6CF649903C002E413E002C07E
:103AC00007E413E0F80181918F01882319F00E9427
:103AD0002B44F8CF8AE00E942B44EBEBF3E0849177
:103AE0008F010F5F1F4F882321F00E942B44F801A4
:103AF000F6CF8091030181FD03C002E413E002C010
:103B000007E413E0D8018D918D01882319F00E94FC
:103B10002B44F8CF8AE00E942B44E3EBF3E084913E
:103B20008F010F5F1F4F882321F00E942B44F80163
:103B3000F6CF4A9903C002E413E002C007E413E0A1
:103B4000F80181918F01882319F00E942B44F8CF4E
:103B50008AE00E942B44EBEAF3E084918F010F5F2F
:103B60001F4F882321F00E942B44F801F6CF65995E
:103B700003C002E413E002C007E413E0D8018D9112
:103B80008D01882309F458CC0E942B44F7CF81E0A3
:103B90008093380280930E0D0C94C2271092380245
:103BA00010920E0D0C94C12788EC90E00E942C47D7
:103BB00081110C94C12784E40E947741882311F479
:103BC0000C94C1270E94FE4111E020E030E0A901E1
:103BD0000E94E192811101C010E010930F0D11239A
:103BE00059F100910A0410E00E94FE41000F111FDC
:103BF000000F111FF801E75AFD4F60837183828324
:103C0000938320E030E0A9016091590270915A023B
:103C100080915B0290915C020E94E19281110CC044
:103C200080E090E0A0E4B0E48093590290935A02BF
:103C3000A0935B02B0935C020E9446850C94C1275E
:103C400039E1E32E36E0F32E06E712E044E0D42E0D
:103C5000D00EF80181918F010E947741882351F0A5
:103C60000E94FE410E942B98D7016D937D938D9306
:103C70009C931397B4E0EB0EF11CD012EACF0E9494
:103C80001D530C94C127B4E0EB0EF11CD01611F4B7
:103C90000C94C127F80181918F010E9477418823FC
:103CA00091F30E94FE41D7016D937D938D939C9378
:103CB0001397E9CF83E50E9477418823D9F00E94CA
:103CC000FE41AB01BC0140933A0D50933B0D609314
:103CD0003C0D70933D0D4093360D5093370D60931E
:103CE000380D7093390D87E494E00E946C498AE0A6
:103CF0000E942B4480E50E947741882399F00E941E
:103D0000FE41AB01BC0140933A0D50933B0D6093D3
:103D10003C0D70933D0D8AE294E00E946C498AE06C
:103D20000E942B4482E50E947741882399F00E94EB
:103D3000FE41AB01BC0140933E0D50933F0D60939B
:103D4000400D7093410D8BE094E00E946C498AE035
:103D50000E942B4484E50E947741882311F40C943F
:103D6000C1270E94FE41AB01BC014093360D509328
:103D7000370D6093380D7093390D8DEE93E00E94EE
:103D80006C498AE00E942B440C94C12783E50E9471
:103D90007741882351F00E94FE4160935A0D709341
:103DA0005B0D80935C0D90935D0D84E50E947741DF
:103DB000882351F00E94FE416093560D7093570D79
:103DC0008093580D9093590D82E40E947741882387
:103DD00099F080910804909109044AE050E060E075
:103DE00070E001960E9435916093520D7093530DCF
:103DF0008093540D9093550D88E50E947741882358
:103E000051F00E94FE416093260D7093270D809320
:103E1000280D9093290D89E50E947741882351F060
:103E20000E94FE4160932A0D70932B0D80932C0D00
:103E300090932D0D8AE50E947741882351F00E94CE
:103E4000FE4160932E0D70932F0D8093300D909353
:103E5000310D85E40E947741882311F40C94C12729
:103E60000E94FE416093320D7093330D8093340DA8
:103E70009093350D0C94C12716E7A12E12E0B12EB8
:103E80000FEBC02E0BE0D02E83EBE82E8BE0F82E4C
:103E900000E010E0F50181915F010E9477418823E5
:103EA00011F10E94FE412B013C01D7012D913D9162
:103EB0004D915C910E94E1969B01AC01F6016081FD
:103EC0007181828193810E94E296D6016D937D93E8
:103ED0008D939C931397F701408251826282738283
:103EE000C8010E94A0430F5F1F4FF4E0CF0ED11C0A
:103EF00024E0E20EF11C0330110561F60E949642A7
:103F00000E949C7C0C94C12784918F010F5F1F4FEE
:103F1000882321F00E942B44F801F6CFE3E9F4E076
:103F200084918F010F5F1F4F882321F00E942B4443
:103F3000F801F6CFEFE8F4E084918F010F5F1F4F97
:103F4000882321F00E942B44F801F6CFE7E8F4E043
:103F500084918F010F5F1F4F882321F00E942B4413
:103F6000F801F6CF40910C0250910D0260910E02C3
:103F700070910F0285E894E00E946C494091100214
:103F800050911102609112027091130282E894E044
:103F90000E946C49409114025091150260911602E2
:103FA000709117028FE794E00E946C49E7E7F4E014
:103FB00084918F010F5F1F4F882321F00E942B44B3
:103FC000F801F6CF40910002509101026091020287
:103FD0007091030285E794E00E946C4940910402CD
:103FE00050910502609106027091070282E794E009
:103FF0000E946C49409108025091090260910A02A6
:1040000070910B028FE694E00E946C498AE00E9456
:104010002B44B7C783E50E947741882309F4B1C7D1
:104020000E94F14190936C0280936B02AAC78DEDC0
:1040300090E00E942C478111A4C783E50E9477413C
:10404000882309F49EC700910A0410E00E94F14100
:10405000000F111FF801EB59FD4F9183808391C729
:1040600080E50E947741882309F48BC70E94F141C3
:104070008C0183E50E947741882321F00E94F14161
:104080007C0103C0EE24EA94FE2CC701019603973D
:1040900008F077C717FD75C7EAE7F2E0C80199276E
:1040A000219131912817390709F46BC732E0E03DBF
:1040B000F307B1F70C94422A85E40E9477418111FD
:1040C00010C080E50E947741882399F00E94FE414C
:1040D00060933E0270933F028093400290934102AE
:1040E00008C00E94F141181619065CF7E7E6F3E1F3
:1040F00071C089E40E947741882381F00E94FE41CB
:104100002CE933E549E45EE30E94469360933A026A
:1041100070933B0280933C0290933D0284E40E94A2
:104120007741882381F00E94FE412CE933E549E480
:104130005EE30E94BE9760934202709343028093B5
:10414000440290934502E1EBF4E184918F010F5F0B
:104150001F4F882321F00E942B44F801F6CF409195
:104160003E0250913F0260914002709141028BEA01
:1041700094E00E946C492CE933E549E45EE36091E8
:104180003A0270913B0280913C0290913D020E9464
:10419000BE97AB01BC0187EA94E00E9451492CE92B
:1041A00033E549E45EE360914202709143028091FD
:1041B0004402909145020E944693AB01BC0183EA00
:1041C00094E00E9451498AE00E942B44DAC60E9482
:1041D0002B44F80184918F010F5F1F4F8111F7CF9E
:1041E00001E613E0D8018D918D01882309F424C9DB
:1041F0000E942B44F7CF80E50E947741882351F03D
:104200000E94FE4160934E0270934F0280935002D1
:104210009093510289E40E947741882381F00E94A3
:10422000FE412CE933E549E45EE30E944693609346
:104230004A0270934B0280934C0290934D0284E4A7
:104240000E947741882381F00E94FE412CE933E5EA
:1042500049E45EE30E94BE97609346027093470272
:104260008093480290934902E1EBF4E184918F013D
:104270000F5F1F4F882321F00E942B44F801F6CFD7
:1042800040914E0250914F02609150027091510244
:1042900087EB94E00E946C492CE933E549E45EE346
:1042A00060914A0270914B0280914C0290914D02B4
:1042B0000E94BE97AB01BC0183EB94E00E94514980
:1042C0002CE933E549E45EE36091460270914702D0
:1042D00080914802909149020E944693AB01BC0133
:1042E0008FEA94E00E9451498AE00E942B4449C61B
:1042F00083E50E947741082F8823A1F00E94FE41A8
:1043000060935D0270935E0280935F0290936002FF
:1043100011E020E030E0A9010E94E192811110E05B
:104320001093210D80E50E947741182F8823A9F072
:1043300020E030E0A90160915D0270915E02809101
:104340005F02909160020E94E192882319F00E941E
:10435000B941182F1093210D14C6011112C6E1EBBB
:10436000F4E184918F010F5F1F4F882321F00E9499
:104370002B44F801F6CF8091210D811103C061E536
:1043800073E002C064E473E080ED94E00E9468444E
:1043900020E030E040E05FE360915D0270915E02FA
:1043A00080915F02909160020E94E2960E9426989E
:1043B0008FEB94E00E941547EBEBF4E084918F01C2
:1043C0000F5F1F4F882309F4DCC50E942B44F801BE
:1043D000F5CF85E40E947741882321F00E94F141C6
:1043E0001C0102C0212C312C83E40E9477418823D8
:1043F00039F00E94F141E0969FAF8EAFE09706C082
:10440000E5E0F0E0E096FFAFEEAFE09785E50E94D3
:104410007741882331F00E94B941E1968FAFE1974F
:1044200003C0E1961FAEE19783E50E9477418823A0
:1044300039F00E94FE416AAB7EAB8AAF9EAF08C0E6
:104440001AAA1EAA37FC0AC0F6E1FAAF23E42EAF7F
:104450002114310439F410920A0404C03CE83AAF44
:1044600042E44EAF1092EF0D1092EE0D0E94D75A1B
:104470002B013C01C1010196029718F402E713E0F9
:104480000EC005E813E0D8018D918D01882319F045
:104490000E942B44F8CF8AE00E942B4472C5F80199
:1044A00081918F01882319F00E942B44F8CF8AE074
:1044B0000E942B440E94B15C8FE7FFEF2F163F064E
:1044C00019F48093850C02C08093860C81E0809360
:1044D0001802AA964CAE5DAE6EAE7FAEAA97E59678
:1044E0004CAE5DAE6EAE7FAEE5972B961FAE2B97B2
:1044F00020E42F962FAF2F973CE123963FAF2397D1
:1045000046E46B964FAF6B976F961FAE6F97A3966F
:104510001FAEA397A4961FAEA497A5961FAEA5970E
:104520002A961CAE1DAE1EAE1FAE2A976A961CAE12
:104530001DAE1EAE1FAE6A97C12CD12C7601FFE7CF
:104540008F2E912CA12CB12C8FE790E0A0E0B0E051
:104550008AA79BA7ACA7BDA7AE961CAE1DAE1EAE8C
:104560001FAEAE9791E0A6969FAFA69764961FAE3A
:104570001EAE64971AA21EA200E010E080911802FD
:10458000882309F40CC20E94D75A6EA77FA788AB74
:1045900099AB8091840C882309F4D4C00E94766082
:1045A000AFEF2A163A0659F4B091780CBAA3E0910D
:1045B000790CEEA300917A0C10917B0C0AC0F0915B
:1045C0007C0CFAA320917D0C2EA300917E0C1091FF
:1045D0007F0C2AA13EA1A8016F966FAD6F97A3969D
:1045E0007FADA397A4968FADA497A5969FADA597F1
:1045F0000E94E19287FF0EC03AA16F963FAF6F977E
:104600004EA1A3964FAFA397A4960FAFA497A596DC
:104610001FAFA5972AA13EA1A8012B966FAD2B979E
:104620002F967FAD2F9723968FAD23976B969FADD7
:104630006B970E940899181674F45AA12B965FAFD5
:104640002B978EA12F968FAF2F9723960FAF23977F
:104650006B961FAF6B97A6969FADA6972AA93EA90A
:104660004AAD5EAD6AA17EA1802F992309F44FC0A7
:10467000912F0E94089918160CF064C04EA55FA5F2
:1046800068A979A94419550966097709DB01CA01A6
:1046900088589341A109B109B7FD54C08AA59BA5CB
:1046A000ACA5BDA588199909AA09BB09B595A79517
:1046B00097958795EFEF2E163E0619F48093850C9B
:1046C00002C08093860CAE964CAF5DAF6EAF7FAFED
:1046D000AE97FAA96F96FFAF6F972EA9A3962FAF4B
:1046E000A3973AADA4963FAFA4974EADA5964FAF12
:1046F000A5978EA59FA5A8A9B9A9AA968CAF9DAF8D
:10470000AEAFBFAFAA97A6961FAEA6971BC0912FBC
:104710000E94E19287FF16C08EA59FA5A8A9B9A9FE
:10472000AA962CAD3DAD4EAD5FADAA97821B930B03
:10473000A40BB50BAC01BD01485853416109710987
:1047400077FFF6C420E030E040EA51E46AA97EA990
:104750008AAD9EAD0E94E2969B01AC016AA17EA14A
:10476000C8010E94089918166CF4E0EAF5E08491FB
:104770008F010F5F1F4F882309F403C40E942B444D
:10478000F801F5CF80E398EFAFEFBFEFE5962CADE2
:104790003DAD4EAD5FADE597821B930BA40BB50B02
:1047A0002EA53FA548A959A9820F931FA41FB51F85
:1047B000B7FD0FC00E945B7D8AE00E942B448EA54E
:1047C0009FA5A8A9B9A9E5968CAF9DAFAEAFBFAF25
:1047D000E5978EA59FA5A8A9B9A9880F991FAA1F1B
:1047E000BB1FAA962CAD3DAD4EAD5FADAA97821B07
:1047F000930BA40BB50B84199509A609B709813849
:104800009F44A241B10568F0E2E8F5E084918F0190
:104810000F5F1F4F882309F4B4C30E942B44F80193
:10482000F5CF64964EAD5FAD6497E0968EAD9FADCB
:10483000E097841795070CF0A1CEE5E2F5E08491AE
:104840008F010F5F1F4F882321F00E942B44F80136
:10485000F6CF9FEF2916390619F00FEE13E002C0CC
:1048600005E513E0B80183E195E00E946844B701D3
:10487000A6018FE095E00E946C498AE00E942B44DB
:10488000B8018DEF94E00E9468446A964CAD5DAD2E
:104890006EAD7FAD6A9789EF94E00E946C498AE023
:1048A0000E942B44B80187EE94E00E9468442A9647
:1048B0004CAD5DAD6EAD7FAD2A9783EE94E00E9466
:1048C0006C498AE00E942B44E196AFADE197AA23A0
:1048D00009F457C32320209489F5C0924E02D09248
:1048E0004F02E0925002F09251022CE933E549E484
:1048F0005EE36A966CAD7DAD8EAD9FAD6A970E940A
:10490000469360934A0270934B0280934C029093BB
:104910004D022CE933E549E45EE32A966CAD7DADAA
:104920008EAD9FAD2A970E94BE976093460270930A
:104930004702809348029093490223C3C0923E02EB
:10494000D0923F02E0924002F09241022CE933E51E
:1049500049E45EE36A966CAD7DAD8EAD9FAD6A971E
:104960000E94469360933A0270933B0280933C020C
:1049700090933D022CE933E549E45EE32A966CAD61
:104980007DAD8EAD9FAD2A970E94BE976093420287
:10499000709343028093440290934502F2C2809147
:1049A00018028111EEC20E94B15CEBC281E00E944C
:1049B000AA40E7C283E50E947741882331F00E9434
:1049C000B941182F0E94994001C010E0F090200DCD
:1049D000111103C0E1EBF4E11AC0F110FBCFE7E6DF
:1049E000F3E184918F010F5F1F4F882321F00E9414
:1049F0002B44F801F6CFE2E2F6E084918F010F5FDD
:104A00001F4F882339F30E942B44F801F6CF84917D
:104A10008F010F5F1F4F882321F00E942B44F80164
:104A2000F6CFF11003C06DE573E002C069E573E0F5
:104A300084E196E00E9468448AE00E942B4486E567
:104A40000E947741882309F49CC280EB93E00E9486
:104A5000845597C2E3EBFBE0FBA3EAA33FEB232ED5
:104A60003BE0332E22EF3BE03FA32EA300E010E01B
:104A70004EA15FA1425F5B405FA74EA7AEA1BFA161
:104A80008D91BFA3AEA3882309F494C0F801E05030
:104A9000FE4F2081318142815381F801E45FFD4F57
:104AA00060817181828193810E94E29620E030E0F2
:104AB00040E05FE30E9446939B01AC01F1016081FD
:104AC0007181828193810E940899181634F4C8017B
:104AD0008258994E0E949A4303C060E070E0CB0177
:104AE000D1018D909D90AD90BC90F801EC5EF24F9D
:104AF00020813181428153810E94E2969B01AC0169
:104B0000C501B4010E94E1966B017C0120E030E018
:104B100040EA51EC0E94089918169CF520E030E01C
:104B200040EA51E4C701B6010E94E19287FF29C023
:104B3000EAA1FBA14080518062807380A7019601A9
:104B4000C301B2010E94E1966B017C01A3019201B5
:104B50000E94E1969B01AC01C501B4010E94E2965E
:104B6000D1016D937D938D939C931397EAA1FBA143
:104B7000C082D182E282F3828EA59FA50E94A043CB
:104B800019C0E7E6F3E184918F010F5F1F4F88237F
:104B900021F00E942B44F801F6CFE1E4F6E0849185
:104BA0008F010F5F1F4F882309F4EBC10E942B4434
:104BB000F801F5CF2AA13BA12C5F3F4F3BA32AA3CD
:104BC0000C5F1F4F34E0230E311C0C30110509F02F
:104BD0004FCF94C984918F010F5F1F4F882321F01D
:104BE0000E942B44F801F6CFEFE5F6E084918F01A7
:104BF0000F5F1F4F882309F4C4C10E942B44F801A2
:104C0000F5CF0E94B16880E00E942365BAC10E947E
:104C1000B168B7C183E50E947741882321F00E94E3
:104C2000B94191E089270E942365ABC184918F012E
:104C30000F5F1F4F882321F00E942B44F801F6CF0D
:104C4000E3E8F6E084918F010F5F1F4F882311F492
:104C50000C94EB190E942B44F801F4CF68ED7FEF20
:104C60008BE796E00E94154780E20E942B4468E2A1
:104C700070E083E796E00E9415470C941C1A40915F
:104C8000550250915602609157027091580280E788
:104C900096E00E946C490C941C1A0E9499618BE466
:104CA0000E947741882339F00E94FE416AA37BA3CA
:104CB0008CA39DA308C080E090E0A0E8BFEB8AA38E
:104CC0009BA3ACA3BDA384E40E947741882329F071
:104CD0000E94FE412B013C0106C0412C512C20E8D2
:104CE000622E2FEB722E87E50E947741882329F0F0
:104CF0000E94FE416B017C0106C0C12CD12C90E8C2
:104D0000E92E9FEBF92E88E40E947741882329F051
:104D10000E94FE414B015C0106C0812C912C80E871
:104D2000A82E8FEBB82E20E030E0A9016AA17BA16C
:104D30008CA19DA10E94089987FD0CC02AA13BA1CE
:104D40004CA15DA120936102309362024093630203
:104D500050936402E1EBF4E184918F010F5F1F4FE8
:104D6000882321F00E942B44F801F6CF4091610284
:104D700050916202609163027091640283EA96E04E
:104D80000E946C498AE00E942B4420E030E0A90197
:104D9000C301B2010E94089987FF12C020E030E0F1
:104DA000A901C701B6010E94089987FF09C020E048
:104DB00030E0A901C501B4010E94089987FDE1C056
:104DC00020E030E0A901C301B2010E94E1928823F2
:104DD000C9F120E030E0A901C701B6010E94E192CB
:104DE000882381F120E030E0A901C501B4010E94CF
:104DF000E192882339F120E030E040E05FE3C30135
:104E0000B2010E9446932B013C01A5019401C70108
:104E1000B6010E9446936B017C01A3019201C3017C
:104E2000B2010E9446932BED3FE049E450E40E941A
:104E300046939B01AC01C701B6010E94BE976B016E
:104E40007C0103C0C12CD12C7601C092220DD092DE
:104E5000230DE092240DF092250DE1EBF4E1849115
:104E60008F010F5F1F4F882321F00E942B44F80110
:104E7000F6CFE7E9F6E084918F010F5F1F4F88239B
:104E800021F00E942B44F801F6CF20E030E0A90188
:104E9000C701B6010E94E192882349F042E0C701B0
:104EA000B6010E9464478AE00E942B446AC0ECE885
:104EB000F6E084918F010F5F1F4F882309F461C0D2
:104EC0000E942B44F801F5CFE7E6F3E184918F01CE
:104ED0000F5F1F4F882321F00E942B44F801F6CF6B
:104EE000E4EBF6E084918F010F5F1F4F882309F4F4
:104EF00048C00E942B44F801F5CF81E0809339022D
:104F000083E50E947741882309F4B9C20E94B94120
:104F1000811137C0B4C2E0920B04E1EBF4E184915B
:104F20008F010F5F1F4F882321F00E942B44F8014F
:104F3000F6CFB701772783EC96E00E9415478AE009
:104F40000E942B441EC080E01DC02091550230916C
:104F500056024091570250915802C701B6010E9473
:104F6000E29627E137EB41ED58E30E94E29642E0FA
:104F70000E9464478AE00E942B440E94F3430E94EF
:104F80009C7C81E01092EF0D1092EE0D81111AC001
:104F90000C94EF0D84918F010F5F1F4F882321F038
:104FA0000E942B44F801F6CF60919305709194050F
:104FB00085ED96E00E94684482E20E942B448AE0DC
:104FC0000E942B440E94CD8685C283E50E947741D2
:104FD000882309F458C00E94B941482F80E0E79621
:104FE0004FAFE7970E9499400E940C4421E030E0C7
:104FF000E7964FADE797BE016F5F7F4FCE014696B4
:105000000E94D5476B017C01E5E3F2E084918F01BA
:105010000F5F1F4F882321F00E942B44F801F6CF29
:1050200027E137EB41ED58E36E897F89888D998DB3
:105030000E94E29642E00E946447E0E3F2E084913D
:105040008F010F5F1F4F882321F00E942B44F8012E
:10505000F6CF27E137EB41ED58E369817A818B8107
:105060009C810E94E29642E00E946447EBE2F2E0FB
:1050700084918F010F5F1F4F882309F466CF0E9430
:105080002B44F801F5CF41E0A9CF61E08D2D0E94BE
:105090009C596E2D8D2D0E946D59B7018D2D0E944A
:1050A000D8590530110529F4F092610DE092600D98
:1050B00068CF0B30110509F064CFF0925F0DE092DC
:1050C0005E0D5FCF0E94CD550C94B71A0E94996176
:1050D00088E50E947741882321F05F9A129A109206
:1050E000AF0B89E50E947741882321F08A9A479A7D
:1050F0001092B00B8AE50E947741882351F09FB748
:10510000F894809108018160809308019FBF1092FC
:10511000B10B85E40E947741882309F432CF9FB711
:10512000F894809108018260809308019FBF29CF85
:1051300064964EAD5FAD6497141615060CF067C10A
:10514000AE964CAC5DAC6EAC7FACAE97480E591EC3
:105150006A1E7B1EAE962CAD3DAD4EAD5FADAE97DB
:10516000281B390B4A0B5B0BCA01B901A50194013D
:105170000E949796A30192010E94ED998AA49BA494
:10518000ACA4BDA4820E931EA41EB51E34E18316EA
:105190009104A104B1040CF14CEE84169104A10415
:1051A000B1043CF450E885169104A104B1041CF14B
:1051B00005C07BEE872E912CA12CB12C8AA69BA634
:1051C000ACA6BDA68EEF90E0A0E0B0E088199909EA
:1051D000AA09BB094C015D0112C024E130E040E0A6
:1051E00050E02AA73BA74CA75DA764E1862E912C2F
:1051F000A12CB12C04C08AA69BA6ACA6BDA6ECE04F
:10520000F6E084919F012F5F3F4F882381F0E8965D
:105210002FAFE897E9963FAFE9970E942B44E896B5
:105220002FADE897E9963FADE997F901EACF6AA576
:105230007BA58CA59DA50E940F45E7E0F6E0849133
:105240009F012F5F3F4F882381F0E8962FAFE897AB
:10525000E9963FAFE9970E942B44E8962FADE89777
:10526000E9963FADE997F901EACFC501B4010E9483
:105270000F452B964FAD2B972F965FAD2F9723960B
:105280006FAD23976B967FAD6B9780E096E00E94A1
:105290006C496F964FAD6F97A3965FADA397A49699
:1052A0006FADA497A5967FADA59789EF95E00E9475
:1052B0006C4964964EAD5FAD6497433051050CF474
:1052C000A6C0C501B4010E94E79220E030E040E8AA
:1052D00050E40E9446936B017C012B962FAD2B97D7
:1052E0002F963FAD2F9723964FAD23976B965FADCB
:1052F0006B976F966FAD6F97A3967FADA397A496AC
:105300008FADA497A5969FADA5970E94E1962BED32
:105310003FE049E450E40E94469320E030E040E062
:105320005FE30E9446939B01AC01C701B6010E9456
:10533000BE976B017C01C301B2010E94E7922FE688
:1053400032E143E85AE30E9446932B013C01B70146
:10535000A60183EF95E00E946C49B301A2018DEE96
:1053600095E00E946C492AE939E949E15FE3C70108
:10537000B6010E9446936B017C019B01AC010E9427
:10538000E296A30192010E94BE976A966CAF7DAF30
:105390008EAF9FAF6A97A3019201C701B6010E9429
:1053A000469320E030E040E05EE30E9446932A9678
:1053B0006CAF7DAF8EAF9FAF2A97EDEDF5E0849196
:1053C0003F015FEF651A750A882321F00E942B4484
:1053D000F301F5CFB701A60187ED95E00E946C4976
:1053E0006A964CAD5DAD6EAD7FAD6A9781ED95E08F
:1053F0000E946C492A964CAD5DAD6EAD7FAD2A978B
:105400008BEC95E00E946C498AE00E942B448AA5AF
:105410009BA5ACA5BDA5880D991DAA1DBB1DB59565
:10542000A79597958795EFEF2E163E0619F4809372
:10543000850C02C08093860C64962EAD3FAD6497B8
:105440002F5F3F4F64963FAF2EAF64973AA92B96DC
:105450003FAF2B974EA92F964FAF2F975AAD23965C
:105460005FAF23978EAD6B968FAF6B974EA45FA403
:1054700068A879A891E0A6969FAFA69763C90E94F5
:10548000EC867FCD0E949961D02E60E0802F0E9433
:105490009C593FEFE316F30659F4802F0E943756CC
:1054A00031E020E0892B09F030E0032F122F05C0F6
:1054B000EA94EF2861F000E010E08D2D0E9437564D
:1054C0008017910709F45DCD0E94FB82F6CF01E0C1
:1054D00010E0F3CFC858DF4F0FB6F894DEBF0FBE11
:1054E000CDBFDF91CF911F910F91FF90EF90DF9093
:1054F000CF90BF90AF909F908F907F906F905F9074
:105500004F903F902F9008952F923F924F925F922D
:105510006F927F928F929F92AF92BF92CF92DF92C3
:10552000EF92FF920F931F93CF93DF93CDB7DEB728
:10553000C15BD1090FB6F894DEBF0FBECDBF0DB76A
:105540001EB7CB56DF4F19830883C559D0400E9440
:10555000005581110C94663E86E50E9477418823B0
:1055600039F00E94F141AD969FAF8EAFAD9706C066
:1055700021E030E0AD963FAF2EAFAD97AD964EAD8A
:105580005FADAD974530510570F0E6E9F8E08491E4
:105590008F010F5F1F4F882311F40C94663E0E9409
:1055A0002B44F801F4CF84E40E947741EA968FAF50
:1055B000EA9785E40E947741A2968FAFA297AD96B5
:1055C0008EAD9FADAD97892B49F484E50E9477415C
:1055D000C756DF4F8883C959D04029C0EFE7F8E0AC
:1055E00084918F010F5F1F4F882321F00E942B446D
:1055F000F801F6CFEA969FADEA97992361F0E6E6C7
:10560000F8E084918F010F5F1F4F882321F00E94E3
:105610002B44F801F6CFAD96AEADBFADAD97139765
:10562000A4F2B1E0C756DF4FB883C959D04088E52E
:105630000E947741882339F00E94F141AB969FAFD9
:105640008EAFAB9706C0E3E0F0E0AB96FFAFEEAFF6
:10565000AB9789E50E947741882339F00E94F14198
:1056600069969FAF8EAF699706C003E010E0699618
:105670001FAF0EAF699780E50E947741882351F0F4
:105680000E94F141AB969FAF8EAFAB9769969FAFEB
:105690008EAF6997AB962EAD3FADAB9722303105FB
:1056A0001CF4E1E3F8E008C069964EAD5FAD699780
:1056B000423051056CF4F5CF84918F010F5F1F4F7D
:1056C000882311F40C94663E0E942B44F801F4CF19
:1056D00083E50E947741882349F00E94FE4120E043
:1056E00030E040E752E40E94BE9704C06BEA7AEAD9
:1056F00086EA92E46093190270931A0280931B0267
:1057000090931C028CE40E947741882319F00E9438
:10571000FE410EC020E030E040E252E46091140D02
:105720007091150D8091160D9091170D0E94E296C3
:105730000E9426982B0182E50E947741882319F068
:105740000E94FE410EC020E030E048E453E4609146
:10575000140D7091150D8091160D9091170D0E94EA
:10576000E2960E9426988B0186E40E947741882366
:1057700019F00E94FE410EC020E030E048E452E4FF
:105780006091180D7091190D80911A0D90911B0D5B
:105790000E94E2960E9426981B0182E40E947741B3
:1057A000882319F00E94FE410EC020E030E04AE755
:1057B00053E46091180D7091190D80911A0D90911C
:1057C0001B0D0E94E2960E9426983B01B201052C17
:1057D000000C880B990B0E94E792E1966CAF7DAFAD
:1057E0008EAF9FAFE197C090140DD090150DE09053
:1057F000160DF090170D20E030E040E651E4C701AF
:10580000B6010E94E1969B01AC01E1966CAD7DADC5
:105810008EAD9FADE1970E94E19287FD0DC051E0F2
:1058200026965FAF2697C80109974816590644F493
:1058300026961FAE269704C081E026968FAF269746
:10584000B801012E000C880B990B0E94E7924B01C6
:105850005C0120E030E048E453E4C701B6010E9457
:10586000E2969B01AC01C501B4010E94089918168B
:105870004CF091E09DAFC20109968017910724F486
:105880001DAE02C0A1E0ADAFB101032C000C880B2E
:10589000990B0E94E7926B017C018090180D90900B
:1058A000190DA0901A0DB0901B0D20E030E040ECD7
:1058B00051E4C501B4010E94E2969B01AC01C7010D
:1058C000B6010E94E19287FD0DC0B1E02296BFAF04
:1058D0002297C30109972816390644F422961FAE71
:1058E000229704C0E1E02296EFAF2297B301072C84
:1058F000000C880B990B0E94E7922D966CAF7DAF40
:105900008EAF9FAF2D9720E030E041E953E4C50111
:10591000B4010E94E2969B01AC012D966CAD7DAD69
:105920008EAD9FAD2D970E940899BB24B394181695
:1059300034F0C1010996861597050CF4B12C269612
:10594000FFAD2697F11110C02DAD222329F082E280
:1059500098E00E9432440FC022963FAD2297311149
:105960000AC0B11011C01AC08AE298E00E94324405
:105970000DAD0111ECCF22961FAD2297112321F01E
:105980008AE198E00E943244BB2011F40C94663EF8
:1059900083E198E00E9432440C94663E0E94996133
:1059A0002091200DC257DF4F2883CE58D04010924F
:1059B000200DEA963FADEA97311106C084E690E0EB
:1059C0000E9481860E9496420E940C4481E00E94BF
:1059D000AA40882349F0C257DF4F4881CE58D040B3
:1059E0004093200D0C94663E1DAA1EAA1FAA18AE55
:1059F00019AA1AAA1BAA1CAAC80184199509AB9650
:105A00006EAD7FADAB97615071090E94DA99072E98
:105A1000000C880B990B0E94E79265966CAF7DAFE6
:105A20008EAF9FAF6597C3018219930969966EADDA
:105A30007FAD6997615071090E94DA99072E000CB9
:105A4000880B990B0E94E7926D966CAF7DAF8EAF7D
:105A50009FAF6D97AB968EAD9FADAB976996AEAD90
:105A6000BFAD69978A9F10018B9F300C9A9F300CB5
:105A70001124AA0FBB1FC157DF4FB983A883CF588A
:105A8000D040C101880F991FEDB7FEB7E81BF90B95
:105A90000FB6F894FEBF0FBEEDBF0DB71EB70F5F78
:105AA0001F4FCD56DF4F19830883C359D0402CE0D8
:105AB000229DC001239D900D11242DB73EB7281BB8
:105AC000390B0FB6F8943EBF0FBE2DBF4DB75EB772
:105AD0004F5F5F4FE7965FAF4EAFE797C101880F0B
