:100000000C94790C0C94AA0C0C94AA0C0C94AA0CC9
:100010000C94AA0C0C94AA0C0C94AA0C0C94AA0C88
:100020000C94AA0C0C94AA0C0C94AA0C0C94AA0C78
:100030000C94AA0C0C94AA0C0C94AA0C0C94AA0C68
:100040000C94AA0C0C9446420C94AA0C0C94AA0C86
:100050000C94AA0C0C94AA0C0C94156A0C9461676D
:100060000C94AA0C0C94B83B0C94AA0C0C94AA0CFB
:100070000C94AA0C0C94AA0C0C94AA0C0C94AA0C28
:100080000C94AA0C0C94AA0C0C94AA0C0C94AA0C18
:100090000C94AA0C0C94AA0C0C94AA0C0C94AA0C08
:1000A0000C94AA0C0C94AA0C0C94AA0C0C94AA0CF8
:1000B0000C94AA0C0C94AA0C0C94AA0C0C94AA0CE8
:1000C0000C94AA0C0C94AA0C0C94AA0C0C94AA0CD8
:1000D0000C94AA0C0C94AA0C0C94AA0C0C94AA0CC8
:1000E0000C94AA0CB065B365A265A665AC65EA651B
:1000F000B765BB65C165C565C965CF65D365D7659E
:10010000EA65DD65E165E5657D668266876691661F
:100110009B661467A566AD66B566BF66C966D3669D
:10012000E266EC661467F66600670A679B6AA96A6E
:10013000C86AD66AF16AFF6A1A6B1D6B206B236B63
:10014000266B296B336B084AD73B3BCE016E84BCD0
:10015000BFFDC12F3D6C74319ABD56833DDA3D0021
:10016000C77F11BED9E4BB4C3E916BAAAABE00006A
:1001700000803F05A84CCDB2D44EB93836A9020C48
:1001800050B9918688083CA6AAAA2ABE0000008021
:100190003F0664EC1B3C04BC163E3BE5B93CC93C45
:1001A00037C29E5A3D660498083EEA69AAAA3E00F4
:1001B0000000803F4E414E494E495459494E46CD6C
:1001C000CCCC3D0AD7233C17B7D13877CC2B32950E
:1001D00095E6241FB14F0A000020410000C84200EC
:1001E000401C4620BCBE4CCA1B0E5AAEC59D744373
:1001F0004F4D4D554E49434154494F4E004452597D
:1002000052554E004552524F525300494E464F00F0
:100210004543484F0047322F4733206261642070C6
:100220006172616D65746572730A003F28562965B5
:1002300072626F7365204C6576656C206973206906
:100240006D706C61757369626C652028302D34297E
:100250002E0A00205A3A200020593A2000426564B4
:1002600020583A20004661696C656420746F2072E2
:1002700065616368207461726765740A003E2034AA
:100280002D706F696E742061786973207371756168
:1002900072696E670A002569730025696D202569FA
:1002A00073002569682025696D202569730025691B
:1002B00064202569682025696D20256973002569FA
:1002C0007920256964202569682025696D202569C4
:1002D00073005072696E742074696D653A20005025
:1002E000726F7465637465642050696E0A00100251
:1002F0000B020402FD01EF016F66660044454255A2
:10030000473A004B494C4C45442E20004D31313387
:100310002053006F6B003F0A0020573A003F0A004D
:1003200020573A004649524D574152455F4E414D84
:10033000453A4D61726C696E20312E312E302D524E
:100340004342756746697820284769746875622951
:1003500020534F555243455F434F44455F55524CE0
:100360003A68747470733A2F2F6769746875622ED7
:10037000636F6D2F4D61726C696E4669726D776146
:1003800072652F4D61726C696E2050524F544F430D
:100390004F4C5F56455253494F4E3A312E30204D07
:1003A000414348494E455F545950453A33442050E3
:1003B00072696E7465722045585452554445525FB7
:1003C000434F554E543A3220555549443A6365647B
:1003D00065326132662D343161322D343734382D37
:1003E000396231322D6335356336326633363766DE
:1003F000660A007A5F6D61783A20007A5F6D696EF7
:100400003A2000795F6D61783A2000795F6D696EFE
:100410003A2000785F6D61783A2000785F6D696EF0
:100420003A20005265706F7274696E6720656E6461
:1004300073746F70207374617475730A00536574FC
:1004400074696E672054726176656C2041636365E0
:100450006C65726174696F6E3A20005365747469DB
:100460006E67205265747261637420416363656CCA
:1004700065726174696F6E3A200053657474696EB9
:1004800067205072696E7420416363656C657261A8
:1004900074696F6E3A200053657474696E672050FA
:1004A00072696E7420616E642054726176656C208E
:1004B000416363656C65726174696F6E3A200020F8
:1004C000643A0020693A0020703A0020643A002023
:1004D000693A0020703A0043290A0061626C656441
:1004E00020286D696E2074656D702000436F6C6408
:1004F00020657874727564657320617265200042AE
:100500006564204C6576656C696E6720004661699C
:100510006C656420746F20656E61626C6520426555
:1005200064204C6576656C696E670A00546F6F20B5
:100530006661722066726F6D207265666572656EA7
:10054000636520706F696E740A00454550524F4DC7
:100550002064697361626C65640A003A20007A5F06
:100560006D61783A20007A5F6D696E3A20005A20FA
:100570004F666673657400486F74656E64206F66BD
:1005800066736574733A004E6F2063617365206C07
:10059000696768740A00556E6B6E6F776E20636FC3
:1005A0006D6D616E643A202200656E7175657565CA
:1005B000696E672022004E6F204C696E65204E7573
:1005C0006D626572207769746820636865636B7318
:1005D000756D2C204C617374204C696E653A200057
:1005E0004B494C4C45442E20005072696E74657224
:1005F0002073746F707065642064756520746F205B
:100600006572726F72732E20466978207468652057
:100610006572726F7220616E6420757365204D394A
:10062000393920746F20726573746172742E2028BA
:1006300054656D706572617475726520697320729E
:10064000657365742E205365742069742061667427
:1006500065722072657374617274696E67290A002D
:100660004E6F20436865636B73756D20776974689E
:10067000206C696E65206E756D6265722C204C6110
:100680007374204C696E653A2000636865636B7310
:10069000756D206D69736D617463682C204C617396
:1006A00074204C696E653A20004C696E65204E7569
:1006B0006D626572206973206E6F74204C61737473
:1006C000204C696E65204E756D6265722B312C2051
:1006D0004C617374204C696E653A20004D313130A5
:1006E0000020496E76616C69642065787472756467
:1006F0006572200000004843000091439A99F74238
:1007000000001CC20000000000000000205A3A2037
:100710000020593A200042656420583A20002040C9
:10072000002042403A0020403A00202F0020540090
:10073000202F0020423A00202F0020543A00205A57
:100740003A0020593A0020436F756E7420583A00E1
:1007500020453A00205A3A0020593A00583A000001
:100760000020002300260029002C002F003200006A
:10077000010000030106010901050505050705083B
:10078000080808020202020A0A0808040404040114
:100790000101010101010103030303030303030436
:1007A0000707070C0C0C0C0C0C0C0C0202020206C6
:1007B000060606060606060B0B0B0B0B0B0B0B01B6
:1007C0000210202008081020401020408002010262
:1007D000010804020101020408102040808040202A
:1007E0001008040201800402018040201008040265
:1007F00001080402010102040810204080010204E3
:10080000081020408000000A0B02090C0D0E08079A
:1008100003040100000000000000000000000000D0
:1008200000000000000000000000000000000000C8
:100830000012111000000000000000000000000085
:1008400000000000000000000000004B494C4C4537
:10085000442E2000202D20496E76616C696420654D
:1008600078747275646572206E756D626572202190
:100870000A004572726F723A002020506C616E6EF1
:10088000657242756666657242797465733A2000D6
:100890002046726565204D656D6F72793A20004380
:1008A0006F6D70696C65643A20417072202036204B
:1008B000323031370A00207C20417574686F723AFB
:1008C00020286F70656E617373656D626C69657306
:1008D0002E636F6D2C20436F6E66696720666F72A2
:1008E0002046444D3444204D616368696E652C2078
:1008F0004475616C204578747275646572290A00CC
:10090000323031362D31322D30362031323A3030DE
:1009100000204C61737420557064617465643A20E2
:1009200000312E312E302D52434275674669780AC8
:10093000004D61726C696E0020536F66747761724E
:10094000652052657365740A00205761746368649A
:100950006F672052657365740A002042726F776E6C
:10096000206F75742052657365740A002045787491
:1009700065726E616C2052657365740A00506F7702
:10098000657255700A0073746172740A00205A3AD5
:100990000020593A0020583A00656E6473746F70F5
:1009A00073206869743A20002066697273740A00C3
:1009B0005A0059005800486F6D6520006563686FE4
:1009C0003A0024F4D43050C38E20C2A24017828B48
:1009D0007011127A910D816CD90AA861E108C7588B
:1009E0006607615143061E4B5D05C145A7041A41C8
:1009F0001104093D9803713931034036DB02653338
:100A00009102D4305402802E1D02632CEE01752A0F
:100A1000C501B028A001102781018F2564012B2476
:100A20004B01E0223401AC211F018D200D01801FFC
:100A3000FC00841EED00971DDF00B81CD200E61BF1
:100A4000C600201BBC00641AB200B219A8000A1923
:100A5000A0006A189900D117910040178B00B516B5
:100A6000840031167E00B31579003A157300C7145F
:100A70006F0058146A00EE13660088136300251394
:100A80005E00C7125B006C12570015125400C111B2
:100A9000510070114F0021114B00D61049008D10EC
:100AA00047004610440002104200C00F4000800F73
:100AB0003E00420F3C00060F3B00CB0E3800930E69
:100AC00037005C0E3500270E3400F30D3200C10DE7
:100AD0003100900D3000600D2E00320D2D00050DFF
:100AE0002C00D90C2B00AE0C2900850C29005C0CC5
:100AF0002700350C27000E0C2600E80B2400C40B41
:100B00002400A00B23007D0B23005A0B2100390B7E
:100B10002100180B2000F80A1F00D90A1E00BB0A8A
:100B20001E009D0A1D00800A1D00630A1C00470A62
:100B30001B002C0A1B00110A1A00F7091A00DD0914
:100B40001900C4091900AB091900920917007B09A3
:100B50001800630917004C09160036091600200911
:100B600016000A091500F5081500E0081400CC0865
:100B70001400B8081400A4081400900813007D089D
:100B800012006B08130058081200460812003408BF
:100B90001100230811001208110001081100F007CC
:100BA0001000E0071000D0071000C0071000B007C9
:100BB0000F00A107100091070E0083070F007407B4
:100BC0000F0065070E0057070E0049070E003B0790
:100BD0000D002E070E0020070D0013070D0006075D
:100BE0000D00F9060C00ED060D00E0060C00D40621
:100BF0000C00C8060C00BC060C00B0060C00A406D5
:100C00000B0099060C008D060B0082060B00770680
:100C10000B006C060B0061060A0057060B004C0621
:100C20000A0042060A0038060A002E060A002406B8
:100C30000A001A060A001006090007060A00FD0548
:100C40000900F4050900EB050900E2050900D905D2
:100C50000900D0050900C7050900BE050900B50552
:100C60000800AD050800A50509009C0508009405CD
:100C700008008C050800840508007C050800740540
:100C800008006C050700650508005D0507005605AE
:100C900008004E0507004705070040050800380515
:100CA0000700310507002A050700230507001C057A
:100CB0000600160507000F050700080506000205D7
:100CC0000700FB040600F5040700EE040600E80434
:100CD0000600E2040700DB040600D5040600CF048A
:100CE0000600C9040600C3040600BD040600B704DC
:100CF0000600B1040500AC040600A6040600A0042A
:100D000005009B04060095040500900406008A0473
:100D1000050085040500800406007A0405007504BA
:100D20000500700405006B040500660405006104FD
:100D300005005C04050057040500520405004D043D
:100D4000050048040500430405003E0404003A047D
:100D5000050035040500300404002C0405002704B8
:100D60000400230405001E0404001A0404001604F1
:100D70000500110404000D04040009040500040426
:100D8000040000040400FC030400F8030400F4035E
:100D90000400F0030400EC030400E8030400E4038F
:100DA0000400E0030400DC030400D8030400D403BF
:100DB0000400D0030400CC030400C8030300C503EF
:100DC000030024F404D9201BC40C5C0E9804C4094D
:100DD0005F0265077101F405F900FB04B3004804E4
:100DE0008700C10369005803550003034500BE0294
:100DF0003A008402310053022A002902250004022D
:100E00002000E4011C00C8011900AF01170098017F
:100E100014008401130071011000610110005101E0
:100E20000E0043010D0036010B002B010B002001C9
:100E30000B00150109000C01090003010800FB006B
:100E40000800F3000800EB000700E4000600DE00E5
:100E50000600D8000600D2000600CC000500C7003E
:100E60000500C2000500BD000400B9000400B50083
:100E70000400B1000400AD000400A9000400A500B6
:100E80000300A20003009F0004009B0003009800E1
:100E900003009500020093000300900003008D0002
:100EA00002008B000300880002008600020084001C
:100EB0000300810002007F0002007D0002007B0031
:100EC0000200790002007700010076000200740041
:100ED000020072000100710002006F0002006D004C
:100EE00001006C0002006A00010069000200670056
:100EF000010066000100650001006400020062005C
:100F0000010061000100600001005F0002005D005F
:100F100001005C0001005B0001005A000100590063
:100F20000100580001005700010056000100550063
:100F30000100540001005300000053000100520062
:100F4000010051000100500001004F0001004E005F
:100F500000004E0001004D0001004C0001004B005C
:100F600000004B0001004A00010049000100480058
:100F70000000480001004700010046000000460054
:100F8000010045000000450001004400010043004D
:100F90000000430001004200000042000100410047
:100FA000000041000100400001003F0000003F0040
:100FB00001003E0000003E0001003D0000003D0039
:100FC00001003C0000003C0000003C0001003B0030
:100FD00000003B0001003A0000003A000100390027
:100FE000000039000100380000003800000038001F
:100FF0000100370000003700010036000000360015
:10100000000036000100350000003500000035000A
:1010100001003400000034000000340001003300FF
:1010200000003300000033000100320000003200F5
:1010300000003200010031000000310000003100EA
:1010400001003000000030000000300001002F00DF
:1010500000002F0000002F0000002F0001002E00D4
:1010600000002E0000002E0001002D0000002D00C9
:1010700000002D0000002D0001002C0000002C00BD
:1010800000002C0000002C0001002B0000002B00B1
:1010900000002B0000002B0001002A0000002A00A5
:1010A00000002A0000002A00010029000000290099
:1010B000000029000000290000002900010028008C
:1010C0000000280000002800000028000000280080
:1010D0000100270000002700000027000000270073
:1010E0000000270001002600000026000000260066
:1010F0000000260000002600010025000000250059
:10110000000025000000250000002500000025004B
:10111000010024000000240000002400000024003E
:101120000000240001002300000023000000230031
:101130000000230000002300000023000000230023
:101140000100220000002200000022000000220016
:101150000000220000002200010021000000210008
:1011600000002100000021000000210000002100FB
:1011700000002100010020000000200000002000ED
:1011800000002000000020000000200000002000DF
:101190000000200001001F0000001F0000001F00D1
:1011A00000001F0000001F0000001F0000001F00C3
:1011B00001001E0000001E0000001E0000001E00B6
:1011C00000006265640A002C2073797374656D20D9
:1011D00073746F7070656421204865617465725F17
:1011E00049443A200000001CC2000000009A99F710
:1011F000425761726E696E673A20486F6D696E671B
:101200002042756D702044697669736F72203C20AE
:10121000310A000000A0400000A040000000400093
:10122000006F43000091439A99F742FFFF01486124
:101230007264636F6465642044656661756C7420D4
:1012400053657474696E6773204C6F616465640ADA
:101250000020204D383531205A005A2D50726F62CF
:1012600065204F666673657420286D6D293A0A0003
:1012700020204D3230302044300A0020204D3230C2
:101280003020543120440020204D323030204400A2
:101290002044697361626C65640A0046696C616D23
:1012A000656E742073657474696E67733A002044C8
:1012B0000020490020204D333034205000204400CD
:1012C00020490020204D33303120500020440020A0
:1012D000490020500020204D333031204500504936
:1012E000442073657474696E67733A0A0020204D58
:1012F0003432302053004175746F20426564204CB5
:101300006576656C696E673A0A00205A00205900BC
:1013100020580020204D323138205400486F746529
:101320006E64206F66667365747320286D6D290A7C
:1013300000205A0020590020204D3230362058001D
:10134000486F6D65206F666673657420286D6D2922
:101350000A00204500205A00205900205800204251
:101360000020540020204D32303520530041647657
:10137000616E636564207661726961626C65733A5F
:1013800020533D4D696E2066656564726174652009
:10139000286D6D2F73292C20543D4D696E20747279
:1013A0006176656C20666565647261746520286D80
:1013B0006D2F73292C20423D6D696E696D756D200E
:1013C0007365676D656E742074696D6520286D7333
:1013D000292C20583D6D6178696D756D2058592014
:1013E0006A65726B20286D6D2F73292C20205A3D61
:1013F0006D6178696D756D205A206A65726B202861
:101400006D6D2F73292C2020453D6D6178696D75B8
:101410006D2045206A65726B20286D6D2F73290A37
:101420000020540020520020204D32303420500043
:10143000416363656C65726174696F6E733A2050C5
:101440003D7072696E74696E672C20523D726574CE
:101450007261637420616E6420543D7472617665BC
:101460006C0A00204500205A0020590020204D32EF
:1014700030312058004D6178696D756D204163638E
:10148000656C65726174696F6E20286D6D2F7332A3
:10149000293A0A00204500205A0020590020204DFA
:1014A0003230332058004D6178696D756D20666566
:1014B0006564726174657320286D6D2F73293A0A13
:1014C00000204500205A0020590020204D393220AC
:1014D000580053746570732070657220756E69745E
:1014E0003A0A0020746F6F206C6F6E672065787405
:1014F000727573696F6E2070726576656E7465645F
:101500000A0020636F6C6420657874727573696F6C
:101510006E2070726576656E7465640A001000C98D
:101520000210012C014001220170011801B0010ECE
:1015300001F00104015002FA00B002F0003003E6AD
:1015400000D003DC009004D2007005C800A006BEE5
:10155000000008B400B009AA00D00BA000600E96ED
:101560000060118C000015820020197800C01D6EEB
:1015700000A0226400B0275A00902C500000314691
:1015800000E0343C0010383200903A2800603C1EE5
:1015900000A03D1400803E0A00203F00001000C063
:1015A000026003D800B006AF00000A9800500D8911
:1015B00000A0107D00F013730040176A00901A63BA
:1015C00000E01D5B003021550080244E00D02747ED
:1015D00000202B4100702E3A00C031320010352A15
:1015E0000060381F00B03B1100003F000054484528
:1015F000524D414C2052554E415741590054686557
:10160000726D616C2052756E6177617900457272FE
:101610003A204D494E54454D5020424544004572B4
:10162000723A204D494E54454D50004D494E544557
:101630004D50207472696767657265640045727207
:101640003A204D415854454D502042454400457282
:10165000723A204D415854454D50004D4158544523
:101660004D502074726967676572656400000021DF
:1016700000240027002A002D003000330001010063
:1016800000040107010A0100002200250028002BA8
:10169000002E003100340002010000050108010B9A
:1016A00001205A00205900580020204D61783A202E
:1016B00000205A00205900580020204D696E3A2021
:1016C000004F666600536F667420656E6473746FB6
:1016D00070733A2000486F74656E64206F6666739D
:1016E0006574733A004B64200023646566696E6517
:1016F000202044454641554C545F004B692000234F
:10170000646566696E65202044454641554C545FCA
:10171000004B70200023646566696E652020444597
:101720004641554C545F00504944204175746F74D4
:10173000756E652066696E697368656421205075F1
:101740007420746865206C617374204B702C204B7E
:101750006920616E64204B6420636F6E7374616EE8
:1017600074732066726F6D2062656C6F7720696E8E
:10177000746F20436F6E66696775726174696F6E0E
:101780002E680A00504944204175746F74756E6567
:10179000206661696C6564212074696D656F75747C
:1017A0000A00504944204175746F74756E65206657
:1017B00061696C6564212054656D70657261747532
:1017C000726520746F6F20686967680A00204B6437
:1017D0003A2000204B693A2000204B703A20000A42
:1017E00020436C617373696320504944200A0020D0
:1017F00054753A2000204B753A2000206D61783AEC
:101800002000206D696E3A200020643A200020629A
:101810006961733A20004163746976652045787484
:1018200072756465723A20004E6F206D6F76652088
:101830006F6E20746F6F6C6368616E67650A00522B
:101840006573656E643A20006F6B0020746F6F20C3
:101850006C6F6E6720657874727573696F6E207037
:10186000726576656E7465640A0020636F6C64202F
:10187000657874727573696F6E2070726576656EC7
:101880007465640A00627573793A207061757365D6
:101890006420666F7220696E7075740A00627573D9
:1018A000793A2070617573656420666F7220757374
:1018B00065720A00627573793A2070726F6365739E
:1018C00073696E670A004B494C4C45442E2000500A
:1018D00072696E7465722068616C7465642E206B29
:1018E000696C6C28292063616C6C6564210A0000B6
:1018F000AC7D11241FBECFEFD1E2DEBFCDBF00E033
:101900000CBF14E0A0E0B2E0E0E0FBE101E00BBFBF
:1019100002C007900D92A634B107D9F72EE0A6E4D5
:10192000B4E001C01D92A834B207E1F71CE0C9E79A
:10193000DCE000E006C021970109802FFE010E9433
:10194000558DC837D10780E00807A9F70E940B7EA4
:101950000C947E8D0C9400002F923F924F925F92D8
:101960006F927F928F929F92AF92BF92CF92DF92AF
:10197000EF92FF920F931F93CF93DF93CDB7DEB714
:10198000C45BD1090FB6F894DEBF0FBECDBF009186
:101990009D0620E6029F80011124045A1B4F1093DC
:1019A000E1050093E0058091010D80FF18C0ECEB8C
:1019B000F9E084917F013FEFE31AF30A882321F0D5
:1019C0000E940935F701F5CFD8018D918D0188234B
:1019D00019F00E940935F8CF8AE00E94093520915C
:1019E000E0053091E105F90180812F5F3F4F8032A2
:1019F000D1F3F093E105E093E0058E3469F01091A6
:101A0000E0050091E1056AE270E0812F902F0E94CD
:101A1000638D0097D1F420C0818190ED980F9A30AA
:101A200010F08D3261F73296DF0131962C91205300
:101A30002A30D0F3CD01FC01019620812032D9F368
:101A4000F093E105E093E005DACFFC013196829155
:101A5000803231F08A3221F0E12FF02F419102C023
:101A60001082F5CFDF01808131968032D9F3805327
:101A70008A3020F0ECEBF9E00C94792C80E090E0D7
:101A80005AE0589FB001599F700D1124CB01C097A7
:101A90002D91820F911D27FD9A952C9130ED320FDB
:101AA0003A3078F32E32B1F4BD016F5F7F4FF12CE5
:101AB000DB016F5F7F4F5C9120ED250F2A3058F4DA
:101AC0002F2D220F322F330F330F230F2053F22EDF
:101AD000F50EEECFF12C9D01F9012F5F3F4F5081A4
:101AE0005032D1F3F0935B04E0935A0421E030E0EC
:101AF0003093210E2093200E4D3411F40C94451D8B
:101B0000443511F40C942E2C473411F00C94522CC3
:101B10008D31910509F4A3C790F48430910530F418
:101B2000209129028230910570F137C084309105EF
:101B300009F4C6C64C9709F400C70C94702C873280
:101B4000910511F40C947A1A58F48E31910511F420
:101B50000C944F19869711F40C940D1A0C94702C58
:101B60008B35910511F40C94871C8C35910511F47B
:101B70000C948C1C8A35910511F00C94702C1092E9
:101B800059040C94702C222311F40C94702C0E9494
:101B900006310E94FB770C94702C222311F40C94D4
:101BA000702C11E0029709F010E00E94063182E5E6
:101BB0000E944B30882309F476C10E94DD306B010E
:101BC0007C0140906C0650906D0660906E0670909F
:101BD0006F06209170063091710640917206509107
:101BE0007306E5962CAF3DAF4EAF5FAFE5978091A2
:101BF000880C9091890CA0918A0CB0918B0CC358E1
:101C0000DF4F88839983AA83BB83CD57D04020912F
:101C10008C0C30918D0C40918E0C50918F0CED9668
:101C20002CAF3DAF4EAF5FAFED9720E030E0A901A4
:101C3000C701B6010E944086882309F427C6A30184
:101C40009201C358DF4F688179818A819B81CD578A
:101C5000D0400E944086811111C0E5962CAD3DAD6B
:101C60004EAD5FADE597ED966CAD7DAD8EAD9FADA4
:101C7000ED970E944086882309F408C620E030E0F2
:101C8000A901C701B6010E944086881F8827881FC6
:101C900018130DC080E090E0A0E8BFE3C757DF4F06
:101CA00088839983AA83BB83C958D0400CC020E0A5
:101CB00030E040E85FEBC757DF4F288339834A8322
:101CC0005B83C958D040A3019201C358DF4F68819C
:101CD00079818A819B81CD57D0400E94408ACF571D
:101CE000DF4F688379838A839B83C158D040E59610
:101CF0002CAD3DAD4EAD5FADE597ED966CAD7DADD8
:101D00008EAD9FADED970E94408ACB57DF4F688321
:101D100079838A839B83C558D040CF57DF4F288172
:101D200039814A815B81C158D040CA01B9010E9402
:101D3000A5864B015C01CB57DF4F288139814A8151
:101D40005B81C558D040CA01B9010E94A5869B019C
:101D5000AC01C501B4010E94418A0E94AC8CE99695
:101D60006CAF7DAF8EAF9FAFE99720E030E040E0F1
:101D70005FE30E94A5864B015C01A7019601C701A4
:101D8000B6010E94A5866B017C01A5019401C501E5
:101D9000B4010E94A5869B01AC01C701B6010E9457
:101DA000408A0E94AC8C9B01AC01C757DF4F688111
:101DB00079818A819B81C958D0400E94A5864B01B8
:101DC0005C01C358DF4F288139814A815B81CD573F
:101DD000D040C301B2010E94418A20E030E040E0DF
:101DE0005FE30E94A5866B017C01CB57DF4F6881C2
:101DF00079818A819B81C558D0409058E9962CAD55
:101E00003DAD4EAD5FADE9970E941D8B9B01AC01CE
:101E1000C501B4010E94A5869B01AC01C701B601B2
:101E20000E94418AA30192010E94408A6B017C01B9
:101E3000ED962CAD3DAD4EAD5FADED97E5966CAD3D
:101E40007DAD8EAD9FADE5970E94418A20E030E0E8
:101E500040E05FE30E94A5862B013C01E9962CAD92
:101E60003DAD4EAD5FADE997CF57DF4F68817981CA
:101E70008A819B81C158D0400E941D8B9B01AC017F
:101E8000C501B4010E94A5869B01AC01C301B2014A
:101E90000E94418AE5962CAD3DAD4EAD5FADE59714
:101EA0000E94408A14C089E40E944B30882329F0A4
:101EB0000E94DD306B017C0103C0C12CD12C760166
:101EC0008AE40E944B308823F9F00E94DD30E596C9
:101ED0006CAF7DAF8EAF9FAFE59720E030E0A901FA
:101EE000C701B6010E94408681111EC020E030E08B
:101EF000A901E5966CAD7DAD8EAD9FADE5970E94D5
:101F00004086811111C0C2C420E030E0A901C701A0
:101F1000B6010E944086882309F4B8C4E5961CAE39
:101F20001DAE1EAE1FAEE597A7019601C701B60113
:101F30000E94A5864B015C01E5962CAD3DAD4EADF2
:101F40005FADE597CA01B9010E94A5869B01AC016E
:101F5000C501B4010E94418A0E94AC8CC756DF4F74
:101F6000688379838A839B83C959D04080916C06AA
:101F700090916D06A0916E06B0916F06ED968CAFB4
:101F80009DAFAEAFBFAFED97A7019601BC01CD01EC
:101F90000E94418ACF55DF4F688379838A839B8370
:101FA000C15AD0402091700630917106409172065E
:101FB00050917306CF57DF4F288339834A835B8361
:101FC000C158D040E5962CAD3DAD4EAD5FADE59727
:101FD000CF57DF4F688179818A819B81C158D0407A
:101FE0000E94418ACB55DF4F688379838A839B8324
:101FF000C55AD0408091740690917506A0917606DE
:10200000B0917706C757DF4F88839983AA83BB8334
:10201000C958D0409C01AD016091900C7091910C19
:102020008091920C9091930C0E94408AE9966CAF3B
:102030007DAF8EAF9FAFE9972091940C3091950CB6
:102040004091960C5091970CC356DF4F28833983EB
:102050004A835B83CD59D040809178069091790670
:10206000A0917A06B0917B06C357DF4F888399838E
:10207000AA83BB83CD58D040A70196015058C358BE
:10208000DF4F288339834A835B83CD57D040E59661
:102090004CAC5DAC6EAC7FACE59777FA709477F89A
:1020A0007094C090880CD090890CE0908A0CF090CD
:1020B0008B0CCB57DF4FC882D982EA82FB82C5588E
:1020C000D040CF55DF4F288139814A815B81C15A89
:1020D000D040C701B6010E94408A6B017C0120916B
:1020E0008C0C30918D0C40918E0C50918F0CCB56F6
:1020F000DF4F288339834A835B83C559D040CB5552
:10210000DF4F288139814A815B81C55AD040CB5647
:10211000DF4F688179818A819B81C559D0400E94B7
:10212000408A4B015C01A7019601C358DF4F6881CB
:1021300079818A819B81CD57D0400E94A586CF5658
:10214000DF4F688379838A839B83C159D040A5017F
:102150009401C301B2010E94A5869B01AC01CF5638
:10216000DF4F688179818A819B81C159D0400E946B
:10217000418ACF56DF4F688379838A839B83C15915
:10218000D040A5019401C358DF4F688179818A81CD
:102190009B81CD57D0400E94A5864B015C01A701D1
:1021A0009601C301B2010E94A5869B01AC01C50145
:1021B000B4010E94408ACF56DF4F288139814A817D
:1021C0005B81C159D0400E94B48A6B017C0120E040
:1021D00030E0A9010E94408687FF0AC02BED3FE056
:1021E00049EC50E4C701B6010E94418A6B017C01B1
:1021F000112351F02BED3FE049EC50E4C701B6014B
:102200000E94408A6B017C0120E030E0A901C701F7
:10221000B6010E944086811130C0CB57DF4F288124
:1022200039814A815B81C558D040ED966CAD7DAD5A
:102230008EAD9FADED970E94408681111EC0CB569A
:10224000DF4F288139814A815B81C559D040CF5702
:10225000DF4F688179818A819B81C158D0400E947B
:10226000408681110AC02BED3FE049EC50E4C701E4
:10227000B6010E94418A6B017C01C756DF4F28815D
:1022800039814A815B81C959D040C701B6010E949A
:10229000A5869B01AC010E94A5864B015C01E996D5
:1022A0002CAD3DAD4EAD5FADE997CA01B9010E94BD
:1022B000A5869B01AC01C501B4010E94418A0E9420
:1022C000AC8C4B015C012FE632E143E85AE30E94FB
:1022D000408687FDD7C2C501B4010E94B68B0E941B
:1022E0008A8BCB57DF4F79836883C558D040672BE3
:1022F00041F481E090E0CB57DF4F99838883C55844
:10230000D040CB57DF4FA881B981C558D040BD011F
:1023100080E090E00E9444864B015C019B01AC018F
:10232000C701B6010E941D8BED966CAF7DAF8EAFDD
:102330009FAFED97A5019401E9966CAD7DAD8EAD93
:102340009FADE9970E941D8BC755DF4F6883798346
:102350008A839B83C95AD040C357DF4F2881398174
:102360004A815B81CD58D040C356DF4F6881798167
:102370008A819B81CD59D0400E94408AA501940159
:102380000E941D8BC355DF4F688379838A839B83AB
:10239000CD5AD040ED962CAD3DAD4EAD5FADED9735
:1023A000CA01B9010E94A58620E030E040E05FE369
:1023B0000E94A5869B01AC0160E070E080E89FE38D
:1023C0000E94408ACB56DF4F688379838A839B8340
:1023D000C559D040C757DF4FC880D980EA80FB80FD
:1023E000C958D040C986DA86EB86FC86C357DF4FD2
:1023F000C880D980EA80FB80CD58D040CD86DE866B
:10240000EF86F88A6091750270917602072E000CB3
:10241000880B990B0E9446862091770230917802B2
:102420004091790250917A020E94A5862AE037ED08
:1024300043E25CE30E94A586C756DF4F6883798339
:102440008A839B83C959D0400E9455679B01AC0188
:1024500028533F4F4F4F5F4FC356DF4F2883398379
:102460004A835B83CD59D040EE96DFACEE97E6967B
:10247000DFAEE697EF96DFACEF97CF57DF4FD8820E
:10248000C158D040C158DF4F2880CF57D040C058E6
:10249000DF4F3880C058D04021E030E0C357DF4FD5
:1024A00039832883CD58D040C757DF4F1882C95889
:1024B000D040C357DF4F48815981CD58D040CB57CA
:1024C000DF4F88819981C558D0404817590709F4D2
:1024D00093C10E94E83F0E945567DC01CB01C356BF
:1024E000DF4FC880D980EA80FB80CD59D0408C195D
:1024F0009D09AE09BF09B7FD12C00E9455679B0137
:10250000AC0128533F4F4F4F5F4FC356DF4F2883D7
:1025100039834A835B83CD59D0400E94BB7AC75729
:10252000DF4F3881C958D0403F5FC757DF4F3883EE
:10253000C958D04039310CF058C0CB56DF4F2881F4
:1025400039814A815B81C559D040C301B2010E94E3
:10255000A5866B017C01ED962CAD3DAD4EAD5FAD1A
:10256000ED97E6966FADE697CF57DF4F7881C1586C
:10257000D040C1010E94A586A70196010E94418A10
:102580007B018C01CB56DF4F288139814A815B81E9
:10259000C559D040E6966FADE697CF57DF4F7881AB
:1025A000C158D040C1010E94A5864B015C01ED9647
:1025B0002CAD3DAD4EAD5FADED97C301B2010E94B4
:1025C000A5869B01AC01C501B4010E94408AE69634
:1025D0006FAFE697CF57DF4F7883C158D0401C01CB
:1025E000C701D8012C013D016BC0C357DF4F4881A3
:1025F0005981CD58D040BA0180E090E00E944486D5
:10260000ED962CAD3DAD4EAD5FADED970E94A5862C
:102610004B015C010E941A8B6B017C01C501B40166
:102620000E94A28C4B015C01A7019601C358DF4FA9
:10263000688179818A819B81CD57D0400E94A5868F
:102640002B013C01A5019401E5966CAD7DAD8EADED
:102650009FADE5970E94A5869B01AC01C301B20125
:102660000E94418AE6966FAFE697CF57DF4F788397
:10267000C158D0401C01A5019401C358DF4F6881A7
:1026800079818A819B81CD57D0400E94A5864B01DC
:102690005C01A7019601E5966CAD7DAD8EAD9FAD59
:1026A000E5970E94A5869B01AC01C501B4010E947B
:1026B000408A2B013C01C757DF4F1882C958D040D0
:1026C000E6962FADE697CF57DF4F3881C158D040FF
:1026D000A101CF55DF4F688179818A819B81C15AE1
:1026E000D0400E94418A6B017C0169837A838B838D
:1026F0009C83A3019201CB55DF4F688179818A8148
:102700009B81C55AD0400E94418ACF56DF4F6883D3
:1027100079838A839B83C159D0406D837E838F8365
:10272000988729853A854B855C85C755DF4F688139
:1027300079818A819B81C95AD0400E94418A4B018C
:102740005C0169877A878B879C87C355DF4F288117
:1027500039814A815B81CD5AD0406D857E858F85D8
:1027600098890E94418A6D877E878F87988B109108
:10277000980CCDA2DEA2EFA2F8A6CF56DF4FC880FC
:10278000D980EA80FB80C159D040C9A6DAA6EBA661
:10279000FCA68DA69EA6AFA6B8AAAE01435D5F4F6C
:1027A000BE01675D7F4FCE0185960E942E64C12ECB
:1027B000C756DF4FE880F9800A811B81C959D04094
:1027C0009E01235F3F4FAE01435D5F4FBE01675DDA
:1027D0007F4FCE0185960E947855C357DF4F2881E1
:1027E0003981CD58D0402F5F3F4FC357DF4F3983DA
:1027F0002883CD58D0405DCEC090980C8091880C35
:102800009091890CA0918A0CB0918B0C8DA39EA302
:10281000AFA3B8A780918C0C90918D0CA0918E0CD9
:10282000B0918F0C89A79AA7ABA7BCA78091900CF9
:102830009091910CA091920CB091930C8DA79EA7B2
:10284000AFA7B8ABAE01435D5F4FBE01675D7F4F81
:10285000CE0185960E942E64C756DF4FE880F9802E
:102860000A811B81C959D04024E93CE0AE01435D97
:102870005F4FBE01675D7F4FCE0185960E94785500
:102880000E94DC2F0E94C6340C94702CE2E7F8E022
:1028900084918F010F5F1F4F882321F00E9409351B
:1028A000F801F6CFE5E1F2E084918F010F5F1F4F51
:1028B000882311F40C94702C0E940935F801F4CF90
:1028C00080E50E944B30882329F00E94D2306B01B2
:1028D0007C0103C0C12CD12C760183E50E944B30D2
:1028E000882361F00E94DD3020E030E04AE754E4C4
:1028F0000E94A5860E948A8B6B017C010E94AD41DB
:102900000E94C6348091260E9091270EA091280E29
:10291000B091290EC80ED91EEA1EFB1E0E945567F3
:10292000DC01CB018C199D09AE09BF09B7FD02C0BE
:102930000C94702C0E94BB7AF1CF0E94AD4180E0D4
:102940000E94782FD090980C21E040E050E0BA012E
:1029500080E00E94416E1092EF0B0E94EA3481E009
:102960008093230288E50E944B30E82E89E50E947F
:102970004B30082F8AE50E944B30F82EE11005C03D
:10298000011105C011E0182705C0011102C010E0B7
:1029900001C0182F0E94D22F111105C0F11003C0E1
:1029A000E11007C043C082E090E00E94225311234F
:1029B000B9F3FF24F394F092980C80E090E00E9429
:1029C00022532091B70C3091B80C4091B90C509122
:1029D000BA0C60916C0670916D0680916E069091B4
:1029E0006F060E94408A6093710270937202809316
:1029F0007302909374021092980C80E090E00E9411
:102A0000225390E1ECE6F6E0ADE0BEE001900D92DD
:102A10009A95E1F71092220E1092230E1092240E36
:102A20001092250EF0921F0E111102C0002321F00A
:102A300081E090E00E9422530E9475318091990CB0
:102A4000809323020E94D13421E040E050E0BA019B
:102A50008D2D0E94416E0E947F380C94702C0E9434
:102A6000EF3B81110C94702C86E50E944B3088233B
:102A700021F00E94C5301C0103C022242394312C74
:102A800095E02916310470F0EBE2F2E084918F01B9
:102A90000F5F1F4F882311F40C94702C0E9409358E
:102AA000F801F4CF84E40E944B30E2968FAFE297B6
:102AB00085E40E944B30C82E0E94AD41D090C30CDB
:102AC0001092C30CE296EFACE297E11006C084E6E8
:102AD00090E00E94177D0E9475310E94EA3481E0E7
:102AE0000E94892F811122C380E090E0A0E8B0EC21
:102AF00089839A83AB83BC8340E050E060E773E452
:102B00004D835E836F83788719861A861B861C86A1
:102B10008D879E87AF87B88B80E090E0A0EAB1E414
:102B2000898B9A8BAB8BBC8B1D8A1E8A1F8A188E51
:102B300080E090E0A4E3B3E4898F9A8FAB8FBC8FE1
:102B400080E090E0A0ECB0EC8D8F9E8FAF8FB8A3AB
:102B500019A21AA21BA21CA28E010F5F1F4F7E0199
:102B600025E2E20EF11C2091B70C3091B80C409197
:102B7000B90C5091BA0CD8016D917D918D919C91B9
:102B80000E94418AE1966CAF7DAF8EAF9FAFE19717
:102B90002091BB0C3091BC0C4091BD0C5091BE0CEF
:102BA000F80164817581868197810E94418AAD9682
:102BB0006CAF7DAF8EAF9FAFAD9791014C2DBE0135
:102BC00067597F4FCE0183599F4F0E940E3AC358D9
:102BD000DF4F688379838A839B83CD57D040D801A8
:102BE00018966D937D938D939C931B97045F1F4F55
:102BF0000E151F0509F0B7CFE296CFACE297C110D2
:102C000090C2CD84DE84EF84F88849885A886B8826
:102C10007C888D889E88AF88B88CA501940169A1B5
:102C20007AA18BA19CA10E94408AED966CAF7DAFEA
:102C30008EAF9FAFED97A30192016D8D7E8D8F8D2D
:102C400098A10E94408AE9966CAF7DAF8EAF9FAF8E
:102C5000E997A7019601698D7A8D8B8D9C8D0E94D5
:102C6000408ACF57DF4F688379838A839B83C1581B
:102C7000D040A501940169857A858B859C850E9449
:102C8000408A4B015C01A301920160E070E080E7A3
:102C900093E40E94408A2B013C01A701960160E069
:102CA00070E080E890EC0E94408A6B017C01ED9618
:102CB0002CAD3DAD4EAD5FADED97C301B2010E94AD
:102CC000A586CB57DF4F688379838A839B83C5585A
:102CD000D040E9962CAD3DAD4EAD5FADE997C50155
:102CE000B4010E94A5869B01AC01CB57DF4F6881E0
:102CF00079818A819B81C558D0400E94408AA196E3
:102D00006CAF7DAF8EAF9FAFA197CF57DF4F2881BC
:102D100039814A815B81C158D040C501B4010E940C
:102D2000A5864B015C01ED962CAD3DAD4EAD5FAD82
:102D3000ED97C701B6010E94A5869B01AC01C501B4
:102D4000B4010E94408AA5966CAF7DAF8EAF9FAF55
:102D5000A597E9962CAD3DAD4EAD5FADE997C701A6
:102D6000B6010E94A5866B017C01CF57DF4F2881F9
:102D700039814A815B81C158D040C301B2010E94B0
:102D8000A5869B01AC01C701B6010E94408AA996A5
:102D90006CAF7DAF8EAF9FAFA997CE01835A9F4F87
:102DA0000E949068A196CCACDDACEEACFFACA197D4
:102DB000A5964CAC5DAC6EAC7FACA597A9968CACDF
:102DC0009DACAEACBFACA99720E030E0A901C50135
:102DD000B4010E94408687FF0CC0F7FAF094F7F820
:102DE000F09477FA709477F87094B7FAB094B7F8D3
:102DF000B094A196CCAEDDAEEEAEFFAEA197A59697
:102E00004CAE5DAE6EAE7FAEA597A9968CAE9DAE74
:102E1000AEAEBFAEA9976596CCAEDDAEEEAEFFAE60
:102E2000659769964CAE5DAE6EAE7FAE69976D9656
:102E30008CAE9DAEAEAEBFAE6D97CE018F5A9F4F9A
:102E40000E94906880E090E0A0E8BFE329968CAFF4
:102E50009DAFAEAFBFAF29972D961CAE1DAE1EAE77
:102E60001FAE2D97C701B6019058A50194010E948D
:102E70001D8B61966CAF7DAF8EAF9FAF6197CE011A
:102E80008B5B9F4F0E9490686596CCACDDACEEAC3E
:102E9000FFAC6597ED96CCAEDDAEEEAEFFAEED9736
:102EA00069964CAC5DAC6EAC7FAC69976D968CACA2
:102EB0009DACAEACBFAC6D972996CCACDDACEEACA6
:102EC000FFAC2997E996CCAEDDAEEEAEFFAEE9974A
:102ED0002D96CCACDDACEEACFFAC2D97CF57DF4FD1
:102EE000C882D982EA82FB82C158D0406196CCACBC
:102EF000DDACEEACFFAC6197A7019601C301B20156
:102F00000E94A586CB57DF4F688379838A839B8392
:102F1000C558D040CF57DF4F288139814A815B8126
:102F2000C158D040C501B4010E94A5869B01AC01E7
:102F3000CB57DF4F688179818A819B81C558D0400A
:102F40000E94408A6DA37EA38FA398A7E9962CAD1B
:102F50003DAD4EAD5FADE997C501B4010E94A586B8
:102F60004B015C01A7019601ED966CAD7DAD8EAD78
:102F70009FADED970E94A5869B01AC01C501B401F0
:102F80000E94408A69A77AA78BA79CA7CF57DF4FDB
:102F9000288139814A815B81C158D040ED966CAD62
:102FA0007DAD8EAD9FADED970E94A5866B017C0136
:102FB000E9962CAD3DAD4EAD5FADE997C301B201D1
:102FC0000E94A5869B01AC01C701B6010E94408A00
:102FD0006DA77EA78FA798ABCE0185960E949068BB
:102FE00029964CAC5DAC6EAC7FAC29972D968CAC21
:102FF0009DACAEACBFAC2D976196CCACDDACEEAC6D
:10300000FFAC61972DA13EA14FA158A5ED962CAF25
:103010003DAF4EAF5FAFED9789A59AA5ABA5BCA517
:10302000E9968CAF9DAFAEAFBFAFE9972DA53EA59A
:103030004FA558A9CF57DF4F288339834A835B8335
:10304000C158D04065960CAD1DAD2EAD3FAD659716
:1030500069964CAD5DAD6EAD7FAD69976D968CADEB
:103060009DADAEADBFAD6D974092A7065092A8063C
:103070006092A9067092AA068092AB069092AC0666
:10308000A092AD06B092AE06C092AF06D092B00646
:10309000E092B106F092B206ED96CCACDDACEEACAF
:1030A000FFACED97C092B306D092B406E092B5069D
:1030B000F092B606E996CCACDDACEEACFFACE9978D
:1030C000C092B706D092B806E092B906F092BA065E
:1030D000CF57DF4FC880D980EA80FB80C158D040ED
:1030E000C092BB06D092BC06E092BD06F092BE062E
:1030F0000093BF061093C0062093C1063093C2060A
:103100004093C3065093C4066093C5067093C606E9
:103110008093C7069093C806A093C906B093CA06C9
:10312000D12C80E00E94892F882321F0D092C30CFB
:103130000C94702C0E94D134232821F08BE993E069
:103140000E946E3CE296EFACE297E1108EC08CE0FC
:10315000ECE6F6E0DE01959601900D928A95E1F796
:1031600081E08093C30CCE0185960E94CB621092C1
:10317000C30CE1962CAD3DAD4EAD5FADE1976091D6
:103180006C0670916D0680916E0690916F060E949C
:10319000408A4B015C012DEB37E346E855EB0E947A
:1031A000678C18160CF058C02DEB37E346E855E352
:1031B000C501B4010E94408687FF4EC020E030E088
:1031C00048EA51E4AD966CAD7DAD8EAD9FADAD9747
:1031D0000E94418A9B01AC0160917006709171065A
:1031E00080917206909173060E94408A4B015C01A7
:1031F0002DEB37E346E855EB0E94678C181664F513
:103200002DEB37E346E855E3C501B4010E94408643
:1032100087FF22C020914202309143024091440234
:1032200050914502C358DF4F688179818A819B8123
:10323000CD57D0400E94418A9B01AC016091740639
:103240007091750680917606909177060E94408A6B
:103250006DA77EA78FA798AB8CE0FE01B596ACE674
:10326000B6E001900D928A95E1F70E947F3881E0E7
:1032700090E09093210E8093200EE296FFACE297AF
:10328000FF2011F08D2D01C081E08093C30C8823B5
:1032900011F40C94702C0E9475310C94702C88E5FC
:1032A0000E944B30882319F00E94DD300DC020E0D1
:1032B00030E0A90160916C0670916D0680916E06F8
:1032C00090916F060E94418A6DA37EA38FA398A759
:1032D00089E50E944B30882319F00E94DD300EC032
:1032E00020E030E048EA51E4609170067091710688
:1032F00080917206909173060E94408A6B017C0156
:1033000069837A838B839C838090BF0C9090C00CE0
:10331000A090C10CB090C20C2091B70C3091B80CA9
:103320004091B90C5091BA0C6DA17EA18FA198A5C6
:103330000E94408A2B013C012091BB0C3091BC0CB7
:103340004091BD0C5091BE0CE5962CAF3DAF4EAFF9
:103350005FAFE5972AE130E04CE152EC0E94678CC8
:1033600087FF02C00C94702C27E030E048E453E45F
:10337000C301B2010E944086181614F40C94702CFC
:10338000E5962CAD3DAD4EAD5FADE597C701B601FD
:103390000E94408A20E030E048EA51E40E94418ADD
:1033A0006B017C0127E137EB41ED58EB0E94678C04
:1033B00087FF02C00C94702C23E030E041E953E415
:1033C000C701B6010E944086181614F40C94702CA4
:1033D00020E030E0A901C501B4010E94418AA501A5
:1033E00094010E94408A6B017C0127E137EB41ED9B
:1033F00058EB0E94678C87FF02C00C94702C27EA60
:1034000039E947EF52E4C701B6010E944086181619
:1034100014F40C94702C0C94942C8EEF8F0D82303D
:1034200010F00C94702C0E9406310E94EA3438E8A7
:10343000C32E3CE0D32E4CE6A42E46E0B42E00E092
:1034400010E0D6016D917D918D919D916D01F501F9
:1034500021913191419151915F010E94408A9F7762
:103460002EEA37E441EE5CE30E94678C87FD3BC0A7
:1034700086E40E944B30811113C0000F111F000F12
:10348000111FF801E659FC4F80819181A281B3811F
:103490008093770290937802A0937902B0937A0296
:1034A0000E947332882321F00E94D1340C94702C36
:1034B000F2E0FF12F9CFE2E7F8E084918F010F5FAD
:1034C0001F4F882321F00E940935F801F6CFE5E669
:1034D000F2E084918F010F5F1F4F882329F30E9430
:1034E0000935F801F6CF0F5F1F4F0330110509F0C2
:1034F000A8CFDACF0E94EF3B81110C94702CEDE73E
:10350000F2E084918F010F5F1F4F882321F00E940A
:103510000935F801F6CF80E2E0E8F2E0DE019596A9
:1035200001900D928A95E1F79E012F5F3F4F69014F
:103530008E010B5D1F4FE12CF12C812C912C80E230
:10354000A82E81E4B82E96E6492E542C96E3692ED7
:1035500090EC792E8092900C9092910CA092920C0B
:10356000B092930C80E090E0A8E4B3E480937702FB
:1035700090937802A0937902B0937A020E94FB772D
:103580000E94AD4192E0E916F1040CF520E030E034
:1035900040EE50E4D8016D917D918D919C910E94F7
:1035A000408A6093880C7093890C80938A0C909366
:1035B0008B0CF80184819581A681B78180938C0C56
:1035C00090938D0CA0938E0CB0938F0C1FC0F801BC
:1035D00080819181A281B3818093880C9093890C22
:1035E000A0938A0CB0938B0C20E030E040EE50E4C6
:1035F00064817581868197810E94408A60938C0CDA
:1036000070938D0C80938E0C90938F0C0E94FB779F
:103610000E94AD418092770290927802A092790246
:10362000B0927A024092900C5092910C6092920C5F
:103630007092930C0E94FB770E94AD41F2E0EF166E
:10364000F1040CF520E030E040EE50E4D8016D913B
:103650007D918D919C910E94418A6093880C70931A
:10366000890C80938A0C90938B0CF801848195814E
:10367000A681B78180938C0C90938D0CA0938E0CB7
:10368000B0938F0C1FC0F80180819181A281B3811A
:103690008093880C9093890CA0938A0CB0938B0C28
:1036A00020E030E040EE50E46481758186819781AE
:1036B0000E94418A60938C0C70938D0C80938E0CC9
:1036C00090938F0C0E94EA340E94733281110EC0D5
:1036D0000AEB13E0D8018D918D01882319F00E9427
:1036E0000935F8CF8AE00E94093538C00E94D134EC
:1036F00040916C0650916D0660916E0670916F0658
:10370000F6014083518362837383809170069091A8
:103710007106A0917206B091730684839583A68387
:10372000B7834093880C5093890C60938A0C7093F4
:103730008B0C80938C0C90938D0CA0938E0CB0937B
:103740008F0CFFEFEF1AFF0A28E0C20ED11C085FB2
:103750001F4F34E0E316F10409F0FCCE80E090E066
:10376000A0E2B1E48093900C9093910CA093920C02
:10377000B093930C80E090E0A8E4B3E480937702E8
:1037800090937802A0937902B0937A020E94FB771B
:103790000E94AD412D853E854F8558896D817E8182
:1037A0008F8198850E94408A6B017C0129853A852A
:1037B0004B855C8569817A818B819C810E94408ADE
:1037C0009B01AC01C701B6010E941D8B0E94DF8ADC
:1037D0006B017C012D8D3E8D4F8D58A16D897E89A9
:1037E0008F89988D0E94408A4B015C01298D3A8D0A
:1037F0004B8D5C8D69897A898B899C890E94408A6E
:103800009B01AC01C501B4010E941D8B0E94DF8A9F
:103810004B015C0120E030E0A901C701B6010E9424
:10382000408687FF4CC020E030E0A901C501B4010B
:103830000E94408687FF43C020E030E0A901C70115
:10384000B6010E94678C181624F0C701B601905883
:1038500002C0C701B601A50194010E94408A20E080
:1038600030E0A9010E94678C20E030E0A901181621
:103870009CF4C701B6010E94678C181624F0C7019A
:10388000B601905802C0C701B601A50194010E947B
:10389000408A6B017C0126C0C701B6010E94678C7B
:1038A000181624F0C701B601905802C0C701B6012E
:1038B000A50194010E94408A6B017C010FC0A50103
:1038C0009401C701B6010E94408A6B017C0120E08F
:1038D00030E0A9010E94678C181624F0F7FAF094E2
:1038E000F7F8F09481E08093A2062BED3FE049ECDD
:1038F0005FE3C701B6010E94408A6093A3067093FC
:10390000A4068093A5069093A6060C94702C81E0E3
:10391000809359040C94712C85E40E944B30982EAE
:10392000811102C00E94AD41FCE0AF2EF3E0BF2E3A
:10393000ACE6CA2EA6E0DA2EB6E4EB2EB4E0FB2EFF
:1039400000E010E0812CD5018D915D010E944B308B
:10395000882309F44EC0F6012081318142815381D0
:10396000CF54DF4F2883C15BD040CE54DF4F388324
:10397000C25BD040CC54DF4F4883C45BD040CD54B1
:10398000DF4F5883C35BD0400E94DD30D6016D937A
:103990007D938D939C931397CF54DF4F2881C15B08
:1039A000D040CE54DF4F3881C25BD040CC54DF4F83
:1039B0004881C45BD040CD54DF4F5881C35BD040B9
:1039C00003301105B1F00E94408A9B01AC01F70160
:1039D00060817181828193810E94418AD7016D93B8
:1039E0007D938D939C931397C8010E948B338824F9
:1039F00083940F5F1F4FB4E0CB0ED11CE4E0EE0EBA
:103A0000F11C0430110509F09ECF882019F00E94A6
:103A1000753137C09920A9F1C0907806D090790609
:103A2000E0907A06F0907B0620912E0D30912F0DBC
:103A30004091300D5091310DC701B6010E94A5860D
:103A40000E94728C6093EB067093EC068093ED06F7
:103A50009093EE06C701B6010E94858B2FB7F894AC
:103A60006093010C7093020C8093030C9093040CF0
:103A70002FBF1092DB061092DC061092DD0610922A
:103A8000DE060E947F380C94702C8E3B910509F461
:103A900028C608F098C08936910509F442C408F098
:103AA00053C08D34910509F4D2C2C8F48F31910509
:103AB00009F46DC148F48131910509F451C142976F
:103AC00009F4F1C70C94702C8B34910509F4A1C250
:103AD00008F0A3C28A9709F456C20C94702C84355E
:103AE000910509F4E0C708F58235910509F4D4C7BA
:103AF00008F0D5C78135910511F00C94702C0E9407
:103B00005E6C0E94AD410E9466771092FE0C10928E
:103B1000FD0C1092000D1092FF0C68EE73E080E037
:103B200090E00E941D670C94702C8C35910511F467
:103B30000C949D258836910509F48DC28535910533
:103B400011F00C94702CE0C78037910509F49EC3E6
:103B5000B0F48C36910509F495C350F48A3691057A
:103B600009F45CC78B36910509F480C70C94702C5E
:103B70008E36910509F4CDC208F4F0C3E6C287374A
:103B8000910511F40C94332680F48237910511F4D9
:103B90000C94252608F482C38337910511F00C9408
:103BA000702CE4E2F3E00C9428268937910511F497
:103BB0000C94FB2610F40C94F5268C38910509F42E
:103BC00099C30C94702C8033F1E09F0711F40C948E
:103BD000212908F067C0833D910511F40C947B28DE
:103BE000C0F58B3C910511F40C947D27A8F4883C1A
:103BF000910511F40C940027893C910511F00C9467
:103C0000702CB2E1EB2EBDE0FB2E0CE013E084E063
:103C1000D82ED00E0C9465278D3C910511F40C9490
:103C2000042810F40C949A278E3C910511F00C9402
:103C3000702C6CE0A62E63E0B62E7CE6C72E76E0F4
:103C4000D72EE0E6EE2EE6E0FE2E00E010E00C942B
:103C50001328823E910511F40C94842898F48C3D2D
:103C6000910511F40C947E288D3D910511F40C946E
:103C700081288A3D910511F00C94702C0E94EB75FF
:103C80000C94702C8E3231E0930711F40C94982927
:103C900010F00C94052A8D32914011F40C94872871
:103CA0000C94702C8C3AA1E09A0711F40C943D28E6
:103CB00058F58139E1E09E0711F40C94082A78F454
:103CC000833621E0920711F40C94092C803991403D
:103CD00011F00C94702C0E94AD410C94702C8A3918
:103CE00041E0940709F4D6C2843A51E0950711F4F3
:103CF0000C940B2A8239914011F00C94702C80E0C6
:103D00000E94892F0C94702C873FB1E09B0711F41F
:103D10000C94102B90F4853FF1E09F0711F40C9464
:103D2000072B10F00C940D2B843F914011F00C9454
:103D3000702CE2E7F8E00C94F02A833543E0940716
:103D400011F40C941A2B873E53E0950711F40C9450
:103D5000222C8D35924011F00C94702C0C94532B26
:103D60005F9812988A9847989FB7F89480910801B5
:103D70008E7F809308019FBF9FB7F89480910801C0
:103D80008D7F809308019FBF8D980C94702C80913B
:103D9000F1069091F206019719F40E94556708C048
:103DA0006091FB067091FC068091FD069091FE06E5
:103DB0000091F7061091F8062091F9063091FA0665
:103DC000601B710B820B930B28EE33E040E050E058
:103DD0000E94058A8091F3069091F406A091F50661
:103DE000B091F606BC01CD01620F731F841F951FB1
:103DF000ECE3CE2ED12CE12CF12CA70196010E94F0
:103E0000058AB62EA72ECA01B901A70196010E9404
:103E1000058A6B017C01CA01B90128E130E040E06C
:103E200050E00E94058A2B013C01C9016DE671E05A
:103E30000E94258D8E010F5F1F4F6115710599F04E
:103E4000AF92BF92DF92CF925F924F929F938F93E8
:103E50007F936F938EEB92E09F938F931F930F93BB
:103E60000E94118626C0009789F0AF92BF92DF9220
:103E7000CF925F924F929F938F938EEA92E09F939F
:103E80008F931F930F930E94118613C04114510406
:103E900061047104B1F0AF92BF92DF92CF925F9252
:103EA0004F9282EA92E09F938F931F930F930E9409
:103EB00011860FB6F894DEBF0FBECDBFECEBF9E074
:103EC00023C0C114D104E104F10469F0AF92BF92A0
:103ED000DF92CF928AE992E09F938F931F930F9383
:103EE0000E941186E6CFAF92BF9286E992E09F933F
:103EF0008F931F930F930E9411860F900F900F9036
:103F00000F900F900F90DACF84917F019FEFE91A05
:103F1000F90A882321F00E940935F701F5CFB8018D
:103F200082ED92E00E9410358AE00E94093580916E
:103F3000320D882311F40C94702C1092320D809164
:103F4000980C90E0880F991F8C01055B124FD801E7
:103F50006D917C91072E000C880B990B0E94468670
:103F60002091620230916302409164025091650297
:103F70000E94678C181614F00C94702CF8011182B2
:103F800010820C94702C83E50E944B30882311F42E
:103F90000C94702C0E94C5307C018F3F910519F064
:103FA00010F00C94702C80E50E944B30882339F07F
:103FB0000E94C5308C0197FF04C00C94702C0DE05A
:103FC00010E0D02EE0EAF2E0C8019927219131916A
:103FD0002817390731F023E0EC30F207B9F70C94D9
:103FE000F52C02E718E0F8018491882329F00F5F8F
:103FF0001F4F0E940935F7CF0FED12E0F8018491B1
:10400000882311F40C94702C0F5F1F4F0E94093508
:10401000F5CF0E94B13C0C94702C8091F1069091E8
:10402000F206019711F00C94702C82E090E09093CE
:10403000F2068093F1060E9455676093FB06709329
:10404000FC068093FD069093FE060C94702C0E9453
:10405000553C0C94702C88E690E00E94D637811174
:104060000C94702C8091010D83FF02C00C94702C75
:1040700083E50E944B30882309F447C01091540413
:104080000E94DD30212F30E0220F331F8901055BB4
:10409000124F0E94858BD8016D937C9380911D0EE9
:1040A00090911E0E029719F58091540481111FC042
:1040B0000E94DD3020E030E0A9010E944086882384
:1040C00069F00E94DD302091DC053091DD054091E2
:1040D000DE055091DF050E94418A03C060E070E078
:1040E000CB010E94858B70934E0D60934D0D0E9405
:1040F000DD3020E030E04AEA52E40E9440861816A3
:1041000014F00E94553C0E94DD300E941B540C9418
:10411000702C8EE40E944B30882311F40C94702C88
:1041200080915204909153044AE050E060E070E0C6
:1041300001960E946C836093090E70930A0E80931F
:104140000B0E90930C0E0C94702C83E50E944B3058
:10415000882319F00E945E3001C080E08093010D39
:10416000ECEBF9E084918F010F5F1F4F882321F062
:104170000E940935F801F6CFECEFF2E084918F014F
:104180000F5F1F4F882321F00E940935F801F6CFF9
:104190008091010D8823A1F10EEEC02E02E0D02EF9
:1041A000E12CF12C20E08091010D90E00E2C02C05A
:1041B000959587950A94E2F780FF17C0BB24B394C6
:1041C000B20E222319F08CE20E940935F6012591E6
:1041D0003491F901849189010F5F1F4F882321F0E9
:1041E0000E9409359801F5CF2B2DFFEFEF1AFF0A3A
:1041F00032E0C30ED11C45E0E416F104A1F63DC047
:10420000E8EFF2E084918F010F5F1F4F8823A9F13F
:104210000E940935F801F6CF80E20E9409358AE54F
:104220000E944B30882311F40C94452B0E94DD3002
:104230006B017C0120E030E040E252EC0E94678C90
:1042400087FF02C00C94342B20E030E040E252E4BF
:10425000C701B6010E944086181614F40C94342B42
:10426000C0924202D0924302E0924402F092450290
:1042700042E0C701B6010E940E388AE00E9409356B
:104280000C94702C109218020C94702C83E093E024
:104290000E9482770E941F710C94702C83E50E940B
:1042A0004B30882369F00E945E3080937B028D330F
:1042B00010F40C94702C8CE380937B020C94702C83
:1042C000ECEBF9E084918F010F5F1F4F882321F001
:1042D0000E940935F801F6CF40917B0250E060E082
:1042E00070E08CE093E00E949C358AE00E940935E2
:1042F0000C94702C8091010D83FF02C00C94702CE3
:1043000083E50E944B30882311F40C94702C0E949A
:10431000DD300E94858B70934A0D6093490D0C949B
:10432000702C89E690E00E94D637811111C0E3E13C
:10433000F3E084918F010F5F1F4F882321F00E94CB
:104340000935F801F6CF0E942F398AE00E9409351D
:104350001092210E1092200E0C94672D8DE690E0A5
:104360000E94D63781110C94702C8091010D83FF2F
:1043700002C00C94702C83E50E944B30EA968FAFFC
:10438000EA97811105C082E50E944B30882351F1E4
:10439000109154040E94DD30212F30E0220F331F92
:1043A0008901055B124F0E94858BD8016D937C9328
:1043B00080911D0E90911E0E029731F4809154044D
:1043C000882311F40C94122D0E94DD3020E030E09F
:1043D0004AEA52E40E944086181614F40C94312DD7
:1043E0000E94553C0E941B5481E080931802109259
:1043F000210E1092200EC358DF4F188219821A82A4
:104400001B82CD57D040E9961CAE1DAE1EAE1FAE2E
:10441000E997E2961FAEE297CF57DF4F1882C15857
:10442000D0405CE3CB57DF4F5883C558D0408CE178
:10443000C757DF4F8883C958D04096E4C357DF4F32
:104440009883CD58D040C12CD12CB0E8EB2E1FEB77
:10445000F12E812C912C54010091540410E0F801AC
:10446000EE0FFF1FE55BF24F60817181072E000C9C
:10447000880B990B0E944686762E672E582E492E61
:10448000262F372F482F592FB601C7010E9440868B
:10449000882311F1000F111F000F111FF801EF5BAE
:1044A000F24F2081318142815381672D762D852DF8
:1044B000942D0E944086881F8827881FE2968FAF20
:1044C000E297EA96CFACEA97CC2051F0882341F0EE
:1044D000809118020C94702C7C2C6D2C5E2C4F2C2F
:1044E0000E9455676B017C01DC01CB01E9962CAD84
:1044F0003DAD4EAD5FADE997821B930BA40BB50BA1
:10450000B7FD45C0D701C60188519C4FAF4FBF4F83
:10451000E9968CAF9DAFAEAFBFAFE9970E942F3940
:10452000E9E1F3E084918F010F5F1F4F882321F0B1
:104530000E940935F801F6CF81149104A104B10459
:10454000D1F0D501C401805C904EAF4FBF4FBC018C
:10455000CD016C197D098E099F0928EE33E040E0FA
:1045600050E00E94058ACA01B9010E94B7358AE06D
:104570000E9409350CC0E6E1F3E084918F010F5FE2
:104580001F4F882321F00E940935F801F6CF0E94C1
:10459000BB7A0E94C634E091540494E0E99FF00194
:1045A0001124EF5BF24F2080318002811381910151
:1045B000A801672D762D852D942D0E94408A9F7726
:1045C00081149104A104B10449F420E030E040E0FA
:1045D00050E40E94408687FF0BC008C020E030E016
:1045E00040E850E40E94678C181614F44601570105
:1045F000E296AFADE297AA2309F457C0C358DF4F44
:10460000288139814A815B81CD57D0402115310500
:104610004105510541F0D701C601821B930BA40B44
:10462000B50BB7FD42C09101A801CF57DF4F68819C
:10463000C158D040CB57DF4F7881C558D040C757BD
:10464000DF4F8881C958D040C357DF4F9881CD587C
:10465000D0400E94408A20E030E040EC5FE30E94BE
:10466000408687FD35CFD701C601805A9541AF4FAF
:10467000BF4FC358DF4F88839983AA83BB83CD572D
:10468000D040CF57DF4F2882C158D040CB57DF4FA3
:104690003882C558D040C757DF4F0883C958D0402B
:1046A000C357DF4F1883CD58D0408091180288231C
:1046B00009F40ECF81149104A104B10429F4C72C8C
:1046C000D62CE52CF42CC8CE90E4C91A9FE1D90A67
:1046D000E108F108C818D908EA08FB08F7FEF8CE87
:1046E000EECF8091010D83FF02C00C94702C83E506
:1046F0000E944B30EA968FAFEA97811105C082E5A0
:104700000E944B308823A1F00E94DD300E94858BEF
:1047100070934A0D6093490D0E94DD3020E030E037
:1047200040EA50E40E94678C181614F40E94B13CD1
:1047300081E0809318021092210E1092200E809139
:10474000980C80935404C358DF4F188219821A8240
:104750001B82CD57D040E9961CAE1DAE1EAE1FAEDB
:10476000E997E2961FAEE297CF57DF4F1882C15804
:10477000D040ACE3CB57DF4FA883C558D040BCE155
:10478000C757DF4FB883C958D040E6E4C357DF4F5F
:10479000E883CD58D040C12CD12C70E8E72EEFEB48
:1047A000FE2E812C912C54016091490D70914A0D7F
:1047B000072E000C880B990B0E944686162F072F98
:1047C000782E692E262F372F482F592FB601C70173
:1047D0000E9440868823F9F020913D0D30913E0DD6
:1047E00040913F0D5091400D612F702F872D962DD8
:1047F0000E944086881F8827881FE2968FAFE29725
:10480000EA96CFACEA97CC2051F0882341F0809112
:1048100018020C94702C1C2D0D2D7E2C6F2C0E94D8
:1048200055676B017C01DC01CB01E9962CAD3DADF8
:104830004EAD5FADE997821B930BA40BB50BB7FD93
:1048400047C0D701C60188519C4FAF4FBF4FE99673
:104850008CAF9DAFAEAFBFAFE9970E942F39E0E2BA
:10486000F3E084912F019FEF491A590A882321F020
:104870000E940935F201F5CF81149104A104B1041D
:10488000D1F0D501C401805C904EAF4FBF4FBC0149
:10489000CD016C197D098E099F0928EE33E040E0B7
:1048A00050E00E94058ACA01B9010E94B7358AE02A
:1048B0000E9409350DC0EDE1F3E084912F01AFEFC7
:1048C0004A1A5A0A882321F00E940935F201F5CFCD
:1048D0000E94BB7A0E94C63420903D0D30903E0D60
:1048E00040903F0D5090400D9101A201612F702F1B
:1048F000872D962D0E94408A9F7781149104A104F0
:10490000B10449F420E030E040E050E40E944086E9
:1049100087FF0BC008C020E030E040E850E40E9470
:10492000678C181614F446015701E296BFADE29762
:10493000BB2309F457C0C358DF4F288139814A810E
:104940005B81CD57D040211531054105510541F01E
:10495000D701C601821B930BA40BB50BB7FD42C058
:104960009101A201CF57DF4F6881C158D040CB578A
:10497000DF4F7881C558D040C757DF4F8881C9586D
:10498000D040C357DF4F9881CD58D0400E94408A15
:1049900020E030E040EC5FE30E94408687FD37CFA7
:1049A000D701C601805A9541AF4FBF4FC358DF4F63
:1049B00088839983AA83BB83CD57D040CF57DF4FDD
:1049C0002882C158D040CB57DF4F3882C558D040DD
:1049D000C757DF4F4882C958D040C357DF4F58826E
:1049E000CD58D04080911802882309F410CF81144B
:1049F0009104A104B10429F4C12ED02EE72CF62C89
:104A0000D3CE90E4C91A9FE1D90AE108F108C81889
:104A1000D908EA08FB08F7FEFACEEECF83E50E943C
:104A20004B30882321F00E94B8308C0102C00FEF78
:104A300010E080E50E944B30882339F00E94B830A6
:104A40008230910508F04CC702C080E090E0FC0184
:104A5000EE0FFF1FE350F34F98010F3F110519F0C0
:104A600010F02FEF30E0318320833AC780E50E94B9
:104A70004B30882339F00E94B8308230910508F01D
:104A80002FC702C080E090E0880F991FFC01E3501F
:104A9000F34F1182108224C71092580421C781E07D
:104AA000809358041EC783E50E944B30882399F0F9
:104AB0000E94DD3020E030E04AE754E40E94A58601
:104AC0000E948A8B60937C0270937D0280937E02A9
:104AD00090937F0205C788E50E944B308111C5C7BE
:104AE00089E50E944B308111C0C78AE50E944B3096
:104AF0008111BBC785E40E944B308111B6C70E946B
:104B0000AD410E946677ECC683E50E944B30882356
:104B100009F4E6C60E94DD3020E030E04AE754E4C4
:104B20000E94A5860E948A8B60932A0E70932B0E9A
:104B300080932C0E90932D0ED3C63CE0C32E33E011
:104B4000D32E42E2E42E4DE0F42E10E0D6018D91FA
:104B50006D010E944B30882309F46DC0133009F0B9
:104B600063C00E94DD304B015C0120E030E040EA90
:104B700051E40E94408687FF4EC0A50194016091D8
:104B80002E0D70912F0D8091300D9091310D0E945E
:104B90001D8B2B013C019B01AC016091D10C7091EC
:104BA000D20C8091D30C9091D40C0E94A586609376
:104BB000D10C7093D20C8093D30C9093D40CA3019E
:104BC00092016091ED0C7091EE0C8091EF0C909140
:104BD000F00C0E94A5866093ED0C7093EE0C809310
:104BE000EF0C9093F00C60910E0D70910F0D809171
:104BF000100D9091110D0E944486A30192010E9414
:104C0000A5860E948A8B60930E0D70930F0D809382
:104C1000100D9093110D80922E0D90922F0DA09259
:104C2000300DB092310D07C00E94DD30F701608376
:104C30007183828393831F5FF4E0EF0EF11C1430C5
:104C400009F084CF0E94FE644BC60E947F3848C69C
:104C500084918F010F5F1F4F882309F441C60E9482
:104C60000935F801F5CFE3E2F4E084918F010F5F9D
:104C70001F4F882321F00E940935F801F6CFEBE1A0
:104C8000F4E084918F010F5F1F4F882321F00E9471
:104C90000935F801F6CF8091030180FD03C000E8DB
:104CA00013E002C005E813E0D8018D918D0188233F
:104CB00019F00E940935F8CF8AE00E940935E3E136
:104CC000F4E084918F010F5F1F4F882321F00E9431
:104CD0000935F801F6CF4B9903C000E813E002C094
:104CE00005E813E0F80181918F01882319F00E94F3
:104CF0000935F8CF8AE00E940935EBE0F4E08491B1
:104D00008F010F5F1F4F882321F00E940935F801A2
:104D1000F6CF649903C000E813E002C005E813E091
:104D2000D8018D918D01882319F00E940935F8CFA3
:104D30008AE00E940935E3E0F4E084918F010F5F7F
:104D40001F4F882321F00E940935F801F6CF80918A
:104D5000030181FD03C000E813E002C005E813E091
:104D6000F80181918F01882319F00E940935F8CF4D
:104D70008AE00E940935EBEFF3E084918F010F5F29
:104D80001F4F882321F00E940935F801F6CF4A9978
:104D900003C000E813E002C005E813E0D8018D91DC
:104DA0008D01882319F00E940935F8CF8AE00E940E
:104DB0000935E3EFF3E084918F010F5F1F4F8823E4
:104DC00021F00E940935F801F6CF659903C000E88B
:104DD00013E002C005E813E0F80181918F018823F8
:104DE00009F44BCA0E940935F7CF81E08093230272
:104DF0008093990C76C5109223021092990C70C57D
:104E000088EC90E00E94D63781116AC584E40E9444
:104E10004B30882309F464C50E94DD3011E020E0A6
:104E200030E0A9010E944086811101C010E010937A
:104E30009A0C112309F446C00091540410E00E941A
:104E4000DD30000F111F000F111FF801EA5BFD4F4D
:104E5000608371838283938320E030E0A9016091B5
:104E600046027091470280914802909149020E9447
:104E7000408681110CC080E090E0A0E4B0E4809313
:104E8000460290934702A0934802B093490220E063
:104E900030E0A90160914A0270914B0280914C026E
:104EA00090914D020E94408681110CC080E090E0FC
:104EB000A0E4B0E480934A0290934B02A0934C028A
:104EC000B0934D020E94A4770BC5D8018D918D013E
:104ED0000E944B30882349F00E94DD300E948A8B6B
:104EE000F7016083718382839383F4E0EF0EF11CFA
:104EF000D012EBCF0E944B54F3C4F1EEEF2EFCE046
:104F0000FF2E0CE013E0A4E0DA2ED00ED8018D9134
:104F10008D010E944B30882339F00E94DD30F7016B
:104F20006083718382839383F4E0EF0EF11CD012CF
:104F3000EDCFD6C483E50E944B308823D9F00E9480
:104F4000DD30AB01BC014093D90C5093DA0C609377
:104F5000DB0C7093DC0C4093D50C5093D60C609313
:104F6000D70C7093D80C87E994E00E949D3B8AE0AF
:104F70000E94093580E50E944B30882399F00E94F9
:104F8000DD30AB01BC014093D90C5093DA0C609337
:104F9000DB0C7093DC0C8AE794E00E949D3B8AE076
:104FA0000E94093582E50E944B30882399F00E94C7
:104FB000DD30AB01BC014093DD0C5093DE0C6093FF
:104FC000DF0C7093E00C8BE594E00E949D3B8AE03F
:104FD0000E94093584E50E944B30882309F480C47F
:104FE0000E94DD30AB01BC014093D50C5093D60C30
:104FF0006093D70C7093D80C8DE394E00E949D3B96
:105000008AE00E9409356CC40E94FC7669C40F5F77
:105010001F4FB4E0CB0ED11CE4E0EE0EF11C0330C8
:10502000110509F463C0D5018D915D010E944B30DB
:10503000882369F30E94DD302B013C01F7012081B8
:105040003181428153810E94408A9B01AC01D6018B
:105050006D917D918D919C910E94418AF6016083B2
:10506000718382839383D7014D925D926D927C927E
:105070001397C8010E948B33CACFE0E6F6E0E396AF
:10508000FFAFEEAFE3975CE6252E56E0352E2FE915
:1050900036E0EF963FAF2EAFEF9700E010E0EF96CF
:1050A0004EAD5FADEF974F595640EB965FAF4EAFA9
:1050B000EB97EF96AEADBFADEF978D91EF96BFAF8B
:1050C000AEAFEF978111F3C1E3962EAD3FADE397FD
:1050D0002C5F3F4FE3963FAF2EAFE3970C5F1F4F20
:1050E00034E0230E311C0C301105C9F60E947531D5
:1050F0000E947F38F5C30E947676F2C30E94DF7566
:10510000EFC30E94C475ECC30E946C75E9C385E4CB
:10511000C2D781110FC080E5BED7882391F00E94CD
:10512000DD3060932E0270932F02809330029093B3
:10513000310207C00E94C53002976CF3E2E7F8E045
:105140006FC089E4A8D7882381F00E94DD302CE964
:1051500033E549E45EE30E94A58660932A027093DA
:105160002B0280932C0290932D0284E494D7882301
:1051700081F00E94DD302CE933E549E45EE30E94D2
:105180001D8B6093320270933302809334029093AC
:105190003502ECEBF9E084918F010F5F1F4F8823FC
:1051A00021F00E940935F801F6CF40912E0250916E
:1051B0002F02609130027091310287EC94E00E94DE
:1051C0009D3B2CE933E549E45EE360912A0270914E
:1051D0002B0280912C0290912D020E941D8BAB011D
:1051E000BC0183EC94E00E94823B2CE933E549E466
:1051F0005EE36091320270913302809134029091AB
:1052000035020E94A586AB01BC018FEB94E00E94A1
:10521000823B8AE00E94093563C30E940935F80188
:1052200084918F010F5F1F4F8111F7CF01ED13E0C4
:10523000D8018D918D01882309F41FC80E9409357A
:10524000F7CF80E528D7882349F0B7D760933E028F
:1052500070933F02809340029093410289E41BD7F0
:10526000882379F0AAD72CE933E549E45EE30E946C
:10527000A58660933A0270933B0280933C02909320
:105280003D0284E408D7882379F097D72CE933E5E9
:1052900049E45EE30E941D8B6093360270933702EF
:1052A0008093380290933902ECEBF9E084918F01FE
:1052B0000F5F1F4F882321F00E940935F801F6CFB8
:1052C00040913E0250913F02609140027091410234
:1052D00083ED94E00E949D3B2CE933E549E45EE3D5
:1052E00060913A0270913B0280913C0290913D02A4
:1052F0000E941D8BAB01BC018FEC94E00E94823BAD
:105300002CE933E549E45EE360913602709137029F
:1053100080913802909139020E94A586AB01BC01B0
:105320008BEC94E00E94823B8AE00E940935D8C24F
:1053300083E5B1D6082F882399F03FD760934E02BA
:1053400070934F02809350029093510211E020E03D
:1053500030E0A9010E944086811110E01093C40C36
:1053600080E599D6182F8823A1F020E030E0A9012C
:1053700060914E0270914F028091500290915102C3
:105380000E944086882311F0C8D6182F1093C40CB1
:10539000A7C20111A5C2ECEBF9E084918F010F5F68
:1053A0001F4F882321F00E940935F801F6CF809124
:1053B000C40C811103C06FE873E002C062E873E0BF
:1053C0008CEE94E00E94103520E030E040E05FE396
:1053D00060914E0270914F02809150029091510263
:1053E0000E94418A0E94858B8BED94E00E94BF371A
:1053F000E7EDF4E084918F010F5F1F4F882309F4DC
:105400006FC20E940935F801F5CF0E94447168C24D
:1054100081E07FD565C283E53ED6882321F07DD625
:10542000182F66D501C010E0F090C30C111103C015
:10543000ECEBF9E01AC0F110FBCFE2E7F8E0849161
:105440008F010F5F1F4F882321F00E940935F8015B
:10545000F6CFEDE0F5E084918F010F5F1F4F8823B9
:1054600039F30E940935F801F6CF84918F010F5F5F
:105470001F4F882321F00E940935F801F6CFF11063
:1054800003C067E973E002C063E973E08FEF94E063
:105490000E9410358AE00E94093586E5FCD58823F4
:1054A00009F41EC28DE993E00E946E3C19C2F80116
:1054B000E050FE4F2081318142815381F801E45F49
:1054C000FD4F60817181828193810E94418A20E039
:1054D00030E040E05FE30E94A5869B01AC01F10152
:1054E00060817181828193810E94678C18162CF4EF
:1054F000C8018B519E4EF1D703C060E070E0CB0134
:10550000D1018D909D90AD90BC90F801E954F34F7E
:1055100020813181428153810E94418A9B01AC01EB
:10552000C501B4010E94408A6B017C0120E030E09B
:1055300040EA51EC0E94678C1816CCF520E030E070
:1055400040EA51E4C701B6010E94408687FF2FC0A0
:10555000E396EEADFFADE3974080518062807380AB
:10556000A7019601C301B2010E94408A6B017C0130
:10557000A30192010E94408A9B01AC01C501B401C4
:105580000E94418AD1016D937D938D939C931397D3
:10559000E396EEADFFADE397C082D182E282F38263
:1055A000EB968EAD9FADEB970E948B338DCDE2E7EE
:1055B000F8E084918F010F5F1F4F882321F00E9434
:1055C0000935F801F6CFECE2F5E084918F010F5F29
:1055D0001F4F882309F484C10E940935F801F5CFD3
:1055E00084918F010F5F1F4F882321F00E9409359E
:1055F000F801F6CFEAE4F5E084918F010F5F1F4FC9
:10560000882309F46DC10E940935F801F5CF0E9485
:10561000255180E00E94E14C63C10E94255160C188
:1056200083E539D5882319F078D591E089270E9440
:10563000E14C56C1ECEBF9E084918F010F5F1F4FF5
:10564000882321F00E940935F801F6CFEEE6F5E057
:1056500084918F010F5F1F4F882311F40C940C214C
:105660000E940935F801F4CF68ED7FEF86E695E0FA
:105670000E94BF3780E20E94093568E270E08EE543
:1056800095E00E94BF370C943D2140914202509119
:10569000430260914402709145028BE595E00E94BF
:1056A0009D3B0C943D210E94AD4183E5F4D48823B9
:1056B00031F004D590E090931E0E80931D0E8091E2
:1056C0001D0E90911E0E97FD93C0823091050CF433
:1056D00093C0029709F08CC088E5DDD4882339F1A6
:1056E0006CD56B017C010E940C549B01AC0160E005
:1056F00070E0CB010E94408A9B01AC01C701B6015A
:105700000E94678C181614F458D509C00E940C54D6
:105710009B01AC0160E070E0CB010E94408A609385
:105720006D0270936E0280936F029093700282E517
:10573000B2D4882349F041D56093DC057093DD0530
:105740008093DE059093DF05ECEBF9E084918F0107
:105750000F5F1F4F882321F00E940935F801F6CF13
:10576000E7E7F5E084918F010F5F1F4F882321F059
:105770000E940935F801F6CF80E20E940935609158
:105780009B0C70919C0C80919D0C90919E0C42E022
:105790000E940E388CE20E9409356091A30C709132
:1057A000A40C8091A50C9091A60C42E00E940E38AA
:1057B00080E20E94093560916D0270916E028091C5
:1057C0006F029091700242E00E940E388CE20E94BB
:1057D00009356091A70C7091A80C8091A90C90914B
:1057E000AA0C42E00E940E388AE00E94093504C0EB
:1057F00010921E0E10921D0E10921F0E1092EF0BA3
:105800001092220E1092230E1092240E1092250E4A
:1058100067C0E2E7F8E084918F010F5F1F4F882394
:1058200021F00E940935F801F6CFE7E8F5E0849110
:105830008F010F5F1F4F882309F452C00E94093562
:10584000F801F5CF81E08093290283E524D48823F1
:1058500009F43AC162D4811143C036C1182F809136
:10586000980C181741F083E516D4082F882321F0EF
:1058700054D4082F01C001E086E40DD4882351F0F0
:105880009CD420E030E040E752E40E941D8BAB0145
:10589000BC0103C040E050E0BA01202F812F0E94DC
:1058A000416E1EC080E01DC0209142023091430233
:1058B0004091440250914502C701B6010E94418ABD
:1058C00027E137EB41ED58E30E94418A42E00E9414
:1058D0000E388AE00E9409350E94D1340E947F3838
:1058E00081E01092210E1092200E81111AC00C94AA
:1058F0003A0D84918F010F5F1F4F882321F00E9482
:105900000935F801F6CF6091E0057091E10586E96F
:1059100095E00E94103582E20E9409358AE00E94DB
:1059200009350E94637DD3C083E5B5D3882309F48C
:105930005AC0F3D3482F80E0CC54DF4F4883C45B78
:10594000D040D6D20E94EA3421E030E0CC54DF4F80
:105950004881C45BD040BE016F5F7F4FCE0185960A
:105960000E940E3A6B017C01EDE5F2E084918F011B
:105970000F5F1F4F882321F00E940935F801F6CFF1
:1059800027E137EB41ED58E36DA17EA18FA198A5EA
:105990000E94418A42E00E940E38E8E5F2E08491DC
:1059A0008F010F5F1F4F882321F00E940935F801F6
:1059B000F6CF27E137EB41ED58E369817A818B819E
:1059C0009C810E94418A42E00E940E38E3E5F2E0A9
:1059D00084918F010F5F1F4F882309F465CF0E94C8
:1059E0000935F801F5CF41E0A6CF61E08D2D0E9489
:1059F0001A666E2D8D2D0E94EB65B7018D2D0E94CC
:105A000056660530110529F4F092000DE092FF0C66
:105A100067CF0B30110509F063CFF092FE0CE092D6
:105A2000FD0C5ECFCAD320E030E0A9010E94408681
:105A3000882361F0C2D32091DC053091DD054091CF
:105A4000DE055091DF050E94418A03C060E070E0EE
:105A5000CB010E94858B70934E0D60934D0D0C947D
:105A6000E4210E94B13C0C94F2210E94AD4188E5F2
:105A700012D3882321F05F9A129A10925C0689E56E
:105A80000AD3882321F08A9A479A10925D068AE504
:105A900002D3882351F09FB7F89480910801816068
:105AA000809308019FBF10925E0685E4F4D288239C
:105AB00009F416CF9FB7F894809108018260809313
:105AC00008019FBF8D9A0CCF0E94827D09CFCC54D4
:105AD000DF4F0FB6F894DEBF0FBECDBFDF91CF9181
