:100000000C94DC0B0C940D0C0C940D0C0C940D0C3E
:100010000C940D0C0C940D0C0C940D0C0C940D0CFC
:100020000C940D0C0C940D0C0C940D0C0C940D0CEC
:100030000C940D0C0C940D0C0C940D0C0C940D0CDC
:100040000C940D0C0C94DF4D0C940D0C0C940D0CB9
:100050000C940D0C0C940D0C0C94273C0C9426382D
:100060000C940D0C0C9407360C940D0C0C940D0C88
:100070000C940D0C0C940D0C0C940D0C0C940D0C9C
:100080000C940D0C0C940D0C0C940D0C0C940D0C8C
:100090000C940D0C0C940D0C0C940D0C0C940D0C7C
:1000A0000C940D0C0C940D0C0C940D0C0C940D0C6C
:1000B0000C940D0C0C940D0C0C940D0C0C940D0C5C
:1000C0000C940D0C0C940D0C0C940D0C0C940D0C4C
:1000D0000C940D0C0C940D0C0C940D0C0C940D0C3C
:1000E0000C940D0C7536783667366B367136AF3634
:1000F0007C36803686368A368E36943698369C36EE
:10010000AF36A236A636AA36423747374C3756376F
:100110006037D9376A3772377A3784378E379837EE
:10012000A737B137D937BB37C537CF37B63CC43C13
:10013000E33CF13C0C3D1A3D353D383D3B3D3E3DF9
:10014000413D443D4E3D084AD73B3BCE016E84BC09
:10015000BFFDC12F3D6C74319ABD56833DDA3D0021
:10016000C77F11BED9E4BB4C3E916BAAAABE00006A
:1001700000803F05A84CCDB2D44EB93836A9020C48
:1001800050B9918688083CA6AAAA2ABE0000008021
:100190003F0664EC1B3C04BC163E3BE5B93CC93C45
:1001A00037C29E5A3D660498083EEA69AAAA3E00F4
:1001B0000000803F4E414E494E495459494E46CD6C
:1001C000CCCC3D0AD7233C17B7D13877CC2B32950E
:1001D00095E6241FB14F0A000020410000C84200EC
:1001E000401C4620BCBE4CCA1B0E5AAEC59D744373
:1001F0004F4D4D554E49434154494F4E004452597D
:1002000052554E004552524F525300494E464F00F0
:100210004543484F0047322F4733206261642070C6
:100220006172616D65746572730A003F28562965B5
:1002300072626F7365204C6576656C206973206906
:100240006D706C61757369626C652028302D34297E
:100250002E0A00205A3A200020593A2000426564B4
:1002600020583A20004661696C656420746F2072E2
:1002700065616368207461726765740A003E2034AA
:100280002D706F696E742061786973207371756168
:1002900072696E670A002569730025696D202569FA
:1002A00073002569682025696D202569730025691B
:1002B00064202569682025696D20256973002569FA
:1002C0007920256964202569682025696D202569C4
:1002D00073005072696E742074696D653A20005025
:1002E000726F7465637465642050696E0A00100251
:1002F0000B020402FD01EF016F66660044454255A2
:10030000473A004B494C4C45442E20004D31313387
:100310002053003F0A0020573A004649524D5741AA
:1003200052455F4E414D453A4D61726C696E2031C8
:100330002E312E302D52434275674669782028476A
:1003400069746875622920534F555243455F434F86
:1003500044455F55524C3A68747470733A2F2F6756
:1003600069746875622E636F6D2F4D61726C696E72
:100370004669726D776172652F4D61726C696E208E
:1003800050524F544F434F4C5F56455253494F4E76
:100390003A312E30204D414348494E455F54595023
:1003A000453A3344205072696E7465722045585442
:1003B00052554445525F434F554E543A322055559D
:1003C00049443A63656465326132662D3431613285
:1003D0002D343734382D396231322D63353563365B
:1003E000326633363766660A007A5F6D61783A2086
:1003F000007A5F6D696E3A2000795F6D61783A200E
:1004000000795F6D696E3A2000785F6D61783A20FF
:1004100000785F6D696E3A20005265706F72746982
:100420006E6720656E6473746F7020737461747589
:10043000730A0053657474696E672054726176653F
:100440006C20416363656C65726174696F6E3A20FC
:100450000053657474696E672052657472616374C9
:1004600020416363656C65726174696F6E3A200048
:1004700053657474696E67205072696E74204163AD
:1004800063656C65726174696F6E3A2000536574C0
:1004900074696E67205072696E7420616E642054B6
:1004A000726176656C20416363656C657261746925
:1004B0006F6E3A2000205A00205900580020204D2D
:1004C00061783A2000205A00205900580020204D21
:1004D000696E3A20004F666600536F667420656E41
:1004E0006473746F70733A2000486F74656E642093
:1004F0006F6666736574733A00426564204C657676
:10050000656C696E6720004661696C656420746F74
:1005100020656E61626C6520426564204C6576657D
:100520006C696E670A00546F6F2066617220667294
:100530006F6D207265666572656E636520706F69A8
:100540006E740A00454550524F4D206469736162D4
:100550006C65640A003A20007A5F6D61783A200089
:100560007A5F6D696E3A20005A204F666673657433
:1005700000486F74656E64206F6666736574733AC5
:10058000004E6F2063617365206C696768740A00B0
:10059000556E6B6E6F776E20636F6D6D616E643A32
:1005A000202200656E7175657565696E6720220091
:1005B0004E6F204C696E65204E756D6265722077B6
:1005C00069746820636865636B73756D2C204C617A
:1005D0007374204C696E653A20004B494C4C45447D
:1005E0002E20005072696E7465722073746F707083
:1005F00065642064756520746F206572726F727314
:100600002E2046697820746865206572726F7220AA
:10061000616E6420757365204D39393920746F20FF
:10062000726573746172742E202854656D706572E2
:1006300061747572652069732072657365742E200C
:1006400053657420697420616674657220726573E5
:1006500074617274696E67290A004E6F2043686581
:10066000636B73756D2077697468206C696E6520A3
:100670006E756D6265722C204C617374204C696ECE
:10068000653A2000636865636B73756D206D6973EF
:100690006D617463682C204C617374204C696E65C5
:1006A0003A20004C696E65204E756D626572206956
:1006B00073206E6F74204C617374204C696E6520DA
:1006C0004E756D6265722B312C204C617374204C19
:1006D000696E653A20004D3131300020496E7661F7
:1006E0006C6964206578747275646572200000001E
:1006F0004843000091439A99F74200001CC2000051
:10070000000000000000205A3A200020593A200042
:1007100042656420583A20001000C90210012C01E3
:100720004001220170011801B0010E01F001040125
:100730005002FA00B002F0003003E600D003DC0003
:100740009004D2007005C800A006BE000008B400E6
:10075000B009AA00D00BA000600E960060118C00BA
:100760000015820020197800C01D6E00A0226400D0
:10077000B0275A00902C500000314600E0343C0075
:1007800010383200903A2800603C1E00A03D140052
:10079000803E0A00203F00006265640A002C20733E
:1007A000797374656D2073746F707065642120486F
:1007B00065617465725F49443A20001000C00260B0
:1007C00003D800B006AF00000A9800500D8900A0C1
:1007D000107D00F013730040176A00901A6300E068
:1007E0001D5B003021550080244E00D0274700209B
:1007F0002B4100702E3A00C031320010352A0060C3
:10080000381F00B03B1100003F0000544845524DD6
:10081000414C2052554E4157415900546865726D04
:10082000616C2052756E61776179004572723A2071
:100830004D494E54454D5020424544004572723A50
:10084000204D494E54454D50004D494E54454D5054
:1008500020747269676765726564004572723A2038
:100860004D415854454D5020424544004572723A1E
:10087000204D415854454D50004D415854454D5020
:1008800020747269676765726564004865617469A0
:100890006E67206661696C65640048656174696EA5
:1008A00067206661696C65640048656174696E679C
:1008B000206661696C65640048656174696E6720D3
:1008C0006661696C65640000002100240027002A2D
:1008D000002D003000330001010000040107010A6F
:1008E0000100002200250028002B002E00310034DA
:1008F0000002010000050108010B01000020002397
:1009000000260029002C002F003200000100000307
:100910000106010901050505050705080808080283
:100920000202020A0A080804040404010101010188
:100930000101010303030303030303040707070C77
:100940000C0C0C0C0C0C0C0202020206060606062D
:100950000606060B0B0B0B0B0B0B0B0102102020DA
:100960000808102040102040800201020108040203
:100970000101020408102040808040201008040279
:1009800001800402018040201008040201080402D2
:1009900001010204081020408001020408102040D8
:1009A0008000000A0B02090C0D0E08070304010069
:1009B0000000000000000000000000000000000037
:1009C00000000000000000000000000000121110F4
:1009D0000000000000000000000000000000000017
:1009E000000000000000004B494C4C45442E200004
:1009F000202D20496E76616C69642065787472756B
:100A0000646572206E756D62657220210A00457200
:100A1000726F723A002020506C616E6E6572427582
:100A20006666657242797465733A20002046726585
:100A300065204D656D6F72793A2000436F6D706966
:100A40006C65643A20417072202035203230313795
:100A50000A00207C20417574686F723A20286F70FC
:100A6000656E617373656D626C6965732E636F6D1E
:100A70002C20436F6E66696720666F722046444D76
:100A80003444204D616368696E652C204475616C47
:100A9000204578747275646572290A0032303136E7
:100AA0002D31322D30362031323A303000204C6139
:100AB000737420557064617465643A2000312E317E
:100AC0002E302D52434275674669780A004D617297
:100AD0006C696E0020536F66747761726520526591
:100AE0007365740A00205761746368646F672052ED
:100AF000657365740A002042726F776E206F75749B
:100B00002052657365740A002045787465726E61C1
:100B10006C2052657365740A00506F77657255706A
:100B20000A0073746172740A00205A3A0020593A1C
:100B30000020583A00656E6473746F7073206869A2
:100B4000743A20002066697273740A005A005900D2
:100B50005800486F6D6520006563686F3A0020405B
:100B6000002042403A0020403A00202F002054004C
:100B7000202F0020423A00202F0020543A006F6BB3
:100B8000003F0A0020573A00205A3A0020593A0004
:100B900020436F756E7420583A0020453A00205A61
:100BA0003A0020593A00583A0043290A0061626C21
:100BB000656420286D696E2074656D702000436F38
:100BC0006C64206578747275646573206172652049
:100BD0000050494454454D502064697361626C650E
:100BE000640A00416374697665204578747275649F
:100BF00065723A20004E6F206D6F7665206F6E2013
:100C0000746F6F6C6368616E67650A0024F4D4309A
:100C100050C38E20C2A24017828B7011127A910DA0
:100C2000816CD90AA861E108C7586607615143067B
:100C30001E4B5D05C145A7041A411104093D9803E7
:100C4000713931034036DB0265339102D4305402EE
:100C5000802E1D02632CEE01752AC501B028A0016B
:100C6000102781018F2564012B244B01E0223401E0
:100C7000AC211F018D200D01801FFC00841EED00A2
:100C8000971DDF00B81CD200E61BC600201BBC006D
:100C9000641AB200B219A8000A19A0006A189900D3
:100CA000D117910040178B00B516840031167E00D5
:100CB000B31579003A157300C7146F0058146A0011
:100CC000EE1366008813630025135E00C7125B00F5
:100CD0006C12570015125400C111510070114F00D1
:100CE00021114B00D61049008D10470046104400DA
:100CF00002104200C00F4000800F3E00420F3C0037
:100D0000060F3B00CB0E3800930E37005C0E35000B
:100D1000270E3400F30D3200C10D3100900D30006C
:100D2000600D2E00320D2D00050D2C00D90C2B006E
:100D3000AE0C2900850C29005C0C2700350C27001F
:100D40000E0C2600E80B2400C40B2400A00B23008B
:100D50007D0B23005A0B2100390B2100180B2000BA
:100D6000F80A1F00D90A1E00BB0A1E009D0A1D00BA
:100D7000800A1D00630A1C00470A1B002C0A1B0086
:100D8000110A1A00F7091A00DD091900C40919002F
:100D9000AB091900920917007B09180063091700B5
:100DA0004C09160036091600200916000A0915001C
:100DB000F5081500E0081400CC081400B808140069
:100DC000A4081400900813007D0812006B0813009B
:100DD00058081200460812003408110023081100B8
:100DE0001208110001081100F0071000E0071000C0
:100DF000D0071000C0071000B0070F00A1071000B7
:100E000091070E0083070F0074070F0065070E009F
:100E100057070E0049070E003B070D002E070E0076
:100E200020070D0013070D0006070D00F9060C0042
:100E3000ED060D00E0060C00D4060C00C8060C0000
:100E4000BC060C00B0060C00A4060B0099060C00B2
:100E50008D060B0082060B0077060B006C060B005C
:100E600061060A0057060B004C060A0042060A00FB
:100E700038060A002E060A0024060A001A060A008E
:100E80001006090007060A00FD050900F40509001F
:100E9000EB050900E2050900D9050900D0050900A4
:100EA000C7050900BE050900B5050800AD05080025
:100EB000A50509009C050800940508008C0508009C
:100EC000840508007C050800740508006C0507000F
:100ED000650508005D050700560508004E0507007A
:100EE00047050700400508003805070031050700E1
:100EF0002A050700230507001C0506001605070044
:100F00000F0507000805060002050700FB040600A0
:100F1000F5040700EE040600E8040600E2040700FA
:100F2000DB040600D5040600CF040600C904060051
:100F3000C3040600BD040600B7040600B1040500A2
:100F4000AC040600A6040600A00405009B040600ED
:100F500095040500900406008A0405008504050038
:100F6000800406007A04050075040500700405007D
:100F70006B04050066040500610405005C040500BF
:100F800057040500520405004D04050048040500FF
:100F9000430405003E0404003A040500350405003E
:100FA000300404002C040500270404002304050079
:100FB0001E0404001A0404001604050011040400B1
:100FC0000D040400090405000404040000040400E6
:100FD000FC030400F8030400F4030400F00304001D
:100FE000EC030400E8030400E4030400E00304004D
:100FF000DC030400D8030400D4030400D00304007D
:10100000CC030400C8030300C503030024F404D97F
:10101000201BC40C5C0E9804C4095F0265077101B3
:10102000F405F900FB04B30048048700C10369001C
:101030005803550003034500BE023A008402310004
:1010400053022A002902250004022000E4011C00AA
:10105000C8011900AF0117009801140084011300A2
:10106000710110006101100051010E0043010D00DB
:1010700036010B002B010B0020010B0015010900AC
:101080000C01090003010800FB000800F300080040
:10109000EB000700E4000600DE000600D8000600B2
:1010A000D2000600CC000500C7000500C200050004
:1010B000BD000400B9000400B5000400B100040044
:1010C000AD000400A9000400A5000300A200030075
:1010D0009F0004009B00030098000300950002009D
:1010E00093000300900003008D0002008B000300BA
:1010F00088000200860002008400030081000200D4
:101100007F0002007D0002007B00020079000200E7
:1011100077000100760002007400020072000100F6
:10112000710002006F0002006D0001006C000200FF
:101130006A0001006900020067000100660001000A
:10114000650001006400020062000100610001000E
:10115000600001005F0002005D0001005C00010012
:101160005B0001005A000100590001005800010015
:101170005700010056000100550001005400010015
:101180005300000053000100520001005100010013
:10119000500001004F0001004E0000004E00010011
:1011A0004D0001004C0001004B0000004B0001000D
:1011B0004A00010049000100480000004800010009
:1011C0004700010046000000460001004500000005
:1011D00045000100440001004300000043000100FD
:1011E00042000000420001004100000041000100F7
:1011F000400001003F0000003F0001003E000000F1
:101200003E0001003D0000003D0001003C000000E8
:101210003C0000003C0001003B0000003B000100DE
:101220003A0000003A0001003900000039000100D6
:1012300038000000380000003800010037000000CE
:1012400037000100360000003600000036000100C3
:1012500035000000350000003500010034000000BA
:1012600034000000340001003300000033000000AF
:1012700033000100320000003200000032000100A3
:10128000310000003100000031000100300000009A
:1012900030000000300001002F0000002F0000008F
:1012A0002F0000002F0001002E0000002E00000083
:1012B0002E0001002D0000002D0000002D00000078
:1012C0002D0001002C0000002C0000002C0000006C
:1012D0002C0001002B0000002B0000002B00000060
:1012E0002B0001002A0000002A0000002A00000054
:1012F0002A00010029000000290000002900000048
:10130000290000002900010028000000280000003A
:10131000280000002800000028000100270000002D
:101320002700000027000000270000002700010020
:101330002600000026000000260000002600000015
:101340002600010025000000250000002500000007
:1013500025000000250000002500010024000000F9
:1013600024000000240000002400000024000100EC
:1013700023000000230000002300000023000000E1
:1013800023000000230000002300010022000000D1
:1013900022000000220000002200000022000000C5
:1013A00022000100210000002100000021000000B7
:1013B00021000000210000002100000021000100A8
:1013C000200000002000000020000000200000009D
:1013D000200000002000000020000000200001008C
:1013E0001F0000001F0000001F0000001F00000081
:1013F0001F0000001F0000001F0001001E00000071
:101400001E0000001E0000001E0000005072696EE9
:101410007465722068616C7465642E206B696C6CF5
:1014200028292063616C6C6564210A0000001CC2DD
:10143000000000009A99F7425761726E696E673A30
:1014400020486F6D696E672042756D702044697623
:1014500069736F72203C20310A000000A040000038
:10146000A0400000004000006F43000091439A99A3
:10147000F742FFFF0148617264636F646564204452
:10148000656661756C742053657474696E6773204A
:101490004C6F616465640A0020204D383531205A54
:1014A000005A2D50726F6265204F66667365742016
:1014B000286D6D293A0A0020204D3230302044300A
:1014C0000A0020204D3230302054312044002020AA
:1014D0004D3230302044002044697361626C656491
:1014E0000A0046696C616D656E7420736574746979
:1014F0006E67733A0020204D34323020530041751E
:10150000746F20426564204C6576656C696E673A3D
:101510000A00205A0020590020580020204D323166
:1015200038205400486F74656E64206F666673657A
:10153000747320286D6D290A00205A00205900205C
:10154000204D323036205800486F6D65206F66663A
:1015500073657420286D6D290A00204500205A000B
:1015600020590020580020420020540020204D32F5
:101570003035205300416476616E63656420766186
:10158000726961626C65733A20533D4D696E2066E5
:101590006565647261746520286D6D2F73292C2038
:1015A000543D4D696E2074726176656C2066656588
:1015B000647261746520286D6D2F73292C20423D63
:1015C0006D696E696D756D207365676D656E7420EC
:1015D00074696D6520286D73292C20583D6D6178E4
:1015E000696D756D205859206A65726B20286D6D84
:1015F0002F73292C20205A3D6D6178696D756D20FF
:101600005A206A65726B20286D6D2F73292C20205B
:10161000453D6D6178696D756D2045206A65726B19
:1016200020286D6D2F73290A0020540020520020BD
:10163000204D323034205000416363656C65726127
:1016400074696F6E733A20503D7072696E74696E82
:10165000672C20523D7265747261637420616E6400
:1016600020543D74726176656C0A00204500205A52
:101670000020590020204D3230312058004D617833
:10168000696D756D20416363656C65726174696F26
:101690006E20286D6D2F7332293A0A0020450020F4
:1016A0005A0020590020204D3230332058004D611F
:1016B00078696D756D206665656472617465732007
:1016C000286D6D2F73293A0A00204500205A00200A
:1016D000590020204D393220580053746570732012
:1016E00070657220756E69743A0A0020746F6F20FD
:1016F0006C6F6E6720657874727573696F6E207099
:10170000726576656E7465640A0020636F6C642090
:10171000657874727573696F6E2070726576656E28
:101720007465640A00526573656E643A20006F6BDD
:101730000020746F6F206C6F6E672065787472750F
:1017400073696F6E2070726576656E7465640A00E9
:1017500020636F6C6420657874727573696F6E2096
:1017600070726576656E7465640A00627573793AA5
:101770002070617573656420666F7220696E707584
:10178000740A00627573793A20706175736564201C
:10179000666F7220757365720A00627573793A20FC
:1017A00070726F63657373696E670A004B494C4CC6
:1017B00045442E200000047611241FBECFEFD1E255
:1017C000DEBFCDBF00E00CBF14E0A0E0B2E0E8E770
:1017D000FBE001E00BBF02C007900D92A438B107F7
:1017E000D9F72EE0A4E8B4E001C01D92A235B207FB
:1017F000E1F71BE0CCEDDBE000E006C0219701093A
:10180000802FFE010E949185CB3DD10780E0080723
:10181000A9F70E9463760C94BA850C9400002F926D
:101820003F924F925F926F927F928F929F92AF9270
:10183000BF92CF92DF92EF92FF920F931F93CF93BD
:10184000DF93CDB7DEB7C45BD1090FB6F894DEBF26
:101850000FBECDBF0091640720E6029F80011124D6
:1018600006561B4F10931F0600931E0680918A0D8B
:1018700080FF18C0E8E5FBE084917F013FEFE31AA9
:10188000F30A882321F00E940931F701F5CFD8012E
:101890008D918D01882319F00E940931F8CF8AE0DB
:1018A0000E94093120911E0630911F06F9018081A6
:1018B0002F5F3F4F8032D1F3F0931F06E0931E0657
:1018C0008E3469F010911E0600911F066AE270E0E6
:1018D000812F902F0E949F850097D1F420C0818195
:1018E00090ED980F9A3010F08D3261F73296DF014B
:1018F00031962C9120532A30D0F3CD01FC01019672
:1019000020812032D9F3F0931F06E0931E06DACF30
:10191000FC0131968291803231F08A3221F0A12F80
:10192000B02F4D9102C01082F5CFFD01808111963C
:101930008032D9F380538A3020F0E8E5FBE00C9444
:10194000732A80E090E05AE0589F9001599F300D33
:101950001124C901C0972191820F911D27FD9A95ED
:10196000208130ED320F3A3078F32E32B1F4BF01DE
:101970006F5F7F4FF12CFB016F5F7F4F508120ED38
:10198000250F2A3058F42F2D220F322F330F330F0B
:10199000230F2053F22EF50EEECFF12CDF013196FE
:1019A0002C912032D9F3B0939904A093980421E0AC
:1019B00030E030932B0E20932A0E4D3411F40C940A
:1019C0007B1D443511F40C942A2A473411F00C94F1
:1019D0004E2A8D31910509F4A6C790F48430910503
:1019E00030F4209119028230910570F137C08430B3
:1019F000910509F4C9C64C9709F403C70C946A2AE7
:101A00008732910511F40C94DE1958F48E3191054A
:101A100011F40C94B318869711F40C9471190C946A
:101A20006A2A8B35910511F40C94BF1C8C359105F5
:101A300011F40C94C41C8A35910511F00C946A2A97
:101A4000109297040C946A2A222311F40C946A2AA7
:101A50000E94234C0E9440700C946A2A222311F4A5
:101A60000C946A2A11E0029709F010E00E94234CBE
:101A700082E50E947D2E882309F476C10E940F2FF3
:101A80006B017C014090330750903407609035071C
:101A90007090360720913707309138074091390709
:101AA00050913A07E5962CAF3DAF4EAF5FAFE5974B
:101AB0008091110D9091120DA091130DB091140D04
:101AC000C358DF4F88839983AA83BB83CD57D04007
:101AD0002091150D3091160D4091170D5091180D54
:101AE000ED962CAF3DAF4EAF5FAFED9720E030E00D
:101AF000A901C701B6010E94987E882309F42AC66D
:101B0000A3019201C358DF4F688179818A819B814B
:101B1000CD57D0400E94987E811111C0E5962CAD22
:101B20003DAD4EAD5FADE597ED966CAD7DAD8EAD47
:101B30009FADED970E94987E882309F40BC620E0A4
:101B400030E0A901C701B6010E94987E881F88274E
:101B5000881F18130DC080E090E0A0E8BFE3C757CE
:101B6000DF4F88839983AA83BB83C958D0400CC0B8
:101B700020E030E040E85FEBC757DF4F2883398330
:101B80004A835B83C958D040A3019201C358DF4FF9
:101B9000688179818A819B81CD57D0400E9498824B
:101BA000CF57DF4F688379838A839B83C158D040A6
:101BB000E5962CAD3DAD4EAD5FADE597ED966CADC8
:101BC0007DAD8EAD9FADED970E949882CB57DF4FD4
:101BD000688379838A839B83C558D040CF57DF4F72
:101BE000288139814A815B81C158D040CA01B9013D
:101BF0000E94FD7E4B015C01CB57DF4F288139816C
:101C00004A815B81C558D040CA01B9010E94FD7E5E
:101C10009B01AC01C501B4010E9499820E94048518
:101C2000E9966CAF7DAF8EAF9FAFE99720E030E0D3
:101C300040E05FE30E94FD7E4B015C01A70196013D
:101C4000C701B6010E94FD7E6B017C01A5019401D4
:101C5000C501B4010E94FD7E9B01AC01C701B60124
:101C60000E9498820E9404859B01AC01C757DF4FF8
:101C7000688179818A819B81C958D0400E94FD7E0C
:101C80004B015C01C358DF4F288139814A815B8158
:101C9000CD57D040C301B2010E94998220E030E0CC
:101CA00040E05FE30E94FD7E6B017C01CB57DF4F7C
:101CB000688179818A819B81C558D0409058E99686
:101CC0002CAD3DAD4EAD5FADE9970E9475839B0194
:101CD000AC01C501B4010E94FD7E9B01AC01C701AE
:101CE000B6010E949982A30192010E9498826B0121
:101CF0007C01ED962CAD3DAD4EAD5FADED97E5961B
:101D00006CAD7DAD8EAD9FADE5970E94998220E0D0
:101D100030E040E05FE30E94FD7E2B013C01E9964C
:101D20002CAD3DAD4EAD5FADE997CF57DF4F68812C
:101D300079818A819B81C158D0400E9475839B0123
:101D4000AC01C501B4010E94FD7E9B01AC01C30141
:101D5000B2010E949982E5962CAD3DAD4EAD5FADCE
:101D6000E5970E94988214C089E40E947D2E882302
:101D700029F00E940F2F6B017C0103C0C12CD12CD4
:101D800076018AE40E947D2E8823F9F00E940F2FAD
:101D9000E5966CAF7DAF8EAF9FAFE59720E030E06A
:101DA000A901C701B6010E94987E81111EC020E0E2
:101DB00030E0A901E5966CAD7DAD8EAD9FADE597A8
:101DC0000E94987E811111C0C5C420E030E0A901B5
:101DD000C701B6010E94987E882309F4BBC4E5962A
:101DE0001CAE1DAE1EAE1FAEE597A7019601C70142
:101DF000B6010E94FD7E4B015C01E5962CAD3DAD28
:101E00004EAD5FADE597CA01B9010E94FD7E9B0111
:101E1000AC01C501B4010E9499820E940485C75695
:101E2000DF4F688379838A839B83C959D04080912F
:101E3000330790913407A0913507B0913607ED969E
:101E40008CAF9DAFAEAFBFAFED97A7019601BC01C0
:101E5000CD010E949982CF55DF4F688379838A83B1
:101E60009B83C15AD0402091370730913807409169
:101E7000390750913A07CF57DF4F288339834A8378
:101E80005B83C158D040E5962CAD3DAD4EAD5FAD06
:101E9000E597CF57DF4F688179818A819B81C1584F
:101EA000D0400E949982CB55DF4F688379838A8323
:101EB0009B83C55AD04080913B0790913C07A091ED
:101EC0003D07B0913E07C757DF4F88839983AA83A8
:101ED000BB83C958D0409C01AD016091190D709130
:101EE0001A0D80911B0D90911C0D0E949882E9960D
:101EF0006CAF7DAF8EAF9FAFE99720911D0D3091F4
:101F00001E0D40911F0D5091200DC356DF4F2883A9
:101F100039834A835B83CD59D04080913F079091AC
:101F20004007A0914107B0914207C357DF4F888314
:101F30009983AA83BB83CD58D040A70196015058FE
:101F4000C358DF4F288339834A835B83CD57D04002
:101F5000E5964CAC5DAC6EAC7FACE59777FA7094CF
:101F600077F87094C090110DD090120DE090130D81
:101F7000F090140DCB57DF4FC882D982EA82FB82E2
:101F8000C558D040CF55DF4F288139814A815B81C8
:101F9000C15AD040C701B6010E9498826B017C01F2
:101FA0002091150D3091160D4091170D5091180D7F
:101FB000CB56DF4F288339834A835B83C559D04092
:101FC000CB55DF4F288139814A815B81C55AD0408A
:101FD000CB56DF4F688179818A819B81C559D0407A
:101FE0000E9498824B015C01A7019601C358DF4F04
:101FF000688179818A819B81CD57D0400E94FD7E86
:10200000CF56DF4F688379838A839B83C159D04041
:10201000A5019401C301B2010E94FD7E9B01AC01A8
:10202000CF56DF4F688179818A819B81C159D04029
:102030000E949982CF56DF4F688379838A839B837E
:10204000C159D040A5019401C358DF4F68817981FF
:102050008A819B81CD57D0400E94FD7E4B015C015F
:10206000A7019601C301B2010E94FD7E9B01AC0154
:10207000C501B4010E949882CF56DF4F2881398173
:102080004A815B81C159D0400E940C836B017C0165
:1020900020E030E0A9010E94987E87FF0AC02BED66
:1020A0003FE049EC50E4C701B6010E9499826B0100
:1020B0007C01112351F02BED3FE049EC50E4C701C6
:1020C000B6010E9498826B017C0120E030E0A901FA
:1020D000C701B6010E94987E811130C0CB57DF4FF7
:1020E000288139814A815B81C558D040ED966CAD1D
:1020F0007DAD8EAD9FADED970E94987E81111EC083
:10210000CB56DF4F288139814A815B81C559D04048
:10211000CF57DF4F688179818A819B81C158D04038
:102120000E94987E81110AC02BED3FE049EC50E4FB
:10213000C701B6010E9499826B017C01C756DF4F2F
:10214000288139814A815B81C959D040C701B601D4
:102150000E94FD7E9B01AC010E94FD7E4B015C0153
:10216000E9962CAD3DAD4EAD5FADE997CA01B90121
:102170000E94FD7E9B01AC01C501B4010E949982C1
:102180000E9404854B015C012FE632E143E85AE3EB
:102190000E94987E87FDDAC2C501B4010E940E84B8
:1021A0000E94E283CB57DF4F79836883C558D040C4
:1021B000672B41F481E090E0CB57DF4F9983888310
:1021C000C558D040CB57DF4FA881B981C558D04002
:1021D000BD0180E090E00E949C7E4B015C019B0170
:1021E000AC01C701B6010E947583ED966CAF7DAF5F
:1021F0008EAF9FAFED97A5019401E9966CAD7DADD3
:102200008EAD9FADE9970E947583C755DF4F6883F8
:1022100079838A839B83C95AD040C357DF4F288173
:1022200039814A815B81CD58D040C356DF4F6881E8
:1022300079818A819B81CD59D0400E949882A501E5
:1022400094010E947583C355DF4F688379838A8325
:102250009B83CD5AD040ED962CAD3DAD4EAD5FADDC
:10226000ED97CA01B9010E94FD7E20E030E040E018
:102270005FE30E94FD7E9B01AC0160E070E080E8BE
:102280009FE30E949882CB56DF4F688379838A83CD
:102290009B83C559D040C757DF4FC880D980EA809B
:1022A000FB80C958D040C986DA86EB86FC86C357C6
:1022B000DF4FC880D980EA80FB80CD58D040CD86E2
:1022C000DE86EF86F88A60915D0270915E02072ECD
:1022D000000C880B990B0E949E7E20915F0230912A
:1022E000600240916102509162020E94FD7E2AE0EC
:1022F00037ED43E25CE30E94FD7EC756DF4F688303
:1023000079838A839B83C959D0400E941A389B01E4
:10231000AC0128533F4F4F4F5F4FC356DF4F2883C9
:1023200039834A835B83CD59D040EE96DFACEE977C
:10233000E696DFAEE697EF96DFACEF97CF57DF4F2D
:10234000D882C158D040C158DF4F2880CF57D040E5
:10235000C058DF4F3880C058D04021E030E0C3572C
:10236000DF4F39832883CD58D040C757DF4F1882BD
:10237000C958D040C357DF4F48815981CD58D0400C
:10238000CB57DF4F88819981C558D04048175907EE
:1023900009F496C18091A70681110E94FE3F0E9418
:1023A0001A38DC01CB01C356DF4FC880D980EA80E0
:1023B000FB80CD59D0408C199D09AE09BF09B7FDEE
:1023C00012C00E941A389B01AC0128533F4F4F4F57
:1023D0005F4FC356DF4F288339834A835B83CD59D0
:1023E000D0400E94FA72C757DF4F3881C958D04099
:1023F0003F5FC757DF4F3883C958D04039310CF0A1
:1024000058C0CB56DF4F288139814A815B81C5593D
:10241000D040C301B2010E94FD7E6B017C01ED96AC
:102420002CAD3DAD4EAD5FADED97E6966FADE69749
:10243000CF57DF4F7881C158D040C1010E94FD7E47
:10244000A70196010E9499827B018C01CB56DF4F38
:10245000288139814A815B81C559D040E6966FADAC
:10246000E697CF57DF4F7881C158D040C1010E9415
:10247000FD7E4B015C01ED962CAD3DAD4EAD5FADEB
:10248000ED97C301B2010E94FD7E9B01AC01C50125
:10249000B4010E949882E6966FAFE697CF57DF4F60
:1024A0007883C158D0401C01C701D8012C013D01DF
:1024B0006BC0C357DF4F48815981CD58D040BA0116
:1024C00080E090E00E949C7EED962CAD3DAD4EAD3F
:1024D0005FADED970E94FD7E4B015C010E9472830F
:1024E0006B017C01C501B4010E94FA844B015C01BF
:1024F000A7019601C358DF4F688179818A819B814A
:10250000CD57D0400E94FD7E2B013C01A5019401D6
:10251000E5966CAD7DAD8EAD9FADE5970E94FD7EDD
:102520009B01AC01C301B2010E949982E6966FAF94
:10253000E697CF57DF4F7883C158D0401C01A501E3
:102540009401C358DF4F688179818A819B81CD577F
:10255000D0400E94FD7E4B015C01A7019601E596EB
:102560006CAD7DAD8EAD9FADE5970E94FD7E9B016C
:10257000AC01C501B4010E9498822B013C01C757F0
:10258000DF4F1882C958D040E6962FADE697CF5757
:10259000DF4F3881C158D040A101CF55DF4F68814E
:1025A00079818A819B81C15AD0400E9499826B01B6
:1025B0007C0169837A838B839C83A3019201CB5531
:1025C000DF4F688179818A819B81C55AD0400E9402
:1025D0009982CF56DF4F688379838A839B83C15961
:1025E000D0406D837E838F83988729853A854B857C
:1025F0005C85C755DF4F688179818A819B81C95A83
:10260000D0400E9499824B015C0169877A878B8751
:102610009C87C355DF4F288139814A815B81CD5A20
:10262000D0406D857E858F8598890E9499826D87BF
:102630007E878F87988B1091210DCDA2DEA2EFA20D
:10264000F8A6CF56DF4FC880D980EA80FB80C159F9
:10265000D040C9A6DAA6EBA6FCA68DA69EA6AFA67C
:10266000B8AAAE01435D5F4FBE01675D7F4FCE01EB
:1026700085960E94FC6EC12EC756DF4FE880F98018
:102680000A811B81C959D0409E01235F3F4FAE0193
:10269000435D5F4FBE01675D7F4FCE0185960E940F
:1026A0007B60C357DF4F28813981CD58D0402F5FE1
:1026B0003F4FC357DF4F39832883CD58D0405ACE80
:1026C000C090210D8091110D9091120DA091130DCC
:1026D000B091140D8DA39EA3AFA3B8A78091150D43
:1026E0009091160DA091170DB091180D89A79AA77A
:1026F000ABA7BCA78091190D90911A0DA0911B0D4D
:10270000B0911C0D8DA79EA7AFA7B8ABAE01435DDE
:102710005F4FBE01675D7F4FCE0185960E94FC6EC4
:10272000C756DF4FE880F9800A811B81C959D04024
:102730002DE13DE0AE01435D5F4FBE01675D7F4F20
:10274000CE0185960E947B600E940E2E0E94C730AB
:102750000C946A2AEEE0FAE084918F010F5F1F4F1C
:10276000882321F00E940931F801F6CFE5E1F2E07B
:1027700084918F010F5F1F4F882311F40C946A2AF4
:102780000E940931F801F4CF80E50E947D2E882354
:1027900029F00E94042F6B017C0103C0C12CD12CB5
:1027A000760183E50E947D2E882361F00E940F2F21
:1027B00020E030E04AE754E40E94FD7E0E94E2837C
:1027C0006B017C010E942E420E94C7308091300E26
:1027D0009091310EA091320EB091330EC80ED91ED9
:1027E000EA1EFB1E0E941A38DC01CB018C199D09E0
:1027F000AE09BF09B7FD02C00C946A2A0E94FA72A2
:10280000F1CF0E942E4280E00E943F4DD090210DDA
:1028100021E040E050E0BA0180E00E94A64310921F
:10282000EB0C0E94EA3081E08093270288E50E9449
:102830007D2EE82E89E50E947D2E082F8AE50E94D4
:102840007D2EF82EE11005C0011105C011E01827FA
:1028500005C0011102C010E001C0182F0E94042E13
:10286000111105C0F11003C0E11007C043C082E0A0
:1028700090E00E945F5F1123B9F3FF24F394F0927C
:10288000210D80E090E00E945F5F2091400D30912B
:10289000410D4091420D5091430D6091330770916D
:1028A000340780913507909136070E949882609393
:1028B000590270935A0280935B0290935C021092CB
:1028C000210D80E090E00E945F5F90E1E3E3F7E09C
:1028D000A7E1BEE001900D929A95E1F710922C0EBF
:1028E00010922D0E10922E0E10922F0EF092290E95
:1028F000111102C0002321F081E090E00E945F5F8F
:102900000E94382F8091220D809327020E94D1309F
:1029100021E040E050E0BA018D2D0E94A6430E94C4
:10292000A3470C946A2A0E94444281110C946A2A9B
:1029300086E50E947D2E882321F00E94F72E1C013F
:1029400003C022242394312C95E02916310470F021
:10295000EBE2F2E084918F010F5F1F4F882311F4A7
:102960000C946A2A0E940931F801F4CF84E40E9491
:102970007D2EE2968FAFE29785E40E947D2EC82ED1
:102980000E942E42D0904C0D10924C0DE296EFAC6E
:10299000E297E11006C084E690E00E946F750E9405
:1029A000382F0E94EA3081E00E94BB2D811122C3A2
:1029B00080E090E0A0E8B0EC89839A83AB83BC838D
:1029C00040E050E060E773E44D835E836F83788777
:1029D00019861A861B861C868D879E87AF87B88BC3
:1029E00080E090E0A0EAB1E4898B9A8BAB8BBC8B42
:1029F0001D8A1E8A1F8A188E80E090E0A4E3B3E44B
:102A0000898F9A8FAB8FBC8F80E090E0A0ECB0EC08
:102A10008D8F9E8FAF8FB8A319A21AA21BA21CA2E2
:102A20008E010F5F1F4F7E0125E2E20EF11C209107
:102A3000400D3091410D4091420D5091430DD80110
:102A40006D917D918D919C910E949982E1966CAFE0
:102A50007DAF8EAF9FAFE1972091440D3091450D32
:102A60004091460D5091470DF80164817581868132
:102A700097810E949982AD966CAF7DAF8EAF9FAF6C
:102A8000AD9791014C2DBE0167597F4FCE018359FF
:102A90009F4F0E947C34C358DF4F688379838A83B9
:102AA0009B83CD57D040D80118966D937D938D931D
:102AB0009C931B97045F1F4F0E151F0509F0B7CF9E
:102AC000E296CFACE297C11090C2CD84DE84EF8451
:102AD000F88849885A886B887C888D889E88AF885A
:102AE000B88CA501940169A17AA18BA19CA10E9437
:102AF0009882ED966CAF7DAF8EAF9FAFED97A3013F
:102B000092016D8D7E8D8F8D98A10E949882E9969D
:102B10006CAF7DAF8EAF9FAFE997A7019601698D2E
:102B20007A8D8B8D9C8D0E949882CF57DF4F688362
:102B300079838A839B83C158D040A501940169851C
:102B40007A858B859C850E9498824B015C01A3014C
:102B5000920160E070E080E793E40E9498822B018C
:102B60003C01A701960160E070E080E890EC0E94D3
:102B700098826B017C01ED962CAD3DAD4EAD5FAD05
:102B8000ED97C301B2010E94FD7ECB57DF4F6883F2
:102B900079838A839B83C558D040E9962CAD3DAD9F
:102BA0004EAD5FADE997C501B4010E94FD7E9B016A
:102BB000AC01CB57DF4F688179818A819B81C558F1
:102BC000D0400E949882A1966CAF7DAF8EAF9FAF30
:102BD000A197CF57DF4F288139814A815B81C15846
:102BE000D040C501B4010E94FD7E4B015C01ED9611
:102BF0002CAD3DAD4EAD5FADED97C701B6010E9466
:102C0000FD7E9B01AC01C501B4010E949882A5968E
:102C10006CAF7DAF8EAF9FAFA597E9962CAD3DAD64
:102C20004EAD5FADE997C701B6010E94FD7E6B0115
:102C30007C01CF57DF4F288139814A815B81C158A0
:102C4000D040C301B2010E94FD7E9B01AC01C701CF
:102C5000B6010E949882A9966CAF7DAF8EAF9FAFF0
:102C6000A997CE01835A9F4F0E945539A196CCACAB
:102C7000DDACEEACFFACA197A5964CAC5DAC6EACF8
:102C80007FACA597A9968CAC9DACAEACBFACA99718
:102C900020E030E0A901C501B4010E94987E87FFC1
:102CA0000CC0F7FAF094F7F8F09477FA709477F88C
:102CB0007094B7FAB094B7F8B094A196CCAEDDAEEC
:102CC000EEAEFFAEA197A5964CAE5DAE6EAE7FAEFA
:102CD000A597A9968CAE9DAEAEAEBFAEA9976596F0
:102CE000CCAEDDAEEEAEFFAE659769964CAE5DAE96
:102CF0006EAE7FAE69976D968CAE9DAEAEAEBFAE3A
:102D00006D97CE018F5A9F4F0E94553980E090E019
:102D1000A0E8BFE329968CAF9DAFAEAFBFAF2997B8
:102D20002D961CAE1DAE1EAE1FAE2D97C701B6016F
:102D30009058A50194010E94758361966CAF7DAF98
:102D40008EAF9FAF6197CE018B5B9F4F0E9455392D
:102D50006596CCACDDACEEACFFAC6597ED96CCAE39
:102D6000DDAEEEAEFFAEED9769964CAC5DAC6EACF1
:102D70007FAC69976D968CAC9DACAEACBFAC6D97DB
:102D80002996CCACDDACEEACFFAC2997E996CCAE85
:102D9000DDAEEEAEFFAEE9972D96CCACDDACEEAC81
:102DA000FFAC2D97CF57DF4FC882D982EA82FB82D2
:102DB000C158D0406196CCACDDACEEACFFAC6197B5
:102DC000A7019601C301B2010E94FD7ECB57DF4FE0
:102DD000688379838A839B83C558D040CF57DF4F60
:102DE000288139814A815B81C158D040C501B40135
:102DF0000E94FD7E9B01AC01CB57DF4F688179813A
:102E00008A819B81C558D0400E9498826DA37EA381
:102E10008FA398A7E9962CAD3DAD4EAD5FADE99778
:102E2000C501B4010E94FD7E4B015C01A701960122
:102E3000ED966CAD7DAD8EAD9FADED970E94FD7EA4
:102E40009B01AC01C501B4010E94988269A77AA7D1
:102E50008BA79CA7CF57DF4F288139814A815B819F
:102E6000C158D040ED966CAD7DAD8EAD9FADED9768
:102E70000E94FD7E6B017C01E9962CAD3DAD4EAD0F
:102E80005FADE997C301B2010E94FD7E9B01AC01D9
:102E9000C701B6010E9498826DA77EA78FA798AB45
:102EA000CE0185960E94553929964CAC5DAC6EAC2E
:102EB0007FAC29972D968CAC9DACAEACBFAC2D975A
:102EC0006196CCACDDACEEACFFAC61972DA13EA120
:102ED0004FA158A5ED962CAF3DAF4EAF5FAFED972C
:102EE00089A59AA5ABA5BCA5E9968CAF9DAFAEAF61
:102EF000BFAFE9972DA53EA54FA558A9CF57DF4FE6
:102F0000288339834A835B83C158D04065960CADD2
:102F10001DAD2EAD3FAD659769964CAD5DAD6EAD07
:102F20007FAD69976D968CAD9DADAEADBFAD6D9724
:102F300040926E0750926F0760927007709271070F
:102F40008092720790927307A0927407B0927507EF
:102F5000C0927607D0927707E0927807F0927907CF
:102F6000ED96CCACDDACEEACFFACED97C0927A0741
:102F7000D0927B07E0927C07F0927D07E996CCAC7B
:102F8000DDACEEACFFACE997C0927E07D0927F0734
:102F9000E0928007F0928107CF57DF4FC880D98039
:102FA000EA80FB80C158D040C0928207D09283074C
:102FB000E0928407F09285070093860710938707B5
:102FC000209388073093890740938A0750938B0793
:102FD00060938C0770938D0780938E0790938F0773
:102FE000A0939007B0939107D12C80E00E94BB2D55
:102FF000882321F0D0924C0D0C946A2A0E94D13083
:10300000232821F08FE793E00E94C942E296EFACBB
:10301000E297E1108EC08CE0E3E3F7E0DE019596E5
:1030200001900D928A95E1F781E080934C0DCE01DD
:1030300085960E94986D10924C0DE1962CAD3DAD99
:103040004EAD5FADE1976091330770913407809189
:103050003507909136070E9498824B015C012DEB59
:1030600037E346E855EB0E94BF8418160CF058C0B1
:103070002DEB37E346E855E3C501B4010E94987E85
:1030800087FF4EC020E030E048EA51E4AD966CADD9
:103090007DAD8EAD9FADAD970E9499829B01AC0135
:1030A00060913707709138078091390790913A07FE
:1030B0000E9498824B015C012DEB37E346E855EB0B
:1030C0000E94BF84181664F52DEB37E346E855E3FC
:1030D000C501B4010E94987E87FF22C02091390269
:1030E00030913A0240913B0250913C02C358DF4F6D
:1030F000688179818A819B81CD57D0400E949982D5
:103100009B01AC0160913B0770913C0780913D07AA
:1031100090913E070E9498826DA77EA78FA798ABDB
:103120008CE0FE01B596A3E3B7E001900D928A957D
:10313000E1F70E94A34781E090E090932B0E8093EB
:103140002A0EE296FFACE297FF2011F08D2D01C010
:1031500081E080934C0D882311F40C946A2A0E941C
:10316000382F0C946A2A88E50E947D2E882319F056
:103170000E940F2F0DC020E030E0A90160913307BD
:103180007091340780913507909136070E9499829B
:103190006DA37EA38FA398A789E50E947D2E882327
:1031A00019F00E940F2F0EC020E030E048EA51E4F1
:1031B00060913707709138078091390790913A07ED
:1031C0000E9498826B017C0169837A838B839C8344
:1031D0008090480D9090490DA0904A0DB0904B0DF5
:1031E0002091400D3091410D4091420D5091430D81
:1031F0006DA17EA18FA198A50E9498822B013C0110
:103200002091440D3091450D4091460D5091470D50
:10321000E5962CAF3DAF4EAF5FAFE5972AE130E0CA
:103220004CE152EC0E94BF8487FF02C00C946A2AD2
:1032300027E030E048E453E4C301B2010E94987EE5
:10324000181614F40C946A2AE5962CAD3DAD4EADDB
:103250005FADE597C701B6010E94988220E030E09B
:1032600048EA51E40E9499826B017C0127E137EB27
:1032700041ED58EB0E94BF8487FF02C00C946A2A7C
:1032800023E030E041E953E4C701B6010E94987E93
:10329000181614F40C946A2A20E030E0A901C50144
:1032A000B4010E949982A50194010E9498826B0149
:1032B0007C0127E137EB41ED58EB0E94BF8487FF8B
:1032C00002C00C946A2A27EA39E947EF52E4C701A1
:1032D000B6010E94987E181614F40C946A2A0C9475
:1032E0008A2A8EEF8F0D823010F00C946A2A0E9489
:1032F000234C0E94EA3031E1A32E3DE0B32E43E39C
:10330000C42E47E0D42E00E010E0D5016D917D91F0
:103310008D919D915D01F6012191319141915191E4
:103320006F010E9498829F772EEA37E441EE5CE3BA
:103330000E94BF8487FD3BC086E40E947D2E8111E0
:1033400013C0000F111F000F111FF801E85AFC4FA6
:1033500080819181A281B38180935F02909360020A
:10336000A0936102B09362020E94074B882321F070
:103370000E94D1300C946A2AF2E0FF12F9CFEEE0FD
:10338000FAE084918F010F5F1F4F882321F00E9484
:103390000931F801F6CFE5E6F2E084918F010F5F85
:1033A0001F4F882329F30E940931F801F6CF0F5FE0
:1033B0001F4F0330110509F0A8CFDACF0E94444215
:1033C00081110C946A2AEDE7F2E084918F010F5F7E
:1033D0001F4F882321F00E940931F801F6CF80E2C7
:1033E000E8E6F2E0DE01959601900D928A95E1F70C
:1033F0009E012F5F3F4F19018E010B5D1F4FE12C86
:10340000F12C412C512C90E2692E91E4792E4092BE
:10341000190D50921A0D60921B0D70921C0D80E0D8
:1034200090E0A8E4B3E480935F0290936002A093DD
:103430006102B09362020E9440700E942E4292E0AC
:10344000E916F1040CF520E030E040EE50E4D8013C
:103450006D917D918D919C910E9498826093110D48
:103460007093120D8093130D9093140DF8018481C5
:103470009581A681B7818093150D9093160DA09329
:10348000170DB093180D1FC0F80180819181A281A2
:10349000B3818093110D9093120DA093130DB093EF
:1034A000140D20E030E040EE50E4648175818681A7
:1034B00097810E9498826093150D7093160D8093EA
:1034C000170D9093180D0E9440700E942E4240925A
:1034D0005F0250926002609261027092620226E680
:1034E00036E646E350EC2093190D30931A0D4093C5
:1034F0001B0D50931C0D0E9440700E942E4232E022
:10350000E316F1040CF520E030E040EE50E4D80181
:103510006D917D918D919C910E9499826093110D86
:103520007093120D8093130D9093140DF801848104
:103530009581A681B7818093150D9093160DA09368
:10354000170DB093180D1FC0F80180819181A281E1
:10355000B3818093110D9093120DA093130DB0932E
:10356000140D20E030E040EE50E4648175818681E6
:1035700097810E9499826093150D7093160D809328
:10358000170D9093180D0E94EA300E94074B81118D
:103590000EC00EE913E0D8018D918D01882319F03A
:1035A0000E940931F8CF8AE00E9409315FC00E9471
:1035B000D130609133077091340780913507909135
:1035C0003607F1016083718382839383809037078C
:1035D00090903807A0903907B0903A07848295827E
:1035E000A682B78242E00E940B3485EBC82E83E0AE
:1035F000D82EF60181916F01882319F00E940931BC
:10360000F8CF42E0C501B4010E940B348AE00E9469
:1036100009318091330790913407A0913507B0911B
:1036200036078093110D9093120DA093130DB09354
:10363000140D8091370790913807A0913907B09108
:103640003A078093150D9093160DA093170DB09324
:10365000180DFFEFEF1AFF0A28E0220E311C085F59
:103660001F4F34E0E316F10409F0D1CE80E090E082
:10367000A0E2B1E48093190D90931A0DA0931B0D55
:10368000B0931C0D80E090E0A8E4B3E480935F0267
:1036900090936002A0936102B09362020E94407016
:1036A0000E942E422D853E854F8558896D817E81F1
:1036B0008F8198850E9498826B017C0129853A85CB
:1036C0004B855C8569817A818B819C810E9498827F
:1036D0009B01AC01C701B6010E9475830E9437832C
:1036E0006B017C012D8D3E8D4F8D58A16D897E899A
:1036F0008F89988D0E9498824B015C01298D3A8DAB
:103700004B8D5C8D69897A898B899C890E9498820E
:103710009B01AC01C501B4010E9475830E943783EF
:103720002B013C0120E030E0A901C701B6010E9455
:10373000987E87FF4CC020E030E0A901C301B201B0
:103740000E94987E87FF43C020E030E0A901C701B6
:10375000B6010E94BF84181624F0C701B601905824
:1037600002C0C701B601A30192010E94988220E025
:1037700030E0A9010E94BF8420E030E0A9011816C2
:103780009CF4C701B6010E94BF84181624F0C7013B
:10379000B601905802C0C701B601A30192010E9470
:1037A00098824B015C0126C0C701B6010E94BF840C
:1037B000181624F0C701B601905802C0C701B6011F
:1037C000A30192010E9498824B015C010FC0A301EA
:1037D0009201C701B6010E9498824B015C0120E072
:1037E00030E0A9010E94BF84181624F0B7FAB09403
:1037F000B7F8B0942BED3FE049EC5FE3C501B401AD
:103800000E949882E5966CAF7DAF8EAF9FAFE59733
:1038100081E080936907E5968CAD9DADAEADBFADFF
:10382000E59780936A0790936B07A0936C07B0931A
:103830006D0708EB13E0D8018D918D01882319F0F5
:103840000E940931F8CF42E0C701B6010E940B3453
:103850008AE00E9409310FEB13E0F80181918F019A
:10386000882319F00E940931F8CF42E0C301B20168
:103870000E940B348AE00E94093106EC13E0D80163
:103880008D918D01882319F00E940931F8CF42E013
:10389000C501B4010E940B348AE00E9409310FED8A
:1038A00013E0F80181918F01882319F00E940931FA
:1038B000F8CF20E030E044E353E4C501B4010E94B6
:1038C000FD7E2BED3FE049E450E40E94758342E029
:1038D0000E940B348AE00E94093108EF13E0D801FE
:1038E0008D918D01882319F00E940931F8CF42E0B3
:1038F000E5966CAD7DAD8EAD9FADE5970E940B3426
:103900008AE00E94093105E114E0F80181918F01FC
:10391000882319F00E940931F8CF20E030E044E319
:1039200053E4E5966CAD7DAD8EAD9FADE5970E94FD
:10393000FD7E2BED3FE049E450E40E94758342E0B8
:103940000E940B348AE00E94093102E314E0D8019E
:103950008D918D01882319F00E940931F8CF609173
:103960006A0770916B0780916C0790916D0742E038
:103970000E940B348AE00E9409310C946A2A81E08B
:10398000809397040C946B2A85E40E947D2EB82EB8
:10399000811102C00E942E42F4EF8F2EF2E09F2E82
:1039A000A3E3CA2EA7E0DA2EB4E8EB2EB4E0FB2E98
:1039B00000E010E0A12CF40181914F010E947D2EC6
:1039C000882309F44CC0D6012D913D914D915C9115
:1039D000CF54DF4F2883C15BD040CE54DF4F3883B4
:1039E000C25BD040CC54DF4F4883C45BD040CD5441
:1039F000DF4F5883C35BD0400E940F2FF6016083D6
:103A0000718382839383CF54DF4F2881C15BD04081
:103A1000CE54DF4F3881C25BD040CC54DF4F488159
:103A2000C45BD040CD54DF4F5881C35BD0400330DE
:103A30001105A9F00E9498829B01AC01D7016D91FC
:103A40007D918D919C910E949982F7016083718391
:103A500082839383C8010E948F2FAA24A3940F5FAF
:103A60001F4FF4E0CF0ED11C24E0E20EF11C043015
:103A7000110509F0A0CFAA2019F00E94382F37C0F5
:103A8000BB20A9F1C0903F07D0904007E0904107CC
:103A9000F09042072091F6073091F7074091F80720
:103AA0005091F907C701B6010E94FD7E0E94CA84A9
:103AB0006093B2077093B3078093B4079093B507F0
:103AC000C701B6010E94DD832FB7F8946093A20668
:103AD0007093A3068093A4069093A5062FBF10921F
:103AE000A2071092A3071092A4071092A5070E94A4
:103AF000A3470C946A2A8C38910509F406C408F08F
:103B000085C08836910509F4B6C208F045C08D34E9
:103B1000910509F4ACC2C8F48F31910509F444C190
:103B200048F48131910509F428C1429709F419C676
:103B30000C946A2A8B34910509F47BC208F07DC28B
:103B40008A9709F430C20C946A2A8335910509F4E6
:103B500004C668F48135910509F4EAC582359105FA
:103B600011F00C946A2A109296040C946A2A8535F6
:103B7000910509F427C608F4F4C58C35910511F0B8
:103B80000C946A2A44EFC42E42E0D42E5AEEE52E5D
:103B900057E0F52E10E02FC68F36910509F4EBC2E1
:103BA000B0F48B36910509F4ADC550F48936910512
:103BB00009F4AFC38A36910509F47CC50C946A2ACE
:103BC0008D36910509F4ADC308F46BC3B8C28337D1
:103BD000910509F492C650F48137910509F469C33F
:103BE00008F088C683E093E00E945860883791050A
:103BF00009F450C78937910509F452C787379105F1
:103C000011F00C946A2AE9E1F4E084C68F3231E0C5
:103C1000930711F40C94AC2708F051C08E3C910529
:103C200011F40C94C12628F5893C910509F4A2C72A
:103C300050F48E3B910509F43AC5883C910509F48E
:103C400034C70C946A2A8C3C910509F4C9C710F05A
:103C50000C945A268B3C910511F00C946A2A0AE6C2
:103C6000E02E0DE0F02E04EF12E084E0D82ED00E0E
:103C7000A8C78C3D910511F40C949B2760F4833DFB
:103C8000910511F40C9407278A3D910511F40C94C9
:103C90008F270C946A2A823E910511F40C94A62772
:103CA0008E3251E0950711F40C94A9278D3D9105B2
:103CB00011F00C946A2A0E9488470C946A2A8C3A64
:103CC000A1E09A0711F40C94FF2758F58139E1E03F
:103CD0009E0711F40C94AF2778F4833621E0920705
:103CE00011F40C94072A8039914011F00C946A2A3F
:103CF0000E942E420C946A2A8A3941E0940709F402
:103D0000D4C2843A51E0950711F40C94B227823959
:103D1000914011F00C946A2A80E00E94BB2D0C9413
:103D20006A2A873FB1E09B0711F40C94F12890F4C4
:103D3000853FF1E09F0711F40C94E82810F00C94F3
:103D4000EE28843F914011F00C946A2AEEE0FAE0EC
:103D50000C94D128833543E0940711F40C94FB288C
:103D6000873E53E0950711F40C941E2A8D3592403E
:103D700011F00C946A2A0C9458295F9812988A982A
:103D800047989FB7F894809108018E7F809308012F
:103D90009FBF9FB7F894809108018D7F80930801A1
:103DA0009FBF8D980C946A2A8091B8079091B907AB
:103DB000019719F40E941A3808C06091C2077091E7
:103DC000C3078091C4079091C5070091BE07109169
:103DD000BF072091C0073091C107601B710B820B98
:103DE000930B28EE33E040E050E00E945D8280912A
:103DF000BA079091BB07A091BC07B091BD07BC0169
:103E0000CD01620F731F841F951FECE3CE2ED12CC2
:103E1000E12CF12CA70196010E945D82762E672E7F
:103E2000CA01B901A70196010E945D826B017C0164
:103E3000CA01B90128E130E040E050E00E945D8213
:103E40004B015C01C9016DE671E00E947D858E0128
:103E50000F5F1F4F6115710599F06F927F92DF928E
:103E6000CF929F928F929F938F937F936F938EEBBE
:103E700092E09F938F931F930F930E94697E26C0B9
:103E8000009789F06F927F92DF92CF929F928F92EC
:103E90009F938F938EEA92E09F938F931F930F933C
:103EA0000E94697E13C081149104A104B104B1F091
:103EB0006F927F92DF92CF929F928F9282EA92E0EE
:103EC0009F938F931F930F930E94697E0FB6F89470
:103ED000DEBF0FBECDBFE8E5FBE023C0C114D104B7
:103EE000E104F10469F06F927F92DF92CF928AE948
:103EF00092E09F938F931F930F930E94697EE6CF6A
:103F00006F927F9286E992E09F938F931F930F9316
:103F10000E94697E0F900F900F900F900F900F905E
:103F2000DACF84917F019FEFE91AF90A882321F003
:103F30000E940931F701F5CFB80182ED92E00E94AD
:103F400010318AE00E9409318091FA07882311F428
:103F50000C946A2A1092FA07F090210D0F2D10E0B0
:103F6000000F111F0754194FD8016D917C91072E36
:103F7000000C880B990B0E949E7E20912C023091A0
:103F80002D0240912E0250912F020E94BF841816DC
:103F900014F00C946A2AF801118210828F2D0E946D
:103FA000293B0C946A2A83E50E947D2E882311F414
:103FB0000C946A2A0E94F72E7C018F3F910519F01C
:103FC00010F00C946A2A80E50E947D2E882339F037
:103FD0000E94F72E8C0197FF04C00C946A2A0DE012
:103FE00010E0D02EE8E8F2E0C80199272191319144
:103FF0002817390731F022E0E43FF207B9F70C94B3
:10400000E82A0EE01AE0F8018491882329F00F5F76
:104010001F4F0E940931F7CF0FED12E0F801849194
:10402000882311F40C946A2A0F5F1F4F0E940931F4
:10403000F5CF0E9412430C946A2A8091B8079091A0
:10404000B907019711F00C946A2A82E090E09093EE
:10405000B9078093B8070E941A386093C20770931B
:10406000C3078093C4079093C5070C946A2A0E94E3
:10407000B0420C946A2A88E690E00E94D333811102
:104080000C946A2A80918A0D83FF02C00C946A2ADC
:1040900083E50E947D2E882309F44DC0F0909204A0
:1040A0000E940F2F2F2D30E0220F331F890107545C
:1040B000194F0E94DD83D8016D937C938F2D0E9450
:1040C000293B8091270E9091280E029731F580911F
:1040D0009204811122C00E940F2F20E030E0A9013C
:1040E0000E94987E882369F00E940F2F20911A0663
:1040F00030911B0640911C0650911D060E9499822A
:1041000003C060E070E0CB010E94DD837093BC06C9
:104110006093BB0681E00E94293B0E940F2F20E0A4
:1041200030E04AEA52E40E94987E181614F00E9489
:10413000B0420E940F2F0E94D9540C946A2A8EE438
:104140000E947D2E882311F40C946A2A8091900499
:10415000909191044AE050E060E070E001960E9486
:10416000C47B6093130E7093140E8093150E90937E
:10417000160E0C946A2A83E50E947D2E882319F07E
:104180000E94902E01C080E080938A0DE8E5FBE05C
:1041900084918F010F5F1F4F882321F00E94093106
:1041A000F801F6CFECEFF2E084918F010F5F1F4F23
:1041B000882321F00E940931F801F6CF80918A0D01
:1041C0008823A1F10EEEC02E02E0D02EE12CF12CBE
:1041D00020E080918A0D90E00E2C02C09595879585
:1041E0000A94E2F780FF17C0BB24B394B20E2223D7
:1041F00019F08CE20E940931F60125913491F90100
:10420000849189010F5F1F4F882321F00E9409319B
:104210009801F5CF2B2DFFEFEF1AFF0A32E0C30E06
:10422000D11C45E0E416F104A1F636C0E8EFF2E057
:1042300084918F010F5F1F4F882371F10E94093114
:10424000F801F6CF04E21DE080E20E940931D801B6
:104250006D917D918D919D918D0142E00E940B3475
:104260008CE20E940931F801648175818681978111
:1042700042E00E940B348CE20E940931D8011C9666
:104280006D917D918D919C911F9742E00E940B341E
:10429000BDE00C321B07C1F68AE00E9409310C9484
:1042A0006A2A109218020C946A2A0E9481460C9481
:1042B0006A2A83E50E947D2E882369F00E94902E51
:1042C000809363028D3310F40C946A2A8CE38093FC
:1042D00063020C946A2AE8E5FBE084918F010F5F8A
:1042E0001F4F882321F00E940931F801F6CF409139
:1042F000630250E060E070E08CE093E00E949C314B
:104300008AE00E9409310C946A2A0E9462480C9447
:104310006A2A0E94EB4A10922B0E10922A0E0C94DD
:10432000AA2B8DE690E00E94D33381110C946A2A67
:1043300080918A0D83FF02C00C946A2A83E50E9453
:104340007D2EEA968FAFEA97811105C082E50E9423
:104350007D2E882369F1F09092040E940F2F2F2D5B
:1043600030E0220F331F89010754194F0E94DD836B
:10437000D8016D937C938F2D0E94293B8091270E4D
:104380009091280E029731F480919204882311F4C1
:104390000C94052B0E940F2F20E030E04AEA52E4F3
:1043A0000E94987E181614F40C94272B0E94B04299
:1043B0000E94D95481E08093180210922B0E109223
:1043C0002A0EC358DF4F188219821A821B82CD57DA
:1043D000D040E9961CAE1DAE1EAE1FAEE997E29628
:1043E0001FAEE297CF57DF4F1882C158D0405CE331
:1043F000CB57DF4F5883C558D0408CE1C757DF4FAC
:104400008883C958D04096E4C357DF4F9883CD586E
:10441000D040C12CD12CB0E8EB2E1FEBF12E812C1B
:10442000912C54010091920410E0F801EE0FFF1F4F
:10443000E754F94F60817181072E000C880B990BAE
:104440000E949E7E762E672E582E492E262F372FBD
:10445000482F592FB601C7010E94987E882311F179
:10446000000F111F000F111FF801EF54F94F2081A9
:10447000318142815381672D762D852D942D0E94A7
:10448000987E881F8827881FE2968FAFE297EA966A
:10449000CFACEA97CC2051F0882341F080911802EC
:1044A0000C946A2A7C2C6D2C5E2C4F2C0E941A389E
:1044B0006B017C01DC01CB01E9962CAD3DAD4EAD2D
:1044C0005FADE997821B930BA40BB50BB7FD45C0FD
:1044D000D701C60188519C4FAF4FBF4FE9968CAFB3
:1044E0009DAFAEAFBFAFE9970E947648E6E1F3E03B
:1044F00084918F010F5F1F4F882321F00E940931A3
:10450000F801F6CF81149104A104B104D1F0D501D2
:10451000C401805C904EAF4FBF4FBC01CD016C1900
:104520007D098E099F0928EE33E040E050E00E94AB
:104530005D82CA01B9010E94B7318AE00E94093147
:104540000CC0E3E1F3E084918F010F5F1F4F8823DC
:1045500021F00E940931F801F6CF0E94FA720E9400
:10456000C730E091920494E0E99FF0011124EF54E8
:10457000F94F20803180028113819101A801672DBC
:10458000762D852D942D0E9498829F778114910419
:10459000A104B10449F420E030E040E050E40E947E
:1045A000987E87FF0BC008C020E030E040E850E470
:1045B0000E94BF84181614F446015701E296AFAD6D
:1045C000E297AA2309F457C0C358DF4F28813981E5
:1045D0004A815B81CD57D0402115310541055105F8
:1045E00041F0D701C601821B930BA40BB50BB7FD9D
:1045F00042C09101A801CF57DF4F6881C158D04018
:10460000CB57DF4F7881C558D040C757DF4F8881DF
:10461000C958D040C357DF4F9881CD58D0400E9431
:10462000988220E030E040EC5FE30E94987E87FDB6
:1046300035CFD701C601805A9541AF4FBF4FC35800
:10464000DF4F88839983AA83BB83CD57D040CF5750
:10465000DF4F2882C158D040CB57DF4F3882C55832
:10466000D040C757DF4F0883C958D040C357DF4FEA
:104670001883CD58D04080911802882309F40ECFBA
:1046800081149104A104B10429F4C72CD62CE52C83
:10469000F42CC8CE90E4C91A9FE1D90AE108F108C8
:1046A000C818D908EA08FB08F7FEF8CEEECF0E943A
:1046B0006C4910C783E50E947D2E882321F00E945B
:1046C000EA2E8C0102C00FEF10E080E50E947D2EE3
:1046D000882339F00E94EA2E8230910508F0FAC64C
:1046E00002C080E090E0FC01EE0FFF1FEA57F24F9E
:1046F00098010F3F110519F010F02FEF30E03183D2
:104700002083E8C680E50E947D2E882339F00E9430
:10471000EA2E8230910508F0DDC602C080E090E00C
:10472000880F991FFC01EA57F24F11821082D2C6FE
:104730000E94853B0E942E420E94CD6F1092870DF1
:104740001092860D1092890D1092880D68EE73E01C
:1047500080E090E00E94E237BDC681E0809396043D
:10476000BAC683E50E947D2E882399F00E940F2F00
:1047700020E030E04AE754E40E94FD7E0E94E2839C
:10478000609364027093650280936602909367025F
:10479000A1C688E50E947D2E81115DC789E50E9432
:1047A0007D2E811158C78AE50E947D2E811153C745
:1047B00085E40E947D2E81114EC70E942E420E94E8
:1047C000CD6F88C683E50E947D2E882309F482C6BA
:1047D0000E940F2F20E030E04AE754E40E94FD7E63
:1047E0000E94E2836093340E7093350E8093360EF0
:1047F0009093370E6FC6D6018D916D010E947D2E6C
:10480000882309F46DC0133009F063C00E940F2F94
:104810004B015C0120E030E040EA51E40E94987EC8
:1048200087FF4EC0A50194016091F6077091F707CC
:104830008091F8079091F9070E9475832B013C0144
:104840009B01AC0160915A0D70915B0D80915C0DE4
:1048500090915D0D0E94FD7E60935A0D70935B0DEB
:1048600080935C0D90935D0DA30192016091760D94
:104870007091770D8091780D9091790D0E94FD7E59
:104880006093760D7093770D8093780D9093790DEA
:104890006091D6077091D7078091D8079091D9077A
:1048A0000E949C7EA30192010E94FD7E0E94E283F1
:1048B0006093D6077093D7078093D8079093D90752
:1048C0008092F6079092F707A092F807B092F90746
:1048D00007C00E940F2FF701608371838283938347
:1048E0001F5FF4E0EF0EF11C143009F084CF0E943A
:1048F0003656F0C50E94A347EDC5EAE1F3E0849186
:104900008F010F5F1F4F882309F4E4C50E9409310E
:10491000F801F5CF84918F010F5F1F4F882321F09D
:104920000E940931F801F6CFE1E1F4E084918F01B2
:104930000F5F1F4F882321F00E940931F801F6CF45
:104940008091030180FD03C008E613E002C00DE67C
:1049500013E0D8018D918D01882319F00E9409314F
:10496000F8CF8AE00E940931E9E0F4E084918F01F8
:104970000F5F1F4F882321F00E940931F801F6CF05
:104980004B9903C008E613E002C00DE613E0F801FE
:1049900081918F01882319F00E940931F8CF8AE0B4
:1049A0000E940931E1E0F4E084918F010F5F1F4F15
:1049B000882321F00E940931F801F6CF649903C0E1
:1049C00008E613E002C00DE613E0D8018D918D01D9
:1049D000882319F00E940931F8CF8AE00E9409313A
:1049E000E9EFF3E084918F010F5F1F4F882321F0DF
:1049F0000E940931F801F6CF8091030181FD03C0C7
:104A000008E613E002C00DE613E0F80181918F0182
:104A1000882319F00E940931F8CF8AE00E940931F9
:104A2000E1EFF3E084918F010F5F1F4F882321F0A6
:104A30000E940931F801F6CF4A9903C008E613E055
:104A400002C00DE613E0D8018D918D01882319F085
:104A50000E940931F8CF8AE00E940931E9EEF3E0C3
:104A600084918F010F5F1F4F882321F00E9409312D
:104A7000F801F6CF659903C008E613E002C00DE621
:104A800013E0F80181918F01882309F405CC0E947D
:104A90000931F7CF81E0809327028093220D1BC557
:104AA000109227021092220D15C588EC90E00E940A
:104AB000D33381110FC584E40E947D2E882309F42D
:104AC00009C50E940F2F11E020E030E0A9010E94EB
:104AD000987E811101C010E01093230D112309F479
:104AE00046C00091920410E00E940F2F000F111F8A
:104AF000000F111FF801E35CFD4F60837183828317
:104B0000938320E030E0A90160913D0270913E0264
:104B100080913F02909140020E94987E81110CC0CA
:104B200080E090E0A0E4B0E480933D0290933E02E8
:104B3000A0933F02B093400220E030E0A9016091D1
:104B400041027091420280914302909144020E947E
:104B5000987E81110CC080E090E0A0E4B0E48093E6
:104B6000410290934202A0934302B09344020E94F8
:104B7000E96FB0C49AEDE92E97E0F92E04EF12E048
:104B800024E0D22ED00ED8018D918D010E947D2E71
:104B9000882349F00E940F2F0E94E283F70160836F
:104BA000718382839383F4E0EF0EF11CD012EBCF7C
:104BB0000E9409558FC4F4E0EF0EF11CD01609F4E1
:104BC00089C4D8018D918D010E947D2E882399F38F
:104BD0000E940F2FF7016083718382839383EBCF51
:104BE00083E50E947D2E8823D9F00E940F2FAB0110
:104BF000BC014093620D5093630D6093640D7093FC
:104C0000650D40935E0D50935F0D6093600D709342
:104C1000610D8DE894E00E94EC358AE00E94093134
:104C200080E50E947D2E882399F00E940F2FAB0112
:104C3000BC014093620D5093630D6093640D7093BB
:104C4000650D80E794E00E94EC358AE00E9409310E
:104C500082E50E947D2E882399F00E940F2FAB01E0
:104C6000BC014093660D5093670D6093680D70937F
:104C7000690D81E594E00E94EC358AE00E940931DB
:104C800084E50E947D2E882309F424C40E940F2FFE
:104C9000AB01BC0140935E0D50935F0D6093600DBE
:104CA0007093610D83E394E00E94EC358AE00E94EA
:104CB000093110C483E50E947D2E882351F00E94A3
:104CC0000F2F6093820D7093830D8093840D9093CA
:104CD000850D84E50E947D2E882351F00E940F2FC0
:104CE00060937E0D70937F0D8093800D9093810D66
:104CF00082E40E947D2E882351F00E94042F60934D
:104D00007A0D70937B0D80937C0D90937D0D88E5DB
:104D1000F4D7882351F00E940F2F60934E0D7093AB
:104D20004F0D8093500D9093510D89E5E6D7882360
:104D300051F00E940F2F6093520D7093530D80938A
:104D4000540D9093550D8AE5D8D7882351F00E94D1
:104D50000F2F6093560D7093570D8093580D9093BD
:104D6000590D85E4CAD7882309F4B4C30E940F2FD4
:104D700060935A0D70935B0D80935C0D90935D0D65
:104D8000A9C3A4EFAA2EA2E0BA2EB3E3CB2EB7E0BC
:104D9000DB2E17E2E12E17E0F12E00E010E0D50146
:104DA0008D915D01AAD7882311F10E940F2F2B014D
:104DB0003C01F70120813181428153810E94988218
:104DC0009B01AC01D6016D917D918D919C910E94CA
:104DD0009982F6016083718382839383D7014D9218
:104DE0005D926D927C921397C8010E948F2F0F5F86
:104DF0001F4FB4E0CB0ED11CE4E0EE0EF11C0330EB
:104E0000110569F60E94382F0E94A34763C3E8E5A5
:104E1000FBE084918F010F5F1F4F882321F00E94D8
:104E20000931F801F6CFE9EDF4E084918F010F5FCD
:104E30001F4F882321F00E940931F801F6CFE5EDDC
:104E4000F4E084918F010F5F1F4F882321F00E94AF
:104E50000931F801F6CFEDECF4E084918F010F5F9A
:104E60001F4F882321F00E940931F801F6CF4091AD
:104E70000C0250910D0260910E0270910F028BECAA
:104E800094E00E94EC354091100250911102609123
:104E900012027091130288EC94E00E94EC3540916C
:104EA000140250911502609116027091170285EC60
:104EB00094E00E94EC35EDEBF4E084918F010F5FFC
:104EC0001F4F882321F00E940931F801F6CF40914D
:104ED00000025091010260910202709103028BEB7B
:104EE00094E00E94EC3540910402509105026091DB
:104EF00006027091070288EB94E00E94EC35409125
:104F000008025091090260910A0270910B0285EB30
:104F100094E00E94EC358AE00E940931DBC28AED00
:104F200090E00E94D3338111D5C2109192041123D5
:104F300009F4D0C2BFC383E5E0D6882309F4CAC20E
:104F400056D790935E0280935D02C4C20E9432479E
:104F5000C1C20E94BF46BEC20E94A446BBC281E03D
:104F60000AD6B8C283E5C9D6882329F008D7182FF6
:104F70000E943F4D01C010E0F0904C0D111103C094
:104F8000E8E5FBE01AC0F110FBCFEEE0FAE0849117
:104F90008F010F5F1F4F882321F00E940931F80114
:104FA000F6CFE7E0F5E084918F010F5F1F4F882374
:104FB00039F30E940931F801F6CF84918F010F5F18
:104FC0001F4F882321F00E940931F801F6CFF1101C
:104FD00003C06BE773E002C067E773E089EF94E01A
:104FE0000E9410318AE00E94093186E586D6882326
:104FF00009F470C281E893E00E94C9426BC2E7E203
:10500000F7E0E396FFAFEEAFE39753E3252E57E0CB
:10501000352E26E637E0EF963FAF2EAFEF9700E054
:1050200010E0EF964EAD5FADEF9746565740EB96CA
:105030005FAF4EAFEB97EF96AEADBFADEF978D91F3
:10504000EF96BFAFAEAFEF97882309F496C0F80193
:10505000E050FE4F2081318142815381F801E45FAD
:10506000FD4F60817181828193810E94998220E04D
:1050700030E040E05FE30E94FD7E9B01AC01F10166
:1050800060817181828193810E94BF8418162CF403
:10509000C801845D9B4E3DD703C060E070E0CB014A
:1050A000D1018D909D90AD90BC90F801E05CF24FE5
:1050B00020813181428153810E9499829B01AC0100
:1050C000C501B4010E9498826B017C0120E030E0B0
:1050D00040EA51EC0E94BF841816C4F520E030E08D
:1050E00040EA51E4C701B6010E94987E87FF2EC0B6
:1050F000E396EEADFFADE397408051806280738010
:10510000A7019601C301B2010E9498826B017C0144
:10511000A30192010E9498829B01AC01C501B401D8
:105120000E949982D1016D937D938D939C931397E7
:10513000E396EEADFFADE397C082D182E282F382C7
:10514000EB968EAD9FADEB97EAD617C00EE01AE056
:10515000F8018491882329F00F5F1F4F0E940931C5
:10516000F7CF06E215E0F8018491882309F4B2C173
:105170000F5F1F4F0E940931F6CFE3962EAD3FAD72
:10518000E3972C5F3F4FE3963FAF2EAFE3970C5F63
:105190001F4F34E0230E311C0C30110509F041CFB4
:1051A00031CE84918F010F5F1F4F882321F00E9421
:1051B0000931F801F6CFE4E4F5E084918F010F5F47
:1051C0001F4F882309F486C10E940931F801F5CFE9
:1051D0000E94A95D80E00E944B5A7CC10E94A95D9B
:1051E00079C183E58AD5882319F0C9D591E089274B
:1051F0000E944B5A6FC1E8E5FBE084918F010F5F7D
:105200001F4F882321F00E940931F801F6CFE8E60C
:10521000F5E084918F010F5F1F4F882319F0F9D7B4
:10522000F801F7CF80E2F5D78AE567D5882391F1B9
:10523000F6D56B017C0120E030E040E252EC0E94A8
:10524000BF8487FD18C020E030E040E252E4C7018F
:10525000B6010E94987E181674F0C0923902D0925E
:105260003A02E0923B02F0923C0242E0C701B601F2
:105270000E940B3411C868ED7FEF80E695E00E9434
:10528000BC3380E2C6D768E270E088E595E00E9412
:10529000BC3302C84091390250913A0260913B02FE
:1052A00070913C0285E595E00E94EC350C944C2110
:1052B0000E942E4283E521D5882331F031D590E03C
:1052C0009093280E8093270E8091270E9091280EA0
:1052D00097FD8CC0823091050CF48CC0029709F0C8
:1052E00085C088E50AD5882339F199D56B017C0101
:1052F0000E9449609B01AC0160E070E0CB010E941C
:1053000098829B01AC01C701B6010E94BF841816A8
:1053100014F485D509C00E9449609B01AC0160E08E
:1053200070E0CB010E949882609355027093560200
:10533000809357029093580282E5DFD4882349F086
:105340006ED560931A0670931B0680931C0690938B
:105350001D06E8E5FBE084918F010F5F1F4F882356
:1053600019F057D7F801F7CFE1E7F5E084918F0105
:105370000F5F1F4F882319F04CD7F801F7CF80E259
:1053800048D76091240D7091250D8091260D909144
:10539000270D42E00E940B348CE23BD760912C0D2C
:1053A00070912D0D80912E0D90912F0D42E00E9455
:1053B0000B3480E22ED76091550270915602809195
:1053C00057029091580242E00E940B348CE221D7A0
:1053D0006091300D7091310D8091320D9091330DAF
:1053E00042E00E940B348AE014D704C01092280EC9
:1053F0001092270E1092290E1092EB0C10922C0E88
:1054000010922D0E10922E0E10922F0E63C0EEE011
:10541000FAE084918F010F5F1F4F882319F0F9D6AE
:10542000F801F7CFE1E8F5E084918F010F5F1F4F9E
:10543000882309F44FC0EDD6F801F6CF81E08093C0
:10544000190283E55AD4882309F481C198D48111C3
:1054500041C07DC1182F8091210D181741F083E5BF
:105460004CD4082F882321F08AD4082F01C001E0F2
:1054700086E443D4882351F0D2D420E030E040E7E2
:1054800052E40E947583AB01BC0103C040E050E0D0
:10549000BA01202F812F0E94A6431CC080E01BC0B0
:1054A0002091390230913A0240913B0250913C02E6
:1054B000C701B6010E94998227E137EB41ED58E31D
:1054C0000E94998242E00E940B348AE0A2D669D6FB
:1054D0000E94A34781E010922B0E10922A0E811198
:1054E00016C00C949D0C84918F010F5F1F4F882371
:1054F00019F08FD6F801F7CF60911E0670911F0644
:1055000080E995E08DD682E284D68AE082D60E9438
:10551000BB7520C183E5F1D3882309F457C02FD48C
:10552000482F80E0CC54DF4F4883C45BD0400E94BA
:105530003F4D50D621E030E0CC54DF4F4881C45B72
:10554000D040BE016F5F7F4FCE0185960E947C34B4
:105550006B017C01EDE5F2E084918F010F5F1F4F3D
:10556000882319F056D6F801F7CF27E137EB41ED44
:1055700058E36DA17EA18FA198A50E94998242E077
:105580000E940B34E8E5F2E084918F010F5F1F4F1A
:10559000882319F03ED6F801F7CF27E137EB41ED2C
:1055A00058E369817A818B819C810E94998242E0D3
:1055B0000E940B34E3E5F2E084918F010F5F1F4FEF
:1055C000882309F46DCF25D6F801F6CF41E0A9CFA5
:1055D00061E08D2D0E94DF366E2D8D2D0E94B0363C
:1055E000B7018D2D0E941B370530110529F4F0926B
:1055F000890DE092880D6ECF0B30110509F06ACF4E
:10560000F092870DE092860D65CF09D420E030E05E
:10561000A9010E94987E882361F001D420911A0686
:1056200030911B0640911C0650911D060E949982E4
:1056300003C060E070E0CB010E94DD837093BC0684
:105640006093BB0681E00E94293B0C94CA210E9412
:1056500012430C94D8210E942E4288E54ED3882311
:1056600021F05F9A129A1092230789E546D3882386
:1056700021F08A9A479A109224078AE53ED388231C
:1056800051F09FB7F89480910801816080930801E0
:105690009FBF1092250785E430D3882309F41ACFE1
:1056A0009FB7F894809108018260809308019FBFA2
:1056B0008D9A10CF88E521D3882359F0B0D324E008
:1056C000129FF0011124EC5DF24F6083718382839D
:1056D000938389E512D3882379F00091920410E036
:1056E0009ED3000F111F000F111FF801E45DF24F50
:1056F00060837183828393838AE5FFD2882379F064
:105700000091920410E08BD3000F111F000F111FA6
:10571000F801EC5CF24F6083718382839383E8E548
:10572000FBE084918F010F5F1F4F882319F071D523
:10573000F801F7CFE9EEF4E084918F010F5F1F4F7E
:10574000882311F40C94222164D5F801F5CF0E942E
:10575000DA75C0CECC54DF4F0FB6F894DEBF0FBE63
:10576000CDBFDF91CF911F910F91FF90EF90DF9010
:10577000CF90BF90AF909F908F907F906F905F90F1
:105780004F903F902F9008958FB7F8949091120EFC
:105790002091110E291759F0E92FF0E0EF56F24F42
:1057A000208130E09F5F9F779093120E02C02FEF11
:1057B0003FEF8FBFC9010895CF92EF92FF920F93F1
:1057C0001F93CF93DF93CDB7DEB72C970FB6F89426
:1057D000DEBF0FBECDBFC090210DE3E3F7E08085B3
:1057E0009185A285B3854481558166817781008149
:1057F00011812281338109831A832B833C834D835A
:105800005E836F83788789879A87AB87BC87AE0171
:10581000475F5F4FBE016B5F7F4FCE0101960E94D5
:10582000FC6EAE01475F5F4FBE016B5F7F4FCE01E5
:1058300001960E94516DE0905F02F090600200912D
:105840006102109162022FE337E0AE01475F5F4FC4
:10585000BE016B5F7F4FCE0101960E947B602C964C
:105860000FB6F894DEBF0FBECDBFDF91CF911F9171
:105870000F91FF90EF90CF9008954F925F926F92AB
:105880007F928F929F92AF92BF92CF92DF92EF92D0
:10589000FF920F931F93CF93DF935C014B01EA01BB
:1058A000890140905F0250906002609061027090A8
:1058B0006202288139814A815B8160913B07709146
:1058C0003C0780913D0790913E070E94987E87FF9C
:1058D0002AC0F801C080D180E280F38020E030E06F
:1058E000A901C701B6010E94987E811107C025E574
:1058F000C22EDC2C25E8E22E21E4F22EC0925F02BB
:10590000D0926002E0926102F092620288819981F5
:10591000AA81BB8180933B0790933C07A0933D07EE
:10592000B0933E0749DFF801C080D180E280F38068
:1059300020E030E0A901C701B6010E94987E8111E4
:1059400007C095E5C92EDC2C95E0E92E93E4F92EED
:10595000C0925F02D0926002E0926102F092620215
:10596000F50180819181A281B38180933307909367
:105970003407A0933507B0933607F40180819181F5
:10598000A281B3818093370790933807A09339079A
:10599000B0933A0711DF288139814A815B81609198
:1059A0003B0770913C0780913D0790913E070E9414
:1059B000BF84181654F5F801C080D180E280F380CE
:1059C00020E030E0A901C701B6010E94987E811154
:1059D00007C085E5C82EDC2C85E8E82E81E4F82E8A
:1059E000C0925F02D0926002E0926102F092620285
:1059F00088819981AA81BB8180933B0790933C0762
:105A0000A0933D07B0933E07D7DE0E942E424092FE
:105A10005F02509260026092610270926202DF91B6
:105A2000CF911F910F91FF90EF90DF90CF90BF909B
:105A3000AF909F908F907F906F905F904F90089560
:105A40008F929F92AF92BF92CF92DF92EF92FF928E
:105A5000CF93DF93CDB7DEB728970FB6F894DEBFAC
:105A60000FBECDBF2091480D3091490D40914A0D98
:105A700050914B0D0E9499826B017C0169837A835E
:105A80008B839C838090390290903A02A0903B02D5
:105A9000B0903C0220E030E0A901C501B4010E94B1
:105AA000987E87FF0AC0A5019401C701B6010E9434
:105AB000988269837A838B839C8320913B07309102
:105AC0003C0740913D0750913E0769817A818B8167
:105AD0009C810E94BF8418167CF41D821E821F8246
