:100000000C94C2170C94F3170C94F3170C94F31779
:100010000C94F3170C94F3170C94F3170C94F31738
:100020000C94F3170C94F3170C94F3170C94F31728
:100030000C94F3170C94F3170C94F3170C94F31718
:100040000C94F3170C94E2920C94F3170C94F3179E
:100050000C94F3170C94F3170C946B590C94D6452D
:100060000C94F3170C94E38A0C94F3170C94F31785
:100070000C94F3170C94F3170C94F3170C94F317D8
:100080000C94F3170C94F3170C94F3170C94F317C8
:100090000C94F3170C94F3170C94F3170C94F317B8
:1000A0000C94F3170C94F3170C94F3170C94F317A8
:1000B0000C94F3170C94F3170C94F3170C94F31798
:1000C0000C94F3170C94F3170C94F3170C94F31788
:1000D0000C94F3170C94F3170C94F3170C94F31778
:1000E0000C94F31753445644454449444F448D44BB
:1000F0005A445E44644468446C44724476447A448E
:100100008D44804484448844F244F744FC440645CA
:10011000104589451A4522452A4534453E454845FE
:100120005745614589456B4575457F45FA590A5ADA
:10013000295A395A545A645A7F5A845A875A8C5ABF
:100140008F5A945A9E5A084AD73B3BCE016E84BCC4
:10015000BFFDC12F3D6C74319ABD56833DDA3D0021
:10016000C77F11BED9E4BB4C3E916BAAAABE00006A
:1001700000803F05A84CCDB2D44EB93836A9020C48
:1001800050B9918688083CA6AAAA2ABE0000008021
:100190003F0664EC1B3C04BC163E3BE5B93CC93C45
:1001A00037C29E5A3D660498083EEA69AAAA3E00F4
:1001B0000000803F434F4D4D554E49434154494FF8
:1001C0004E0044525952554E004552524F52530020
:1001D000494E464F004543484F0047322F47332092
:1001E00062616420706172616D65746572730A008A
:1001F000536C6565702E2E2E003F2856296572625D
:100200006F7365204C6576656C20697320696D702D
:100210006C61757369626C652028302D34292E0A53
:1002200000205A3A200020593A20004265642058A4
:100230003A20004661696C656420746F20726561C4
:100240006368207461726765740A003E20342D7003
:100250006F696E742061786973207371756172695A
:100260006E670A003344205072696E7465722072A2
:10027000656164792E005761697420666F7220751C
:100280007365722E2E2E002569730025696D202559
:100290006973002569682025696D2025697300252B
:1002A0006964202569682025696D2025697300250A
:1002B000697920256964202569682025696D2025D4
:1002C0006973005072696E742074696D653A20001C
:1002D00050726F7465637465642050696E0A0045DE
:1002E0002569202573003344205072696E7465724D
:1002F0002072656164792E00D501D001C901C20167
:10030000B4016F66660044454255473A004B494C7C
:100310004C45442E20004D3131332053006F6B008B
:1003200042656420646F6E652E003F0A0020573AD4
:10033000004265642048656174696E672E004D3126
:10034000343520533C696E6465783E206F757420A7
:100350006F662072616E67652028302D31290A0092
:1003600020643A0020693A0020703A0020643A0084
:1003700020693A0020703A0043290A0061626C65E6
:100380006420286D696E2074656D702000436F6C69
:1003900064206578747275646573206172652000ED
:1003A0004B64200023646566696E652020444546E1
:1003B00041554C545F004B69200023646566696EAB
:1003C00065202044454641554C545F004B70200049
:1003D00023646566696E65202044454641554C544A
:1003E0005F00504944204175746F74756E652066D6
:1003F000696E69736865642120507574207468653E
:10040000206C617374204B702C204B6920616E64EA
:10041000204B6420636F6E7374616E747320667218
:100420006F6D2062656C6F7720696E746F20436F0B
:100430006E66696775726174696F6E2E680A005026
:100440004944204175746F74756E65206661696CEE
:100450006564212074696D656F75740A00504944A4
:10046000204175746F74756E65206661696C656492
:10047000212054656D706572617475726520746FAA
:100480006F20686967680A00204B643A2000204B9F
:10049000693A2000204B703A20000A20436C6173B7
:1004A00073696320504944200A002054753A2000A3
:1004B000204B753A2000206D61783A2000206D694C
:1004C0006E3A200020643A200020626961733A206D
:1004D00000426564204C6576656C696E6720004655
:1004E00061696C656420746F20656E61626C652063
:1004F000426564204C6576656C696E670A004F66DC
:100500006673657473206170706C69656400457210
:10051000723A20546F6F206661722100546F6F2011
:100520006661722066726F6D207265666572656EB7
:10053000636520706F696E740A00454550524F4DD7
:100540002064697361626C65640A004E6F206361A8
:100550007365206C696768740A00556E6B6E6F77FF
:100560006E20636F6D6D616E643A20220000060993
:1005700000FE000000000001090008FE0000050860
:100580000806000040F0C88888987810050808061A
:100590000000C0F88888888888F8050505060001ED
:1005A0002030F830200508080600002070F82020D0
:1005B0002020E00509090600FF2070A8A8B8888857
:1005C00070200509090600FFE080C0B0A828302887
:1005D000280509090600FFF8A88888888888A8F8EF
:1005E000050A0A0600FE205050505088A8A88870BE
:1005F00003030306000340A0405A005900580009B5
:1006000020000000000000000000000000007FFF4C
:10061000E00000000000000000000000007000E0AA
:1006200000000000000000000000000061F8600011
:10063000000000000000000000000041F820000061
:100640000000000000000000000040F0200000005A
:1006500000000000000000000040602000000000DA
:1006600000000000000000005801A07F80003FC093
:10067000000000004104005C63A0FBC00079E000C2
:100680000000002082005EF7A0F3C00076E00000CA
:1006900000002082005EF7A0EBC0007EE0000000BA
:1006A000004104005C63A07B80003DC000000000AE
:1006B0008208005801A07B80003BC00000000104BC
:1006C0001000406020FBC00077E000000001041033
:1006D0000040F020FBC00070E00000000082080035
:1006E00041F820FFC0007FE00000000041040061ED
:1006F000F8603F00001F8000000000000000700054
:10070000E01E00000F0000000001FFFF807FFFE0FF
:100710000C0000060000000001FFFF800000000048
:1007200000000000000000000000007FFFE000006B
:10073000000000000000000000007000E000000069
:10074000000000000000000000630C6000000000DA
:100750000000000000000000470E20000000000024
:10076000000000000000004F0F200000000000000B
:100770000000000000005F0FA0000000000000006B
:1007800000000000005E07A07F80003FC000000066
:1007900000410400406020FBC00079E00000000040
:1007A00020820040F020F3C00076E000000000202E
:1007B000820040F020EBC0007EE000000000410419
:1007C000004060207B80003DC000000000820800E7
:1007D0005E07A07B80003BC0000000010410005FAA
:1007E0000FA0FBC00077E0000000010410004F0FD5
:1007F00020FBC00070E000000000820800470E20CF
:10080000FFC0007FE000000000410400630C603F77
:1008100000001F80000000000000007000E01E00CB
:10082000000F0000000001FFFF807FFFE00C0000D0
:10083000060000000001FFFF80000000436F6E749F
:10084000726F6C00507265706172650054756E65F0
:1008500000496E666F2073637265656E00466C6F4B
:1008600077203200466C6F77203200466C6F77201D
:100870003100466C6F77203100466C6F7700466C14
:100880006F770046616E20737065656420320046A4
:10089000616E20737065656420320046616E20735E
:1008A0007065656420310046616E20737065656413
:1008B00020310042656400426564004E6F7A7A6CB4
:1008C000652032004E6F7A7A6C652032004E6F7A66
:1008D0007A6C652031004E6F7A7A6C652031005356
:1008E00070656564005370656564004D61696E00F4
:1008F00000002100240027002A002D0030003300D2
:1009000001010000040107010A0150726568656178
:100910007420504C412042656400507265686561E6
:100920007420504C4120416C6C00507265686561C8
:100930007420504C4120456E642045320050726551
:100940006865617420504C412032005072656865C2
:10095000617420504C4120456E6420453100507236
:10096000656865617420504C41203100507265709B
:100970006172650050726568656174204142532060
:10098000426564005072656865617420414253207D
:10099000416C6C005072656865617420414253205F
:1009A000456E64204532005072656865617420416F
:1009B0004253203200507265686561742041425391
:1009C00020456E6420453100507265686561742071
:1009D00041425320310050726570617265004D34A0
:1009E000323800507265686561742041425300508E
:1009F00072656865617420504C4100436F6F6C6490
:100A00006F776E004D38340044697361626C652005
:100A100073746570706572730053657420686F6DD0
:100A200065206F666673657473004732380A473213
:100A30003900473239004C6576656C206265640088
:100A4000473238004175746F20686F6D65004D6FD7
:100A500076652061786973004D61696E004D6F762F
:100A6000652058004D6F76652059004D6F766520E2
:100A70005A004578747275646572320045787472F4
:100A80007564657231004D6F766520302E316D6D65
:100A9000004D6F766520316D6D004D6F76652031AC
:100AA000306D6D004D6F7665206178697300457813
:100AB000747275646572004D6F7665205A004D6FD3
:100AC00076652059004D6F76652058001000C902E8
:100AD00010012C014001220170011801B0010E012A
:100AE000F00104015002FA00B002F0003003E60009
:100AF000D003DC009004D2007005C800A006BE0040
:100B00000008B400B009AA00D00BA000600E960047
:100B100060118C000015820020197800C01D6E0045
:100B2000A0226400B0275A00902C500000314600EB
:100B3000E0343C0010383200903A2800603C1E003F
:100B4000A03D1400803E0A00203F00004572723A2A
:100B5000204D494E54454D50204245440045727247
:100B60003A204D494E54454D50004D494E54454D47
:100B70005020747269676765726564004572723AE5
:100B8000204D415854454D50204245440045727215
:100B90003A204D415854454D50004D415854454D13
:100BA0005020747269676765726564001FFFFFFFFC
:100BB000FFFFFF600000000001FF40000000000098
:100BC000FF8000000000007F83CF00000C303F87D3
:100BD000FF80000C301F867980000C000F8C30C71E
:100BE000838C30E78C30CFC7CC31F38C30DCECEC2D
:100BF00033B98C30D86C6C33198C30D06C0C331901
:100C00008C30D86C0C33198C30DC6C0E3B198C306A
:100C1000CF7C079F198C30C77C038F1940000000E0
:100C2000000002600000000000061FFFFFFFFFFF42
:100C3000F820204D383531205A005A2D50726F62FD
:100C400065204F666673657420286D6D293A0A0029
:100C500020204D3230302044300A0020204D3230E8
:100C60003020543120440020204D323030204400C8
:100C70002044697361626C65640A0046696C616D49
:100C8000656E742073657474696E67733A002044EE
:100C90000020490020204D333034205000204400F3
:100CA00020490020204D33303120500020440020C6
:100CB000490020500020204D33303120450050495C
:100CC000442073657474696E67733A0A00204600A5
:100CD00020420020480020204D3134352053004D63
:100CE0006174657269616C206865617475702070EB
:100CF0006172616D65746572733A0A0020204D342B
:100D000032302053004175746F20426564204C6579
:100D100076656C696E673A0A00205A0020590020F7
:100D2000580020204D323138205400486F74656ED1
:100D300064206F66667365747320286D6D290A00E0
:100D4000205A0020590020204D32303620580048CB
:100D50006F6D65206F666673657420286D6D290A56
:100D600000204500205A0020590020580020420051
:100D700020540020204D32303520530041647661EC
:100D80006E636564207661726961626C65733A2096
:100D9000533D4D696E2066656564726174652028F7
:100DA0006D6D2F73292C20543D4D696E2074726136
:100DB00076656C20666565647261746520286D6D6A
:100DC0002F73292C20423D6D696E696D756D2073FE
:100DD00065676D656E742074696D6520286D732973
:100DE0002C20583D6D6178696D756D205859206AC9
:100DF00065726B20286D6D2F73292C20205A3D6D54
:100E00006178696D756D205A206A65726B20286D56
:100E10006D2F73292C2020453D6D6178696D756DAE
:100E20002045206A65726B20286D6D2F73290A009A
:100E300020540020520020204D32303420500041F8
:100E40006363656C65726174696F6E733A20503DBF
:100E50007072696E74696E672C20523D726574728F
:100E600061637420616E6420543D74726176656CB8
:100E70000A00204500205A0020590020204D323021
:100E8000312058004D6178696D756D20416363654F
:100E90006C65726174696F6E20286D6D2F733229D5
:100EA0003A0A00204500205A0020590020204D32E7
:100EB00030332058004D6178696D756D2066656529
:100EC00064726174657320286D6D2F73293A0A006E
:100ED000204500205A0020590020204D393220584A
:100EE0000053746570732070657220756E69743A72
:100EF0000A007A5F6D61783A20007A5F6D696E3A18
:100F00002000795F6D61783A2000795F6D696E3AF3
:100F10002000785F6D61783A2000785F6D696E3AE5
:100F200020005265706F7274696E6720656E64731D
:100F3000746F70207374617475730A00205A3A20BC
:100F40000020593A200042656420583A2000207061
:100F50006F736974696F6E206F7574206F6620728D
:100F6000616E67652E0A003F50726F626520004E09
:100F70006F206D6F76652E005374616E64617264CC
:100F800020446576696174696F6E3A200020526171
:100F90006E67653A2000204D61783A2000204D6947
:100FA0006E3A20004D65616E3A200046696E6973A5
:100FB00068656421002072616E67653A2000206DCB
:100FC00061783A2000206D696E3A200020736967CD
:100FD0006D613A2000206D65616E3A20003A207AFA
:100FE0003A2000206F662000205A00205900205827
:100FF00000476F696E6720746F3A00436C6F636BD4
:10100000776973650A00436F756E7465722D0020F1
:10101000446972656374696F6E3A20002020206114
:101020006E676C653A20005374617274696E672054
:101030007261646975733A2000506F736974696FE7
:101040006E696E67207468652070726F62652E2EFF
:101050002E0A003F4E756D626572206F66206C65CA
:10106000677320696E206D6F76656D656E74206E96
:101070006F7420706C61757369626C652028302D07
:101080003135292E0A00590058003F53616D706CAC
:10109000652073697A65206E6F7420706C6175735A
:1010A00069626C652028342D3530292E0A004D34B4
:1010B00038205A2D50726F626520526570656174D8
:1010C0006162696C69747920546573740A003F56D3
:1010D0006572626F7365204C6576656C206E6F7407
:1010E00020706C61757369626C652028302D34291D
:1010F0002E0A0000002200250028002B002E0031BF
:1011000000340002010000050108010B010000206D
:10111000002300260029002C002F003200000100CF
:101120000003010601090105050505070508080872
:1011300008020202020A0A08080404040401010168
:101140000101010101030303030303030304070770
:10115000070C0C0C0C0C0C0C0C020202020606060E
:1011600006060606060B0B0B0B0B0B0B0B010210F6
:1011700020200808102040102040800201020108B1
:101180000402010102040810204080804020100861
:1011900004020180040201804020100804020108BA
:1011A000040201010204081020408001020408101A
:1011B00020408000000A0B02090C0D0E08070304F2
:1011C000010000000000000000000000000000001E
:1011D00000000000000000000000000000000012FD
:1011E00011100000000000000000000000000000DE
:1011F0000000000000000000004B494C4C45442E0C
:101200002000202D20496E76616C69642065787419
:101210007275646572206E756D62657220210A00B8
:101220004572726F723A002020506C616E6E65726A
:1012300042756666657242797465733A200020468D
:10124000726565204D656D6F72793A2000436F6D50
:1012500070696C65643A204170722020342032300D
:1012600031370A00207C20417574686F723A20285B
:101270006F70656E617373656D626C6965732E6303
:101280006F6D2C20436F6E66696720666F72204613
:10129000444D3444204D616368696E652C2044756B
:1012A000616C204578747275646572290A00323069
:1012B00031362D31322D30362031323A3030002067
:1012C0004C61737420557064617465643A20003118
:1012D0002E312E302D52434275674669780A004DF3
:1012E00061726C696E0020536F667477617265205D
:1012F00052657365740A00205761746368646F6790
:101300002052657365740A002042726F776E206FF9
:1013100075742052657365740A002045787465728F
:101320006E616C2052657365740A00506F77657248
:1013300055700A0073746172740A00456E647374A8
:101340006F707320256320256320256320256300AB
:10135000205A3A0020593A0020583A00656E6473CA
:10136000746F7073206869743A20004578747275E0
:101370006465723200457874727564657231004537
:1013800078747275646572004D6F7665205A004DF1
:101390006F76652059004D6F766520580050726554
:1013A0007061726500526573746F72652066616961
:1013B0006C736166650046696C616D656E74004DA5
:1013C0006F74696F6E0054656D70657261747572CB
:1013D00065004D61696E004D333033205531204535
:1013E0002569205325690050726568656174204144
:1013F000425320636F6E66005072656865617420A9
:10140000504C4120636F6E66005049442041757412
:101410006F74756E6500504944204175746F747522
:101420006E65005049442D44005049442D440050FD
:1014300049442D49005049442D49005049442D50FC
:10144000005049442D50002008204661637400205C
:10145000082046616374002008204D617800200850
:10146000204D6178002008204D696E002008204D35
:10147000696E004F6666004F6E20004175746F7490
:10148000656D700046616E20737065656420320082
:1014900046616E20737065656420320046616E207F
:1014A000737065656420310046616E2073706565F8
:1014B0006420310042656400426564004E6F7A7AB0
:1014C0006C652032004E6F7A7A6C652032004E6F68
:1014D0007A7A6C652031004E6F7A7A6C6520310023
:1014E000436F6E74726F6C00426564004265640005
:1014F0004E6F7A7A6C65004E6F7A7A6C6500466141
:101500006E2073706565640046616E20737065655A
:10151000640054656D7065726174757265000006D3
:101520000900FE070192032120FFFF08FF07FF00CB
:10153000000006000001070706020080808080800E
:101540000080030202060105A0A0050707060000AF
:101550005050F850F850500507070600002078A0BA
:101560007028F020050707060000C0C8102040982A
:10157000180507070600006090A040A890680203C5
:1015800003060104C04080030707060100204080D5
:101590008080402003070706010080402020204073
:1015A0008005050506000120A870A8200505050690
:1015B00000012020F820200203030602FFC0408023
:1015C000050101060003F8020202060200C0C00580
:1015D00005050600010810204080050707060000E9
:1015E0007088888888887003070706010040C0401B
:1015F000404040E0050707060000708808708080C2
:10160000F8050707060000F81020100808F0050785
:101610000706000010305090F8101005070706006C
:1016200000F880F008088870050707060000708041
:1016300080F0888870050707060000F80810202051
:1016400020200507070600007088887088887005CC
:1016500007070600007088887808087002050506EC
:101660000200C0C000C0C00206060602FFC0C000E3
:10167000C040800407070600001020408040201072
:10168000050303060002F800F804070706010080BE
:1016900040201020408005070706000070880810D1
:1016A00020002005070706000070880868A8A870B9
:1016B000050707060000708888F8888888050707EE
:1016C000060000F08888F08888F00507070600000B
:1016D00070888080808870050707060000F0888881
:1016E000888888F0050707060000F88080F0808071
:1016F000F8050707060000F88080F0808080050765
:1017000007060000708880B8888870050707060003
:1017100000888888F888888801070706020080808A
:1017200080808080800507070600003810101010A8
:1017300090600507070600008890A0C0A09088056B
:101740000707060000808080808080F80507070674
:10175000000088D8A88888888805070706000088C0
:1017600088C8A898888805070706000070888888B8
:10177000888870050707060000F08888F080808060
:1017800005070706000070888888A8906805070785
:10179000060000F08888F0A0908805070706000082
:1017A000788080700808F0050707060000F8202000
:1017B0002020202005070706000088888888888860
:1017C000700507070600008888888888502005076C
:1017D000070600008888888888A850050707060043
:1017E00000888850205088880507070600008888F0
:1017F0008850202020050707060000F80810204028
:1018000080F8030707060100E08080808080E00503
:1018100005050600018040201008030707060100A7
:10182000E02020202020E00503030600042050884B
:10183000050101060000F8020202060205804005CB
:10184000050506000070087888780507070600007F
:101850008080B0C88888F00505050600007080808B
:1018600088700507070600000808689888887805CA
:1018700005050600007088F880700507070600005F
:101880003048E0404040400506060600FF7088886A
:101890007808700507070600008080B0C88888882F
:1018A000010707060200800080808080800308080E
:1018B0000601FF200020202020A04004070706008A
:1018C00000808090A0C0A090030707060100C040E0
:1018D00040404040E0050505060000D0A8A8A8A8A3
:1018E000050505060000B0C88888880505050600BE
:1018F0000070888888700506060600FFF08888F06A
:1019000080800506060600FF7888887808080505A7
:1019100005060000B0C8808080050505060000703F
:10192000807008F00407070600004040E040404097
:1019300030050505060000888888986805050506B5
:10194000000088888850200505050600008888A8C2
:10195000A850050505060000885020508805060699
:101960000600FF888888780870050505060000F8DD
:10197000102040F803070706010020404080404047
:101980002001070706020080808080808080030796
:10199000070601008040402040408005020206000A
:1019A0000268900000000600000000000600000031
:1019B0000000060000000000060000000000060015
:1019C000000000000600000000000600000000000B
:1019D00006000000000006000000000006000000F5
:1019E00000000600000000000600000000000600E5
:1019F00000000000060000000000060000000000DB
:101A000006000000000006000000000006000000C4
:101A100000000600000000000600000000000600B4
:101A200000000000060000000000060000000000AA
:101A30000600000000000600000000000600000094
:101A40000000060000000000060000000000060084
:101A5000000000000600000000000600000000007A
:101A60000600000000000600000000000600000163
:101A70000707060200800080808080800507070637
:101A800000002070A8A0A8702005070706000030FD
:101A90004040E04050A805050506000088705070E1
:101AA00088050707060000885020F820F820010765
:101AB00007060200808080008080800508080600FC
:101AC000003048205050209060030101060107A01B
:101AD000050707060000F888B8B8B888F8050707B2
:101AE000060001700878887800F8050505060001F1
:101AF0002850A05028050303060001F80808020238
:101B0000020602064080050707060000F888A8883C
:101B100098A8F8050101060006F80404040600036D
:101B2000609090600507070600002020F820200044
:101B3000F804050506000360902040F00305050643
:101B40000003E020E020E0020202060206408005D9
:101B500008080600FF8888888898E88080050707BD
:101B600006000078989878181818020202060202F7
:101B7000C0C00202020602FF408003050506000302
:101B800040C04040E0050707060001708888887063
:101B900000F8050505060001A0502850A00507071C
:101BA0000600008890A858B8080805070706000036
:101BB0008890B848982038050808060000C040C042
:101BC00048D8380808050707060000200020408094
:101BD00088700508080600004020007088F8888892
:101BE0000508080600001020007088F8888805089D
:101BF000080600002050007088F88888050808064C
:101C000000006890007088F88888050808060000C1
:101C10005000708888F88888050808060000205061
:101C2000207088F888880507070600003860A0B88B
:101C3000E0A0B80508080600FF7088808088702042
:101C400060050808060000402000F880F080F805D4
:101C50000808060000081000F880F080F805080861
:101C6000060000205000F880F080F8050707060005
:101C7000005000F880F080F803080806010080405A
:101C800000E0404040E0030808060100204000E07A
:101C9000404040E003080806010040A000E040404A
:101CA00040E0030707060100A000E0404040E005D7
:101CB0000707060000704848E8484870050808060D
:101CC000000068900088C8A89888050808060000E9
:101CD0004020708888888870050808060000102059
:101CE00070888888887005080806000020500070F9
:101CF0008888887005080806000068900070888849
:101D00008870050808060000500070888888887070
:101D100005050506000188502050880508080600C2
:101D2000FF1070A8A8A8A870400508080600004089
:101D30002088888888887005080806000010208898
:101D40008888888870050808060000205000888868
:101D500088887005080806000050008888888888F0
:101D6000700508080600001020885020202020055B
:101D700009090600FFC040704848704040E0040870
:101D8000080601FF609090A09090E080050808068A
:101D900000004020007008788878050808060000D8
:101DA0001020007008788878050808060000205088
:101DB00000700878887805080806000068900070B0
:101DC00008788878050707060000500070087888B2
:101DD00078050808060000205020700878887805EB
:101DE0000606060000D02878A0A8500506060600C2
:101DF000FF70808870206005080806000040200001
:101E00007088F880700508080600001020007088AF
:101E1000F880700508080600002050007088F880DF
:101E20007005070706000050007088F880700308EE
:101E30000806010080400040C04040E0030808065A
:101E4000010020400040C04040E0030808060100B7
:101E500040A00040C04040E0030707060100A0008A
:101E600040C04040E0050707060000A040A01078F1
:101E70008870050808060000689000B0C888888847
:101E80000508080600004020007088888870050852
:101E90000806000010200070888888700508080671
:101EA000000020500070888888700508080600002F
:101EB0006890007088888870050707060000500049
:101EC00070888888700505050600012000F800204C
:101ED0000507070600FF1070A8A8A87040050808AD
:101EE00006000040200088888898680508080600D9
:101EF00000102000888888986805080806000020DF
:101F000050008888889868050707060000500088F8
:101F1000888898680509090600FF102000888888CD
:101F2000F808700407070601FFC04060506040E0F9
:101F30000508080600FF50008888887808704E6FF2
:101F4000204C696E65204E756D62657220776974EC
:101F50006820636865636B73756D2C204C617374C6
:101F6000204C696E653A20004B494C4C45442E206C
:101F70000053544F505045442E20005072696E74E7
:101F800065722073746F7070656420647565207469
:101F90006F206572726F72732E20466978207468A4
:101FA00065206572726F7220616E642075736520A2
:101FB0004D39393920746F20726573746172742ED3
:101FC000202854656D70657261747572652069733F
:101FD0002072657365742E205365742069742061C6
:101FE000667465722072657374617274696E6729B4
:101FF0000A004E6F20436865636B73756D207769C7
:102000007468206C696E65206E756D6265722C2037
:102010004C617374204C696E653A20006368656397
:102020006B73756D206D69736D617463682C204CE2
:10203000617374204C696E653A20004C696E6520AE
:102040004E756D626572206973206E6F74204C61ED
:102050007374204C696E65204E756D6265722B310C
:102060002C204C617374204C696E653A20004D3110
:1020700031300020496E76616C6964206578747235
:1020800075646572200000004843000091439A99EE
:10209000F74200001CC20000000000000000457371
:1020A000746570732F6D6D004573746570732F6D5B
:1020B0006D005A73746570732F6D6D005A7374657B
:1020C00070732F6D6D005973746570732F6D6D0093
:1020D0005973746570732F6D6D00587374657073E8
:1020E0002F6D6D005873746570732F6D6D00412DE9
:1020F00074726176656C00412D74726176656C0056
:10210000412D7265747261637400412D7265747241
:1021100061637400416D6178204500416D617820F4
:102120004500416D6178205A00416D6178205A0068
:10213000416D6178205900416D6178205900416DF1
:102140006178205800416D617820580056547261C2
:1021500076206D696E005654726176206D696E004E
:10216000566D696E00566D696E00566D617820453A
:1021700000566D6178204500566D6178205A0056F2
:102180006D6178205A00566D6178205900566D6156
:1021900078205900566D6178205800566D6178207E
:1021A000580056652D6A65726B0056652D6A65721A
:1021B0006B00567A2D6A65726B00567A2D6A6572CD
:1021C0006B0056792D6A65726B0056792D6A6572BF
:1021D0006B0056782D6A65726B0056782D6A6572B1
:1021E0006B00416363656C00416363656C005A205A
:1021F0004F6666736574005A204F66667365740097
:10220000436F6E74726F6C0046696C2E2044696176
:102210002E20320046696C2E204469612E20320047
:1022200046696C2E204469612E20310046696C2E6F
:10223000204469612E2031004F6666004F6E2000F9
:102240004520696E206D6D3300436F6E74726F6C44
:102250000024F4D43050C38E20C2A24017828B7069
:1022600011127A910D816CD90AA861E108C75866EC
:1022700007615143061E4B5D05C145A7041A411174
:1022800004093D9803713931034036DB026533910F
:1022900002D4305402802E1D02632CEE01752AC533
:1022A00001B028A001102781018F2564012B244B48
:1022B00001E0223401AC211F018D200D01801FFCA3
:1022C00000841EED00971DDF00B81CD200E61BC67F
:1022D00000201BBC00641AB200B219A8000A19A0A1
:1022E000006A189900D117910040178B00B5168429
:1022F0000031167E00B31579003A157300C7146FCC
:102300000058146A00EE1366008813630025135EFC
:1023100000C7125B006C12570015125400C1115116
:102320000070114F0021114B00D61049008D10474D
:10233000004610440002104200C00F4000800F3ED3
:1023400000420F3C00060F3B00CB0E3800930E37C7
:10235000005C0E3500270E3400F30D3200C10D3144
:1023600000900D3000600D2E00320D2D00050D2C5B
:1023700000D90C2B00AE0C2900850C29005C0C2721
:1023800000350C27000E0C2600E80B2400C40B249B
:1023900000A00B23007D0B23005A0B2100390B21D9
:1023A00000180B2000F80A1F00D90A1E00BB0A1EE5
:1023B000009D0A1D00800A1D00630A1C00470A1BBD
:1023C000002C0A1B00110A1A00F7091A00DD09196E
:1023D00000C4091900AB091900920917007B0918FC
:1023E00000630917004C091600360916002009166B
:1023F000000A091500F5081500E0081400CC0814BF
:1024000000B8081400A4081400900813007D0812F6
:10241000006B081300580812004608120034081117
:1024200000230811001208110001081100F0071024
:1024300000E0071000D0071000C0071000B0070F21
:1024400000A107100091070E0083070F0074070F0B
:102450000065070E0057070E0049070E003B070DE9
:10246000002E070E0020070D0013070D0006070DB4
:1024700000F9060C00ED060D00E0060C00D4060C79
:1024800000C8060C00BC060C00B0060C00A4060B2D
:102490000099060C008D060B0082060B0077060BD8
:1024A000006C060B0061060A0057060B004C060A7A
:1024B0000042060A0038060A002E060A0024060A10
:1024C000001A060A001006090007060A00FD0509A1
:1024D00000F4050900EB050900E2050900D905092A
:1024E00000D0050900C7050900BE050900B50508AB
:1024F00000AD050800A50509009C05080094050825
:10250000008C050800840508007C05080074050897
:10251000006C050700650508005D05070056050805
:10252000004E05070047050700400508003805076D
:1025300000310507002A050700230507001C0506D2
:1025400000160507000F050700080506000205072D
:1025500000FB040600F5040700EE040600E804068C
:1025600000E2040700DB040600D5040600CF0406E1
:1025700000C9040600C3040600BD040600B7040633
:1025800000B1040500AC040600A6040600A0040582
:10259000009B04060095040500900406008A0405CB
:1025A0000085040500800406007A04050075040512
:1025B00000700405006B0405006604050061040555
:1025C000005C04050057040500520405004D040595
:1025D0000048040500430405003E0404003A0405D5
:1025E0000035040500300404002C04050027040411
:1025F00000230405001E0404001A04040016040548
:1026000000110404000D040400090405000404047E
:102610000000040400FC030400F8030400F40304B5
:1026200000F0030400EC030400E8030400E40304E6
:1026300000E0030400DC030400D8030400D4030416
:1026400000D0030400CC030400C8030300C5030347
:102650000024F404D9201BC40C5C0E9804C4095F48
:102660000265077101F405F900FB04B30048048713
:1026700000C10369005803550003034500BE023A38
:10268000008402310053022A00290225000402209E
:1026900000E4011C00C8011900AF011700980114E3
:1026A0000084011300710110006101100051010E3E
:1026B0000043010D0036010B002B010B0020010B24
:1026C00000150109000C01090003010800FB0008C6
:1026D00000F3000800EB000700E4000600DE00063F
:1026E00000D8000600D2000600CC000500C7000597
:1026F00000C2000500BD000400B9000400B50004DC
:1027000000B1000400AD000400A9000400A500030E
:1027100000A20003009F0004009B00030098000338
:10272000009500020093000300900003008D00025A
:10273000008B000300880002008600020084000372
:1027400000810002007F0002007D0002007B000289
:102750000079000200770001007600020074000298
:102760000072000100710002006F0002006D0001A4
:10277000006C0002006A00010069000200670001AD
:1027800000660001006500010064000200620001B3
:102790000061000100600001005F0002005D0001B7
:1027A000005C0001005B0001005A000100590001BB
:1027B00000580001005700010056000100550001BB
:1027C00000540001005300000053000100520001BA
:1027D0000051000100500001004F0001004E0000B8
:1027E000004E0001004D0001004C0001004B0000B4
:1027F000004B0001004A00010049000100480000B0
:1028000000480001004700010046000000460001AA
:1028100000450000004500010044000100430000A5
:10282000004300010042000000420001004100009E
:102830000041000100400001003F0000003F000196
:10284000003E0000003E0001003D0000003D000190
:10285000003C0000003C0000003C0001003B000088
:10286000003B0001003A0000003A0001003900007E
:102870000039000100380000003800000038000175
:10288000003700000037000100360000003600006D
:102890000036000100350000003500000035000161
:1028A0000034000000340000003400010033000058
:1028B000003300000033000100320000003200004D
:1028C0000032000100310000003100000031000141
:1028D000003000000030000000300001002F000038
:1028E000002F0000002F0000002F0001002E00002C
:1028F000002E0000002E0001002D0000002D000021
:10290000002D0000002D0001002C0000002C000014
:10291000002C0000002C0001002B0000002B000008
:10292000002B0000002B0001002A0000002A0000FC
:10293000002A0000002A00010029000000290000F0
:1029400000290000002900000029000100280000E3
:1029500000280000002800000028000000280001D6
:1029600000270000002700000027000000270000CB
:1029700000270001002600000026000000260000BD
:1029800000260000002600010025000000250000B0
:1029900000250000002500000025000000250001A2
:1029A0000024000000240000002400000024000097
:1029B0000024000100230000002300000023000089
:1029C000002300000023000000230000002300017A
:1029D000002200000022000000220000002200006F
:1029E0000022000000220001002100000021000060
:1029F0000021000000210000002100000021000053
:102A00000021000100200000002000000020000044
:102A10000020000000200000002000000020000036
:102A200000200001001F0000001F0000001F000028
:102A3000001F0000001F0000001F0000001F000119
:102A4000001E0000001E0000001E0000001E00000E
:102A50000020746F6F206C6F6E67206578747275DC
:102A600073696F6E2070726576656E7465640A00B6
:102A700020636F6C6420657874727573696F6E2063
:102A800070726576656E7465640A0020746F6F20DD
:102A90006C6F6E6720657874727573696F6E2070E5
:102AA000726576656E7465640A0020636F6C6420DD
:102AB000657874727573696F6E2070726576656E75
:102AC0007465640A00627573793A20706175736584
:102AD0006420666F7220696E7075740A0062757387
:102AE000793A2070617573656420666F7220757322
:102AF00065720A00627573793A2070726F6365734C
:102B000073696E670A004B494C4C45442E20004BBC
:102B1000494C4C45442E2000506C65617365207211
:102B200065736574005052494E5445522048414CDB
:102B3000544544005072696E7465722068616C740B
:102B400065642E206B696C6C28292063616C6C6550
:102B500064210A0000001CC2000000009A99F7429C
:102B6000656E7175657565696E67202200576172C3
:102B70006E696E673A20486F6D696E672042756DA9
:102B8000702044697669736F72203C20310A00001E
:102B900000A0400000A0400000004000006F430083
:102BA0000091439A99F742FFFF0148617264636F95
:102BB0006465642044656661756C74205365747443
:102BC000696E6773204C6F616465640A0046495200
:102BD0004D574152455F4E414D453A4D61726C69CA
:102BE0006E20312E312E302D524342756746697862
:102BF00020284769746875622920534F5552434510
:102C00005F434F44455F55524C3A68747470733A51
:102C10002F2F6769746875622E636F6D2F4D617217
:102C20006C696E4669726D776172652F4D61726C69
:102C3000696E2050524F544F434F4C5F564552538C
:102C4000494F4E3A312E30204D414348494E455F61
:102C5000545950453A3344205072696E746572205D
:102C600045585452554445525F434F554E543A329D
:102C700020555549443A63656465326132662D34A6
:102C80003161322D343734382D396231322D63358C
:102C9000356336326633363766660A0053657474B8
:102CA000696E672054726176656C20416363656C60
:102CB00065726174696F6E3A200053657474696E51
:102CC00067205265747261637420416363656C654B
:102CD000726174696F6E3A200053657474696E672F
:102CE000205072696E7420416363656C6572617413
:102CF000696F6E3A200053657474696E6720507274
:102D0000696E7420616E642054726176656C204136
:102D10006363656C65726174696F6E3A2000205A56
:102D200000205900580020204D61783A2000205A98
:102D300000205900580020204D696E3A20004F664F
:102D40006600536F667420656E6473746F70733AB7
:102D50002000486F74656E64206F666673657473D7
:102D60003A003A20007A5F6D61783A20007A5F6D10
:102D7000696E3A20005A204F666673657400486F8A
:102D800074656E64206F6666736574733A004163A0
:102D9000746976652045787472756465723A2000AE
:102DA0004E6F206D6F7665206F6E20746F6F6C6351
:102DB00068616E67650A002040002042403A0020AA
:102DC000403A00202800202F002054002028002016
:102DD0002F0020423A00202800202F0020543A00E3
:102DE00048656174696E6720646F6E652E003F0AE6
:102DF0000020573A004525692025730033442050B0
:102E000072696E7465722072656164792E00334454
:102E1000205072696E746572204F66662E00205ACB
:102E20003A0020593A0020436F756E7420583A00DA
:102E300020453A00205A3A0020593A00583A0020DA
:102E40006669727374005A0059005800486F6D65C6
:102E500020002066697273740A005A0059005800F5
:102E6000486F6D6520006563686F3A006265640AAB
:102E7000002C2073797374656D2073746F707065A6
:102E80006421204865617465725F49443A200048B6
:102E9000656174696E67206661696C656400486588
:102EA0006174696E67206661696C6564004865617C
:102EB00074696E67206661696C6564004865617459
:102EC000696E67206661696C6564001000C002600D
:102ED00003D800B006AF00000A9800500D8900A08A
:102EE000107D00F013730040176A00901A6300E031
:102EF0001D5B003021550080244E00D02747002064
:102F00002B4100702E3A00C031320010352A00608B
:102F1000381F00B03B1100003F0000544845524D9F
:102F2000414C2052554E4157415900546865726DCD
:102F3000616C2052756E6177617900526573656EC0
:102F4000643A20006F6B004E414E494E4954594936
:102F50004E46CDCCCC3D0AD7233C17B7D13877CCE1
:102F60002B329595E6241FB14F0A00002041000046
:102F7000C84200401C4620BCBE4CCA1B0E5AAEC5FF
:102F80009D74C9D211241FBECFEFD1E2DEBFCDBFE9
:102F900000E00CBF15E0A0E0B2E0EAEDF0EC01E0EB
:102FA0000BBF02C007900D92A839B107D9F721E1F4
:102FB000A8E9B5E001C01D92AA3CB207E1F717E10C
:102FC000C2ECD7E100E006C021970109802FFE0185
:102FD0000E9429D4C13CD10780E00807A9F70E94CC
:102FE000ADCC0C946BE00C9400002F923F924F926A
:102FF0005F926F927F928F929F92AF92BF92CF9289
:10300000DF92EF92FF920F931F93CF93DF93CDB791
:10301000DEB7CB5CD1090FB6F894DEBF0FBECDBFD3
:1030200000912B0920E6029F800111240E541A4FB3
:1030300010933307009332078091550F80FF18C01B
:10304000E6E6FEE284917F013FEFE31AF30A88236C
:1030500021F00E949C87F701F5CFD8018D918D0159
:10306000882319F00E949C87F8CF8AE00E949C87F1
:103070002091320730913307F90180812F5F3F4F54
:103080008032D1F3F0933307E09332078E3469F046
:1030900010913207009133076AE270E0812F902F80
:1030A0000E944AD70097D1F420C0818190ED980FFB
:1030B0009A3010F08D3261F73296DF0131962C9103
:1030C00020532A30D0F3CD01FC010196208120321B
:1030D000D9F3F0933307E0933207DACFFC0131964E
:1030E0008291803231F08A3221F0A12FB02F4D91A0
:1030F00002C01082F5CFFD01808111968032D9F394
:1031000080538A3020F0E6E6FEE20C94B63920E0E7
:1031100030E05AE0529FC001539F900D11249C0152
:10312000205331098191280F311D87FD3A95808107
:1031300090ED980F9A3070F38E32B1F4BF016F5F4B
:103140007F4FF12CFB016F5F7F4F508180ED850F2A
:103150008A3058F48F2D880F982F990F990F890F67
:103160008053F82EF50EEECFF12C8F013196D80159
:103170008C918032D1F31093B1050093B00581E0BA
:1031800090E09093840F8093830F4D3411F40C944E
:103190007029443511F40C946739473411F00C94BC
:1031A0008F392D31310509F4A7C798F42430310542
:1031B00030F48091CE022230310580F139C02430C4
:1031C000310509F4C9C62C31310509F403C70C9443
:1031D000AD392732310511F40C94D32560F42E312A
:1031E000310511F40C94A8242632310511F40C9405
:1031F00066250C94AD392B35310511F40C94B428A7
:103200002C35310511F40C94B9282A35310511F00B
:103210000C94AD391092AF050C94AD39882311F49C
:103220000C94AD390E94B5670E941FAD0C94AD3966
:10323000882311F40C94AD3911E02230310509F0E6
:1032400010E00E94B56782E50E94AD84882309F4EE
:1032500076C10E943F856B017C014090D10F509058
:10326000D20F6090D30F7090D40F2091D50F309172
:10327000D60F4091D70F5091D80FE5962CAF3DAFA8
:103280004EAF5FAFE5978091910F9091920FA09113
:10329000930FB091940FED968CAF9DAFAEAFBFAFD3
:1032A000ED972091950F3091960F4091970F509187
:1032B000980FC358DF4F288339834A835B83CD57E8
:1032C000D04020E030E0A901C701B6010E9449DCEE
:1032D000882309F427C6A3019201ED966CAD7DAD5C
:1032E0008EAD9FADED970E9449DC811113C0E5962C
:1032F0002CAD3DAD4EAD5FADE597C358DF4F688156
:1033000079818A819B81CD57D0400E9449DC8823F6
:1033100009F408C620E030E0A901C701B6010E9407
:1033200049DC881F8827881F18130DC080E090E0B3
:10333000A0E8BFE3C757DF4F88839983AA83BB8385
:10334000C958D0400CC020E030E040E85FEBC757E0
:10335000DF4F288339834A835B83C958D040A30158
:103360009201ED966CAD7DAD8EAD9FADED970E9457
:1033700038D4CF57DF4F688379838A839B83C158C2
:10338000D040E5962CAD3DAD4EAD5FADE597C35851
:10339000DF4F688179818A819B81CD57D0400E941F
:1033A00038D4CB57DF4F688379838A839B83C55892
:1033B000D040CF57DF4F288139814A815B81C15886
:1033C000D040CA01B9010E94AEDC4B015C01CB5771
:1033D000DF4F288139814A815B81C558D040CA01BD
:1033E000B9010E94AEDC9B01AC01C501B4010E9491
:1033F00039D40E94CAD6E9966CAF7DAF8EAF9FAF2D
:10340000E99720E030E040E05FE30E94AEDC4B0152
:103410005C01A7019601C701B6010E94AEDC6B01F9
:103420007C01A5019401C501B4010E94AEDC9B01A1
:10343000AC01C701B6010E9438D40E94CAD69B01D4
:10344000AC01C757DF4F688179818A819B81C95858
:10345000D0400E94AEDC4B015C01ED962CAD3DAD41
:103460004EAD5FADED97C301B2010E9439D420E0AB
:1034700030E040E05FE30E94AEDC6B017C01CB57A3
:10348000DF4F688179818A819B81C558D0409058EF
:10349000E9962CAD3DAD4EAD5FADE9970E9425D5C7
:1034A0009B01AC01C501B4010E94AEDC9B01AC01E3
:1034B000C701B6010E9439D4A30192010E9438D4F9
:1034C0006B017C01C358DF4F288139814A815B81C0
:1034D000CD57D040E5966CAD7DAD8EAD9FADE597F7
:1034E0000E9439D420E030E040E05FE30E94AEDC8F
:1034F0002B013C01E9962CAD3DAD4EAD5FADE9979A
:10350000CF57DF4F688179818A819B81C158D04034
:103510000E9425D59B01AC01C501B4010E94AEDC1F
:103520009B01AC01C301B2010E9439D4E5962CADD8
:103530003DAD4EAD5FADE5970E9438D414C089E42F
:103540000E94AD84882329F00E943F856B017C0195
:1035500003C0C12CD12C76018AE40E94AD8488235B
:10356000F9F00E943F85E5966CAF7DAF8EAF9FAFBF
:10357000E59720E030E0A901C701B6010E9449DCCF
:1035800081111EC020E030E0A901E5966CAD7DAD53
:103590008EAD9FADE5970E9449DC811111C0C2C478
:1035A00020E030E0A901C701B6010E9449DC882370
:1035B00009F4B8C4E5961CAE1DAE1EAE1FAEE5976D
:1035C000A7019601C701B6010E94AEDC4B015C0168
:1035D000E5962CAD3DAD4EAD5FADE597CA01B901A5
:1035E0000E94AEDC9B01AC01C501B4010E9439D43C
:1035F0000E94CAD6C756DF4F688379838A839B832C
:10360000C959D0408091D10F9091D20FA091D30F82
:10361000B091D40FC358DF4F88839983AA83BB83AB
:10362000CD57D040A7019601BC01CD010E9439D4ED
:10363000CF55DF4F688379838A839B83C15AD040FB
:103640002091D50F3091D60F4091D70F5091D80FC0
:10365000CF57DF4F288339834A835B83C158D040DB
:10366000E5962CAD3DAD4EAD5FADE597CF57DF4F45
:10367000688179818A819B81C158D0400E9439D468
:10368000CB55DF4F688379838A839B83C55AD040AB
:103690008091D90F9091DA0FA091DB0FB091DC0FE0
:1036A000C757DF4F88839983AA83BB83C958D0400B
:1036B0009C01AD016091990F70919A0F80919B0FC1
:1036C00090919C0F0E9438D4E9966CAF7DAF8EAF7D
:1036D0009FAFE99720919D0F30919E0F40919F0FD2
:1036E0005091A00FC356DF4F288339834A835B83F1
:1036F000CD59D0408091DD0F9091DE0FA091DF0F6A
:10370000B091E00FC357DF4F88839983AA83BB83AF
:10371000CD58D040A70196015058ED962CAF3DAF43
:103720004EAF5FAFED97E5964CAC5DAC6EAC7FAC49
:10373000E59777FA709477F87094C090910FD090D5
:10374000920FE090930FF090940FCB57DF4FC88209
:10375000D982EA82FB82C558D040CF55DF4F2881FD
:1037600039814A815B81C15AD040C701B6010E94AC
:1037700038D46B017C012091950F3091960F4091C8
:10378000970F5091980FCB56DF4F288339834A8388
:103790005B83C559D040CB55DF4F288139814A81A1
:1037A0005B81C55AD040CB56DF4F688179818A81D1
:1037B0009B81C559D0400E9438D44B015C01A701C0
:1037C0009601ED966CAD7DAD8EAD9FADED970E94EF
:1037D000AEDCCF56DF4F688379838A839B83C159E0
:1037E000D040A5019401C301B2010E94AEDC9B014F
:1037F000AC01CF56DF4F688179818A819B81C159A5
:10380000D0400E9439D4CF56DF4F688379838A83B2
:103810009B83C159D040A5019401ED966CAD7DAD5F
:103820008EAD9FADED970E94AEDC4B015C01A70110
:103830009601C301B2010E94AEDC9B01AC01C5013F
:10384000B4010E9438D4CF56DF4F288139814A8194
:103850005B81C159D0400E94B7D46B017C0120E04C
:1038600030E0A9010E9449DC87FF0AC02BED3FE050
:1038700049EC50E4C701B6010E9439D46B017C01C8
:10388000112351F02BED3FE049EC50E4C701B601A4
:103890000E9438D46B017C0120E030E0A901C7010F
:1038A000B6010E9449DC811132C0CB57DF4F28811D
:1038B00039814A815B81C558D040C358DF4F688148
:1038C00079818A819B81CD57D0400E9449DC81114A
:1038D0001EC0CB56DF4F288139814A815B81C55993
:1038E000D040CF57DF4F688179818A819B81C15851
:1038F000D0400E9449DC81110AC02BED3FE049EC29
:1039000050E4C701B6010E9439D46B017C01C7564F
:10391000DF4F288139814A815B81C959D040C70175
:10392000B6010E94AEDC9B01AC010E94AEDC4B01F3
:103930005C01E9962CAD3DAD4EAD5FADE997CA0196
:10394000B9010E94AEDC9B01AC01C501B4010E942B
:1039500039D40E94CAD64B015C012FE632E143E81C
:103960005AE30E9449DC87FDD9C2C501B4010E9417
:10397000CBD50E949CD5CB57DF4F79836883C55840
:10398000D040672B41F481E090E0CB57DF4F998323
:103990008883C558D040CB57DF4FA881B981C5581F
:1039A000D040BD0180E090E00E944DDC4B015C0105
:1039B0009B01AC01C701B6010E9425D5C358DF4F5A
:1039C000688379838A839B83CD57D040A501940176
:1039D000E9966CAD7DAD8EAD9FADE9970E9425D582
:1039E000C755DF4F688379838A839B83C95AD04048
:1039F000C357DF4F288139814A815B81CD58D04040
:103A0000C356DF4F688179818A819B81CD59D0402F
:103A10000E9438D4A50194010E9425D5C355DF4FDB
:103A2000688379838A839B83CD5AD040C358DF4F04
:103A3000288139814A815B81CD57D040CA01B901C3
:103A40000E94AEDC20E030E040E05FE30E94AEDCAC
:103A50009B01AC0160E070E080E89FE30E9438D4F5
:103A6000CB56DF4F688379838A839B83C559D040C7
:103A7000C757DF4FC880D980EA80FB80C958D04043
:103A8000C986DA86EB86FC86C357DF4FC880D980AB
:103A9000EA80FB80CD58D040CD86DE86EF86F88A5E
:103AA00060911D0270911E02072E000C880B990B6D
:103AB0000E944FDC20917F02309180024091810270
:103AC000509182020E94AEDC2AE037ED43E25CE3D3
:103AD0000E94AEDCC756DF4F688379838A839B835D
:103AE000C959D0400E94CA459B01AC0128533F4FA1
:103AF0004F4F5F4FC356DF4F288339834A835B8321
:103B0000CD59D040EA96DFACEA97E696DFAEE6976D
:103B1000EB96DFACEB97CF57DF4FD882C158D04040
:103B2000EC962FACEC97ED963FACED9721E030E0B2
:103B3000C357DF4F39832883CD58D040C757DF4F55
:103B40001882C958D040C357DF4F48815981CD589A
:103B5000D040CB57DF4F88819981C558D040481756
:103B6000590709F495C10E944BC50E94CA45DC0162
:103B7000CB01C356DF4FC880D980EA80FB80CD5986
:103B8000D0408C199D09AE09BF09B7FD12C00E9433
:103B9000CA459B01AC0128533F4F4F4F5F4FC3565F
:103BA000DF4F288339834A835B83CD59D0400E94FD
:103BB000DCAFC757DF4F3881C958D0403F5FC75788
:103BC000DF4F3883C958D04039310CF05CC0CB5638
:103BD000DF4F288139814A815B81C559D040C301BB
:103BE000B2010E94AEDC6B017C01C358DF4F28811B
:103BF00039814A815B81CD57D040E6966FADE6971B
:103C0000CF57DF4F7881C158D040C1010E94AEDC50
:103C1000A70196010E9439D47B018C01CB56DF4F5E
:103C2000288139814A815B81C559D040E6966FADC4
:103C3000E697CF57DF4F7881C158D040C1010E942D
:103C4000AEDC4B015C01C358DF4F288139814A81CA
:103C50005B81CD57D040C301B2010E94AEDC9B0115
:103C6000AC01C501B4010E9438D4E6966FAFE69767
:103C7000CF57DF4F7883C158D0401C01C701D8010E
:103C80002C013D0169C0C357DF4F48815981CD5890
:103C9000D040BA0180E090E00E944DDCC358DF4F75
:103CA000288139814A815B81CD57D0400E94AEDCAA
:103CB0004B015C010E9422D56B017C01C501B4015E
:103CC0000E94BFD64B015C01A7019601ED966CAD39
:103CD0007DAD8EAD9FADED970E94AEDC2B013C011A
:103CE000A5019401E5966CAD7DAD8EAD9FADE597D8
:103CF0000E94AEDC9B01AC01C301B2010E9439D429
:103D0000E6966FAFE697CF57DF4F7883C158D04024
:103D10001C01A5019401ED966CAD7DAD8EAD9FADFE
:103D2000ED970E94AEDC4B015C01A7019601E59680
:103D30006CAD7DAD8EAD9FADE5970E94AEDC9B0175
:103D4000AC01C501B4010E9438D42B013C01C75716
:103D5000DF4F1882C958D040E6962FADE697CF576F
:103D6000DF4F3881C158D040A101CF55DF4F688166
:103D700079818A819B81C15AD0400E9439D46B01DC
:103D80007C0169837A838B839C83A3019201CB5549
:103D9000DF4F688179818A819B81C55AD0400E941A
:103DA00039D4CF56DF4F688379838A839B83C15987
:103DB000D0406D837E838F83988729853A854B8594
:103DC0005C85C755DF4F688179818A819B81C95A9B
:103DD000D0400E9439D44B015C0169877A878B8778
:103DE0009C87C355DF4F288139814A815B81CD5A39
:103DF000D0406D857E858F8598890E9439D46D87E6
:103E00007E878F87988B10916307CDA2DEA2EFA2E9
:103E1000F8A6CF56DF4FC880D980EA80FB80C15911
:103E2000D040C9A6DAA6EBA6FCA68DA69EA6AFA694
:103E3000B8AAAE01435D5F4FBE01675D7F4FCE0103
:103E400085960E94315DC12EC756DF4FE880F9800C
:103E50000A811B81C959D0409E01235F3F4FAE01AB
:103E6000435D5F4FBE01675D7F4FCE0185960E9427
:103E7000D79BC357DF4F28813981CD58D0402F5F62
:103E80003F4FC357DF4F39832883CD58D0405BCE97
:103E9000C09063078091910F9091920FA091930F22
:103EA000B091940F8DA39EA3AFA3B8A78091950F57
:103EB0009091960FA091970FB091980F89A79AA70C
:103EC000ABA7BCA78091990F90919A0FA0919B0FDF
:103ED000B0919C0F8DA79EA7AFA7B8ABAE01435D75
:103EE0005F4FBE01675D7F4FCE0185960E94315DB9
:103EF000C756DF4FE880F9800A811B81C959D0403D
:103F00002DE93FE0AE01435D5F4FBE01675D7F4F2E
:103F1000CE0185960E94D79B0E9449720E9491878C
:103F20000C94AD39E0E2F2E184918F010F5F1F4FF5
:103F3000882321F00E949C87F801F6CFEAEDF1E09A
:103F400084918F010F5F1F4F882311F40C94AD39BA
:103F50000E949C87F801F4CF80E50E94AD848823FD
:103F600029F00E9434856B017C0103C0C12CD12C47
:103F7000760183E50E94AD84882321F00E94688544
:103F80006B017C010E945EC90E9491878091890F1C
:103F900090918A0FA0918B0FB0918C0FC80ED91EF3
:103FA000EA1EFB1E80918B02811105C060E080EF4C
:103FB00091E00E9451810E94CA45DC01CB018C191D
:103FC0009D09AE09BF09B7FD02C00C94AD390E942E
:103FD000DCAFF1CF0E945EC980E00E94D168D09032
:103FE000630721E040E050E0BA0180E00E94BBB2EC
:103FF00010922A0F0E94FC6881E080933B0288E5C2
:104000000E94AD84E82E89E50E94AD84082F8AE5E0
:104010000E94AD84F82EE11005C0011105C011E029
:10402000182705C0011102C010E001C0182F0E941E
:104030002471111105C0F11003C0E11007C043C085
:1040400082E090E00E947FAB1123B9F3FF24F39448
:10405000F092630780E090E00E947FAB2091E20F36
:104060003091E30F4091E40F5091E50F6091D10F33
:104070007091D20F8091D30F9091D40F0E9438D4B9
:1040800060937B0270937C0280937D0290937E020A
:104090001092630780E090E00E947FAB90E1E1ED39
:1040A000FFE0A0E7BFE001900D929A95E1F7109232
:1040B000850F1092860F1092870F1092880FF09242
:1040C000820F111102C0002321F081E090E00E94D4
:1040D0007FAB0E9402868091A10F80933B020E94D9
:1040E000E26821E040E050E0BA018D2D0E94BBB2B1
:1040F0000E9421B90C94AD390E94A4BE81110C9488
:10410000AD3986E50E94AD84882321F00E94278581
:104110001C0103C022242394312C95E0291631047C
:1041200070F0E9EFF1E084918F010F5F1F4F88235A
:1041300011F40C94AD390E949C87F801F4CF84E40B
:104140000E94AD84E2968FAFE29785E40E94AD8431
:10415000C82E0E945EC9D090E8081092E808E29646
:10416000EFACE297E11006C084E690E00E946FB2E7
:104170000E9402860E94FC6881E00E946B6A8111A5
:1041800030C380E090E0A0E8B0EC89839A83AB83F1
:10419000BC8340E050E060E773E44D835E836F834F
:1041A000788719861A861B861C868D879E87AF871F
:1041B000B88B80E090E0A0EAB1E4898B9A8BAB8B5E
:1041C000BC8B1D8A1E8A1F8A188E80E090E0A4E3B3
:1041D000B3E4898F9A8FAB8FBC8F80E090E0A0EC26
:1041E000B0EC8D8F9E8FAF8FB8A319A21AA21BA21D
:1041F0001CA28E010F5F1F4F7E0125E2E20EF11C13
:104200002091E20F3091E30F4091E40F5091E50FC0
:10421000D8016D917D918D919C910E9439D4E19648
:104220006CAF7DAF8EAF9FAFE1972091E60F3091DD
:10423000E70F4091E80F5091E90FF8016481758113
:10424000868197810E9439D4AD966CAF7DAF8EAFD9
:104250009FAFAD9791014C2DBE0167597F4FCE01A5
:1042600083599F4F0E94B46AED966CAF7DAF8EAFBD
:104270009FAFED97D80118966D937D938D939C9386
:104280001B97045F1F4F0E151F0509F0B9CFE2966B
:10429000CFACE297C110A0C2CD84DE84EF84F88851
:1042A00049885A886B887C888D889E88AF88B88CAE
:1042B000A501940169A17AA18BA19CA10E9438D487
:1042C000C358DF4F688379838A839B83CD57D0405F
:1042D000A30192016D8D7E8D8F8D98A10E9438D49F
:1042E000E9966CAF7DAF8EAF9FAFE997A7019601BE
:1042F000698D7A8D8B8D9C8D0E9438D4CF57DF4F7E
:10430000688379838A839B83C158D040A501940137
:1043100069857A858B859C850E9438D44B015C0128
:10432000A301920160E070E080E793E40E9438D43A
:104330002B013C01A701960160E070E080E890EC61
:104340000E9438D46B017C01C358DF4F288139812A
:104350004A815B81CD57D040C301B2010E94AEDCDF
:10436000CB57DF4F688379838A839B83C558D040BE
:10437000E9962CAD3DAD4EAD5FADE997C501B401F9
:104380000E94AEDC9B01AC01CB57DF4F6881798185
:104390008A819B81C558D0400E9438D4A1966CAFC9
:1043A0007DAF8EAF9FAFA197CF57DF4F2881398167
:1043B0004A815B81C158D040C501B4010E94AEDC86
:1043C0004B015C01C358DF4F288139814A815B81F1
:1043D000CD57D040C701B6010E94AEDC9B01AC01B5
:1043E000C501B4010E9438D4A5966CAF7DAF8EAFE5
:1043F0009FAFA597E9962CAD3DAD4EAD5FADE9976A
:10440000C701B6010E94AEDC6B017C01CF57DF4FC4
:10441000288139814A815B81C158D040C301B201F2
:104420000E94AEDC9B01AC01C701B6010E9438D4EA
:10443000A9966CAF7DAF8EAF9FAFA997CE01835A7F
:104440009F4F0E9433CAA196CCACDDACEEACFFAC62
:10445000A197A5964CAC5DAC6EAC7FACA597A99628
:104460008CAC9DACAEACBFACA99720E030E0A9010C
:10447000C501B4010E9449DC87FF0CC0F7FAF09433
:10448000F7F8F09477FA709477F87094B7FAB094DC
:10449000B7F8B094A196CCAEDDAEEEAEFFAEA1976C
:1044A000A5964CAE5DAE6EAE7FAEA597A9968CAECE
:1044B0009DAEAEAEBFAEA9976596CCAEDDAEEEAE0C
:1044C000FFAE659769964CAE5DAE6EAE7FAE6997F6
:1044D0006D968CAE9DAEAEAEBFAE6D97CE018F5ACF
:1044E0009F4F0E9433CA80E090E0A0E8BFE3299686
:1044F0008CAF9DAFAEAFBFAF29972D961CAE1DAE52
:104500001EAE1FAE2D97C701B6019058A5019401AC
:104510000E9425D561966CAF7DAF8EAF9FAF61973E
:10452000CE018B5B9F4F0E9433CA6596CCACDDAC4D
:10453000EEACFFAC6597C358DF4FC882D982EA82E0
:10454000FB82CD57D04069964CAC5DAC6EAC7FAC75
:1045500069976D968CAC9DACAEACBFAC6D9729964F
:10456000CCACDDACEEACFFAC2997E996CCAEDDAEC1
:10457000EEAEFFAEE9972D96CCACDDACEEACFFAC69
:104580002D97CF57DF4FC882D982EA82FB82C1586C
:10459000D0406196CCACDDACEEACFFAC6197A7012E
:1045A0009601C301B2010E94AEDCCB57DF4F688396
:1045B00079838A839B83C558D040CF57DF4F2881AA
:1045C00039814A815B81C158D040C501B4010E9444
:1045D000AEDC9B01AC01CB57DF4F688179818A81CA
:1045E0009B81C558D0400E9438D46DA37EA38FA371
:1045F00098A7E9962CAD3DAD4EAD5FADE997C501ED
:10460000B4010E94AEDC4B015C01A7019601C358C6
:10461000DF4F688179818A819B81CD57D0400E948C
:10462000AEDC9B01AC01C501B4010E9438D469A77E
:104630007AA78BA79CA7CF57DF4F288139814A8162
:104640005B81C158D040C358DF4F688179818A812E
:104650009B81CD57D0400E94AEDC6B017C01E99676
:104660002CAD3DAD4EAD5FADE997C301B2010E94E7
:10467000AEDC9B01AC01C701B6010E9438D46DA726
:104680007EA78FA798ABCE0185960E9433CA299644
:104690004CAC5DAC6EAC7FAC29972D968CAC9DACD0
:1046A000AEACBFAC2D976196CCACDDACEEACFFAC44
:1046B00061972DA13EA14FA158A5C358DF4F288374
:1046C00039834A835B83CD57D04089A59AA5ABA592
:1046D000BCA5E9968CAF9DAFAEAFBFAFE9972DA556
:1046E0003EA54FA558A9CF57DF4F288339834A836A
:1046F0005B83C158D04065960CAD1DAD2EAD3FAD6E
:10470000659769964CAD5DAD6EAD7FAD69976D9661
:104710008CAD9DADAEADBFAD6D9740923710509250
:1047200038106092391070923A1080923B1090923B
:104730003C10A0923D10B0923E10C0923F10D0921B
:104740004010E0924110F0924210C358DF4FC880F1
:10475000D980EA80FB80CD57D040C0924310D092E0
:104760004410E0924510F0924610E996CCACDDACD6
:10477000EEACFFACE997C0924710D0924810E0929F
:104780004910F0924A10CF57DF4FC880D980EA8095
:10479000FB80C158D040C0924B10D0924C10E09298
:1047A0004D10F0924E1000934F1010935010209324
:1047B0005110309352104093531050935410609303
:1047C0005510709356108093571090935810A093E3
:1047D0005910B0935A10D12C80E00E946B6A882344
:1047E00021F0D092E8080C94AD390E94E2682328A9
:1047F00021F08FE194E00E9448D3E296EFACE2977B
:10480000E1108CC08CE0E1EDFFE0DE0195960190B7
:104810000D928A95E1F781E08093E808CE018596B4
:104820000E94C95B1092E808E1962CAD3DAD4EADFB
:104830005FADE1976091D10F7091D20F8091D30F4E
:104840009091D40F0E9438D44B015C012DEB37E3DB
:1048500046E855EB0E9481D618160CF056C02DEB99
:1048600037E346E855E3C501B4010E9449DC87FF00
:104870004CC020E030E048EA51E4AD966CAD7DAD2F
:104880008EAD9FADAD970E9439D49B01AC01609174
:10489000D50F7091D60F8091D70F9091D80F0E94AD
:1048A00038D44B015C012DEB37E346E855EB0E9411
:1048B00081D6181654F52DEB37E346E855E3C501CC
:1048C000B4010E9449DC87FF20C020915A02309138
:1048D0005B0240915C0250915D02ED966CAD7DAD46
:1048E0008EAD9FADED970E9439D49B01AC016091D4
:1048F000D90F7091DA0F8091DB0F9091DC0F0E943D
:1049000038D46DA77EA78FA798AB8CE0FE01B59633
:10491000A1EDBFE001900D928A95E1F70E9421B9C7
:1049200081E090E09093840F8093830FE296FFAC38
:10493000E297FF2011F08D2D01C081E08093E808FF
:10494000882311F40C94AD390E9402860C94AD3981
:1049500088E50E94AD84882319F00E943F850DC030
:1049600020E030E0A9016091D10F7091D20F8091C9
:10497000D30F9091D40F0E9439D46DA37EA38FA33F
:1049800098A789E50E94AD84882319F00E943F858D
:104990000EC020E030E048EA51E46091D50F7091FC
:1049A000D60F8091D70F9091D80F0E9438D46B0109
:1049B0007C0169837A838B839C838090EA0F90903B
:1049C000EB0FA090EC0FB090ED0F2091E20F309123
:1049D000E30F4091E40F5091E50F6DA17EA18FA1EF
:1049E00098A50E9438D42B013C012091E60F30910C
:1049F000E70F4091E80F5091E90FE5962CAF3DAFDE
:104A00004EAF5FAFE5972AE130E04CE152EC0E94F7
:104A100081D687FF02C00C94AD3927E030E048E42E
:104A200053E4C301B2010E9449DC181614F40C943B
:104A3000AD39E5962CAD3DAD4EAD5FADE597C70107
:104A4000B6010E9438D420E030E048EA51E40E94E8
:104A500039D46B017C0127E137EB41ED58EB0E9423
:104A600081D687FF02C00C94AD3923E030E041E9E4
:104A700053E4C701B6010E9449DC181614F40C94E3
:104A8000AD3920E030E0A901C501B4010E9439D45C
:104A9000A50194010E9438D46B017C0127E137EB1A
:104AA00041ED58EB0E9481D687FF02C00C94AD39CE
:104AB00027EA39E947EF52E4C701B6010E9449DC11
:104AC000181614F40C94AD390C94D1398EEF8F0D67
:104AD000823010F00C94AD390E94B5670E94FC68DA
:104AE00031E9C32E3FE0D32E41EDA42E4FE0B42E8A
:104AF00000E010E0D6016D917D918D919D916D0149
:104B0000F50121913191419151915F010E9438D479
:104B10009F772EEA37E441EE5CE30E9481D687FD61
:104B20003BC086E40E94AD84811113C0000F111FA9
:104B3000000F111FF801E750FC4F80819181A28185
:104B4000B38180937F0290938002A0938102B093FF
:104B500082020E942E71882321F00E94E2680C9448
:104B6000AD39F2E0FF12F9CFE0E2F2E184918F017A
:104B70000F5F1F4F882321F00E949C87F801F6CF1A
:104B8000E3E3F2E084918F010F5F1F4F882329F345
:104B90000E949C87F801F6CF0F5F1F4F033011056D
:104BA00009F0A8CFDACF0E94A4BE81110C94AD39D0
:104BB000EBE4F2E084918F010F5F1F4F882321F017
:104BC0000E949C87F801F6CF80E2E5EEF2E0DE017C
:104BD000959601900D928A95E1F79E012F5F3F4FC8
:104BE00019018E010B5D1F4FE12CF12C412C512C32
:104BF00090E2692E91E4792E4092990F50929A0F8B
:104C000060929B0F70929C0F80E090E0A8E4B3E468
:104C100080937F0290938002A0938102B0938202DE
:104C20000E941FAD0E945EC992E0E916F1040CF5E6
:104C300020E030E040EE50E4D8016D917D918D91FF
:104C40009C910E9438D46093910F7093920F80933F
:104C5000930F9093940FF80184819581A681B78179
:104C60008093950F9093960FA093970FB093980F02
:104C70001FC0F80180819181A281B3818093910F3F
:104C80009093920FA093930FB093940F20E030E095
:104C900040EE50E464817581868197810E9438D40A
:104CA0006093950F7093960F8093970F9093980F42
:104CB0000E941FAD0E945EC940927F025092800206
:104CC000609281027092820226E636E646E350EC5C
:104CD0002093990F30939A0F40939B0F50939C0F02
:104CE0000E941FAD0E945EC932E0E316F1040CF58C
:104CF00020E030E040EE50E4D8016D917D918D913F
:104D00009C910E9439D46093910F7093920F80937D
:104D1000930F9093940FF80184819581A681B781B8
:104D20008093950F9093960FA093970FB093980F41
:104D30001FC0F80180819181A281B3818093910F7E
:104D40009093920FA093930FB093940F20E030E0D4
:104D500040EE50E464817581868197810E9439D448
:104D60006093950F7093960F8093970F9093980F81
:104D70000E94FC680E942E7181110EC00EE314E0A7
:104D8000D8018D918D01882319F00E949C87F8CF5E
:104D90008AE00E949C875FC00E94E2686091D10F08
:104DA0007091D20F8091D30F9091D40FF101608355
:104DB0007183828393838090D50F9090D60FA090BB
:104DC000D70FB090D80F84829582A682B78242E036
:104DD0000E943C8A85E5C82E84E0D82EF601819198
:104DE0006F01882319F00E949C87F8CF42E0C5012B
:104DF000B4010E943C8A8AE00E949C878091D10F76
:104E00009091D20FA091D30FB091D40F8093910FB6
:104E10009093920FA093930FB093940F8091D50F1E
:104E20009091D60FA091D70FB091D80F8093950F86
:104E30009093960FA093970FB093980FFFEFEF1AF0
:104E4000FF0A28E0220E311C085F1F4F34E0E316F2
:104E5000F10409F0D1CE80E090E0A0E2B1E48093CB
:104E6000990F90939A0FA0939B0FB0939C0F80E0A3
:104E700090E0A8E4B3E480937F0290938002A09333
:104E80008102B09382020E941FAD0E945EC92D85EF
:104E90003E854F8558896D817E818F8198850E94DE
:104EA00038D46B017C0129853A854B855C85698105
:104EB0007A818B819C810E9438D49B01AC01C7010F
:104EC000B6010E9425D50E94E4D46B017C012D8D92
:104ED0003E8D4F8D58A16D897E898F89988D0E9456
:104EE00038D44B015C01298D3A8D4B8D5C8D6989DD
:104EF0007A898B899C890E9438D49B01AC01C501B9
:104F0000B4010E9425D50E94E4D42B013C0120E08D
:104F100030E0A901C701B6010E9449DC87FF4CC0FF
:104F200020E030E0A901C301B2010E9449DC87FF03
:104F300043C020E030E0A901C701B6010E9481D63C
:104F4000181624F0C701B601905802C0C701B60177
:104F5000A30192010E9438D420E030E0A9010E9410
:104F600081D620E030E0A90118169CF4C701B601F3
:104F70000E9481D6181624F0C701B601905802C0CD
:104F8000C701B601A30192010E9438D44B015C0114
:104F900026C0C701B6010E9481D6181624F0C701A9
:104FA000B601905802C0C701B601A30192010E9448
:104FB00038D44B015C010FC0A3019201C701B601B7
:104FC0000E9438D44B015C0120E030E0A9010E942E
:104FD00081D6181624F0B7FAB094B7F8B0942BED38
:104FE0003FE049EC5FE3C501B4010E9438D4E59687
:104FF0006CAF7DAF8EAF9FAFE59781E080933210AD
:10500000E5968CAD9DADAEADBFADE5978093331009
:1050100090933410A0933510B093361008E514E047
:10502000D8018D918D01882319F00E949C87F8CFBB
:1050300042E0C701B6010E943C8A8AE00E949C8738
:105040000FE514E0F80181918F01882319F00E9487
:105050009C87F8CF42E0C301B2010E943C8A8AE0FB
:105060000E949C8706E614E0D8018D918D0188236B
:1050700019F00E949C87F8CF42E0C501B4010E945C
:105080003C8A8AE00E949C870FE714E0F801819136
:105090008F01882319F00E949C87F8CF20E030E030
:1050A00044E353E4C501B4010E94AEDC2BED3FE0C4
:1050B00049E450E40E9425D542E00E943C8A8AE0FF
:1050C0000E949C8708E914E0D8018D918D01882306
:1050D00019F00E949C87F8CF42E0E5966CAD7DAD5B
:1050E0008EAD9FADE5970E943C8A8AE00E949C8726
:1050F00005EB14E0F80181918F01882319F00E94DB
:105100009C87F8CF20E030E044E353E4E5966CADB3
:105110007DAD8EAD9FADE5970E94AEDC2BED3FE0FF
:1051200049E450E40E9425D542E00E943C8A8AE08E
:105130000E949C8702ED14E0D8018D918D01882397
:1051400019F00E949C87F8CF609133107091341051
:10515000809135109091361042E00E943C8A8AE09E
:105160000E949C870C94AD3981E08093AF050C942C
:10517000AE3985E40E94AD84B82E811102C00E9430
:105180005EC9F5E08F2EF3E09F2EA1EDCA2EAFE0B1
:10519000DA2EB8E9EB2EB5E0FB2E00E010E0A12CF2
:1051A000F40181914F010E94AD84882309F44CC021
:1051B000D6012D913D914D915C91C853DF4F2883CD
:1051C000C85CD040C753DF4F3883C95CD040C5535B
:1051D000DF4F4883CB5CD040C653DF4F5883CA5C57
:1051E000D0400E943F85F601608371838283938360
:1051F000C853DF4F2881C85CD040C753DF4F388188
:10520000C95CD040C553DF4F4881CB5CD040C6530A
:10521000DF4F5881CA5CD04003301105A9F00E94CD
:1052200038D49B01AC01D7016D917D918D919C91FA
:105230000E9439D4F7016083718382839383C8010C
:105240000E945986AA24A3940F5F1F4FF4E0CF0E4B
:10525000D11C24E0E20EF11C0430110509F0A0CFAE
:10526000AA2019F00E94028637C0BB20A9F1C09085
:10527000DD0FD090DE0FE090DF0FF090E00F209177
:10528000ED093091EE094091EF095091F009C70105
:10529000B6010E94AEDC0E948CD660937B107093A6
:1052A0007C1080937D1090937E10C701B6010E9400
:1052B00096D52FB7F8946093BF107093C010809369
:1052C000C1109093C2102FBF10926B1010926C10EF
:1052D00010926D1010926E100E9421B90C94AD398D
:1052E0002C38310509F495C408F099C02C353105E6
:1052F00009F499C608F048C02B34310509F420C3DD
:1053000000F52231310509F48AC668F422303105EE
:1053100008F455C12131310511F00C94AD390E94CA
:105320009C670C94AD392A32310509F4BDC2203393
:10533000310509F401C32F31310511F00C94AD3959
:10534000B1C12235310509F461C678F42D34310537
:1053500009F414C308F4F8C22135310511F00C9496
:10536000AD390E94E9BA0C94AD392435310509F400
:1053700056C608F44FC62535310511F00C94AD39E9
:105380000E947EBA0C94AD392F36310509F4A5C3BD
:10539000C0F42B36310509F421C660F429363105F5
:1053A00009F450C408F016C62836310509F4EAC2DB
:1053B0000C94AD392D36310509F461C408F4F9C3F4
:1053C00070C32337310509F436C650F4213731054F
:1053D00009F4F3C308F02BC68DE093E00E94B4AC4F
:1053E0002737310509F42BC658F42537310511F05C
:1053F0000C94AD3960E0C8010E9466810C94AD390F
:105400002837310509F41FC62937310511F00C94EE
:10541000AD3910923B021092A10F0C94AD392E328F
:1054200041E0340711F40C940D3308F050C02E3CC9
:10543000310509F430C740F5293C310509F4E9C6C6
:1054400070F42E3B310509F41EC4283C310509F4E3
:1054500078C62139310511F00C94AD39FBC52C3CCF
:10546000310509F410C708F012C72B3C310511F0C3
:105470000C94AD3981E1E82E8AE0F82E05E013E0C6
:1054800094E0D92ED00EEFC62D3D310509F453C757
:1054900088F42A3D310509F446C72C3D310509F44D
:1054A00046C7233D310511F00C94AD390E94B8B7C1
:1054B0000C94AD392C3281E0380709F46DC708F03F
:1054C00091C7223E310509F43AC70C94AD39243A0C
:1054D000A1E03A0711F40C94C93758F52039E1E0FE
:1054E0003E0711F40C94BE3790F4203341E03407AA
:1054F00011F40C94903210F40C947E332336314026
:1055000011F00C94AD39E0E2F2E10C94403922390B
:1055100091E0390711F40C94C53710F40C94C1379D
:105520002A39314011F00C94AD390E94D7B60C9451
:10553000AD39263FE1E03E0711F40C94373910F500
:10554000243F41E0340711F40C94183910F00C9406
:1055500031392C3A314011F00C94AD39EFEFF8E0CD
:10556000E396FFAFEEAFE39781ED282E8FE0382E64
:105570002FEE3FE0EB963FAF2EAFEB9700E010E051
:105580000C9419382D3592E0390711F40C943D39FB
:1055900048F4273F314011F00C94AD390E94CCB64D
:1055A0000C94AD392335E3E03E0711F40C943A39FD
:1055B000273E334011F40C9457390C94AD3980E5F3
:1055C0000E94AD84882361F00E9434856B017C01C8
:1055D000BB24B394672B682B692B31F4B12C04C026
:1055E000B12CC12CD12C760183E50E94AD84882397
:1055F00099F00E9468856B017C01B1100FC0672B88
:10560000682B692B59F4D8018C91882339F061E01B
:10561000C8010E94668107C0BB20A9F360E086E74D
:1056200092E00E94518181E08093650983E090E0DF
:105630009093840F8093830F0E945EC90E9491878C
:10564000C114D104E104F104E9F08091890F909133
:105650008A0FA0918B0FB0918C0FC80ED91EEA1E35
:10566000FB1E0E94CA45DC01CB018C199D09AE09C5
:10567000BF09B7FF13C080916509882379F00E94A4
:10568000DCAFEFCF80916509882319F00E94DCAF71
:10569000F9CF60E084E692E00E94518110926509A2
:1056A0000C94AD3980919F109091A010019719F43E
:1056B0000E94CA4508C06091A9107091AA108091FB
:1056C000AB109091AC100091A5101091A6102091F4
:1056D000A7103091A810601B710B820B930B28EE62
:1056E00033E040E050E00E940EE08091A1109091E4
:1056F000A210A091A310B091A410BC01CD01620F23
:10570000731F841F951FECE3CE2ED12CE12CF12CBE
:10571000A70196010E940EE0762E672ECA01B901FC
:10572000A70196010E940EE06B017C01CA01B9013C
:1057300028E130E040E050E00E940EE04B015C01C7
:10574000C9016DE671E00E9402D48E010F5F1F4F08
:105750006115710599F06F927F92DF92CF929F92BF
:105760008F929F938F937F936F938FEA92E09F9393
:105770008F931F930F930E94E2DB12C00097B1F04A
:105780006F927F92DF92CF929F928F929F938F938F
:105790008FE992E09F938F931F930F930E94E2DB18
:1057A0000FB6F894DEBF0FBECDBF36C08114910492
:1057B000A104B10479F06F927F92DF92CF929F9211
:1057C0008F9283E992E09F938F931F930F930E9490
:1057D000E2DBE6CFC114D104E104F10469F06F9279
:1057E0007F92DF92CF928BE892E09F938F931F93EB
:1057F0000F930E94E2DBD4CF6F927F9287E892E012
:105800009F938F931F930F930E94E2DB0F900F9053
:105810000F900F900F900F9060E0C8010E9466817A
:10582000E6E6FEE284917F019FEFE91AF90A8823F8
:1058300021F00E949C87F701F5CFB80183EC92E03C
:105840000E94A3878AE00E949C8780913109882367
:1058500011F40C94AD3910923109F09063070F2DBB
:1058600010E0000F111F085C164FD8016D917C915C
:10587000072E000C880B990B0E944FDC20915402DC
:105880003091550240915602509157020E9481D6A4
:10589000181614F00C94AD39F801118210828F2D76
:1058A0000E948BC20C94AD3983E50E94AD8488239D
:1058B00011F40C94AD390E9427857C018F3F91052E
:1058C00019F010F00C94AD3980E50E94AD84882366
:1058D00039F00E9427858C0197FF04C00C94AD39E4
:1058E0000DE010E0D02EE9E0F3E0C8019927219106
:1058F00031912817390731F023E0E537F207B9F77E
:105900000C94353AE0E2F2E184918F010F5F1F4F72
:10591000882321F00E949C87F801F6CFE0EDF2E0A9
:1059200084918F010F5F1F4F882311F40C94AD39C0
:105930000E949C87F801F4CF0E94DC6B0C94AD3977
:105940000E9416C10C94AD3980919F109091A010C7
:10595000019711F00C94AD3982E090E09093A01083
:1059600080939F100E94CA456093A9107093AA105B
:105970008093AB109093AC100C94AD390E9460BF33
:105980000C94AD3988E690E00E94048A81110C9451
:10599000AD398091550F83FF02C00C94AD3983E57A
:1059A0000E94AD84882309F478C0F090AA050E9473
:1059B0003F852F2D30E0220F331F8901085C164FE1
:1059C0000E9496D5D8016D937C938F2D0E948BC237
:1059D0008091800F9091810F029731F58091AA05F7
:1059E000811122C00E943F8520E030E0A9010E9481
:1059F00049DC882369F00E943F852091A4053091FD
:105A0000A5054091A6055091A7050E9439D403C071
:105A100060E070E0CB010E9496D570933B096093E3
:105A20003A0981E00E948BC20E943F8520E030E06D
:105A30004AEA52E40E9449DC18163CF00E9460BF1A
:105A400060E086EE92E00E9451810E943F850091C5
:105A5000AA0510E0F801EE0FFF1FEE0FFF1FEC5C30
:105A6000F84F20813181428153810E9481D61816DE
:105A7000A4F48BEE94E09F938F930F5F1F4F1F93BF
:105A80000F938FED92E09F938F931F920E94FCC023
:105A90000FB6F894DEBF0FBECDBF0E94099A0C94DA
:105AA000AD398EE40E94AD84882311F40C94AD3995
:105AB0008091A8059091A9054AE050E060E070E06F
:105AC00001960E9432D96093C0117093C1118093E6
:105AD000C2119093C3110C94AD3983E50E94AD843B
