:100000000C94740D0C94A50D0C94A50D0C94A50DD9
:100010000C94A50D0C94A50D0C94A50D0C94A50D98
:100020000C94A50D0C94A50D0C94A50D0C94A50D88
:100030000C94A50D0C94A50D0C94A50D0C94A50D78
:100040000C94A50D0C9481500C94A50D0C94A50D49
:100050000C94A50D0C94A50D0C948B610C94D05EA2
:100060000C94A50D0C94F94F0C94A50D0C94A50DB2
:100070000C94A50D0C94A50D0C94A50D0C94A50D38
:100080000C94A50D0C94A50D0C94A50D0C94A50D28
:100090000C94A50D0C94A50D0C94A50D0C94A50D18
:1000A0000C94A50D0C94A50D0C94A50D0C94A50D08
:1000B0000C94A50D0C94A50D0C94A50D0C94A50DF8
:1000C0000C94A50D0C94A50D0C94A50D0C94A50DE8
:1000D0000C94A50D0C94A50D0C94A50D0C94A50DD8
:1000E0000C94A50D1F5D225D115D155D1B5D595DB5
:1000F000265D2A5D305D345D385D3E5D425D465D66
:10010000595D4C5D505D545DEC5DF15DF65D005EEA
:100110000A5E835E145E1C5E245E2E5E385E425E66
:10012000515E5B5E835E655E6F5E795E11621F622B
:100130003E624C62676275629062936296629962F7
:100140009C629F62A962084AD73B3BCE016E84BC89
:10015000BFFDC12F3D6C74319ABD56833DDA3D0021
:10016000C77F11BED9E4BB4C3E916BAAAABE00006A
:1001700000803F05A84CCDB2D44EB93836A9020C48
:1001800050B9918688083CA6AAAA2ABE0000008021
:100190003F0664EC1B3C04BC163E3BE5B93CC93C45
:1001A00037C29E5A3D660498083EEA69AAAA3E00F4
:1001B0000000803F4E414E494E495459494E46CD6C
:1001C000CCCC3D0AD7233C17B7D13877CC2B32950E
:1001D00095E6241FB14F0A000020410000C84200EC
:1001E000401C4620BCBE4CCA1B0E5AAEC59D744373
:1001F0004F4D4D554E49434154494F4E004452597D
:1002000052554E004552524F525300494E464F00F0
:100210004543484F00205A3A200020593A200042D6
:10022000656420583A20004661696C656420746FEB
:10023000207265616368207461726765740A003EAC
:1002400020342D706F696E7420617869732073712A
:10025000756172696E670A0050726F7465637465C8
:10026000642050696E0A0010020B020402FD01EFC7
:10027000016F66660044454255473A004B494C4C75
:1002800045442E20004D3131332053006F6B003F29
:100290000A0020573A003F0A0020573A00464952C8
:1002A0004D574152455F4E414D453A4D61726C6923
:1002B0006E20312E312E302D5243427567466978BB
:1002C00020284769746875622920534F5552434569
:1002D0005F434F44455F55524C3A68747470733AAB
:1002E0002F2F6769746875622E636F6D2F4D617271
:1002F0006C696E4669726D776172652F4D61726CC3
:10030000696E2050524F544F434F4C5F56455253E5
:10031000494F4E3A312E30204D414348494E455FBA
:10032000545950453A3344205072696E74657220B6
:1003300045585452554445525F434F554E543A32F6
:1003400020555549443A63656465326132662D34FF
:100350003161322D343734382D396231322D6335E5
:10036000356336326633363766660A005365747411
:10037000696E672054726176656C20416363656CB9
:1003800065726174696F6E3A200053657474696EAA
:1003900067205265747261637420416363656C65A4
:1003A000726174696F6E3A200053657474696E6788
:1003B000205072696E7420416363656C657261746C
:1003C000696F6E3A200053657474696E67205072CD
:1003D000696E7420616E642054726176656C204190
:1003E0006363656C65726174696F6E3A2000205AB0
:1003F00000205900580020204D61783A2000205AF2
:1004000000205900580020204D696E3A20004F66A8
:100410006600536F667420656E6473746F70733A10
:100420002000486F74656E64206F66667365747330
:100430003A0020643A0020693A0020703A002064B3
:100440003A0020693A0020703A0043290A006162AC
:100450006C656420286D696E2074656D70200043A2
:100460006F6C642065787472756465732061726561
:1004700020004B64200023646566696E652020447B
:10048000454641554C545F004B6920002364656626
:10049000696E65202044454641554C545F004B70C1
:1004A000200023646566696E6520204445464155F9
:1004B0004C545F00504944204175746F74756E65EB
:1004C0002066696E697368656421205075742074B4
:1004D0006865206C617374204B702C204B6920611F
:1004E0006E64204B6420636F6E7374616E7473204E
:1004F00066726F6D2062656C6F7720696E746F2015
:10050000436F6E66696775726174696F6E2E680AF3
:1005100000504944204175746F74756E65206661A2
:10052000696C6564212074696D656F75740A00508B
:100530004944204175746F74756E65206661696CFD
:100540006564212054656D706572617475726520F3
:10055000746F6F20686967680A00204B643A200056
:10056000204B693A2000204B703A20000A20436C4F
:10057000617373696320504944200A002054753A1E
:100580002000204B753A2000206D61783A20002031
:100590006D696E3A200020643A2000206269617320
:1005A0003A2000426564204C6576656C696E672070
:1005B000004661696C656420746F20656E61626CD1
:1005C0006520426564204C6576656C696E670A003B
:1005D000546F6F206661722066726F6D207265665F
:1005E0006572656E636520706F696E740A004545BB
:1005F00050524F4D2064697361626C65640A003A21
:1006000020007A5F6D61783A20007A5F6D696E3AFA
:1006100020005A204F666673657400486F74656EDB
:1006200064206F6666736574733A004175746F6D0C
:10063000617469630A00452F4420726174696F3ADE
:100640002000416476616E636520666163746F7239
:100650003A20004E6F2063617365206C696768748F
:100660000A00556E6B6E6F776E20636F6D6D616EF5
:10067000643A202200202B000A436F727265637473
:1006800065642042656420486569676874207673F4
:100690002E2042656420546F706F6C6F67793A0A40
:1006A00000202B000A426564204865696768742051
:1006B000546F706F6772617068793A0A2020202B3E
:1006C0002D2D2D204241434B202D2D2B0A20202063
:1006D0007C20202020202020202020207C0A204C4C
:1006E000207C20202020282B29202020207C205204
:1006F0000A2045207C20202020202020202020208F
:100700007C20490A2046207C20282D29204E2028A4
:100710002B29207C20470A2054207C2020202020C8
:100720002020202020207C20480A2020207C2020FF
:100730002020282D29202020207C20540A20202021
:100740007C20202020202020202020207C0A202007
:10075000204F2D2D2046524F4E54202D2D2B0A2058
:1007600028302C30290A004D65616E206F66207399
:10077000616D706C656420706F696E74733A2000EF
:1007800020643A200020623A200045716E20636F99
:10079000656666696369656E74733A20613A200024
:1007A00028422961636B00284629726F6E74002805
:1007B00052296967687400284C29656674003F4EA9
:1007C000756D626572206F662070726F6265207051
:1007D0006F696E747320697320696D706C617573D5
:1007E00069626C65202832206D696E696D756D29AE
:1007F0002E0A0052756E6E696E6720696E20445233
:10080000592D52554E206D6F64650A0047323920CC
:100810004175746F20426564204C6576656C696E25
:10082000670A003F2856296572626F7365204C6520
:1008300076656C20697320696D706C61757369628F
:100840006C652028302D34292E0A00656E7175657F
:100850007565696E672022004E6F204C696E6520B9
:100860004E756D6265722077697468206368656390
:100870006B73756D2C204C617374204C696E653AF6
:1008800020004B494C4C45442E20005072696E7438
:1008900065722073746F7070656420647565207470
:1008A0006F206572726F72732E20466978207468AB
:1008B00065206572726F7220616E642075736520A9
:1008C0004D39393920746F20726573746172742EDA
:1008D000202854656D706572617475726520697346
:1008E0002072657365742E205365742069742061CD
:1008F000667465722072657374617274696E6729BB
:100900000A004E6F20436865636B73756D207769CD
:100910007468206C696E65206E756D6265722C203E
:100920004C617374204C696E653A2000636865639E
:100930006B73756D206D69736D617463682C204CE9
:10094000617374204C696E653A20004C696E6520B5
:100950004E756D626572206973206E6F74204C61F4
:100960007374204C696E65204E756D6265722B3113
:100970002C204C617374204C696E653A20004D3117
:1009800031300020496E76616C696420657874723C
:1009900075646572200000004843000091439A99F5
:1009A000FD4200001CC20000000000000000205AB0
:1009B0003A200020593A200042656420583A20002D
:1009C00047322F47332062616420706172616D6528
:1009D000746572730A0020706F736974696F6E209A
:1009E0006F7574206F662072616E67652E0A003F16
:1009F00050726F6265200024F4D43050C38E20C240
:100A0000A24017828B7011127A910D816CD90AA8BD
:100A100061E108C7586607615143061E4B5D05C179
:100A200045A7041A411104093D9803713931034067
:100A300036DB0265339102D4305402802E1D0263EE
:100A40002CEE01752AC501B028A001102781018F65
:100A50002564012B244B01E0223401AC211F018DC0
:100A6000200D01801FFC00841EED00971DDF00B8E3
:100A70001CD200E61BC600201BBC00641AB200B2E8
:100A800019A8000A19A0006A189900D1179100400E
:100A9000178B00B516840031167E00B31579003A25
:100AA000157300C7146F0058146A00EE13660088AF
:100AB00013630025135E00C7125B006C125700150C
:100AC000125400C111510070114F0021114B00D67A
:100AD0001049008D1047004610440002104200C02B
:100AE0000F4000800F3E00420F3C00060F3B00CB42
:100AF0000E3800930E37005C0E3500270E3400F3DD
:100B00000D3200C10D3100900D3000600D2E00320D
:100B10000D2D00050D2C00D90C2B00AE0C290085E5
:100B20000C29005C0C2700350C27000E0C2600E871
:100B30000B2400C40B2400A00B23007D0B23005AC0
:100B40000B2100390B2100180B2000F80A1F00D9D7
:100B50000A1E00BB0A1E009D0A1D00800A1D0063BC
:100B60000A1C00470A1B002C0A1B00110A1A00F776
:100B7000091A00DD091900C4091900AB091900920E
:100B80000917007B091800630917004C0916003685
:100B9000091600200916000A091500F5081500E0DD
:100BA000081400CC081400B8081400A4081400901D
:100BB0000813007D0812006B081300580812004645
:100BC0000812003408110023081100120811000156
:100BD000081100F0071000E0071000D0071000C057
:100BE000071000B0070F00A107100091070E008347
:100BF000070F0074070F0065070E0057070E004926
:100C0000070E003B070D002E070E0020070D0013F6
:100C1000070D0006070D00F9060C00ED060D00E0BB
:100C2000060C00D4060C00C8060C00BC060C00B074
:100C3000060C00A4060B0099060C008D060B008222
:100C4000060B0077060B006C060B0061060A0057C6
:100C5000060B004C060A0042060A0038060A002E5F
:100C6000060A0024060A001A060A001006090007F0
:100C7000060A00FD050900F4050900EB050900E27C
:100C8000050900D9050900D0050900C7050900BEFE
:100C9000050900B5050800AD050800A50509009C7B
:100CA000050800940508008C050800840508007CF0
:100CB000050800740508006C050700650508005D5F
:100CC000050700560508004E0507004705070040C8
:100CD00005080038050700310507002A050700232D
:100CE0000507001C050600160507000F050700088C
:100CF00005060002050700FB040600F5040700EEE8
:100D0000040600E8040600E2040700DB040600D540
:100D1000040600CF040600C9040600C3040600BD93
:100D2000040600B7040600B1040500AC040600A6E2
:100D3000040600A00405009B04060095040500902D
:100D40000406008A04050085040500800406007A74
:100D500004050075040500700405006B04050066B9
:100D6000040500610405005C0405005704050052F9
:100D70000405004D04050048040500430405003E39
:100D80000404003A04050035040500300404002C76
:100D900004050027040400230405001E0404001AAF
:100DA00004040016040500110404000D04040009E5
:100DB0000405000404040000040400FC030400F81B
:100DC000030400F4030400F0030400EC030400E84F
:100DD000030400E4030400E0030400DC030400D87F
:100DE000030400D4030400D0030400CC030400C8AF
:100DF000030300C503030024F404D9201BC40C5CC6
:100E00000E9804C4095F0265077101F405F900FB3F
:100E100004B30048048700C1036900580355000368
:100E2000034500BE023A008402310053022A002921
:100E300002250004022000E4011C00C8011900AFD3
:100E40000117009801140084011300710110006162
:100E500001100051010E0043010D0036010B002B63
:100E6000010B0020010B00150109000C0109000312
:100E7000010800FB000800F3000800EB000700E495
:100E8000000600DE000600D8000600D2000600CCF6
:100E9000000500C7000500C2000500BD000400B940
:100EA000000400B5000400B1000400AD000400A976
:100EB000000400A5000300A20003009F0004009BA3
:100EC00000030098000300950002009300030090C7
:100ED0000003008D0002008B0003008800020086E2
:100EE00000020084000300810002007F0002007DF8
:100EF0000002007B0002007900020077000100760A
:100F00000002007400020072000100710002006F14
:100F10000002006D0001006C0002006A000100691F
:100F20000002006700010066000100650001006426
:100F30000002006200010061000100600001005F2A
:100F40000002005D0001005C0001005B0001005A2E
:100F5000000100590001005800010057000100562F
:100F6000000100550001005400010053000000532F
:100F70000001005200010051000100500001004F2B
:100F80000001004E0000004E0001004D0001004C29
:100F90000001004B0000004B0001004A0001004925
:100FA0000001004800000048000100470001004621
:100FB000000000460001004500000045000100441B
:100FC0000001004300000043000100420000004215
:100FD0000001004100000041000100400001003F0D
:100FE0000000003F0001003E0000003E0001003D07
:100FF0000000003D0001003C0000003C0000003CFF
:101000000001003B0000003B0001003A0000003AF4
:1010100000010039000000390001003800000038EC
:1010200000000038000100370000003700010036E2
:1010300000000036000000360001003500000035D9
:1010400000000035000100340000003400000034CE
:1010500000010033000000330000003300010032C3
:1010600000000032000000320001003100000031B9
:1010700000000031000100300000003000000030AE
:101080000001002F0000002F0000002F0000002FA3
:101090000001002E0000002E0000002E0001002D97
:1010A0000000002D0000002D0000002D0001002C8C
:1010B0000000002C0000002C0000002C0001002B80
:1010C0000000002B0000002B0000002B0001002A74
:1010D0000000002A0000002A0000002A0001002968
:1010E000000000290000002900000029000000295C
:1010F000000100280000002800000028000000284F
:101100000000002800010027000000270000002741
:101110000000002700000027000100260000002634
:101120000000002600000026000000260001002527
:10113000000000250000002500000025000000251B
:10114000000000250001002400000024000000240D
:101150000000002400000024000100230000002300
:1011600000000023000000230000002300000023F3
:1011700000000023000100220000002200000022E5
:1011800000000022000000220000002200010021D7
:1011900000000021000000210000002100000021CB
:1011A00000000021000000210001002000000020BC
:1011B00000000020000000200000002000000020AF
:1011C00000000020000000200001001F0000001FA0
:1011D0000000001F0000001F0000001F0000001F93
:1011E0000000001F0001001E0000001E0000001E85
:1011F0000000001E0000001000C90210012C014078
:1012000001220170011801B0010E01F0010401502A
:1012100002FA00B002F0003003E600D003DC0090D8
:1012200004D2007005C800A006BE000008B400B0DB
:1012300009AA00D00BA000600E960060118C00007F
:1012400015820020197800C01D6E00A0226400B035
:10125000275A00902C500000314600E0343C00102A
:10126000383200903A2800603C1E00A03D140080F7
:101270003E0A00203F00006265640A002C2073795A
:101280007374656D2073746F707065642120486598
:10129000617465725F49443A20001000C002600327
:1012A000D800B006AF00000A9800500D8900A010C9
:1012B0007D00F013730040176A00901A6300E01D70
:1012C0005B003021550080244E00D0274700202BA2
:1012D0004100702E3A00C031320010352A006038CB
:1012E0001F00B03B1100003F0000544845524D41E3
:1012F0004C2052554E4157415900546865726D61FA
:101300006C2052756E61776179004572723A204D9A
:10131000494E54454D5020424544004572723A2092
:101320004D494E54454D50004D494E54454D502069
:10133000747269676765726564004572723A204D20
:10134000415854454D5020424544004572723A2060
:101350004D415854454D50004D415854454D502035
:10136000747269676765726564000000210024007B
:1013700027002A002D003000330001010000040185
:1013800007010A0100002200250028002B002E0082
:101390003100340002010000050108010B01207436
:1013A0006F6F206C6F6E6720657874727573696FEC
:1013B0006E2070726576656E7465640A0020636FD6
:1013C0006C6420657874727573696F6E20707265D5
:1013D00076656E7465640A00627573793A2070618F
:1013E0007573656420666F7220696E7075740A008B
:1013F000627573793A2070617573656420666F72E7
:1014000020757365720A00627573793A2070726F85
:1014100063657373696E670A004B494C4C45442EF3
:1014200020005072696E7465722068616C74656426
:101430002E206B696C6C28292063616C6C656421BB
:101440000A0000001CC2000000009A99FD4257618A
:10145000726E696E673A20486F6D696E67204275DB
:101460006D702044697669736F72203C20310A00E8
:101470000000A0400000A0400000004000006F43BA
:10148000000091439A99FD42FFFF01486172646335
:101490006F6465642044656661756C74205365747F
:1014A00074696E6773204C6F616465640A00202064
:1014B0004D383531205A005A2D50726F6265204FD9
:1014C000666673657420286D6D293A0A0020204DE8
:1014D0003230302044300A0020204D323030205449
:1014E0003120440020204D32303020440020446917
:1014F0007361626C65640A0046696C616D656E7447
:101500002073657474696E67733A00204400204943
:101510000020204D3330342050002044002049006A
:1015200020204D333031205000204400204900203D
:10153000500020204D333031204500504944207365
:10154000657474696E67733A0A0020204D34323036
:101550002053004175746F20426564204C657665A8
:101560006C696E673A0A00205A0020590020580022
:1015700020204D323138205400486F74656E64204D
:101580006F66667365747320286D6D290A00205A92
:101590000020590020204D323036205800486F6D11
:1015A00065206F666673657420286D6D290A0020BA
:1015B0004500205A002059002058002042002054A5
:1015C0000020204D323035205300416476616E6337
:1015D0006564207661726961626C65733A20533D7F
:1015E0004D696E20666565647261746520286D6D55
:1015F0002F73292C20543D4D696E207472617665DD
:101600006C20666565647261746520286D6D2F734A
:10161000292C20423D6D696E696D756D207365677B
:101620006D656E742074696D6520286D73292C209A
:10163000583D6D6178696D756D205859206A6572E5
:101640006B20286D6D2F73292C20205A3D6D6178F9
:10165000696D756D205A206A65726B20286D6D2F3B
:1016600073292C2020453D6D6178696D756D20458D
:10167000206A65726B20286D6D2F73290A00205433
:101680000020520020204D3230342050004163634E
:10169000656C65726174696F6E733A20503D70724B
:1016A000696E74696E672C20523D72657472616355
:1016B0007420616E6420543D74726176656C0A001A
:1016C000204500205A0020590020204D3230312082
:1016D00058004D6178696D756D20416363656C6577
:1016E000726174696F6E20286D6D2F7332293A0A0A
:1016F00000204500205A0020590020204D32303370
:101700002058004D6178696D756D2066656564725D
:101710006174657320286D6D2F73293A0A00204586
:1017200000205A0020590020204D39322058005303
:10173000746570732070657220756E69743A0A0062
:10174000000020002300260029002C002F0032007A
:101750000001000003010601090105050505070553
:1017600008080808020202020A0A0808040404041D
:101770000101010101010101030303030303030349
:10178000040707070C0C0C0C0C0C0C0C02020202D8
:1017900006060606060606060B0B0B0B0B0B0B0BC1
:1017A0000102102020080810204010204080020173
:1017B0000201080402010102040810204080804058
:1017C0002010080402018004020180402010080457
:1017D00002010804020101020408102040800102F5
:1017E00004081020408000000A0B02090C0D0E08AE
:1017F00007030401000000000000000000000000DA
:1018000000000000000000000000000000000000D8
:101810000000121110000000000000000000000095
:101820000000000000000000000000004B494C4C8C
:1018300045442E2000202D20496E76616C6964207D
:101840006578747275646572206E756D626572205C
:10185000210A004572726F723A002020506C616E4E
:101860006E657242756666657242797465733A2078
:10187000002046726565204D656D6F72793A2000D3
:10188000436F6D70696C65643A204A756E20323022
:1018900020323031370A00207C20417574686F7225
:1018A0003A20286F70656E617373656D626C69654F
:1018B000732E636F6D2C20436F6E66696720666FB1
:1018C000722046444D3444204D616368696E652C36
:1018D000204475616C204578747275646572290ABC
:1018E00000323031362D31322D30362031323A301F
:1018F0003000204C61737420557064617465643AE3
:101900002000312E312E302D5243427567466978C2
:101910000A004D61726C696E0020536F66747761C6
:1019200072652052657365740A002057617463689C
:10193000646F672052657365740A002042726F7786
:101940006E206F75742052657365740A00204578A7
:101950007465726E616C2052657365740A00506F15
:1019600077657255700A0073746172740A00205AA8
:101970003A0020593A0020583A00656E6473746F3B
:101980007073206869743A20002569730025696DB9
:1019900020256973002569682025696D20256973F4
:1019A00000256964202569682025696D20256973F3
:1019B0000025697920256964202569682025696DDD
:1019C00020256973005072696E742074696D653AE0
:1019D00020002040002042403A0020403A00202FC2
:1019E00000205400202F0020423A00202F002054D5
:1019F0003A00205A3A0020593A0020436F756E741D
:101A000020583A0020453A00205A3A0020593A001E
:101A1000583A00416374697665204578747275643C
:101A200065723A20004E6F206D6F7665206F6E20D4
:101A3000746F6F6C6368616E67650A007A5F6D61D1
:101A4000783A20007A5F6D696E3A2000795F6D61A7
:101A5000783A2000795F6D696E3A2000785F6D6199
:101A6000783A2000785F6D696E3A20005265706F99
:101A70007274696E6720656E6473746F702073741E
:101A8000617475730A002066697273740A005A00E3
:101A900059005800486F6D6520006563686F3A0013
:101AA000526573656E643A20006F6B0020746F6F2F
:101AB000206C6F6E6720657874727573696F6E2025
:101AC00070726576656E7465640A0020636F6C647D
:101AD00020657874727573696F6E207072657665B3
:101AE0006E7465640A00D69911241FBECFEFD1E24F
:101AF000DEBFCDBF00E00CBF14E0A0E0B2E0E4EB3D
:101B0000FEE401E00BBF02C007900D92A235B107C1
:101B1000D9F72EE0A2E5B4E001C01D92A83CB207BF
:101B2000E1F71DE0C4E7DDE000E006C02197010910
:101B3000802FFE010E942FA7C337D10780E008073E
:101B4000A9F70E94C8950C9458A70C9400002F92F6
:101B50003F924F925F926F927F928F929F92AF923D
:101B6000BF92CF92DF92EF92FF920F931F93CF938A
:101B7000DF93CDB7DEB7CE57D1090FB6F894DEBFED
:101B80000FBECDBF0091A70D20E6029F800111245A
:101B900008591B4F1093ED050093EC058091E80C5C
:101BA00080FF18C0EAE9FAE184917F013FEFE31A70
:101BB000F30A882321F00E942445F701F5CFD801CC
:101BC0008D918D01882319F00E942445F8CF8AE079
:101BD0000E9424452091EC053091ED05F9018081AA
:101BE0002F5F3F4F8032D1F3F093ED05E093EC058A
:101BF0008E3469F01091EC050091ED056AE270E019
:101C0000812F902F0E943DA70097D1F420C08181A1
:101C100090ED980F9A3010F08D3261F73296DF0117
:101C200031962C9120532A30D0F3CD01FC0101963E
:101C300020812032D9F3F093ED05E093EC05DACF63
:101C4000FC0131968291803231F08A3221F0E12F0D
:101C5000F02F419102C01082F5CFDF0190813196C3
:101C60009032D9F390539A3020F0EAE9FAE10C94DB
:101C7000632720E030E05AE0529FB001539F700D7F
:101C800011249B01205331098D91280F311D87FDAF
:101C90003A958C9190ED980F9A3070F38E32B1F4A2
:101CA000BD016F5F7F4FF12CDB016F5F7F4F5C9158
:101CB00080ED850F8A3058F48F2D880F982F990F5B
:101CC000990F890F8053F82EF50EEECFF12CCD0130
:101CD000FC01019650815032D9F3F0936704E093F0
:101CE000660481E090E09093140D8093130D4D34C1
:101CF00009F452C5443511F40C941427473411F0FB
:101D00000C943C272D31310509F41EC180F4243098
:101D1000310520F42230310550F135C02430310531
:101D2000D9F12C31310509F47DC00C945A272732A2
:101D3000310509F438C250F42E31310509F408C1D7
:101D40002632310509F4C2C10C945A272B353105CE
:101D500009F46DC42C35310509F46EC42A353105FA
:101D600011F00C945A27109265040C945A27809114
:101D70002E02882311F40C945A270E9439420E94A3
:101D80008B900C945A2781E02230310509F080E0D5
:101D90000E9461450C945A2780E50E94894188235E
:101DA00071F080915E0490915F044AE050E060E041
:101DB00070E001960E945B9E6B017C0103C0C12C08
:101DC000D12C760183E50E948941882361F00E942D
:101DD000104220E030E04AE754E40E946CA00E94E8
:101DE00051A56B017C010E94DD660E94E144809157
:101DF000190D90911A0DA0911B0DB0911C0DC80EDC
:101E0000D91EEA1EFB1E0E94C45EDC01CB018C19A8
:101E10009D09AE09BF09B7FD02C00C945A270E9464
:101E2000FF80F1CF0E94DD6680E00E94B640D09036
:101E3000310D21E040E050E0BA0180E00E9485834E
:101E40001092AF0B0E94054581E08093790288E5EE
:101E50000E948941E82E89E50E948941082F8AE580
:101E60000E948941F82EE11005C0011105C011E062
:101E7000182705C0011102C010E001C0182F0E94F0
:101E80001041111105C0F11003C0E11007C043C09B
:101E900082E090E00E94E37F1123B9F3FF24F394E2
:101EA000F092310D80E090E00E94E37F20919A0C47
:101EB00030919B0C40919C0C50919D0C6091760D43
:101EC0007091770D8091780D9091790D0E9407A403
:101ED00060938202709383028093840290938502C0
:101EE0001092310D80E090E00E94E37F90E1E6E700
:101EF000FDE0A3EABEE001900D929A95E1F7109201
:101F0000150D1092160D1092170D1092180DF092DB
:101F1000B50E111102C0002321F081E090E00E9473
:101F2000E37F0E94A8428091320D809379020E9443
:101F3000EC4421E040E050E0BA018D2D0E94858301
:101F40000E948C860C945A270E94AE2A0C945A2721
:101F500088E50E948941882319F00E9410420DC033
:101F600020E030E0A9016091760D7091770D8091AD
:101F7000780D9091790D0E9408A469A37AA38BA390
:101F80009CA389E50E948941882319F00E94104290
:101F90000EC020E030E048EA51E460917A0D709183
:101FA0007B0D80917C0D90917D0D0E9407A46B01AB
:101FB0007C0169837A838B839C838090A20C9090B0
:101FC000A30CA090A40CB090A50C20919A0C309179
:101FD0009B0C40919C0C50919D0C69A17AA18BA106
:101FE0009CA10E9407A42B013C0120919E0C3091E2
:101FF0009F0C4091A00C5091A10C25962CAF3DAFA9
:102000004EAF5FAF25972AE130E04CE152EC0E94E1
:102010002EA687FF02C00C945A2727E030E048E440
:1020200053E4C301B2010E9407A0181614F40C94E3
:102030005A2725962CAD3DAD4EAD5FAD2597C70116
:10204000B6010E9407A420E030E048EA51E40E9473
:1020500008A46B017C0127E137EB41ED58EB0E94AE
:102060002EA687FF02C00C945A2723E030E041E9F6
:1020700053E4C701B6010E9407A0181614F40C948B
:102080005A2720E030E0A901C501B4010E9408A44C
:10209000A50194010E9407A46B017C0127E137EBA5
:1020A00041ED58EB0E942EA687FF02C00C945A27E0
:1020B00027EA39E94DEF52E4C701B6010E9407A0B3
:1020C000181614F40C945A270C947E278EEF8F0D5B
:1020D000823010F00C945A270E9439420E94054524
:1020E00041E2C42E4DE0D42E56E7A52E5DE0B52E7C
:1020F00000E010E0D6016D917D918D919D916D0173
:10210000F50121913191419151915F010E9407A404
:102110009F772EEA37E441EE5CE30E942EA687FD0E
:102120003BC086E40E948941811113C0000F111F3A
:10213000000F111FF801E458FC4F80819181A281AA
:10214000B3818093880290938902A0938A02B0930E
:102150008B020E946189882321F00E94EC440C9438
:102160005A27F2E0FF12F9CFE3E5F8E184918F01FD
:102170000F5F1F4F882321F00E942445F801F6CFFE
:10218000E7E2F2E084918F010F5F1F4F882329F36C
:102190000E942445F801F6CF0F5F1F4F0330110551
:1021A00009F0A8CFDACF0E94DF8E81110C945A2754
:1021B000EFE3F2E084918F010F5F1F4F882321F03E
:1021C0000E942445F801F6CF80E2ECE8F2E0DE015F
:1021D000919601900D928A95E1F79E012F5F3F4FF6
:1021E00069018E010F5D1F4FE12CF12C812C912C88
:1021F00090E2A92E91E4B92E412C512C20E4622EBC
:1022000020EC722E80E090E0A0EAB0E48093290DEB
:1022100090932A0DA0932B0DB0932C0D20E030E06D
:1022200048E453E4209388023093890240938A0261
:1022300050938B020E948B900E94DD6632E0E31681
:10224000F1040CF520E030E040EA50E4D8016D9153
:102250007D918D919C910E9407A46093210D7093B4
:10226000220D8093230D9093240DF8018481958194
:10227000A681B7818093250D9093260DA093270DFD
:10228000B093280D1FC0F80180819181A281B38194
:102290008093210D9093220DA093230DB093240DD4
:1022A00020E030E040EA50E46481758186819781C6
:1022B0000E9407A46093250D7093260D8093270D2F
:1022C0009093280D0E948B900E94DD668092880278
:1022D00090928902A0928A02B0928B024092290DBC
:1022E00050922A0D60922B0D70922C0D0E948B90B3
:1022F0000E94DD66F2E0EF16F1040CF520E030E01C
:1023000040EA50E4D8016D917D918D919C910E949D
:1023100008A46093210D7093220D8093230D909358
:10232000240DF80184819581A681B7818093250DC4
:102330009093260DA093270DB093280D1FC0F80190
:1023400080819181A281B3818093210D9093220D90
:10235000A093230DB093240D20E030E040EA50E438
:1023600064817581868197810E9408A46093250D00
:102370007093260D8093270D9093280D0E9405459C
:102380000E94618981110EC00CE913E0D8018D9182
:102390008D01882319F00E942445F8CF8AE00E941D
:1023A000244538C00E94EC444091760D5091770D41
:1023B0006091780D7091790DF601408351836283AD
:1023C000738380917A0D90917B0DA0917C0DB091DB
:1023D0007D0D84839583A683B7834093210D50930D
:1023E000220D6093230D7093240D8093250D9093FF
:1023F000260DA093270DB093280DFFEFEF1AFF0ACB
:1024000028E0C20ED11C085F1F4F34E0E316F10430
:1024100009F0F8CE80E090E0A0EAB0E48093290DC6
:1024200090932A0DA0932B0DB0932C0D80E090E09B
:10243000A8E4B3E48093880290938902A0938A026F
:10244000B0938B020E948B900E94DD662D853E85A5
:102450004F8558896D817E818F8198850E9407A460
:102460006B017C0129853A854B855C8569817A8180
:102470008B819C810E9407A49B01AC01C701B6011E
:102480000E94E4A40E94A6A46B017C012D8D3E8DC8
:102490004F8D58A16D897E898F89988D0E9407A4E0
:1024A0004B015C01298D3A8D4B8D5C8D69897A8950
:1024B0008B899C890E9407A49B01AC01C501B401D2
:1024C0000E94E4A40E94A6A44B015C0120E030E03D
:1024D000A901C701B6010E9407A087FF4CC020E0F8
:1024E00030E0A901C501B4010E9407A087FF43C0E5
:1024F00020E030E0A901C701B6010E942EA61816FF
:1025000024F0C701B601905802C0C701B601A50169
:1025100094010E9407A420E030E0A9010E942EA6A9
:1025200020E030E0A90118169CF4C701B6010E9412
:102530002EA6181624F0C701B601905802C0C70194
:10254000B601A50194010E9407A46B017C0126C07D
:10255000C701B6010E942EA6181624F0C701B601C5
:10256000905802C0C701B601A50194010E9407A4BA
:102570006B017C010FC0A5019401C701B6010E9447
:1025800007A46B017C0120E030E0A9010E942EA687
:10259000181624F0F7FAF094F7F8F09481E080939D
:1025A000B00D2BED3FE049EC5FE3C701B6010E949F
:1025B00007A46093B10D7093B20D8093B30D909307
:1025C000B40D80E090E0A8ECB2E48093210D9093EC
:1025D000220DA093230DB093240D80E090E0A6E19E
:1025E000B3E48093250D9093260DA093270DB0930F
:1025F000280D80E090E0A0EAB2E48093290D90934A
:102600002A0DA0932B0DB0932C0D80E090E0A6E94D
:10261000B3E48093880290938902A0938A02B093D6
:102620008B020E948B900E94DD660C945A2781E0F9
:10263000809365040C945B2785E40E948941982E61
:10264000811102C00E94DD661CEAA12E12E0B12EAB
:1026500006E7C02E0DE0D02E82E5E82E84E0F82EAD
:1026600000E010E0812CD5018D915D010E9489412F
:102670008823F1F1F6012081318142815381EE9668
:102680002FAFEE97EF963FAFEF97ED964FAFED97E9
:10269000EC965FAFEC970E941042D6016D937D934C
:1026A0008D939C931397EE962FADEE97EF963FADDB
:1026B000EF97ED964FADED97EC965FADEC9703304D
:1026C0001105B1F00E9407A49B01AC01F7016081E4
:1026D0007181828193810E9408A4D7016D937D93BB
:1026E0008D939C931397C8010E94A64388248394DA
:1026F0000F5F1F4FB4E0CB0ED11CE4E0EE0EF11CD7
:102700000430110509F0AFCF882019F00E94A842CB
:102710003FC09920E9F1C090820DD090830DE090E8
:10272000840DF090850D20916A0630916B064091E2
:102730006C0650916D06C701B6010E946CA00E9404
:1027400039A66093090E70930A0E80930B0E909336
:102750000C0EC092F90DD092FA0DE092FB0DF092A2
:10276000FC0DC701B6010E944CA52FB7F8946093E9
:10277000EF0B7093F00B8093F10B9093F20B2FBF44
:102780001092E90D1092EA0D1092EB0D1092EC0DE3
:102790000E948C860C945A272E3B310509F400C503
:1027A00008F094C02936310509F438C308F054C044
:1027B0002D34310509F4D3C1D8F42F31310509F492
:1027C00066C150F42131310509F44AC12231310585
:1027D00009F4B0C60C945A272B34310509F4A1C171
:1027E00008F0A3C12A32310509F455C10C945A27C7
:1027F0002435310509F49EC608F52235310509F462
:1028000090C608F092C62135310511F00C945A2774
:102810000E94F7600E94DD660E9418901092E50CFD
:102820001092E40C1092E70C1092E60C68EE73E044
:1028300080E090E00E948C5E0C945A272C35310584
:1028400009F4CAC62836310509F48DC1253531058C
:1028500011F00C945A27A5C62037310509F497C208
:10286000B0F42C36310509F48EC250F42A36310505
:1028700009F415C62B36310509F43BC60C945A27CA
:102880002E36310509F4CDC108F4E5C2E6C127377B
:10289000310509F43AC770F42237310509F425C728
:1028A00008F479C22337310511F00C945A27EDE969
:1028B000F2E01FC72937310509F432C708F429C7E8
:1028C0002C38310509F493C20C945A272033F1E0D7
:1028D0003F0711F40C941F1F08F061C0233D310520
:1028E00011F40C948C1DA0F52B3C310509F49FC705
:1028F00098F4283C310509F419C7293C310511F039
:102900000C945A27F9EFEF2EFCE0FF2E0CEA12E0B0
:10291000A4E0DA2ED00E72C72D3C310511F40C94D0
:10292000A11C08F4A2C72E3C310511F00C945A27C3
:102930004CEAA42E42E0B42E56E7C52E5DE0D52E1B
:102940006AE6E62E6DE0F62E00E010E00C94231D02
:10295000223E310511F40C944F1E88F42C3D3105B4
:1029600011F40C94241E2D3D310511F40C94331EEA
:102970002A3D310511F00C945A270C94151E2E3265
:1029800051E0350711F40C949C1F10F00C940D20AD
:102990002D32314011F40C947F1E0C945A27243FA1
:1029A000A1E03A0711F40C94832470F52239E1E098
:1029B0003E0711F40C94952390F4203941E034073C
:1029C00011F40C948E2310F00C9491232336314093
:1029D00011F00C945A27E3E5F8E10C94EF26243A21
:1029E00091E0390711F40C9499232C3AA1E03A07AD
:1029F00011F40C944D1D2A39314011F00C945A27D2
:102A00000E9467860C945A272D35E2E03E0711F4A8
:102A10000C94132580F4263F41E0340711F40C9404
:102A2000A22410F40C949C24273F314011F40C9400
:102A3000A5240C945A27293893E0390711F40C94F3
:102A4000D025273EA3E03A0711F40C94062723353E
:102A5000334011F00C945A27EAE9FAE10C94B124BE
:102A60005F9812988A9847989FB7F89480910801C8
:102A70008E7F809308019FBF9FB7F89480910801D3
:102A80008D7F809308019FBF8D980C945A270E94D8
:102A900041880C945A2783E50E948941882311F4C8
:102AA0000C945A270E9403427C018F3F910519F034
:102AB00010F00C945A2780E50E948941882339F050
:102AC0000E9403428C0197FF04C00C945A270DE02A
:102AD00010E0D02EE0EBF2E0C8019927219131916E
:102AE0002817390731F023E0EC31F207B9F70C94DD
:102AF000DE2703E518E1F8018491882329F00F5FB0
:102B00001F4F0E942445F7CF08E512E0F801849199
:102B1000882311F40C945A270F5F1F4F0E942445FD
:102B2000F5CF0E94AD8F0C945A2780910F0E909193
:102B3000100E019711F00C945A2782E090E09093C8
:102B4000100E80930F0E0E94C45E6093190E709356
:102B50001A0E80931B0E90931C0E0C945A270E9401
:102B60004B8F0C945A2788E690E00E94924D811179
:102B70000C945A278091E80C83FF02C00C945A27CA
:102B800083E50E948941882309F447C010916004BD
:102B90000E941042212F30E0220F331F89010F5F66
:102BA000134F0E944CA5D8016D937C938091B30E76
:102BB0009091B40E029719F58091600481111FC0A5
:102BC0000E94104220E030E0A9010E9407A0882363
:102BD00069F00E9410422091E8053091E90540918A
:102BE000EA055091EB050E9408A403C060E070E084
:102BF000CB010E944CA57093040C6093030C0E94BF
:102C0000104220E030E04AEA52E40E9407A0181681
:102C100014F00E944B8F0E9410420E9499590C940C
:102C20005A278EE40E948941882311F40C945A2774
:102C300080915E0490915F044AE050E060E070E0B3
:102C400001960E94339D60939F0E7093A00E809317
:102C5000A10E9093A20E0C945A2783E50E948941FD
:102C6000882319F00E949C4101C080E08093E80C09
:102C7000EAE9FAE184918F010F5F1F4F882321F069
:102C80000E942445F801F6CFE5E7F2E084918F0138
:102C90000F5F1F4F882321F00E942445F801F6CFD3
:102CA0008091E80C8823A1F1A7E6CA2EA2E0DA2ED3
:102CB000E12CF12C20E08091E80C90E00E2C02C079
:102CC000959587950A94E2F780FF17C0BB24B394CB
:102CD000B20E222319F08CE20E942445F6012591C0
:102CE0003491F901849189010F5F1F4F882321F0EE
:102CF0000E9424459801F5CF2B2DFFEFEF1AFF0A14
:102D000032E0C30ED11C45E0E416F104A1F636C052
:102D1000E1E7F2E084918F010F5F1F4F882371F18B
:102D20000E942445F801F6CF04E31DE080E20E94F2
:102D30002445D8016D917D918D919D918D0142E049
:102D40000E94D14D8CE20E942445F8016481758176
:102D50008681978142E00E94D14D8CE20E942445F9
:102D6000D8011C966D917D918D919C911F9742E0A9
:102D70000E94D14DBDE00C331B07C1F68AE00E94D2
:102D800024450C945A27109218020C945A278CE769
:102D900092E00E94DC8083E50E948941882369F0EB
:102DA0000E949C4180935E028D3310F40C945A274C
:102DB0008CE380935E020C945A27EAE9FAE184914D
:102DC0008F010F5F1F4F882321F00E942445F801D7
:102DD000F6CF40915E0250E060E070E085E892E05E
:102DE0000E94564B8AE00E9424450C945A278091F9
:102DF000E80C83FF02C00C945A2783E50E948941A6
:102E0000882311F40C945A270E9410420E944CA56A
:102E10007093000C6093FF0B0C945A2789E690E0A6
:102E20000E94924D811111C0ECE8F2E084918F0173
:102E30000F5F1F4F882321F00E942445F801F6CF31
:102E40000E944B878AE00E9424451092140D109234
:102E5000130D0C94942A8DE690E00E94924D8111FE
:102E60000C945A278091E80C83FF02C00C945A27D7
:102E700083E50E9489412A968FAF2A97811105C068
:102E800082E50E948941882351F1109160040E94DB
:102E90001042212F30E0220F331F89010F5F134FA3
:102EA0000E944CA5D8016D937C938091B30E9091B4
:102EB000B40E029731F480916004882311F40C94CD
:102EC000FB270E94104220E030E04AEA52E40E94D0
:102ED00007A0181614F40C941C280E944B8F0E9413
:102EE000995981E0809318021092140D1092130DDD
:102EF00029961CAE1DAE1EAE1FAE299761961CAE64
:102F00001DAE1EAE1FAE619722961FAE229762962F
:102F10001FAE62975CE363965FAF63978CE1649644
:102F20008FAF649796E465969FAF6597C12CD12CBF
:102F3000E0E8EE2EFFEBFF2E812C912C5401009146
:102F4000600410E0F801EE0FFF1FEF5FF34F6081A8
:102F50007181072E000C880B990B0E940DA0762E14
:102F6000672E582E492E262F372F482F592FB6015E
:102F7000C7010E9407A0882311F1000F111F000F45
:102F8000111FF801E950F44F2081318142815381B2
:102F9000672D762D852D942D0E9407A0881F8827E8
:102FA000881F22968FAF22972A96AFAD2A97AA2321
:102FB00051F0882341F0809118020C945A277C2C00
:102FC0006D2C5E2C4F2C0E94C45E6B017C01DC01D9
:102FD000CB0161962CAD3DAD4EAD5FAD6197821BCF
:102FE000930BA40BB50BB7FD45C0D701C6018851A3
:102FF0009C4FAF4FBF4F61968CAF9DAFAEAFBFAF91
:1030000061970E944B87E2E9F2E084918F010F5FA4
:103010001F4F882321F00E942445F801F6CF811428
:103020009104A104B104D1F0D501C401805C904E9B
:10303000AF4FBF4FBC01CD016C197D098E099F09AF
:1030400028EE33E040E050E00E94CCA3CA01B90171
:103050000E94714B8AE00E9424450CC0EFE8F2E028
:1030600084918F010F5F1F4F882321F00E94244518
:10307000F801F6CF0E94FF800E94E144E0916004D5
:1030800094E0E99FF0011124E950F44F2080318051
:10309000028113819101A801672D762D852D942D34
:1030A0000E9407A49F7781149104A104B10449F4FC
:1030B00020E030E040E050E40E9407A087FF0BC012
:1030C00008C020E030E040E850E40E942EA6181628
:1030D00014F4460157012296AFAD2297AA2309F4B2
:1030E00043C029962CAD3DAD4EAD5FAD299721155E
:1030F00031054105510541F0D701C601821B930BF3
:10310000A40BB50BB7FD30C09101A80162966FAD5D
:10311000629763967FAD639764968FAD649765966B
:103120009FAD65970E9407A420E030E040EC5FE38C
:103130000E9407A087FD3FCFD701C601805A954165
:10314000AF4FBF4F29968CAF9DAFAEAFBFAF2997A2
:1031500062962FAE629763963FAE639764960FAF09
:10316000649765961FAF659780911802882309F4CC
:1031700022CF81149104A104B10429F4C72CD62CC8
:10318000E52CF42CDCCE90E4C91A9FE1D90AE108C1
:10319000F108C818D908EA08FB08F7FE0CCFEECFF3
:1031A0008091E80C83FF02C00C945A2783E50E94AB
:1031B00089412A968FAF2A97811105C082E50E9426
:1031C00089418823A1F00E9410420E944CA570936F
:1031D000000C6093FF0B0E94104220E030E040EAB8
:1031E00050E40E942EA6181614F40E94AD8F81E0C0
:1031F000809318021092140D1092130D8091310DCE
:103200008093600429961CAE1DAE1EAE1FAE29979A
:1032100061961CAE1DAE1EAE1FAE619722961FAE0C
:10322000229762961FAE6297ACE36396AFAF639747
:10323000BCE16496BFAF6497E6E46596EFAF65972F
:10324000C12CD12C40E8E42E5FEBF52E812C912C83
:1032500054016091FF0B7091000C072E000C880B3D
:10326000990B0E940DA0162F072F782E692E262F5E
:10327000372F482F592FB601C7010E9407A0882376
:10328000F9F02091F30B3091F40B4091F50B509134
:10329000F60B612F702F872D962D0E9407A0881F97
:1032A0008827881F22968FAF22972A96FFAD2A97EC
:1032B000FF2351F0882341F0809118020C945A2783
:1032C0001C2D0D2D7E2C6F2C0E94C45E6B017C0189
:1032D000DC01CB0161962CAD3DAD4EAD5FAD61978C
:1032E000821B930BA40BB50BB7FD47C0D701C601DA
:1032F00088519C4FAF4FBF4F61968CAF9DAFAEAF23
:10330000BFAF61970E944B87E9E9F2E084912F01FA
:103310009FEF491A590A882321F00E942445F2019F
:10332000F5CF81149104A104B104D1F0D501C401F9
:10333000805C904EAF4FBF4FBC01CD016C197D0931
:103340008E099F0928EE33E040E050E00E94CCA3B4
:10335000CA01B9010E94714B8AE00E9424450DC048
:10336000E6E9F2E084912F01AFEF4A1A5A0A882366
:1033700021F00E942445F201F5CF0E94FF800E94B7
:10338000E1442090F30B3090F40B4090F50B5090FB
:10339000F60B9101A201612F702F872D962D0E94AF
:1033A00007A49F7781149104A104B10449F420E09B
:1033B00030E040E050E40E9407A087FF0BC008C047
:1033C00020E030E040E850E40E942EA6181614F4E5
:1033D000460157012296BFAD2297BB2309F443C093
:1033E00029962CAD3DAD4EAD5FAD29972115310528
:1033F0004105510541F0D701C601821B930BA40B77
:10340000B50BB7FD30C09101A20162966FAD629716
:1034100063967FAD639764968FAD649765969FAD15
:1034200065970E9407A420E030E040EC5FE30E9433
:1034300007A087FD41CFD701C601805A9541AF4F04
:10344000BF4F29968CAF9DAFAEAFBFAF29976296A5
:103450002FAE629763963FAE639764964FAE6497C4
:1034600065965FAE659780911802882309F424CF92
:1034700081149104A104B10429F4C12ED02EE72CAB
:10348000F62CE7CE90E4C91A9FE1D90AE108F108C9
:10349000C818D908EA08FB08F7FE0ECFEECF83E57F
:1034A0000E948941882321F00E94F6418C0102C0CC
:1034B0000FEF10E080E50E948941882341F00E94CF
:1034C000F6418230910510F00C945A2702C080E03A
:1034D00090E0FC01EE0FFF1FEC51F34F98010F3FFE
:1034E000110519F010F02FEF30E0318320830C9498
:1034F0005A2780E50E948941882341F00E94F641C5
:103500008230910510F00C945A2702C080E090E0C0
:10351000880F991FFC01EC51F34F118210820C941B
:103520005A27109264040C945A2781E08093640413
:103530000C945B2783E50E9489418823A1F00E94B7
:10354000104220E030E04AE754E40E946CA00E9460
:1035500051A560935F027093600280936102909323
:1035600062020C945A2788E50E94894181110C94CB
:10357000202889E50E94894181110C9420288AE540
:103580000E94894181110C94202885E40E94894180
:1035900081110C9420280E94DD660E9418900C94E2
:1035A0005A2783E50E948941882311F40C945A27F5
:1035B0000E94104220E030E04AE754E40E946CA0F0
:1035C0000E9451A560931D0D70931E0D80931F0DD9
:1035D0009093200D0C945A271CEAC12E12E0D12E94
:1035E0000EE5E02E06E0F02E10E0D6018D916D0183
:1035F0000E948941882309F46DC0133009F063C02B
:103600000E9410424B015C0120E030E040EA51E4AE
:103610000E9407A087FF4EC0A501940160916A0631
:1036200070916B0680916C0690916D060E94E4A4E7
:103630002B013C019B01AC016091B80C7091B90C5D
:103640008091BA0C9091BB0C0E946CA06093B80C56
:103650007093B90C8093BA0C9093BB0CA3019201A8
:103660006091D40C7091D50C8091D60C9091D70CB0
:103670000E946CA06093D40C7093D50C8093D60CF0
:103680009093D70C6091F50C7091F60C8091F70C2B
:103690009091F80C0E940BA0A30192010E946CA0D3
:1036A0000E9451A56093F50C7093F60C8093F70C73
:1036B0009093F80C80926A0690926B06A0926C062A
:1036C000B0926D0607C00E941042F70160837183BB
:1036D000828393831F5FF4E0EF0EF11C143009F036
:1036E00084CF0E94C9590C945A270E948C860C944E
:1036F0005A2784918F010F5F1F4F882311F40C9478
:103700005A270E942445F801F4CF0E941E8E0C9483
:103710005A2781E0809379028093320D0C945B27C5
:10372000109279021092320D0C945A2788EC90E096
:103730000E94924D81110C945A2784E40E94894181
:10374000882311F40C945A270E94104211E020E0C3
:1037500030E0A9010E9407A0811101C010E0109380
:10376000330D112309F446C00091600410E00E945B
:103770001042000F111F000F111FF801E959FD4FF2
:10378000608371838283938320E030E0A90160919C
:103790006702709168028091690290916A020E94AA
:1037A00007A081110CC080E090E0A0E4B0E4809319
:1037B000670290936802A0936902B0936A0220E0C6
:1037C00030E0A90160916B0270916C0280916D02F2
:1037D00090916E020E9407A081110CC080E090E0E1
:1037E000A0E4B0E480936B0290936C02A0936D020E
:1037F000B0936E020E9434900C945A27D8018D9198
:103800008D010E948941882349F00E9410420E9444
:1038100051A5F7016083718382839383F4E0EF0EF7
:10382000F11CD012EBCF0E94E7660C945A2778EC7B
:10383000E72E7CE0F72E0CEA12E0E4E0DE2ED00E5C
:10384000D8018D918D010E948941882339F00E9411
:103850001042F7016083718382839383F4E0EF0E5B
:10386000F11CD012EDCF0C945A2783E50E948941B8
:103870008823D9F00E941042AB01BC014093C00CD8
:103880005093C10C6093C20C7093C30C4093BC0C5A
:103890005093BD0C6093BE0C7093BF0C86EC93E00C
:1038A0000E94DD4F8AE00E94244580E50E94894104
:1038B000882399F00E941042AB01BC014093C00CD8
:1038C0005093C10C6093C20C7093C30C89EA93E0CF
:1038D0000E94DD4F8AE00E94244582E50E948941D2
:1038E000882399F00E941042AB01BC014093C40CA4
:1038F0005093C50C6093C60C7093C70C8AE893E094
:103900000E94DD4F8AE00E94244584E50E9489419F
:10391000882311F40C945A270E941042AB01BC0179
:103920004093BC0C5093BD0C6093BE0C7093BF0CC5
:103930008CE693E00E94DD4F8AE00E9424450C94BF
:103940005A2783E50E948941882351F00E94104242
:103950006093E00C7093E10C8093E20C9093E30C85
:1039600084E50E948941882351F00E9410426093AF
:10397000DC0C7093DD0C8093DE0C9093DF0C82E402
:103980000E948941882399F080915E0490915F04A0
:103990004AE050E060E070E001960E945B9E609318
:1039A000D80C7093D90C8093DA0C9093DB0C88E5DB
:1039B0000E948941882351F00E9410426093AC0C10
:1039C0007093AD0C8093AE0C9093AF0C89E50E9480
:1039D0008941882351F00E9410426093B00C70938B
:1039E000B10C8093B20C9093B30C8AE50E9489418C
:1039F000882351F00E9410426093B40C7093B50C70
:103A00008093B60C9093B70C85E40E94894188237B
:103A100011F40C945A270E9410426093B80C7093D2
:103A2000B90C8093BA0C9093BB0C0C945A270F5F7F
:103A30001F4FB4E0CB0ED11CE4E0EE0EF11C0330BE
:103A4000110509F463C0D5018D915D010E94894182
:103A5000882369F30E9410422B013C01F701208169
:103A60003181428153810E9407A49B01AC01D601A0
:103A70006D917D918D919C910E9408A4F6016083C7
:103A8000718382839383D7014D925D926D927C9274
:103A90001397C8010E94A643CACFEAE6FDE0239629
:103AA000FFAFEEAF2397E6E72E2EEDE03E2E2DEA98
:103AB0003DE027963FAF2EAF279700E010E0279616
:103AC0004EAD5FAD27974D5A5D402B965FAF4EAF21
:103AD0002B972796AEADBFAD27978D912796BFAF99
:103AE000AEAF2797811175C623962EAD3FAD2397B4
:103AF0002C5F3F4F23963FAF2EAF23970C5F1F4F96
:103B000034E0230E311C0C301105C9F60E94A84286
:103B10000E948C860C945A27EAE9FAE184918F017D
:103B20000F5F1F4F882321F00E942445F801F6CF34
:103B3000E2E1F4E084918F010F5F1F4F882321F0B1
:103B40000E942445F801F6CFEEE0F4E084918F0165
:103B50000F5F1F4F882321F00E942445F801F6CF04
:103B6000E6E0F4E084918F010F5F1F4F882321F07E
:103B70000E942445F801F6CF40910C0250910D02AD
:103B800060910E0270910F0284E094E00E94DD4F7C
:103B90004091100250911102609112027091130233
:103BA00081E094E00E94DD4F409114025091150293
:103BB00060911602709117028EEF93E00E94DD4F24
:103BC000E6EFF3E084918F010F5F1F4F882321F010
:103BD0000E942445F801F6CF409100025091010265
:103BE000609102027091030284EF93E00E94DD4F26
:103BF0004091040250910502609106027091070203
:103C000081EF93E00E94DD4F40910802509109023C
:103C100060910A0270910B028EEE93E00E94DD4FDC
:103C20008AE00E9424450C945A278AED90E00E9475
:103C3000924D81110C945A2710916004112311F4B4
:103C40000C945A270C94532883E50E9489418823B9
:103C500011F40C945A270E94034290938702809398
:103C600086020C945A278DED90E00E94924D8111AE
:103C70000C945A2783E50E948941882311F40C94FF
:103C80005A270091600410E00E940342000F111FA8
:103C9000F801EE5AFD4F918380830C945A2780E5FA
:103CA0000E948941882311F40C945A270E940342F0
:103CB0007C0183E50E948941882321F00E94034210
:103CC0008C0102C00FEF1FEFC8010196039710F09F
:103CD0000C945A27F7FE02C00C945A27E0EBF2E04E
:103CE000C7019927219131912817390711F40C94B4
:103CF0005A2723E0EC31F207A9F70C946C2A85E4EB
:103D00000E948941811110C080E50E948941882369
:103D100091F00E94104260933302709334028093BA
:103D200035029093360207C00E940342029764F363
:103D3000E3E5F8E172C089E40E948941882381F0BB
:103D40000E9410422CE933E549E45EE30E946CA036
:103D500060932F027093300280933102909332026D
:103D600084E40E948941882381F00E9410422CE95A
:103D700033E549E45EE30E94E4A460933702709364
:103D800038028093390290933A02EAE9FAE1849189
:103D90008F010F5F1F4F882321F00E942445F801F7
:103DA000F6CF409133025091340260913502709108
:103DB00036028AE394E00E94DD4F2CE933E549E4C2
:103DC0005EE360912F0270913002809131029091F8
:103DD00032020E94E4A4AB01BC0186E394E00E949D
:103DE000C14F2CE933E549E45EE3609137027091FD
:103DF00038028091390290913A020E946CA0AB0186
:103E0000BC0182E394E00E94C14F8AE00E942445F5
:103E10000C945A270E942445F80184918F010F5F6A
:103E20001F4F8111F7CF03EB13E0D8018D918D0166
:103E3000882311F40C94BE160E942445F6CF80E529
:103E40000E948941882351F00E94104260934302EE
:103E500070934402809345029093460289E40E9445
:103E60008941882381F00E9410422CE933E549E41E
:103E70005EE30E946CA060933F02709340028093C7
:103E800041029093420284E40E948941882381F098
:103E90000E9410422CE933E549E45EE30E94E4A469
:103EA00060933B0270933C0280933D0290933E02EC
:103EB000EAE9FAE184918F010F5F1F4F882321F017
:103EC0000E942445F801F6CF4091430250914402EC
:103ED000609145027091460286E494E00E94DD4FB5
:103EE0002CE933E549E45EE360913F0270914002C2
:103EF00080914102909142020E94E4A4AB01BC0176
:103F000082E494E00E94C14F2CE933E549E45EE38A
:103F100060913B0270913C0280913D0290913E0283
:103F20000E946CA0AB01BC018EE394E00E94C14FE3
:103F30008AE00E942445BEC783E50E948941082F7C
:103F40008823A1F00E94104260934A0270934B02B2
:103F500080934C0290934D0211E020E030E0A901E3
:103F60000E9407A0811110E01093A70C80E50E9429
:103F70008941182F8823A9F020E030E0A901609141
:103F80004A0270914B0280914C0290914D020E9426
:103F900007A0882319F00E94CB41182F1093A70C7B
:103FA00089C7011187C7EAE9FAE184918F010F5FA0
:103FB0001F4F882321F00E942445F801F6CF8091FD
:103FC000A70C811103C06CE873E002C064E474E0E4
:103FD0008FE594E00E94CA4A20E030E040E05FE3D1
:103FE00060914A0270914B0280914C0290914D0277
:103FF0000E9408A40E944CA58EE494E00E947A4D91
:10400000EAE4F4E084918F010F5F1F4F882309F4E5
:1040100051C70E942445F801F5CF85E40E948941EB
:10402000882321F00E9403421C0102C0212C312C64
:1040300083E40E948941882339F00E940342E49678
:104040009FAF8EAFE49706C0E5E0F0E0E496FFAFE7
:10405000EEAFE49785E50E948941882331F00E9404
:10406000CB41E5968FAFE59703C0E5961FAEE59788
:1040700083E50E948941882379F00E94104262966C
:104080006FAF629763967FAF639764968FAF6497C5
:1040900065969FAF659719C062961FAE629763964B
:1040A0001FAE639737FC09C0F6E16496FFAF6497D3
:1040B00023E465962FAF659708C03CE864963FAF50
:1040C000649742E465964FAF659752E02516310438
:1040D00010F4209260041092140D1092130D0E949F
:1040E000C45E2B013C01C1010196039718F404EC56
:1040F00013E00EC007ED13E0D8018D918D018823E8
:1041000019F00E942445F8CF8AE00E942445D2C6C7
:10411000F80181918F01882319F00E942445F8CF7E
:104120008AE00E9424450E94F7608FE7FFEF2F1678
:104130003F0619F48093060C04C0F101E95FF34FC8
:10414000808381E080931802AE964CAE5DAE6EAE79
:104150007FAEAE97E9964CAE5DAE6EAE7FAEE997A0
:10416000A0961FAEA09720E4A1962FAFA1973CE1A7
:10417000A2963FAFA29746E4A3964FAFA397A4960B
:104180001FAEA497A5961FAEA597A6961FAEA6979D
:10419000A7961FAEA7976F961CAE1DAE1EAE1FAEA4
:1041A0006F976B961CAE1DAE1EAE1FAE6B97C12CEB
:1041B000D12C7601FFE78F2E912CA12CB12C8FE70B
:1041C00090E0A0E0B0E061968CAF9DAFAEAFBFAF26
:1041D0006197E2961CAE1DAE1EAE1FAEE29791E057
:1041E000AA969FAFAA9767961FAE1EAE67972296B4
:1041F0001FAE229726961FAE269700E010E0D10151
:10420000A95FB34FEB96BFAFAEAFEB97C101880F7D
:10421000991F880F991FFC01E950F44FA996FFAF31
:10422000EEAFA99780911802882309F470C20E940A
:10423000C45E2D966CAF7DAF8EAF9FAF2D978091F2
:10424000050C882309F424C10E945965FFEF2F163D
:104250003F0679F42091F30B22962FAF22973091ED
:10426000F40B26963FAF26970091F50B1091F60BB5
:1042700019C0A996AEADBFADA997BC912296BFAFAC
:104280002297A996EEADFFADA997F1812696FFAFD3
:104290002697A996AEADBFADA99712960C9112972D
:1042A00013961C9122962FAD229726963FAD269706
:1042B000A801A4966FADA497A5967FADA597A696E5
:1042C0008FADA697A7969FADA7970E9407A087FFDF
:1042D00012C02296BFAD2297A496BFAFA497269690
:1042E000EFAD2697A596EFAFA597A6960FAFA69729
:1042F000A7961FAFA79722962FAD229726963FAD80
:104300002697A801A0966FADA097A1967FADA19723
:10431000A2968FADA297A3969FADA3970E942EA6BB
:10432000181694F42296FFAD2297A096FFAFA0979F
:1043300026962FAD2697A1962FAFA197A2960FAFE5
:10434000A297A3961FAFA397AA963FADAA9762968E
:104350002FAD6297332309F46FC063963FAD639727
:1043600064964FAD649765965FAD659722966FAD85
:10437000229726967FAD2697C8010E942EA6181672
:104380000CF086C02D964CAD5DAD6EAD7FAD2D971A
:104390004419550966097709DB01CA018858934118
:1043A000A109B109B7FD74C061968CAD9DADAEADEC
:1043B000BFAD619788199909AA09BB09B595A79559
:1043C00097958795EFEF2E163E0619F48093060C0D
:1043D00005C0EB96EEADFFADEB978083E2964CAF58
:1043E0005DAF6EAF7FAFE2976296FFAD6297A49626
:1043F000FFAFA49763962FAD6397A5962FAFA597B0
:1044000064963FAD6497A6963FAFA69765964FAD6D
:104410006597A7964FAFA7972D968CAD9DADAEAD86
:10442000BFAD2D97AE968CAF9DAFAEAFBFAFAE9781
:10443000AA961FAEAA972CC063963FAD6397649669
:104440004FAD649765965FAD659722966FAD2297E5
:1044500026967FAD2697C8010E9407A087FF18C047
:104460002D968CAD9DADAEADBFAD2D97AE962CAD5E
:104470003DAD4EAD5FADAE97821B930BA40BB50B5C
:10448000AC01BD01485853416109710977FF60C60D
:1044900020E030E040EA51E462966FAD62976396A7
:1044A0007FAD639764968FAD649765969FAD659772
:1044B0000E9408A49B01AC0122966FAD229726961C
:1044C0007FAD2697C8010E942EA618166CF4EFE265
:1044D000F5E084918F010F5F1F4F882309F4EAC430
:1044E0000E942445F801F5CF80E398EFAFEFBFEFCE
:1044F000E9962CAD3DAD4EAD5FADE997821B930BB8
:10450000A40BB50B2D962CAD3DAD4EAD5FAD2D97EB
:10451000820F931FA41FB51FB7FD11C00E944B87C8
:104520008AE00E9424452D968CAD9DADAEADBFAD09
:104530002D97E9968CAF9DAFAEAFBFAFE9972D96A3
:104540008CAD9DADAEADBFAD2D97880F991FAA1F45
:10455000BB1FAE962CAD3DAD4EAD5FADAE97821B91
:10456000930BA40BB50B84199509A609B7098138DB
:104570009F44A241B10568F0E1E1F5E084918F012B
:104580000F5F1F4F882309F495C40E942445F8014A
:10459000F5CF67964EAD5FAD6797E4968EAD9FAD54
:1045A000E497841795070CF03DCEE4EBF4E084919A
:1045B0008F010F5F1F4F882321F00E942445F801CF
:1045C000F6CF9FEF2916390619F001E414E002C076
:1045D00000E913E0B80182EA94E00E94CA4AB701F8
:1045E000A6018EE994E00E94DD4F8AE00E942445F6
:1045F000B8018CE894E00E94CA4A6B964CAD5DAD60
:104600006EAD7FAD6B9788E894E00E94DD4F8AE045
:104610000E942445B80186E794E00E94CA4A6F963A
:104620004CAD5DAD6EAD7FAD6F9782E794E00E94BB
:10463000DD4F8AE00E942445E596AFADE597AA23B9
:1046400009F438C42320209489F5C0924302D09203
:104650004402E0924502F09246022CE933E549E437
:104660005EE36B966CAD7DAD8EAD9FAD6B970E949A
:104670006CA060933F02709340028093410290933C
:1046800042022CE933E549E45EE36F966CAD7DAD03
:104690008EAD9FAD6F970E94E4A460933B02709330
:1046A0003C0280933D0290933E0204C4C0923302C8
:1046B000D0923402E0923502F09236022CE933E5D2
:1046C00049E45EE36B966CAD7DAD8EAD9FAD6B97AF
:1046D0000E946CA060932F0270933002809331028D
:1046E000909332022CE933E549E45EE36F966CADBA
:1046F0007DAD8EAD9FAD6F970E94E4A460933702AD
:10470000709338028093390290933A02D3C3809118
:1047100018028111CFC30E94F760CCC30E94DD66EE
:10472000C9C381E00E94C740C5C380E00E94C74062
:10473000C1C383E50E948941882331F00E94CB41A7
:10474000182F0E94B64001C010E0F090A60C111185
:1047500003C0EAE9FAE11AC0F110FBCFE3E5F8E1A2
:1047600084918F010F5F1F4F882321F00E94244501
:10477000F801F6CFE1EBF5E084918F010F5F1F4F59
:10478000882339F30E942445F801F6CF84918F01E4
:104790000F5F1F4F882321F00E942445F801F6CFB8
:1047A000F11003C068E973E002C064E973E083EAD2
:1047B00095E00E94CA4A8AE00E94244586E50E944C
:1047C0008941882309F476C382E094E00E94648FD3
:1047D00071C3F801E050FE4F208131814281538145
:1047E000F801E45FFD4F60817181828193810E94B5
:1047F00008A420E030E040E05FE30E946CA09B0151
:10480000AC01F10160817181828193810E942EA6A9
:10481000181634F4C8018E5B9B4E0E94A04303C05F
:1048200060E070E0CB01D1018D909D90AD90BC9087
:10483000F801E656F34F20813181428153810E9475
:1048400008A49B01AC01C501B4010E9407A46B013F
:104850007C0120E030E040EA51EC0E942EA61816C0
:10486000CCF520E030E040EA51E4C701B6010E94F7
:1048700007A087FF2FC02396EEADFFAD23974080A2
:10488000518062807380A7019601C301B2010E942A
:1048900007A46B017C01A30192010E9407A49B0164
:1048A000AC01C501B4010E9408A4D1016D937D93B0
:1048B0008D939C9313972396EEADFFAD2397C08203
:1048C000D182E282F3822B968EAD9FAD2B970E9410
:1048D000A6430AC9E3E5F8E184918F010F5F1F4FFA
:1048E000882321F00E942445F801F6CFE0EDF5E0A1
:1048F00084918F010F5F1F4F882309F4DBC20E9450
:104900002445F801F5CFE3E5F8E184918F010F5FCD
:104910001F4F882321F00E942445F801F6CFEEEEC8
:10492000F5E084918F010F5F1F4F882309F4C2C205
:104930000E942445F801F5CF0E94E17D80E00E94AD
:104940009D79B8C20E94E17DB5C283E50E9489418C
:10495000882321F00E94CB4191E089270E949D7914
:10496000A9C284918F010F5F1F4F882321F00E94FD
:104970002445F801F6CFE2E1F6E084918F010F5F64
:104980001F4F882321F00E942445F801F6CF80E2D2
:104990000E9424458AE50E9489418823B1F10E9442
:1049A00010426B017C0120E030E040E252EC0E94BA
:1049B0002EA687FD19C020E030E040E252E4C70196
:1049C000B6010E9407A018167CF0C0926302D09234
:1049D0006402E0926502F092660242E0C701B6010D
:1049E0000E94D14D0C94BE1668ED7FEF8AE096E0F0
:1049F0000E947A4D80E20E94244568E270E082E0E5
:104A000096E00E947A4D0C94BE164091630250913C
:104A1000640260916502709166028FEF95E00E94DA
:104A2000DD4F0C94BE160E94DD6683E50E9489412D
:104A3000882339F00E949C4190E09093B40E8093BB
:104A4000B30E8091B30E9091B40E97FD98C0823052
:104A500091050CF498C0029709F091C088E50E9476
:104A60008941882349F10E9410426B017C010E9418
:104A7000CD809B01AC0160E070E0CB010E9407A4F7
:104A80009B01AC01C701B6010E942EA618161CF4AA
:104A90000E94104209C00E94CD809B01AC0160E0E1
:104AA00070E0CB010E9407A460937E0270937F02A6
:104AB000809380029093810282E50E94894188233D
:104AC00051F00E9410426093E8057093E9058093CD
:104AD000EA059093EB05EAE9FAE184918F010F5F13
:104AE0001F4F882321F00E942445F801F6CFEBE107
:104AF000F6E084918F010F5F1F4F882321F00E9401
:104B00002445F801F6CF80E20E9424456091340DDF
:104B10007091350D8091360D9091370D42E00E94D5
:104B2000D14D8CE20E94244560913C0D70913D0D69
:104B300080913E0D90913F0D42E00E94D14D80E268
:104B40000E94244560917E0270917F0280918002D4
:104B50009091810242E00E94D14D8CE20E94244556
:104B60006091400D7091410D8091420D9091430DE7
:104B700042E00E94D14D8AE00E94244504C0109278
:104B8000B40E1092B30E1092B50E1092AF0B10929D
:104B9000150D1092160D1092170D1092180D8AC156
:104BA0000E94DD668BE40E948941882349F00E94BF
:104BB000104225966CAF7DAF8EAF9FAF25970AC090
:104BC00080E090E0A0E8BFEB25968CAF9DAFAEAF44
:104BD000BFAF259784E40E948941882329F00E9471
:104BE00010422B013C0106C0412C512C70E8672E6D
:104BF0007FEB772E87E50E948941882329F00E9468
:104C000010426B017C0106C0C12CD12C60E8E62E5D
:104C10006FEBF62E88E40E948941882329F00E94D8
:104C200010424B015C0106C0812C912C50E8A52E4E
:104C30005FEBB52E20E030E0A90125966CAD7DAD8F
:104C40008EAD9FAD25970E942EA687FD0EC025969E
:104C50002CAD3DAD4EAD5FAD259720934E02309308
:104C60004F024093500250935102EAE9FAE18491D5
:104C70008F010F5F1F4F882321F00E942445F80108
:104C8000F6CF40914E0250914F02609150027091C8
:104C9000510282E496E00E94DD4F8AE00E942445A2
:104CA00020E030E0A901C301B2010E942EA687FFD7
:104CB00012C020E030E0A901C701B6010E942EA673
:104CC00087FF09C020E030E0A901C501B4010E94BE
:104CD0002EA687FDEFC020E030E0A901C301B2019C
:104CE0000E9407A08823C9F120E030E0A901C70194
:104CF000B6010E9407A0882381F120E030E0A901DD
:104D0000C501B4010E9407A0882339F120E030E0FA
:104D100040E05FE3C301B2010E946CA02B013C01A3
:104D2000A5019401C701B6010E946CA06B017C0132
:104D3000A3019201C301B2010E946CA02BED3FE0E0
:104D400049E450E40E946CA09B01AC01C701B6018C
:104D50000E94E4A46B017C0103C0C12CD12C76011C
:104D6000C092A80CD092A90CE092AA0CF092AB0CC5
:104D7000EAE9FAE184918F010F5F1F4F882321F048
:104D80000E942445F801F6CFE6E3F6E084918F0116
:104D90000F5F1F4F882321F00E942445F801F6CFB2
:104DA00020E030E0A901C701B6010E9407A08823D6
:104DB00049F042E0C701B6010E94D14D8AE00E944D
:104DC000244578C0EBE2F6E084918F010F5F1F4F1E
:104DD000882309F46FC00E942445F801F5CF84911F
:104DE0008F010F5F1F4F882321F00E942445F80197
:104DF000F6CFE3E5F6E084918F010F5F1F4F882324
:104E000009F458C00E942445F801F5CF81E0809351
:104E10002E0283E50E948941882309F45AC30E9427
:104E2000CB41811147C055C3122F8091310D2817F6
:104E300051F083E50E948941082F882329F00E94C0
:104E4000CB41082F01C001E086E40E9489418823FC
:104E500059F00E94104220E030E040E752E40E9406
:104E6000E4A4AB01BC0103C040E050E0BA01202F34
:104E7000812F0E9485831EC080E01DC020916302A7
:104E8000309164024091650250916602C701B601FB
:104E90000E9408A427E137EB41ED58E30E9408A4E3
:104EA00042E00E94D14D8AE00E9424450E94EC44D9
:104EB0000E948C8681E01092140D1092130D8111C6
:104EC0001AC00C94350E84918F010F5F1F4F8823F9
:104ED00021F00E942445F801F6CF6091EC05709115
:104EE000ED0582E696E00E94CA4A82E20E942445CD
:104EF0008AE00E9424450E94979316C383E50E948E
:104F00008941882309F458C00E94CB41482F80E092
:104F1000ED964FAFED970E94B6400E94054521E007
:104F200030E0ED964FADED97BE016F5F7F4FCE0144
:104F300081960E94444E6B017C01EFE1F2E0849186
:104F40008F010F5F1F4F882321F00E942445F80135
:104F5000F6CF27E137EB41ED58E369A17AA18BA1A8
:104F60009CA10E9408A442E00E94D14DEAE1F2E037
:104F700084918F010F5F1F4F882321F00E942445E9
:104F8000F801F6CF27E137EB41ED58E369817A81EB
:104F90008B819C810E9408A442E00E94D14DE5E1F2
:104FA000F2E084918F010F5F1F4F882309F466CFD1
:104FB0000E942445F801F5CF41E0A9CF61E08D2D95
:104FC0000E94895D6E2D8D2D0E945A5DB7018D2D39
:104FD0000E94C55D0530110529F4F092E70CE092BE
:104FE000E60C68CF0B30110509F064CFF092E50CA8
:104FF000E092E40C5FCF0E94104220E030E0A90173
:105000000E9407A0882369F00E9410422091E805C1
:105010003091E9054091EA055091EB050E9408A402
:1050200003C060E070E0CB010E944CA57093040CBB
:105030006093030C0C9461170E94AD8F0C946F1752
:105040000E94DD6688E50E948941882321F05F9AED
:10505000129A1092660D89E50E948941882321F0F9
:105060008A9A479A1092670D8AE50E94894188239F
:1050700051F09FB7F89480910801816080930801F6
:105080009FBF1092680D85E40E948941882309F42E
:1050900011CF9FB7F8948091080182608093080136
:1050A0009FBF8D9A07CF88E50E948941882361F0D0
:1050B0000E94104224E0129FF0011124EC5CF24F98
:1050C000608371838283938389E50E948941882369
:1050D00081F00091600410E00E941042000F111F47
:1050E000000F111FF801E45CF24F6083718382832B
:1050F00093838AE50E948941882381F000916004AE
:1051000010E00E941042000F111F000F111FF80144
:10511000EC5BF24F6083718382839383EAE9FAE167
:1051200084918F010F5F1F4F882321F00E94244537
:10513000F801F6CFE2E2F4E084918F010F5F1F4F98
:10514000882311F40C9494160E942445F801F4CF9E
:1051500067964EAD5FAD6797141615060CF071C1DA
:10516000E2964CAC5DAC6EAC7FACE297480E591E3B
:105170006A1E7B1EE2962CAD3DAD4EAD5FADE29753
:10518000281B390B4A0B5B0BCA01B901A50194011D
:105190000E94BDA3A30192010E9413A761968CAC4B
:1051A0009DACAEACBFAC6197820E931EA41EB51E23
:1051B00034E183169104A104B1041CF14CEE841671
:1051C0009104A104B1043CF450E885169104A104B3
:1051D000B1043CF105C04BEE842E912CA12CB12CD6
:1051E00061968CAE9DAEAEAEBFAE61978EEF90E095
:1051F000A0E0B0E088199909AA09BB094C015D013A
:1052000016C024E130E040E050E061962CAF3DAFA5
:105210004EAF5FAF619734E1832E912CA12CB12C5E
:1052200006C061968CAE9DAEAEAEBFAE6197EBE9A7
:10523000F5E084919F012F5F3F4F882381F0EE9628
:105240002FAFEE97EF963FAFEF970E942445EE9673
:105250002FADEE97EF963FADEF97F901EACF61964C
:105260006CAD7DAD8EAD9FAD61970E94714BE6E94F
:10527000F5E084919F012F5F3F4F882381F0EE96E8
:105280002FAFEE97EF963FAFEF970E942445EE9633
:105290002FADEE97EF963FADEF97F901EACFC5013D
:1052A000B4010E94714BA0964FADA097A1965FAD3F
:1052B000A197A2966FADA297A3967FADA3978FE813
:1052C00095E00E94DD4FA4964FADA497A5965FADE3
:1052D000A597A6966FADA697A7967FADA79788E8E6
:1052E00095E00E94DD4F67964EAD5FAD6797433006
:1052F00051050CF4A6C0C501B4010E940DA020E028
:1053000030E040E850E40E946CA06B017C01A09664
:105310002FADA097A1963FADA197A2964FADA297B2
:10532000A3965FADA397A4966FADA497A5967FAD06
:10533000A597A6968FADA697A7969FADA7970E9413
:1053400007A42BED3FE049E450E40E946CA020E06C
:1053500030E040E05FE30E946CA09B01AC01C7011C
:10536000B6010E94E4A46B017C01C301B2010E945A
:105370000DA02FE632E143E85AE30E946CA02B0116
:105380003C01B701A60182E895E00E94DD4FB30120
:10539000A2018CE795E00E94DD4F2AE939E949E155
:1053A0005FE3C701B6010E946CA06B017C019B0109
:1053B000AC010E9408A4A30192010E94E4A46B9690
:1053C0006CAF7DAF8EAF9FAF6B97A3019201C7010A
:1053D000B6010E946CA020E030E040E05EE30E9455
:1053E0006CA06F966CAF7DAF8EAF9FAF6F97ECE602
:1053F000F5E084913F015FEF651A750A882321F07B
:105400000E942445F301F5CFB701A60186E695E099
:105410000E94DD4F6B964CAD5DAD6EAD7FAD6B9771
:1054200080E695E00E94DD4F6F964CAD5DAD6EADB0
:105430007FAD6F978AE595E00E94DD4F8AE00E947C
:10544000244561968CAD9DADAEADBFAD6197880D25
:10545000991DAA1DBB1DB595A79597958795EFEF4B
:105460002E163E0619F48093060C05C0EB96EEADA1
:10547000FFADEB97808367962EAD3FAD67972F5FAB
:105480003F4F67963FAF2EAF679762963FAD6297EB
:10549000A0963FAFA09763964FAD6397A1964FAF8D
:1054A000A19764965FAD6497A2965FAFA297659649
:1054B0008FAD6597A3968FAFA3972D964CAC5DAC3F
:1054C0006EAC7FAC2D9791E0AA969FAFAA970C94F3
:1054D00048220E94B693EECC0E94DD66DE2C60E08E
:1054E0008E2D0E94895D0F3FBFEF1B0759F48E2D53
:1054F0000E945C8331E020E0892B09F030E0032F2B
:10550000122F05C00130110561F000E010E08D2D73
:105510000E945C838017910709F4CCCC0E94FF8025
:10552000F6CF01E010E0F3CFC258DF4F0FB6F8948A
:10553000DEBF0FBECDBFDF91CF911F910F91FF90C6
:10554000EF90DF90CF90BF90AF909F908F907F9023
:105550006F905F904F903F902F9008952F923F92C1
:105560004F925F926F927F928F929F92AF92BF9273
:10557000CF92DF92EF92FF920F931F93CF93DF931F
:10558000CDB7DEB7C15BD1090FB6F894DEBF0FBE51
:10559000CDBF0DB71EB7CB56DF4F19830883C55952
:1055A000D0400E94DF8E81110C948E3E86E50E94D1
:1055B0008941882339F00E940342AD969FAF8EAF98
:1055C000AD9706C021E030E0AD963FAF2EAFAD976E
:1055D000AD964EAD5FADAD974530510570F0E3E24D
:1055E000F8E084918F010F5F1F4F882311F40C9412
:1055F0008E3E0E942445F801F4CF84E40E94894144
:10560000EA968FAFEA9785E40E948941A2968FAF10
:10561000A297AD968EAD9FADAD97892B49F484E5E9
:105620000E948941C756DF4F8883C959D04029C09D
:10563000ECE0F8E084918F010F5F1F4F882321F089
:105640000E942445F801F6CFEA969FADEA97992388
:1056500061F0E3EFF7E084918F010F5F1F4F882324
:1056600021F00E942445F801F6CFAD96AEADBFAD56
:10567000AD971397A4F2B1E0C756DF4FB883C9596D
:10568000D04088E50E948941882339F00E94034276
:10569000AB969FAF8EAFAB9706C0E3E0F0E0AB9662
:1056A000FFAFEEAFAB9789E50E948941882339F0BF
:1056B0000E94034269969FAF8EAF699706C003E0D0
:1056C00010E069961FAF0EAF699780E50E9489418F
:1056D000882351F00E940342AB969FAF8EAFAB97E9
:1056E00069969FAF8EAF6997AB962EAD3FADAB97E6
:1056F000223031051CF4EEEBF7E008C069964EADA0
:105700005FAD6997423051056CF4F5CF84918F01FC
:105710000F5F1F4F882311F40C948E3E0E94244586
:10572000F801F4CF83E50E948941882349F00E9463
:10573000104220E030E040E752E40E94E4A404C0BC
:1057400065E575E585E093E460937A0270937B02EA
:1057500080937C0290937D028CE40E94894188238F
:1057600019F00E9410420EC020E030E040EA51E4FF
:1057700060919A0C70919B0C80919C0C90919D0C67
:105780000E9408A40E944CA52B0182E50E94894139
:10579000882319F00E9410420EC020E030E044E35C
:1057A00053E460919A0C70919B0C80919C0C9091A9
:1057B0009D0C0E9408A40E944CA58B0186E40E94C7
:1057C0008941882319F00E9410420EC020E030E089
:1057D00040EF51E460919E0C70919F0C8091A00C61
:1057E0009091A10C0E9408A40E944CA51B0182E488
:1057F0000E948941882319F00E9410420EC020E0C7
:1058000030E040E753E460919E0C70919F0C8091D2
:10581000A00C9091A10C0E9408A40E944CA53B01F1
:10582000B201052C000C880B990B0E940DA0E1968B
:105830006CAF7DAF8EAF9FAFE197C0909A0CD090C8
:105840009B0CE0909C0CF0909D0C20E030E04CE133
:1058500052E4C701B6010E9407A49B01AC01E19686
:105860006CAD7DAD8EAD9FADE1970E9407A087FD29
:105870000DC051E026965FAF2697C80109974816DC
:10588000590644F426961FAE269704C081E026965A
:105890008FAF2697B801012E000C880B990B0E9440
:1058A0000DA04B015C0120E030E048E453E4C70167
:1058B000B6010E9408A49B01AC01C501B4010E947D
:1058C0002EA618164CF091E09DAFC20109968017E4
:1058D000910724F41DAE02C0A1E0ADAFB101032CCD
:1058E000000C880B990B0E940DA06B017C0180902D
:1058F0009E0C90909F0CA090A00CB090A10C20E06A
:1059000030E0A901C501B4010E9408A49B01AC01CB
:10591000C701B6010E9407A087FD0DC0B1E0229625
:10592000BFAF2297C30109972816390644F422967F
:105930001FAE229704C0E1E02296EFAF2297B30199
:10594000072C000C880B990B0E940DA02D966CAFB4
:105950007DAF8EAF9FAF2D9720E030E846E853E44F
:10596000C501B4010E9408A49B01AC012D966CAD49
:105970007DAD8EAD9FAD2D970E942EA6BB24B39416
:10598000181634F0C1010996861597050CF4B12C50
:105990002696FFAD2697F11110C02DAD222329F0D8
:1059A0008FEA97E00E942B450FC022963FAD2297C9
:1059B00031110AC0B11011C01AC087EB97E00E94E4
:1059C0002B450DAD0111ECCF22961FAD229711236F
:1059D00021F087EA97E00E942B45BB2011F40C943C
:1059E0008E3E80EA97E00E942B450C948E3E0E94EA
:1059F000DD662091A60CC257DF4F2883CE58D040D9
:105A00001092A60CEA963FADEA97311106C084E6E3
:105A100090E00E944B930E94A8420E94054581E0BD
:105A20000E94C740882349F0C257DF4F4881CE58B3
:105A3000D0404093A60C0C948E3E1DAA1EAA1FAA0D
:105A400018AE19AA1AAA1BAA1CAAC801841995097A
:105A5000AB966EAD7FADAB97615071090E9400A708
:105A6000072E000C880B990B0E940DA065966CAF59
:105A70007DAF8EAF9FAF6597C30182199309699679
:105A80006EAD7FAD6997615071090E9400A7072E26
:105A9000000C880B990B0E940DA06D966CAF7DAF2A
:105AA0008EAF9FAF6D97AB968EAD9FADAB9769965E
:105AB000AEADBFAD69978A9F10018B9F300C9A9F46
:105AC000300C1124AA0FBB1FC157DF4FB983A88325
:105AD000CF58D040C101880F991FEDB7FEB7E81B22
