:100000000C94790C0C94AA0C0C94AA0C0C94AA0CC9
:100010000C94AA0C0C94AA0C0C94AA0C0C94AA0C88
:100020000C94AA0C0C94AA0C0C94AA0C0C94AA0C78
:100030000C94AA0C0C94AA0C0C94AA0C0C94AA0C68
:100040000C94AA0C0C94A55A0C94AA0C0C94AA0C0F
:100050000C94AA0C0C94AA0C0C94BC490C947446F5
:100060000C94AA0C0C9448400C94AA0C0C94AA0C66
:100070000C94AA0C0C94AA0C0C94AA0C0C94AA0C28
:100080000C94AA0C0C94AA0C0C94AA0C0C94AA0C18
:100090000C94AA0C0C94AA0C0C94AA0C0C94AA0C08
:1000A0000C94AA0C0C94AA0C0C94AA0C0C94AA0CF8
:1000B0000C94AA0C0C94AA0C0C94AA0C0C94AA0CE8
:1000C0000C94AA0C0C94AA0C0C94AA0C0C94AA0CD8
:1000D0000C94AA0C0C94AA0C0C94AA0C0C94AA0CC8
:1000E0000C94AA0CC344C644B544B944BF44FD446F
:1000F000CA44CE44D444D844DC44E244E644EA440E
:10010000FD44F044F444F844904595459A45A4458F
:10011000AE452746B845C045C845D245DC45E6450D
:10012000F545FF452746094613461D46424A504AB3
:100130006F4A7D4A984AA64AC14AC44AC74ACA4A2F
:10014000CD4AD04ADA4A084AD73B3BCE016E84BC3E
:10015000BFFDC12F3D6C74319ABD56833DDA3D0021
:10016000C77F11BED9E4BB4C3E916BAAAABE00006A
:1001700000803F05A84CCDB2D44EB93836A9020C48
:1001800050B9918688083CA6AAAA2ABE0000008021
:100190003F0664EC1B3C04BC163E3BE5B93CC93C45
:1001A00037C29E5A3D660498083EEA69AAAA3E00F4
:1001B0000000803F4E414E494E495459494E46CD6C
:1001C000CCCC3D0AD7233C17B7D13877CC2B32950E
:1001D00095E6241FB14F0A000020410000C84200EC
:1001E000401C4620BCBE4CCA1B0E5AAEC59D74476F
:1001F000322F47332062616420706172616D6574D3
:100200006572730A003F2856296572626F73652014
:100210004C6576656C20697320696D706C617573CF
:1002200069626C652028302D34292E0A004B494C18
:100230004C45442E20004D3131332053006F6B006C
:100240003F0A0020573A003F0A0020573A0046492B
:10025000524D574152455F4E414D453A4D61726C8A
:10026000696E20312E312E302D524342756746691A
:100270007820284769746875622920534F55524386
:10028000455F434F44455F55524C3A6874747073F0
:100290003A2F2F6769746875622E636F6D2F4D61F9
:1002A000726C696E4669726D776172652F4D61720D
:1002B0006C696E2050524F544F434F4C5F5645521D
:1002C00053494F4E3A312E30204D414348494E4517
:1002D0005F545950453A3344205072696E746572C8
:1002E0002045585452554445525F434F554E543A59
:1002F0003220555549443A63656465326132662D52
:10030000343161322D343734382D396231322D6336
:1003100035356336326633363766660A007A5F6D86
:1003200061783A20007A5F6D696E3A2000795F6DDE
:1003300061783A2000795F6D696E3A2000785F6DD0
:1003400061783A2000785F6D696E3A2000526570DE
:100350006F7274696E6720656E6473746F7020735A
:1003600074617475730A0053657474696E67205400
:10037000726176656C20416363656C657261746956
:100380006F6E3A200053657474696E67205265740D
:100390007261637420416363656C65726174696F37
:1003A0006E3A200053657474696E67205072696EEE
:1003B0007420416363656C65726174696F6E3A2085
:1003C0000053657474696E67205072696E742061A1
:1003D0006E642054726176656C20416363656C6560
:1003E000726174696F6E3A2000205A0020590058DB
:1003F0000020204D61783A2000205A0020590058F2
:100400000020204D696E3A20004F666600536F66EB
:100410007420656E6473746F70733A2000486F7453
:10042000656E64206F6666736574733A0020643A83
:100430000020693A0020703A0020643A0020693AAE
:100440000020703A0043290A0061626C656420282C
:100450006D696E2074656D702000436F6C6420655B
:10046000787472756465732061726520004B642036
:100470000023646566696E65202044454641554CFD
:10048000545F004B69200023646566696E65202017
:1004900044454641554C545F004B70200023646531
:1004A00066696E65202044454641554C545F0050B6
:1004B0004944204175746F74756E652066696E6974
:1004C00073686564212050757420746865206C61C0
:1004D0007374204B702C204B6920616E64204B6438
:1004E00020636F6E7374616E74732066726F6D201B
:1004F00062656C6F7720696E746F20436F6E6669FA
:100500006775726174696F6E2E680A0050494420E5
:100510004175746F74756E65206661696C656421E0
:100520002074696D656F75740A00504944204175E7
:10053000746F74756E65206661696C656421205402
:10054000656D706572617475726520746F6F206877
:100550006967680A00204B643A2000204B693A2002
:1005600000204B703A20000A20436C61737369636A
:1005700020504944200A002054753A2000204B7531
:100580003A2000206D61783A2000206D696E3A2093
:100590000020643A200020626961733A20004265BD
:1005A00064204C6576656C696E6720004661696CF5
:1005B000656420746F20656E61626C6520426564BD
:1005C000204C6576656C696E670A00546F6F206613
:1005D00061722066726F6D207265666572656E630A
:1005E0006520706F696E740A00454550524F4D206A
:1005F00064697361626C65640A003A20007A5F6D19
:1006000061783A20007A5F6D696E3A20005A204F77
:10061000666673657400486F74656E64206F666605
:10062000736574733A004E6F2063617365206C6963
:100630006768740A00556E6B6E6F776E20636F6D1E
:100640006D616E643A202200656E7175657565692D
:100650006E672022004E6F204C696E65204E756DCE
:10066000626572207769746820636865636B73756F
:100670006D2C204C617374204C696E653A20004BE0
:10068000494C4C45442E20005072696E74657220AE
:1006900073746F707065642064756520746F206575
:1006A00072726F72732E20466978207468652065B7
:1006B00072726F7220616E6420757365204D3939D6
:1006C0003920746F20726573746172742E202854FF
:1006D000656D7065726174757265206973207265ED
:1006E0007365742E20536574206974206166746587
:1006F000722072657374617274696E67290A004EA4
:100700006F20436865636B73756D2077697468202B
:100710006C696E65206E756D6265722C204C61731C
:1007200074204C696E653A2000636865636B73756D
:100730006D206D69736D617463682C204C617374F6
:10074000204C696E653A20004C696E65204E756DCF
:10075000626572206973206E6F74204C617374201F
:100760004C696E65204E756D6265722B312C204C84
:10077000617374204C696E653A20004D3131300050
:1007800020496E76616C6964206578747275646561
:1007900072200000004843000091439A99F74200FC
:1007A000001CC20000000000000000205A3A200097
:1007B00020593A200042656420583A2000205A3AD5
:1007C000200020593A200042656420583A20004613
:1007D00061696C656420746F207265616368207460
:1007E00061726765740A003E20342D706F696E7403
:1007F0002061786973207371756172696E670A0090
:10080000000020002300260029002C002F003200C9
:1008100000010000030106010901050505050705A2
:1008200008080808020202020A0A0808040404046C
:100830000101010101010101030303030303030398
:10084000040707070C0C0C0C0C0C0C0C0202020227
:1008500006060606060606060B0B0B0B0B0B0B0B10
:1008600001021020200808102040102040800201C2
:1008700002010804020101020408102040808040A7
:1008800020100804020180040201804020100804A6
:100890000201080402010102040810204080010244
:1008A00004081020408000000A0B02090C0D0E08FD
:1008B0000703040100000000000000000000000029
:1008C0000000000000000000000000000000000028
:1008D00000001211100000000000000000000000E5
:1008E0000000000000000000000000004B494C4CDC
:1008F00045442E2000202D20496E76616C696420CD
:100900006578747275646572206E756D62657220AB
:10091000210A004572726F723A002020506C616E9D
:100920006E657242756666657242797465733A20C7
:10093000002046726565204D656D6F72793A200022
:10094000436F6D70696C65643A2041707220203588
:1009500020323031370A00207C20417574686F7274
:100960003A20286F70656E617373656D626C69659E
:10097000732E636F6D2C20436F6E66696720666F00
:10098000722046444D3444204D616368696E652C85
:10099000204475616C204578747275646572290A0B
:1009A00000323031362D31322D30362031323A306E
:1009B0003000204C61737420557064617465643A32
:1009C0002000312E312E302D524342756746697812
:1009D0000A004D61726C696E0020536F6674776116
:1009E00072652052657365740A00205761746368EC
:1009F000646F672052657365740A002042726F77D6
:100A00006E206F75742052657365740A00204578F6
:100A10007465726E616C2052657365740A00506F64
:100A200077657255700A0073746172740A00205AF7
:100A30003A0020593A0020583A00656E6473746F8A
:100A40007073206869743A20002066697273740AB2
:100A5000005A0059005800486F6D652000656368B2
:100A60006F3A001000C90210012C014001220170F0
:100A7000011801B0010E01F00104015002FA00B0AA
:100A800002F0003003E600D003DC009004D20070D6
:100A900005C800A006BE000008B400B009AA00D036
:100AA0000BA000600E960060118C000015820020E3
:100AB000197800C01D6E00A0226400B0275A009073
:100AC0002C500000314600E0343C001038320090D9
:100AD0003A2800603C1E00A03D1400803E0A002021
:100AE0003F00006265640A002C2073797374656DA1
:100AF0002073746F7070656421204865617465723D
:100B00005F49443A20001000C0026003D800B006DC
:100B1000AF00000A9800500D8900A0107D00F0136E
:100B2000730040176A00901A6300E01D5B003021DB
:100B3000550080244E00D0274700202B4100702E06
:100B40003A00C031320010352A0060381F00B03B37
:100B50001100003F0000544845524D414C20525571
:100B60004E4157415900546865726D616C20527551
:100B70006E61776179004572723A204D494E544555
:100B80004D5020424544004572723A204D494E5422
:100B9000454D50004D494E54454D50207472696783
:100BA0006765726564004572723A204D415854453C
:100BB0004D5020424544004572723A204D415854F0
:100BC000454D50004D415854454D50207472696751
:100BD00067657265640000002100240027002A0078
:100BE0002D003000330001010000040107010A015B
:100BF00000002200250028002B002E0031003400C8
:100C000002010000050108010B015072696E746554
:100C1000722068616C7465642E206B696C6C282985
:100C20002063616C6C6564210A0000001CC2000036
:100C300000009A99F7425761726E696E673A2048D0
:100C40006F6D696E672042756D70204469766973B7
:100C50006F72203C20310A000000A0400000A0403C
:100C60000000004000006F43000091439A99F74252
:100C7000FFFF0148617264636F64656420446566C8
:100C800061756C742053657474696E6773204C6F62
:100C9000616465640A0020204D383531205A005ABD
:100CA0002D50726F6265204F666673657420286DE3
:100CB0006D293A0A0020204D3230302044300A009D
:100CC00020204D32303020543120440020204D323D
:100CD00030302044002044697361626C65640A000E
:100CE00046696C616D656E742073657474696E67B6
:100CF000733A0020440020490020204D3330342036
:100D0000500020440020490020204D333031205035
:100D10000020440020490020500020204D33303175
:100D20002045005049442073657474696E67733AB6
:100D30000A0020204D3432302053004175746F205A
:100D4000426564204C6576656C696E673A0A0020DE
:100D50005A0020590020580020204D3231382054AC
:100D600000486F74656E64206F66667365747320E7
:100D7000286D6D290A00205A0020590020204D328C
:100D80003036205800486F6D65206F666673657455
:100D900020286D6D290A00204500205A00205900A6
:100DA00020580020420020540020204D32303520B1
:100DB0005300416476616E63656420766172696197
:100DC000626C65733A20533D4D696E2066656564BB
:100DD0007261746520286D6D2F73292C20543D4D50
:100DE000696E2074726176656C20666565647261F7
:100DF000746520286D6D2F73292C20423D6D696E1E
:100E0000696D756D207365676D656E742074696DAD
:100E10006520286D73292C20583D6D6178696D75AA
:100E20006D205859206A65726B20286D6D2F7329CB
:100E30002C20205A3D6D6178696D756D205A206AAD
:100E400065726B20286D6D2F73292C2020453D6D18
:100E50006178696D756D2045206A65726B20286D1B
:100E60006D2F73290A0020540020520020204D329B
:100E70003034205000416363656C65726174696F42
:100E80006E733A20503D7072696E74696E672C20E3
:100E9000523D7265747261637420616E6420543DCA
:100EA00074726176656C0A00204500205A00205952
:100EB0000020204D3230312058004D6178696D7529
:100EC0006D20416363656C65726174696F6E202883
:100ED0006D6D2F7332293A0A00204500205A0020F8
:100EE000590020204D3230332058004D6178696D13
:100EF000756D2066656564726174657320286D6D1B
:100F00002F73293A0A00204500205A00205900205A
:100F1000204D39322058005374657073207065720B
:100F200020756E69743A0A0024F4D43050C38E20C0
:100F3000C2A24017828B7011127A910D816CD90A6E
:100F4000A861E108C7586607615143061E4B5D055D
:100F5000C145A7041A411104093D980371393103B1
:100F60004036DB0265339102D4305402802E1D02DC
:100F7000632CEE01752AC501B028A001102781015C
:100F80008F2564012B244B01E0223401AC211F0189
:100F90008D200D01801FFC00841EED00971DDF00D9
:100FA000B81CD200E61BC600201BBC00641AB200AD
:100FB000B219A8000A19A0006A189900D117910067
:100FC00040178B00B516840031167E00B3157900EA
:100FD0003A157300C7146F0058146A00EE136600C8
:100FE0008813630025135E00C7125B006C12570064
:100FF00015125400C111510070114F0021114B0006
:10100000D61049008D1047004610440002104200DF
:10101000C00F4000800F3E00420F3C00060F3B0017
:10102000CB0E3800930E37005C0E3500270E3400CF
:10103000F30D3200C10D3100900D3000600D2E0017
:10104000320D2D00050D2C00D90C2B00AE0C290003
:10105000850C29005C0C2700350C27000E0C26009F
:10106000E80B2400C40B2400A00B23007D0B2300FD
:101070005A0B2100390B2100180B2000F80A1F0021
:10108000D90A1E00BB0A1E009D0A1D00800A1D0011
:10109000630A1C00470A1B002C0A1B00110A1A00D5
:1010A000F7091A00DD091900C4091900AB09190074
:1010B000920917007B091800630917004C091600F4
:1010C00036091600200916000A091500F508150052
:1010D000E0081400CC081400B8081400A408140098
:1010E000900813007D0812006B08130058081200C6
:1010F00046081200340811002308110012081100DC
:1011000001081100F0071000E0071000D0071000E0
:10111000C0071000B0070F00A107100091070E00D4
:1011200083070F0074070F0065070E0057070E00B6
:1011300049070E003B070D002E070E0020070D008B
:1011400013070D0006070D00F9060C00ED060D0053
:10115000E0060C00D4060C00C8060C00BC060C000F
:10116000B0060C00A4060B0099060C008D060B00BF
:1011700082060B0077060B006C060B0061060A0066
:1011800057060B004C060A0042060A0038060A0001
:101190002E060A0024060A001A060A001006090094
:1011A00007060A00FD050900F4050900EB05090022
:1011B000E2050900D9050900D0050900C7050900A5
:1011C000BE050900B5050800AD050800A505090024
:1011D0009C050800940508008C050800840508009B
:1011E0007C050800740508006C050700650508000B
:1011F0005D050700560508004E0507004705070076
:101200004005080038050700310507002A050700DA
:10121000230507001C050600160507000F0507003B
:101220000805060002050700FB040600F504070098
:10123000EE040600E8040600E2040700DB040600F2
:10124000D5040600CF040600C9040600C304060046
:10125000BD040600B7040600B1040500AC04060096
:10126000A6040600A00405009B04060095040500E2
:10127000900406008A040500850405008004060029
:101280007A04050075040500700405006B04050070
:1012900066040500610405005C04050057040500B0
:1012A000520405004D0405004804050043040500F0
:1012B0003E0404003A04050035040500300404002F
:1012C0002C04050027040400230405001E04040068
:1012D0001A04040016040500110404000D0404009F
:1012E000090405000404040000040400FC030400D5
:1012F000F8030400F4030400F0030400EC0304000A
:10130000E8030400E4030400E0030400DC03040039
:10131000D8030400D4030400D0030400CC03040069
:10132000C8030300C503030024F404D9201BC40C24
:101330005C0E9804C4095F0265077101F405F900A9
:10134000FB04B30048048700C1036900580355003B
:1013500003034500BE023A008402310053022A0012
:101360002902250004022000E4011C00C801190024
:10137000AF011700980114008401130071011000DF
:101380006101100051010E0043010D0036010B00F8
:101390002B010B0020010B00150109000C010900B5
:1013A00003010800FB000800F3000800EB00070041
:1013B000E4000600DE000600D8000600D2000600A9
:1013C000CC000500C7000500C2000500BD000400F8
:1013D000B9000400B5000400B1000400AD00040031
:1013E000A9000400A5000300A20003009F00040060
:1013F0009B00030098000300950002009300030087
:10140000900003008D0002008B00030088000200A2
:101410008600020084000300810002007F000200B9
:101420007D0002007B0002007900020077000100CD
:1014300076000200740002007200010071000200D8
:101440006F0002006D0001006C0002006A000100E4
:1014500069000200670001006600010065000100EC
:1014600064000200620001006100010060000100F0
:101470005F0002005D0001005C0001005B000100F4
:101480005A000100590001005800010057000100F6
:1014900056000100550001005400010053000000F7
:1014A00053000100520001005100010050000100F2
:1014B0004F0001004E0000004E0001004D000100F1
:1014C0004C0001004B0000004B0001004A000100ED
:1014D00049000100480000004800010047000100E9
:1014E00046000000460001004500000045000100E4
:1014F00044000100430000004300010042000000DE
:1015000042000100410000004100010040000100D4
:101510003F0000003F0001003E0000003E000100CF
:101520003D0000003D0001003C0000003C000000C8
:101530003C0001003B0000003B0001003A000000BD
:101540003A000100390000003900010038000000B5
:1015500038000000380001003700000037000100AB
:1015600036000000360000003600010035000000A3
:101570003500000035000100340000003400000098
:10158000340001003300000033000000330001008C
:101590003200000032000000320001003100000083
:1015A0003100000031000100300000003000000078
:1015B000300001002F0000002F0000002F0000006D
:1015C0002F0001002E0000002E0000002E00010060
:1015D0002D0000002D0000002D0000002D00010056
:1015E0002C0000002C0000002C0000002C0001004A
:1015F0002B0000002B0000002B0000002B0001003E
:101600002A0000002A0000002A0000002A00010031
:101610002900000029000000290000002900000026
:101620002900010028000000280000002800000018
:10163000280000002800010027000000270000000B
:1016400027000000270000002700010026000000FE
:1016500026000000260000002600000026000100F1
:1016600025000000250000002500000025000000E6
:1016700025000000250001002400000024000000D7
:1016800024000000240000002400010023000000CA
:1016900023000000230000002300000023000000BE
:1016A00023000000230001002200000022000000AF
:1016B00022000000220000002200000022000100A1
:1016C0002100000021000000210000002100000096
:1016D0002100000021000000210001002000000086
:1016E000200000002000000020000000200000007A
:1016F0002000000020000000200001001F0000006A
:101700001F0000001F0000001F0000001F0000005D
:101710001F0000001F0001001E0000001E0000004E
:101720001E0000001E000000434F4D4D554E494322
:101730004154494F4E0044525952554E0045525261
:101740004F525300494E464F004543484F002569CC
:10175000730025696D202569730025696820256956
:101760006D20256973002569642025696820256935
:101770006D20256973002569792025696420256914
:10178000682025696D20256973005072696E742088
:1017900074696D653A200050726F74656374656496
:1017A0002050696E0A002040002042403A0020404C
:1017B0003A00202F00205400202F0020423A002021
:1017C0002F0020543A00491744173D1736172817A1
:1017D0006F66660044454255473A00205A3A002059
:1017E000593A0020436F756E7420583A0020453AEC
:1017F00000205A3A0020593A00583A00416374696F
:1018000076652045787472756465723A20004E6F73
:10181000206D6F7665206F6E20746F6F6C636861EA
:101820006E67650A0020746F6F206C6F6E672065AD
:101830007874727573696F6E2070726576656E74F8
:1018400065640A0020636F6C642065787472757338
:10185000696F6E2070726576656E7465640A0052F9
:101860006573656E643A20006F6B0020746F6F20A3
:101870006C6F6E6720657874727573696F6E207017
:10188000726576656E7465640A0020636F6C64200F
:10189000657874727573696F6E2070726576656EA7
:1018A0007465640A00627573793A207061757365B6
:1018B0006420666F7220696E7075740A00627573B9
:1018C000793A2070617573656420666F7220757354
:1018D00065720A00627573793A2070726F6365737E
:1018E00073696E670A004B494C4C45442E2000003A
:1018F000FE7F11241FBECFEFD1E2DEBFCDBF00E0DF
:101900000CBF14E0A0E0B2E0E4EAFFE101E00BBFAD
:1019100002C007900D92AC3DB107D9F72EE0ACEDB7
:10192000B4E001C01D92AE3DB207E1F71CE0C9E78B
:10193000DCE000E006C021970109802FFE010E9433
:10194000A78FC837D10780E00807A9F70E945D80FC
:101950000C94D08F0C9400002F923F924F925F9284
:101960006F927F928F929F92AF92BF92CF92DF92AF
:10197000EF92FF920F931F93CF93DF93CDB7DEB714
:10198000C75BD1090FB6F894DEBF0FBECDBF009183
:10199000330720E6029F800111240A501B4F109349
:1019A0007706009376068091160E80FF18C0EDE54D
:1019B000FAE084917F013FEFE31AF30A882321F0D4
:1019C0000E943536F701F5CFD8018D918D0188231E
:1019D00019F00E943536F8CF8AE00E943536209102
:1019E000760630917706F90180812F5F3F4F803274
:1019F000D1F3F0937706E09376068E3469F0109178
:101A00007606009177066AE270E0812F902F0E949F
:101A1000B58F0097D1F420C0818190ED980F9A3056
:101A200010F08D3261F73296DF0131962C91205300
:101A30002A30D0F3CD01FC01019620812032D9F368
:101A4000F0937706E0937606DACFFC013196829127
:101A5000803231F08A3221F0A12FB02F4D9102C097
:101A60001082F5CFFD01808111968032D9F3805329
:101A70008A3020F0EDE5FAE00C941B2C80E090E039
:101A80005AE0589F9001599F300D1124C901C09709
:101A90002191820F911D27FD9A95208130ED320F03
:101AA0003A3078F32E32A1F4BF016F5F7F4F20E010
:101AB000FB016F5F7F4F508130ED350F3A3048F4B6
:101AC000220F322F330F330F230F2053250FF0CF68
:101AD00020E0DF0131963C913032D9F3B093F50428
:101AE000A093F40461E070E07093B70E6093B60EBB
:101AF0004D3411F40C949619443511F40C94BF2B09
:101B0000473411F00C94E32B8D31910509F44AC749
:101B100090F48430910530F42091240282309105B4
:101B200070F137C08430910509F464C64C9709F40C
:101B3000A7C60C94122C8732910511F40C94D4187A
:101B400058F48E31910511F40C94C218869711F453
:101B50000C94C6180C94122C8B35910511F40C942E
:101B6000D8188C35910511F40C94DD188A3591053F
:101B700011F00C94122C1092F3040C94122C2223CA
:101B800011F40C94122C0E9435320E94537A0C945A
:101B9000122C222311F40C94122C11E0029709F05C
:101BA00010E00E94353282E50E948531882309F4D5
:101BB0005CC10E940C326B017C0140900207509086
:101BC0000307609004077090050720910607309185
:101BD00007074091080750910907A1962CAF3DAF28
:101BE0004EAF5FAFA1978091520890915308A0919A
:101BF0005408B0915508A5968CAF9DAFAEAFBFAF5E
:101C0000A597209156083091570840915808509157
:101C10005908AD962CAF3DAF4EAF5FAFAD9720E00A
:101C200030E0A901C701B6010E949288882309F417
:101C3000C7C5A3019201A5966CAD7DAD8EAD9FADDC
:101C4000A5970E949288811111C0A1962CAD3DAD3F
:101C50004EAD5FADA197AD966CAD7DAD8EAD9FAD38
:101C6000AD970E949288882309F4AAC520E030E04D
:101C7000A901C701B6010E949288881F8827881F82
:101C800018130BC080E090E0A0E8BFE3E9968CAFAA
:101C90009DAFAEAFBFAFE9970AC020E030E040E8AB
:101CA0005FEBE9962CAF3DAF4EAF5FAFE997A30175
:101CB0009201A5966CAD7DAD8EAD9FADA5970E94AE
:101CC000928CE1966CAF7DAF8EAF9FAFE197A196FE
:101CD0002CAD3DAD4EAD5FADA197AD966CAD7DAD7C
:101CE0008EAD9FADAD970E94928CE5966CAF7DAFA7
:101CF0008EAF9FAFE597E1962CAD3DAD4EAD5FAD9C
:101D0000E197CA01B9010E94F7884B015C01E59691
:101D10002CAD3DAD4EAD5FADE597CA01B9010E9456
:101D2000F7889B01AC01C501B4010E94938C0E940D
:101D3000FE8EA9966CAF7DAF8EAF9FAFA99720E0C6
:101D400030E040E05FE30E94F7884B015C01A701AF
:101D50009601C701B6010E94F7886B017C01A501BD
:101D60009401C501B4010E94F7889B01AC01C70131
:101D7000B6010E94928C0E94FE8E9B01AC01E996F6
:101D80006CAD7DAD8EAD9FADE9970E94F7884B019C
:101D90005C01A5962CAD3DAD4EAD5FADA597C301E1
:101DA000B2010E94938C20E030E040E05FE30E94AB
:101DB000F7886B017C01E5966CAD7DAD8EAD9FAD76
:101DC000E5979058A9962CAD3DAD4EAD5FADA99766
:101DD0000E946F8D9B01AC01C501B4010E94F78880
:101DE0009B01AC01C701B6010E94938CA301920133
:101DF0000E94928C6B017C01AD962CAD3DAD4EAD39
:101E00005FADAD97A1966CAD7DAD8EAD9FADA19749
:101E10000E94938C20E030E040E05FE30E94F7886E
:101E20002B013C01A9962CAD3DAD4EAD5FADA99700
:101E3000E1966CAD7DAD8EAD9FADE1970E946F8D4B
:101E40009B01AC01C501B4010E94F7889B01AC0164
:101E5000C301B2010E94938CA1962CAD3DAD4EAD55
:101E60005FADA1970E94928C14C089E40E948531D5
:101E7000882329F00E940C326B017C0103C0C12C25
:101E8000D12C76018AE40E9485318823F9F00E94E2
:101E90000C32A1966CAF7DAF8EAF9FAFA19720E0C3
:101EA00030E0A901C701B6010E94928881111EC0CD
:101EB00020E030E0A901A1966CAD7DAD8EAD9FAD67
:101EC000A1970E949288811111C07AC420E030E06D
:101ED000A901C701B6010E949288882309F470C441
:101EE000A1961CAE1DAE1EAE1FAEA197A701960116
:101EF000C701B6010E94F7884B015C01A1962CAD89
:101F00003DAD4EAD5FADA197CA01B9010E94F78802
:101F10009B01AC01C501B4010E94938C0E94FE8E0E
:101F2000CB57DF4F688379838A839B83C558D04022
:101F30008091020790910307A0910407B0910507D3
:101F4000AD968CAF9DAFAEAFBFAFAD97A701960179
:101F5000BC01CD010E94938CC357DF4F6883798306
:101F60008A839B83CD58D040209106073091070784
:101F70004091080750910907E1962CAF3DAF4EAF55
:101F80005FAFE197A1962CAD3DAD4EAD5FADA19792
:101F9000E1966CAD7DAD8EAD9FADE1970E94938CC7
:101FA000CF56DF4F688379838A839B83C159D040A2
:101FB00080910A0790910B07A0910C07B0910D0733
:101FC000E9968CAF9DAFAEAFBFAFE9979C01AD0175
:101FD00060915A0870915B0880915C0890915D084F
:101FE0000E94928CA9966CAF7DAF8EAF9FAFA997E0
:101FF00020915E0830915F0840916008509161081F
:10200000C757DF4F288339834A835B83C958D04041
:1020100080910E0790910F07A0911007B0911107C2
:10202000ED968CAF9DAFAEAFBFAFED97A701960118
:102030005058A5962CAF3DAF4EAF5FAFA597A19678
:102040004CAC5DAC6EAC7FACA19777FA709477F82E
:102050007094C0905208D0905308E0905408F090CB
:102060005508E596CCAEDDAEEEAEFFAEE597C357B4
:10207000DF4F288139814A815B81CD58D040C7012B
:10208000B6010E94928C6B017C0120915608309120
:1020900057084091580850915908CF57DF4F28836F
:1020A00039834A835B83C158D040CF56DF4F2881A4
:1020B00039814A815B81C159D040CF57DF4F688158
:1020C00079818A819B81C158D0400E94928C4B01BA
:1020D0005C01A7019601A5966CAD7DAD8EAD9FAD5F
:1020E000A5970E94F788C358DF4F688379838A8356
:1020F0009B83CD57D040A5019401C301B2010E943A
:10210000F7889B01AC01C358DF4F688179818A81D0
:102110009B81CD57D0400E94938CC358DF4F68837A
:1021200079838A839B83CD57D040A5019401A596DE
:102130006CAD7DAD8EAD9FADA5970E94F7884B012C
:102140005C01A7019601C301B2010E94F7889B01BF
:10215000AC01C501B4010E94928CC358DF4F2881A5
:1021600039814A815B81CD57D0400E94068D6B0139
:102170007C0120E030E0A9010E94928887FF0AC01C
:102180002BED3FE049EC50E4C701B6010E94938C6F
:102190006B017C01112351F02BED3FE049EC50E441
:1021A000C701B6010E94928C6B017C0120E030E0F7
:1021B000A901C701B6010E94928881112CC0E59641
:1021C0002CAD3DAD4EAD5FADE597AD966CAD7DAD43
:1021D0008EAD9FADAD970E94928881111CC0CF57E4
:1021E000DF4F288139814A815B81C158D040E19617
:1021F0006CAD7DAD8EAD9FADE1970E94928881114F
:102200000AC02BED3FE049EC50E4C701B6010E9443
:10221000938C6B017C01CB57DF4F288139814A8138
:102220005B81C558D040C701B6010E94F7889B0169
:10223000AC010E94F7884B015C01A9962CAD3DAD25
:102240004EAD5FADA997CA01B9010E94F7889B0105
:10225000AC01C501B4010E94938C0E94FE8E4B011B
:102260005C012FE632E143E85AE30E94928887FD41
:10227000A3C2C501B4010E94088E0E94DC8DE396C2
:102280007FAF6EAFE397672B31F481E090E0E39688
:102290009FAF8EAFE397E396AEADBFADE397BD01C1
:1022A00080E090E00E9496884B015C019B01AC01AC
:1022B000C701B6010E946F8DAD966CAF7DAF8EAF3A
:1022C0009FAFAD97A5019401A9966CAD7DAD8EAD84
:1022D0009FADA9970E946F8DCB56DF4F688379839E
:1022E0008A839B83C559D040ED962CAD3DAD4EAD54
:1022F0005FADED97C757DF4F688179818A819B81F8
:10230000C958D0400E94928CA50194010E946F8D03
:10231000C756DF4F688379838A839B83C959D0402E
:10232000AD962CAD3DAD4EAD5FADAD97CA01B901D7
:102330000E94F78820E030E040E05FE30E94F788E9
:102340009B01AC0160E070E080E89FE30E94928C0A
:10235000CF57DF4F688379838A839B83C158D040EE
:10236000E996CCACDDACEEACFFACE997C986DA8679
:10237000EB86FC86ED96CCACDDACEEACFFACED971D
:10238000CD86DE86EF86F88A6091750270917602BE
:10239000072E000C880B990B0E94988820917702D9
:1023A000309178024091790250917A020E94F78828
:1023B0002AE037ED43E25CE30E94F788CB57DF4F1A
:1023C000688379838A839B83C558D0400E9468467E
:1023D0009B01AC0128533F4F4F4F5F4FC757DF4F13
:1023E000288339834A835B83C958D040A296DFACE7
:1023F000A297A696DFAEA697A396DFACA397AE965C
:10240000DFAEAE97A4962FACA497A5963FACA59748
:1024100021E030E0EB963FAF2EAFEB97E6961FAE94
:10242000E697EB964EAD5FADEB97E3968EAD9FAD25
:10243000E3974817590709F479C10E94BC4D0E94DF
:102440006846DC01CB01C757DF4FC880D980EA80DE
:10245000FB80C958D0408C199D09AE09BF09B7FD52
:1024600012C00E9468469B01AC0128533F4F4F4F5A
:102470005F4FC757DF4F288339834A835B83C9582F
:10248000D0400E940D7DE6963FADE6973F5FE69611
:102490003FAFE69739310CF052C0CF57DF4F28815C
:1024A00039814A815B81C158D040C301B2010E9489
:1024B000F7886B017C01AD962CAD3DAD4EAD5FADA7
:1024C000AD97A6966FADA697AE967FADAE97C101BC
:1024D0000E94F788A70196010E94938C7B018C01D2
:1024E000CF57DF4F288139814A815B81C158D04065
:1024F000A6966FADA697AE967FADAE97C1010E942E
:10250000F7884B015C01AD962CAD3DAD4EAD5FAD96
:10251000AD97C301B2010E94F7889B01AC01C501D0
:10252000B4010E94928CA6966FAFA697AE967FAF2D
:10253000AE971C01C701D8012C013D0161C0EB968B
:102540004EAD5FADEB97BA0180E090E00E949688B7
:10255000AD962CAD3DAD4EAD5FADAD970E94F78809
:102560004B015C010E946C8D6B017C01C501B401C3
:102570000E94F48E4B015C01A7019601A5966CADFB
:102580007DAD8EAD9FADA5970E94F7882B013C01D4
:10259000A5019401A1966CAD7DAD8EAD9FADA197C7
:1025A0000E94F7889B01AC01C301B2010E94938C89
:1025B000A6966FAFA697AE967FAFAE971C01A5010A
:1025C0009401A5966CAD7DAD8EAD9FADA5970E9493
:1025D000F7884B015C01A7019601A1966CAD7DAD1A
:1025E0008EAD9FADA1970E94F7889B01AC01C501FC
:1025F000B4010E94928C2B013C01E6961FAEE69737
:10260000A6962FADA697AE963FADAE97A101C35744
:10261000DF4F688179818A819B81CD58D0400E94AB
:10262000938C6B017C0169837A838B839C83A301E8
:102630009201CF56DF4F688179818A819B81C15990
:10264000D0400E94938CC358DF4F688379838A837C
:102650009B83CD57D0406D837E838F839887298558
:102660003A854B855C85CB56DF4F688179818A81BD
:102670009B81C559D0400E94938C4B015C016987B6
:102680007A878B879C87C756DF4F288139814A819B
:102690005B81C959D0406D857E858F8598890E9460
:1026A000938C6D877E878F87988B10916208CDA25F
:1026B000DEA2EFA2F8A6C358DF4FC880D980EA8017
:1026C000FB80CD57D040C9A6DAA6EBA6FCA68DA606
:1026D0009EA6AFA6B8AAAE01435D5F4FBE01675D7F
:1026E0007F4FCE0185960E940F79C12ECB57DF4FC9
:1026F000E880F9800A811B81C558D0409E01235F84
:102700003F4FAE01435D5F4FBE01675D7F4FCE011E
:1027100085960E948E6AEB962EAD3FADEB972F5FAC
:102720003F4FEB963FAF2EAFEB977BCEC09062084A
:102730008091520890915308A0915408B091550887
:102740008DA39EA3AFA3B8A7809156089091570878
:10275000A0915808B091590889A79AA7ABA7BCA720
:1027600080915A0890915B08A0915C08B0915D0837
:102770008DA79EA7AFA7B8ABAE01435D5F4FBE016B
:10278000675D7F4FCE0185960E940F79CB57DF4F53
:10279000E880F9800A811B81C558D0402EE538E0D9
:1027A000AE01435D5F4FBE01675D7F4FCE018596F1
:1027B0000E948E6A0E9416310E94F2350C94122CEF
:1027C000E3E1F9E084918F010F5F1F4F882321F02F
:1027D0000E943536F801F6CFEFEEF1E084918F01DB
:1027E0000F5F1F4F882311F40C94122C0E94353672
:1027F000F801F4CF80E50E948531882371F0809143
:10280000E8049091E9044AE050E060E070E001964D
:102810000E94E6866B017C0103C0C12CD12C76019D
:1028200083E50E948531882361F00E940C3220E00C
:1028300030E04AE754E40E94F7880E94DC8D6B0187
:102840007C010E940E4F0E94F2358091BC0E909147
:10285000BD0EA091BE0EB091BF0EC80ED91EEA1ECD
:10286000FB1E0E946846DC01CB018C199D09AE0954
:10287000BF09B7FD02C00C94122C0E940D7DF1CF50
:102880000E940E4F80E00E94B230D090620821E09A
:1028900040E050E0BA0180E00E946E631092A60D05
:1028A0000E94163681E08093230288E50E948531DC
:1028B000E82E89E50E948531082F8AE50E9485313E
:1028C000F82EE11005C0011105C011E0182705C060
:1028D000011102C010E001C0182F0E940C3111112B
:1028E00005C0F11003C0E11007C043C082E090E0D2
:1028F0000E94FA581123B9F3FF24F394F09262086E
:1029000080E090E00E94FA582091CC0D3091CD0DDE
:102910004091CE0D5091CF0D609102077091030749
:1029200080910407909105070E94928C6093710238
:1029300070937202809373029093740210926208F3
:1029400080E090E00E94FA5890E1E2E0F7E0A3EA2C
:10295000BEE001900D929A95E1F71092B80E109298
:10296000B90E1092BA0E1092BB0EF092B50E111164
:1029700002C0002321F081E090E00E94FA580E94FA
:10298000A43280916308809323020E94FD3521E0E8
:1029900040E050E0BA018D2D0E946E630E94706687
:1029A0000C94122C0E94824081110C94122C86E50A
:1029B0000E948531882321F00E94FF311C0103C051
:1029C00022242394312C95E02916310470F0E5E09F
:1029D000F2E084918F010F5F1F4F882311F40C9454
:1029E000122C0E943536F801F4CF84E40E94853120
:1029F0006E968FAF6E9785E40E948531C82E0E9437
:102A00000E4FD090D80D1092D80D6E96EFAC6E97F9
:102A1000E11006C084E690E00E946A7F0E94A43222
:102A20000E94163681E00E94C3308111F4C280E01A
:102A300090E0A0E8B0EC89839A83AB83BC8340E04C
:102A400050E060E773E44D835E836F837887198677
:102A50001A861B861C868D879E87AF87B88B80E081
:102A600090E0A0EAB1E4898B9A8BAB8BBC8B1D8A7A
:102A70001E8A1F8A188E80E090E0A4E3B3E4898F59
:102A80009A8FAB8FBC8F80E090E0A0ECB0EC8D8F84
:102A90009E8FAF8FB8A319A21AA21BA21CA28E01EF
:102AA0000F5F1F4F7E0125E2E20EF11C2091CC0D3D
:102AB0003091CD0D4091CE0D5091CF0DD8016D913B
:102AC0007D918D919C910E94938C6D966CAF7DAFA2
:102AD0008EAF9FAF6D972091D00D3091D10D409169
:102AE000D20D5091D30DF801648175818681978153
:102AF0000E94938C69966CAF7DAF8EAF9FAF699744
:102B000091014C2DBE016B5A7F4FCE01875A9F4FCA
:102B10000E94453DA5966CAF7DAF8EAF9FAFA59748
:102B2000D80118966D937D938D939C931B97045FAA
:102B30001F4F0E151F0509F0B9CF6E96CFAC6E97DB
:102B4000C11064C2CD84DE84EF84F88849885A8835
:102B50006B887C888D889E88AF88B88CA50194018D
:102B600069A17AA18BA19CA10E94928CAD966CAFB9
:102B70007DAF8EAF9FAFAD97A30192016D8D7E8D1E
:102B80008F8D98A10E94928CA9966CAF7DAF8EAF6D
:102B90009FAFA997A7019601698D7A8D8B8D9C8D2A
:102BA0000E94928CE1966CAF7DAF8EAF9FAFE197A4
:102BB000A501940169857A858B859C850E94928CFC
:102BC0004B015C01A301920160E070E080E793E4B7
:102BD0000E94928C2B013C01A701960160E070E0FD
:102BE00080E890EC0E94928C6B017C01AD962CAD3C
:102BF0003DAD4EAD5FADAD97C301B2010E94F78808
:102C0000E5966CAF7DAF8EAF9FAFE597A9962CADE3
:102C10003DAD4EAD5FADA997C501B4010E94F788E7
:102C20009B01AC01E5966CAD7DAD8EAD9FADE5979A
:102C30000E94928C2D966CAF7DAF8EAF9FAF2D977B
:102C4000E1962CAD3DAD4EAD5FADE197C501B40150
:102C50000E94F7884B015C01AD962CAD3DAD4EADA9
:102C60005FADAD97C701B6010E94F7889B01AC012B
:102C7000C501B4010E94928C61966CAF7DAF8EAF9E
:102C80009FAF6197A9962CAD3DAD4EAD5FADA997B5
:102C9000C701B6010E94F7886B017C01E1962CAD5B
:102CA0003DAD4EAD5FADE197C301B2010E94F78823
:102CB0009B01AC01C701B6010E94928C65966CAF76
:102CC0007DAF8EAF9FAF6597CE01875B9F4F0E9410
:102CD000A3472D96CCACDDACEEACFFAC2D97619646
:102CE0004CAC5DAC6EAC7FAC619765968CAC9DAC2A
:102CF000AEACBFAC659720E030E0A901C501B401DE
:102D00000E94928887FF0CC0F7FAF094F7F8F094CD
:102D100077FA709477F87094B7FAB094B7F8B094E3
:102D20002D96CCAEDDAEEEAEFFAE2D9761964CAEDD
:102D30005DAE6EAE7FAE619765968CAE9DAEAEAE6B
:102D4000BFAE65972196CCAEDDAEEEAEFFAE21975D
:102D500025964CAE5DAE6EAE7FAE259729968CAEB5
:102D60009DAEAEAEBFAE2997CE01CD960E94A347D1
:102D700080E090E0A0E8BFE389AB9AABABABBCAB23
:102D80001DAA1EAA1FAA18AEC701B6019058A50118
:102D900094010E946F8D69AF7AAF8BAF9CAFCE016B
:102DA000C1960E94A3472196CCACDDACEEACFFAC43
:102DB0002197AD96CCAEDDAEEEAEFFAEAD972596CB
:102DC0004CAC5DAC6EAC7FAC259729968CAC9DACC1
:102DD000AEACBFAC2997C9A8DAA8EBA8FCA8A99605
:102DE000CCAEDDAEEEAEFFAEA997CDA8DEA8EFA8C3
:102DF000F8ACE196CCAEDDAEEEAEFFAEE197C9AC7D
:102E0000DAACEBACFCACA7019601C301B2010E94A5
:102E1000F788E5966CAF7DAF8EAF9FAFE597E196F3
:102E20002CAD3DAD4EAD5FADE197C501B4010E9443
:102E3000F7889B01AC01E5966CAD7DAD8EAD9FAD85
:102E4000E5970E94928C6DA37EA38FA398A7A99665
:102E50002CAD3DAD4EAD5FADA997C501B4010E944B
:102E6000F7884B015C01A7019601AD966CAD7DAD75
:102E70008EAD9FADAD970E94F7889B01AC01C50157
:102E8000B4010E94928C69A77AA78BA79CA7E196B0
:102E90002CAD3DAD4EAD5FADE197AD966CAD7DAD6A
:102EA0008EAD9FADAD970E94F7886B017C01A9960E
:102EB0002CAD3DAD4EAD5FADA997C301B2010E94EF
:102EC000F7889B01AC01C701B6010E94928C6DA7E7
:102ED0007EA78FA798ABCE0185960E94A34749A8ED
:102EE0005AA86BA87CA88DA89EA8AFA8B8ACC9ACFE
:102EF000DAACEBACFCAC2DA13EA14FA158A5AD9630
:102F00002CAF3DAF4EAF5FAFAD9789A59AA5ABA5EE
:102F1000BCA5A9968CAF9DAFAEAFBFAFA9972DA5AD
:102F20003EA54FA558A9E1962CAF3DAF4EAF5FAF80
:102F3000E19721960CAD1DAD2EAD3FAD21972596A5
:102F40004CAD5DAD6EAD7FAD259729968CAD9DAD39
:102F5000AEADBFAD299740923D0750923E076092BB
:102F60003F07709240078092410790924207A092DB
:102F70004307B0924407C0924507D0924607E092BB
:102F80004707F0924807AD96CCACDDACEEACFFAC99
:102F9000AD97C0924907D0924A07E0924B07F09252
:102FA0004C07A996CCACDDACEEACFFACA997C092B7
:102FB0004D07D0924E07E0924F07F0925007E196EE
:102FC000CCACDDACEEACFFACE197C0925107D09237
:102FD0005207E0925307F09254070093550710935D
:102FE000560720935707309358074093590750933B
:102FF0005A0760935B0770935C0780935D0790931B
:103000005E07A0935F07B0936007D12C80E00E9419
:10301000C330882321F0D092D80D0C94122C0E943A
:10302000FD35232821F08FE993E00E9406416E963A
:10303000EFAC6E97E1108CC08CE0E2E0F7E0DE01CF
:10304000959601900D928A95E1F781E08093D80DD5
:10305000CE0185960E94AB771092D80D6D962CAD5F
:103060003DAD4EAD5FAD6D97609102077091030766
:1030700080910407909105070E94928C4B015C019E
:103080002DEB37E346E855EB0E94B98E18160CF08D
:1030900056C02DEB37E346E855E3C501B4010E9465
:1030A000928887FF4CC020E030E048EA51E46996FE
:1030B0006CAD7DAD8EAD9FAD69970E94938C9B01E9
:1030C000AC01609106077091070780910807909105
:1030D00009070E94928C4B015C012DEB37E346E817
:1030E00055EB0E94B98E181654F52DEB37E346E8E0
:1030F00055E3C501B4010E94928887FF20C020914A
:103100004002309141024091420250914302A59603
:103110006CAD7DAD8EAD9FADA5970E94938C9B014C
:10312000AC0160910A0770910B0780910C07909198
:103130000D070E94928C6DA77EA78FA798AB8CE09D
:10314000FE01B596A2E0B7E001900D928A95E1F7F5
:103150000E94706681E090E09093B70E8093B60E67
:103160006E96FFAC6E97FF2011F08D2D01C081E0AF
:103170008093D80D882311F40C94122C0E94A43251
:103180000C94122C0E94BD3E0C94122C8EEF820FD8
:10319000823010F00C94122C81E0223009F080E093
:1031A0000E943C360C94122C0E943A3A0C94122C39
:1031B00081E08093F3040C94132C85E40E94853104
:1031C000B82E811102C00E940E4F00E8802E02E04E
:1031D000902E82E0C82E87E0D82E9CEDE92E94E058
:1031E000F92E00E010E0A12CD4018D914D010E9438
:1031F0008531882309F44EC0F60120813181428156
:103200005381CC54DF4F2883C45BD040CB54DF4F75
:103210003883C55BD040CA54DF4F4883C65BD0407B
:10322000C954DF4F5883C75BD0400E940C32D6018F
:103230006D937D938D939C931397CC54DF4F28818E
:10324000C45BD040CB54DF4F3881C55BD040CA54FB
:10325000DF4F4881C65BD040C954DF4F5881C75B00
:10326000D04003301105B1F00E94928C9B01AC015B
:10327000F70160817181828193810E94938CD701D3
:103280006D937D938D939C931397C8010E94BA34DC
:10329000AA24A3940F5F1F4FB4E0CB0ED11CE4E02F
:1032A000EE0EF11C0430110509F09ECFAA2019F092
:1032B0000E94A43237C0BB20A9F1C0900E07D09065
:1032C0000F07E0901007F09011072091B10830919E
:1032D000B2084091B3085091B408C701B6010E94EA
:1032E000F7880E94C48E6093810770938207809351
:1032F000830790938407C701B6010E94D78D2FB72B
:10330000F8946093A7077093A8078093A9079093F8
:10331000AA072FBF109271071092720710927307BD
:10332000109274070E9470660C94122C8E3B9105CB
:1033300009F4B4C308F098C08936910509F4EEC1C8
:1033400008F055C08D34910509F48DC1E0F48F313A
:10335000910509F466C148F48131910509F44AC127
:10336000429709F465C50C94122C8B34910509F42D
:103370005CC108F05EC18A9711F00C94122C0E9477
:103380000C690C94122C8435910509F451C508F58B
:103390008235910509F443C508F045C5813591058D
:1033A00011F00C94122C0E9428490E940E4F0E948A
:1033B000E0791092130E1092120E1092150E1092C8
:1033C000140E68EE73E080E090E00E9430460C94AA
:1033D000122C8C35910509F47DC58836910509F4C8
:1033E00046C18535910511F00C94122C58C58037D3
:1033F000910509F448C1C8F48C36910509F43FC120
:1034000050F48A36910509F4C8C48B36910509F445
:10341000EEC40C94122C8E36910509F42CC108F4DC
:103420009AC10E942F670C94122C8737910509F4DA
:10343000EAC570F48237910509F4D5C508F42BC1AB
:103440008337910511F00C94122CEEE4F2E0CFC515
:103450008937910509F4CEC608F4C5C68C389105A4
:1034600009F445C10C94122C8033F1E09F0711F44C
:103470000C94882408F060C0833D910511F40C94ED
:10348000F62298F58B3C910509F43BC798F4883CEB
:10349000910509F4B5C6893C910511F00C94122CE4
:1034A000A5E9EA2EA8E0FA2E00E812E0B4E0DB2E4F
:1034B000D00E0EC78D3C910509F4ADC708F43FC787
:1034C0008E3C910511F00C94122C50E8A52E52E080
:1034D000B52E62E0C62E67E0D62E76EFE72E76E0B8
:1034E000F72E00E010E00C948D22823E910511F43D
:1034F0000C94B92388F48C3D910511F40C948E231F
:103500008D3D910511F40C949D238A3D910511F098
:103510000C94122C0C947F238E3231E0930711F41B
:103520000C94052510F00C9476258D32914011F401
:103530000C94EA230C94122C8C3AA1E09A0711F413
:103540000C94B72258F58139E1E09E0711F40C94F0
:103550006D2978F4833621E0920711F40C949A2BAC
:103560008039914011F00C94122C0E940E4F0C9453
:10357000122C8A3941E0940709F489C0843A51E059
:10358000950711F40C9470298239914011F00C9434
:10359000122C80E00E94C3300C94122C873FB1E0C3
:1035A0009B0711F40C94782A90F4853FF1E09F0773
:1035B00011F40C946F2A10F00C94752A843F9140FA
:1035C00011F00C94122CE3E1F9E00C94582A8335A5
:1035D00043E0940711F40C94822A873E53E0950748
:1035E00011F40C94B32B8D35924011F00C94122CE5
:1035F0000C94E42A5F9812988A9847989FB7F89499
:10360000809108018E7F809308019FBF9FB7F89437
:10361000809108018D7F809308019FBF8D980C9445
:10362000122C0E946E690C94122C0E944E410C9434
:10363000122C8091870790918807019711F00C94C4
:10364000122C82E090E090938807809387070E9475
:1036500068466093910770939207809393079093C5
:1036600094070C94122C0E94EE400C94122C0E9491
:10367000B0680C94122C0E94A1670C94122C10922A
:1036800018020C94122C8DE292E00E94F3590E94D1
:103690004B660C94122C83E50E948531882369F0D7
:1036A0000E94983180937B028D3310F40C94122C7D
:1036B0008CE380937B020C94122CEDE5FAE084916C
:1036C0008F010F5F1F4F882321F00E943536F801CC
:1036D000F6CF40917B0250E060E070E086E392E03C
:1036E0000E942E378AE00E9435360C94122C80916D
:1036F000160E83FF02C00C94122C83E50E948531C4
:10370000882311F40C94122C0E940C320E94D78D45
:103710007093B8076093B7070C94122C89E690E079
:103720000E948D39811111C0EDE3F2E084918F0187
:103730000F5F1F4F882321F00E943536F801F6CF26
:103740000E94BA678AE00E9435361092B70E109236
:10375000B60E0C94A12E8DE690E00E948D39811159
:103760000C94122C8091160E83FF02C00C94122C24
:1037700083E50E948531AA968FAFAA97811105C073
:1037800082E50E948531882341F10091EA040E947C
:103790000C3210E0000F111F0754184F0E94D78DF4
:1037A000D8016D937C938091B30E9091B40E0297E3
:1037B00031F48091EA04882311F40C94362C0E9491
:1037C0000C3220E030E04AEA52E40E949288181657
:1037D00014F40C94552C0E94EE400E94A06181E0EC
:1037E000809318021092B70E1092B60EA5961CAEDA
:1037F0001DAE1EAE1FAEA597A9961CAE1DAE1EAE89
:103800001FAEA9976E961FAE6E97AE961FAEAE977F
:10381000BCE3E296BFAFE297ECE1E696EFAFE69746
:10382000F6E4EA96FFAFEA97C12CD12CB0E8EB2E74
:103830001FEBF12E812C912C54010091EA0410E031
:10384000F801EE0FFF1FE754F84F60817181072EDA
:10385000000C880B990B0E949888762E672E582EA4
:10386000492E262F372F482F592FB601C7010E9406
:103870009288882311F1000F111F000F111FF8010A
:10388000E155F84F2081318142815381672D762D9A
:10389000852D942D0E949288881F8827881F6E96F8
:1038A0008FAF6E97AA96CFACAA97CC2051F0882301
:1038B00041F0809118020C94122C7C2C6D2C5E2C03
:1038C0004F2C0E9468466B017C01DC01CB01A9965C
:1038D0002CAD3DAD4EAD5FADA997821B930BA40BF4
:1038E000B50BB7FD45C0D701C60188519C4FAF4FFE
:1038F000BF4FA9968CAF9DAFAEAFBFAFA9970E9447
:10390000BA67E3E4F2E084918F010F5F1F4F8823D1
:1039100021F00E943536F801F6CF81149104A104FC
:10392000B104D1F0D501C401805C904EAF4FBF4FC0
:10393000BC01CD016C197D098E099F0928EE33E089
:1039400040E050E00E94578CCA01B9010E944937FB
:103950008AE00E9435360CC0E0E4F2E084918F01E9
:103960000F5F1F4F882321F00E943536F801F6CFF4
:103970000E940D7D0E94F235E091EA0494E0E99FF7
:10398000F0011124E155F84F20803180028113812C
:103990009101A801672D762D852D942D0E94928C82
:1039A0009F7781149104A104B10449F420E030E030
:1039B00040E050E40E94928887FF0BC008C020E0DE
:1039C00030E040E850E40E94B98E181614F4460125
:1039D00057016E96AFAD6E97AA2309F443C0A59622
:1039E0002CAD3DAD4EAD5FADA5972115310541051F
:1039F000510541F0D701C601821B930BA40BB50BF7
:103A0000B7FD30C09101A801AE966FADAE97E296BA
:103A10007FADE297E6968FADE697EA969FADEA977F
:103A20000E94928C20E030E040EC5FE30E9492889C
:103A300087FD3FCFD701C601805A9541AF4FBF4F99
:103A4000A5968CAF9DAFAEAFBFAFA597AE962FAE8C
:103A5000AE97E2963FAEE297E6960FAFE697EA960C
:103A60001FAFEA9780911802882309F422CF8114AE
:103A70009104A104B10429F4C72CD62CE52CF42C14
:103A8000DCCE90E4C91A9FE1D90AE108F108C81810
:103A9000D908EA08FB08F7FE0CCFEECF8091160E8E
:103AA00083FF02C00C94122C83E50E948531AA96F4
:103AB0008FAFAA97811105C082E50E9485318823C6
:103AC000A1F00E940C320E94D78D7093B8076093CA
:103AD000B7070E940C3220E030E040EA50E40E9438
:103AE000B98E181614F40E944E4181E0809318029A
:103AF0001092B70E1092B60E809162088093EA047D
:103B0000A5961CAE1DAE1EAE1FAEA597A9961CAE07
:103B10001DAE1EAE1FAEA9976E961FAE6E97AE96E7
:103B20001FAEAE97ACE3E296AFAFE297BCE1E6968C
:103B3000BFAFE697E6E4EA96EFAFEA97C12CD12C47
:103B400070E8E72EEFEBFE2E812C912C5401609152
:103B5000B7077091B807072E000C880B990B0E94CD
:103B60009888162F072F782E692E262F372F482F4B
:103B7000592FB601C7010E9492888823F9F020913D
:103B8000AB073091AC074091AD075091AE07612F64
:103B9000702F872D962D0E949288881F8827881F56
:103BA0006E968FAF6E97AA96CFACAA97CC2051F0A5
:103BB000882341F0809118020C94122C1C2D0D2D9D
:103BC0007E2C6F2C0E9468466B017C01DC01CB01CE
:103BD000A9962CAD3DAD4EAD5FADA997821B930B61
:103BE000A40BB50BB7FD47C0D701C60188519C4F48
:103BF000AF4FBF4FA9968CAF9DAFAEAFBFAFA997E8
:103C00000E94BA67EAE4F2E084912F019FEF491A1B
:103C1000590A882321F00E943536F201F5CF81142C
:103C20009104A104B104D1F0D501C401805C904E8F
:103C3000AF4FBF4FBC01CD016C197D098E099F09A3
:103C400028EE33E040E050E00E94578CCA01B901F1
:103C50000E9449378AE00E9435360DC0E7E4F2E061
:103C600084912F01AFEF4A1A5A0A882321F00E944B
:103C70003536F201F5CF0E940D7D0E94F23520907D
:103C8000AB073090AC074090AD075090AE07910164
:103C9000A201612F702F872D962D0E94928C9F7705
:103CA00081149104A104B10449F420E030E040E023
:103CB00050E40E94928887FF0BC008C020E030E0EB
:103CC00040E850E40E94B98E181614F446015701DA
:103CD0006E96BFAD6E97BB2309F443C0A5962CAD7D
:103CE0003DAD4EAD5FADA59721153105410551059F
:103CF00041F0D701C601821B930BA40BB50BB7FD96
:103D000030C09101A201AE966FADAE97E2967FAD45
:103D1000E297E6968FADE697EA969FADEA970E9406
:103D2000928C20E030E040EC5FE30E94928887FDB7
:103D300041CFD701C601805A9541AF4FBF4FA596DD
:103D40008CAF9DAFAEAFBFAFA597AE962FAEAE977F
:103D5000E2963FAEE297E6964FAEE697EA965FAE02
:103D6000EA9780911802882309F424CF81149104E2
:103D7000A104B10429F4C12ED02EE72CF62CE7CEF5
:103D800090E4C91A9FE1D90AE108F108C818D908D6
:103D9000EA08FB08F7FE0ECFEECF83E50E948531DF
:103DA000882321F00E94F2318C0102C00FEF10E055
:103DB00080E50E948531882341F00E94F2318230F3
:103DC000910510F00C94122C02C080E090E0FC01F0
:103DD000EE0FFF1FEE5EF14F98010F3F110519F036
:103DE00010F02FEF30E0318320830C94122C80E50B
:103DF0000E948531882341F00E94F2318230910582
:103E000010F00C94122C02C080E090E0880F991FF3
:103E1000FC01EE5EF14F118210820C94122C109274
:103E2000F2040C94122C81E08093F2040C94132C75
:103E300083E50E9485318823A1F00E940C3220E0A6
:103E400030E04AE754E40E94F7880E94DC8D6093DA
:103E50007C0270937D0280937E0290937F020C948B
:103E6000122C88E50E94853181110C94E52B89E59F
:103E70000E94853181110C94E52B8AE50E948531E1
:103E800081110C94E52B85E40E94853181110C94FD
:103E9000E52B0E940E4F0E94E0790C94122C83E5D2
:103EA0000E948531882311F40C94122C0E940C324C
:103EB00020E030E04AE754E40E94F7880E94DC8D5D
:103EC0006093C00E7093C10E8093C20E9093C30E88
:103ED0000C94122C30E8C32E32E0D32E45EAE42EA7
:103EE00048E0F42E10E0D6018D916D010E948531DD
:103EF000882309F46DC0133009F063C00E940C32AE
:103F00004B015C0120E030E040EA51E40E949288DD
:103F100087FF4EC0A50194016091B1087091B2086D
:103F20008091B3089091B4080E946F8D2B013C01E1
:103F30009B01AC016091E60D7091E70D8091E80D59
:103F40009091E90D0E94F7886093E60D7093E70D5C
:103F50008093E80D9093E90DA30192016091020E08
:103F60007091030E8091040E9091050E0E94F788C7
:103F70006093020E7093030E8093040E9093050ECF
:103F800060919108709192088091930890919408A3
:103F90000E949688A30192010E94F7880E94DC8DFE
:103FA000609391087093920880939308909394087B
:103FB0008092B1089092B208A092B308B092B4086F
:103FC00007C00E940C32F701608371838283938360
:103FD0001F5FF4E0EF0EF11C143009F084CF0E9453
:103FE000FD620C94122C0E9470660C94122C849129
:103FF0008F010F5F1F4F882311F40C94122C0E9425
:104000003536F801F4CFEDE4F3E084918F010F5FD2
:104010001F4F882321F00E943536F801F6CFE5E4E2
:10402000F3E084918F010F5F1F4F882321F00E94DE
:104030003536F801F6CF8091030180FD03C000E81A
:1040400013E002C005E813E0D8018D918D018823AB
:1040500019F00E943536F8CF8AE00E943536EDE33C
:10406000F3E084918F010F5F1F4F882321F00E949E
:104070003536F801F6CF4B9903C000E813E002C0D3
:1040800005E813E0F80181918F01882319F00E945F
:104090003536F8CF8AE00E943536E5E3F3E08491C7
:1040A0008F010F5F1F4F882321F00E943536F801E2
:1040B000F6CF649903C000E813E002C005E813E0FE
:1040C000D8018D918D01882319F00E943536F8CFE3
:1040D0008AE00E943536EDE2F3E084918F010F5FB4
:1040E0001F4F882321F00E943536F801F6CF8091CA
:1040F000030181FD03C000E813E002C005E813E0FE
:10410000F80181918F01882319F00E943536F8CF8C
:104110008AE00E943536E5E2F3E084918F010F5F7B
:104120001F4F882321F00E943536F801F6CF4A99B7
:1041300003C000E813E002C005E813E0D8018D9148
:104140008D01882319F00E943536F8CF8AE00E944D
:104150003536EDE1F3E084918F010F5F1F4F882327
:1041600021F00E943536F801F6CF659903C000E8CA
:1041700013E002C005E813E0F80181918F01882364
:1041800069F10E943536F8CF05E618E080E20E941A
:104190003536D8016D917D918D919D918D0142E0D3
:1041A0000E94C9398CE20E943536F801648175811C
:1041B0008681978142E00E94C9398CE20E9435369F
:1041C000D8011C966D917D918D919C911F9742E035
:1041D0000E94C939B8E00D361B07C1F68AE00E947B
:1041E00035360C94122C81E080932302809363086F
:1041F0000C94132C10922302109263080C94122C2E
:1042000088EC90E00E948D3981110C94122C84E48A
:104210000E948531882311F40C94122C0E940C32D8
:1042200011E020E030E0A9010E949288811101C0D4
:1042300010E010936408112309F446C00091EA04C9
:1042400010E00E940C32000F111F000F111FF80127
:10425000EC5BFD4F608371838283938320E030E0C9
:10426000A9016091440270914502809146029091AB
:1042700047020E94928881110CC080E090E0A0E487
:10428000B0E48093440290934502A0934602B09319
:10429000470220E030E0A901609148027091490294
:1042A00080914A0290914B020E94928881110CC029
:1042B00080E090E0A0E4B0E480934802909349024B
:1042C000A0934A02B0934B020E94FC790C94122CEA
:1042D000D8018D918D010E948531882349F00E947B
:1042E0000C320E94DC8DF70160837183828393839B
:1042F000F4E0EF0EF11CD012EBCF0E94D0610C94D1
:10430000122CE6EFEE2EEDE0FE2E00E812E0F4E0D7
:10431000DF2ED00ED8018D918D010E94853188232A
:1043200039F00E940C32F70160837183828393839A
:10433000F4E0EF0EF11CD012EDCF0C94122C83E5BB
:104340000E9485318823D9F00E940C32AB01BC0158
:104350004093EE0D5093EF0D6093F00D7093F10DBF
:104360004093EA0D5093EB0D6093EC0D7093ED0DBF
:1043700081EC93E00E942C408AE00E94353680E573
:104380000E948531882399F00E940C32AB01BC0158
:104390004093EE0D5093EF0D6093F00D7093F10D7F
:1043A00084EA93E00E942C408AE00E94353682E540
:1043B0000E948531882399F00E940C32AB01BC0128
:1043C0004093F20D5093F30D6093F40D7093F50D3F
:1043D00085E893E00E942C408AE00E94353684E50F
:1043E0000E948531882311F40C94122C0E940C3207
:1043F000AB01BC014093EA0D5093EB0D6093EC0DC3
:104400007093ED0D87E693E00E942C408AE00E94B5
:1044100035360C94122C83E50E948531882351F0A7
:104420000E940C3260930E0E70930F0E8093100E4C
:104430009093110E84E50E948531882351F00E94EB
:104440000C3260930A0E70930B0E80930C0E9093B7
:104450000D0E82E40E948531882399F08091E80452
:104460009091E9044AE050E060E070E001960E941B
:10447000E6866093060E7093070E8093080E909365
:10448000090E88E50E948531882351F00E940C3284
:104490006093DA0D7093DB0D8093DC0D9093DD0D4E
:1044A00089E50E948531882351F00E940C32609387
:1044B000DE0D7093DF0D8093E00D9093E10D8AE5A2
:1044C0000E948531882351F00E940C326093E20DE6
:1044D0007093E30D8093E40D9093E50D85E40E94C5
:1044E0008531882311F40C94122C0E940C326093B5
:1044F000E60D7093E70D8093E80D9093E90D0C9411
:10450000122C0F5F1F4FB4E0CB0ED11CE4E0EE0E77
:10451000F11C0330110509F463C0D5018D915D01D3
:104520000E948531882369F30E940C322B013C01E3
:10453000F70120813181428153810E94928C9B013D
:10454000AC01D6016D917D918D919C910E94938CCF
:10455000F6016083718382839383D7014D925D92CC
:104560006D927C921397C8010E94BA34CACFE6EFCD
:10457000F6E06F96FFAFEEAF6F9732E0232E37E095
:10458000332E25E337E0A3963FAF2EAFA39700E08D
:1045900010E0A3964EAD5FADA39745535740AB9641
:1045A0005FAF4EAFAB97A396AEADBFADA3978D9166
:1045B000A396BFAFAEAFA3978111E0C66F962EADA5
:1045C0003FAD6F972C5F3F4F6F963FAF2EAF6F970A
:1045D0000C5F1F4F34E0230E311C0C301105C9F65F
:1045E0000E94A4320E9470660C94122CEDE5FAE051
:1045F00084918F010F5F1F4F882321F00E94353671
:10460000F801F6CFEDE0F4E084918F010F5F1F4FCA
:10461000882321F00E943536F801F6CFE9E0F4E076
:1046200084918F010F5F1F4F882321F00E94353640
:10463000F801F6CFE1E0F4E084918F010F5F1F4FA6
:10464000882321F00E943536F801F6CF40910C0204
:1046500050910D0260910E0270910F028FEF93E066
:104660000E942C4040911002509111026091120260
:10467000709113028CEF93E00E942C404091140241
:1046800050911502609116027091170289EF93E024
:104690000E942C40E1EFF3E084918F010F5F1F4FE8
:1046A000882321F00E943536F801F6CF40910002B0
:1046B0005091010260910202709103028FEE93E02B
:1046C0000E942C4040910402509105026091060224
:1046D000709107028CEE93E00E942C4040910802FA
:1046E0005091090260910A0270910B0289EE93E0E9
:1046F0000E942C408AE00E9435360C94122C8AEDE0
:1047000090E00E948D3981110C94122C1091EA04D2
:10471000112311F40C94122C0C94592C83E50E9453
:104720008531882311F40C94122C0E94FF31909350
:104730007602809375020C94122C8DED90E00E940D
:104740008D3981110C94122C83E50E9485318823C8
:1047500011F40C94122C0091EA0410E00E94FF3135
:10476000000F111FF801EF59FD4F918380830C94C6
:10477000122C80E50E948531882311F40C94122CB0
:104780000E94FF318C0183E50E948531882321F04E
:104790000E94FF317C0103C0EE24EA94FE2CC70185
:1047A0000196039710F00C94122C17FF02C00C9482
:1047B000122CE4E8F2E0C8019927219131912817E1
:1047C000390711F40C94122C22E0E03FF207A9F70C
:1047D0000C94792E85E40E948531811110C080E50A
:1047E0000E948531882391F00E940C326093290247
:1047F00070932A0280932B0290932C0207C00E9490
:10480000FF31029764F3E3E1F9E071C089E40E94AB
:104810008531882381F00E940C322CE933E549E48C
:104820005EE30E94F78860932502709326028093CE
:1048300027029093280284E40E948531882381F026
:104840000E940C322CE933E549E45EE30E946F8D4F
:1048500060932D0270932E0280932F02909330026A
:10486000EDE5FAE084918F010F5F1F4F882321F05F
:104870000E943536F801F6CF4091290250912A0264
:1048800060912B0270912C0285E394E00E942C40F1
:104890002CE933E549E45EE360912502709126023C
:1048A00080912702909128020E946F8DAB01BC017C
:1048B00081E394E00E9410402CE933E549E45EE393
:1048C00060912D0270912E0280912F029091300202
:1048D0000E94F788AB01BC018DE294E00E94104079
:1048E0008AE00E9435369EC70E943536F8018491D1
:1048F0008F010F5F1F4F8111F7CF0EEB13E0D8012F
:104900008D918D01882309F469CC0E943536F7CF4B
:1049100080E50E948531882351F00E940C3260931B
:10492000390270933A0280933B0290933C0289E4EF
:104930000E948531882381F00E940C322CE933E5F6
:1049400049E45EE30E94F788609335027093360273
:10495000809337029093380284E40E948531882343
:1049600081F00E940C322CE933E549E45EE30E94B9
:104970006F8D609331027093320280933302909373
:104980003402EDE5FAE084918F010F5F1F4F882319
:1049900021F00E943536F801F6CF4091390250914E
:1049A0003A0260913B0270913C0281E494E00E94E3
:1049B0002C402CE933E549E45EE3609135027091C7
:1049C000360280913702909138020E946F8DAB01C0
:1049D000BC018DE394E00E9410402CE933E549E4EA
:1049E0005EE36091310270913202809133029091C6
:1049F00034020E94F788AB01BC0189E394E00E9475
:104A000010408AE00E9435360DC783E50E9485314B
:104A1000082F8823A1F00E940C3260935D027093EE
:104A20005E0280935F029093600211E020E030E02C
:104A3000A9010E949288811110E01093D90D80E5A0
:104A40000E948531182F8823A9F020E030E0A901C9
:104A500060915D0270915E0280915F0290916002B0
:104A60000E949288882319F00E94C731182F109352
:104A7000D90DD8C60111D6C6EDE5FAE084918F01B3
:104A80000F5F1F4F882321F00E943536F801F6CFC3
:104A90008091D90D811103C06FE873E002C062E814
:104AA00073E08AE594E00E94A23620E030E040E026
:104AB0005FE360915D0270915E0280915F02909170
:104AC00060020E94938C0E94D78D89E494E00E943A
:104AD0007639E5E4F4E084918F010F5F1F4F88235E
:104AE00009F4A0C60E943536F801F5CF85E40E948E
:104AF0008531882321F00E94FF311C0102C0212C46
:104B0000312C83E40E948531882349F00E94FF31D3
:104B1000C555DF4F99838883CB5AD04008C0E5E064
:104B2000F0E0C555DF4FF983E883CB5AD04085E5E7
:104B30000E948531882341F00E94C731C355DF4F61
:104B40008883CD5AD04005C0C355DF4F1882CD5A57
:104B5000D04083E50E948531882379F00E940C3291
:104B6000AE966FAFAE97E2967FAFE297E6968FAFC5
:104B7000E697EA969FAFEA9719C0AE961FAEAE973A
:104B8000E2961FAEE29737FC09C0F6E1E696FFAF6A
:104B9000E69723E4EA962FAFEA9708C03CE8E6964A
:104BA0003FAFE69742E4EA964FAFEA9752E0251608
:104BB000310410F42092EA041092B70E1092B60E4F
:104BC0000E9468462B013C01C1010196039718F42D
:104BD0000FEC13E00EC002EE13E0D8018D918D01B1
:104BE000882319F00E943536F8CF8AE00E943536C6
:104BF00019C6F80181918F01882319F00E9435367A
:104C0000F8CF8AE00E9435360E9428498FE7FFEFEF
:104C10002F163F0619F48093BE0704C0F101E1543A
:104C2000F84F808381E080931802CD55DF4F488292
:104C300059826A827B82C35AD040C255DF4F488274
:104C400059826A827B82CE5AD040CB57DF4F18827E
:104C5000C558D04020E4C757DF4F2883C958D040FB
:104C60003CE1EE963FAFEE9746E4CB56DF4F4883EC
:104C7000C559D040C756DF4F1882C959D040C356D6
:104C8000DF4F1882CD59D040C256DF4F1882CE591F
:104C9000D040C156DF4F1882CF59D040CF57DF4F99
:104CA000188219821A821B82C158D040CF56DF4F1A
:104CB000188219821A821B82C159D040C12CD12C72
:104CC0007601FFE78F2E912CA12CB12C8FE790E07D
:104CD000A0E0B0E0A9968CAF9DAFAEAFBFAFA997F3
:104CE000C955DF4F188219821A821B82C75AD040D9
:104CF00091E0CE55DF4F9883C25AD040C357DF4F63
:104D000019821882CD58D0406E961FAE6E97A2962B
:104D10001FAEA29700E010E0D101A154B84FCE54CD
:104D2000DF4FB983A883C25BD040C101880F991FB0
:104D3000880F991FFC01E155F84FC056DF4FF983EA
:104D4000E883C05AD04080911802882309F4BEC27B
:104D50000E946846AD966CAF7DAF8EAF9FAFAD97AA
:104D60008091BD07882309F45AC10E948A4DFFEF44
:104D70002F163F0679F42091AB076E962FAF6E97F2
:104D80003091AC07A2963FAFA2970091AD0710916A
:104D9000AE071FC0C056DF4FA881B981C05AD040AE
:104DA000BC916E96BFAF6E97C056DF4FE881F98118
:104DB000C05AD040F181A296FFAFA297C056DF4FF4
:104DC000A881B981C05AD04012960C9112971396BF
:104DD0001C916E962FAD6E97A2963FADA297A8013B
:104DE000C756DF4F6881C959D040C356DF4F78811D
:104DF000CD59D040C256DF4F8881CE59D040C156E0
:104E0000DF4F9881CF59D0400E94928887FF1AC007
:104E10006E96BFAD6E97C756DF4FB883C959D04065
:104E2000A296EFADA297C356DF4FE883CD59D0408D
:104E3000C256DF4F0883CE59D040C156DF4F18838A
:104E4000CF59D0406E962FAD6E97A2963FADA297E8
:104E5000A801CB57DF4F6881C558D040C757DF4FF7
:104E60007881C958D040EE968FADEE97CB56DF4F84
:104E70009881C559D0400E94B98E1816C4F46E9618
:104E8000FFAD6E97CB57DF4FF883C558D040A29641
:104E90002FADA297C757DF4F2883C958D040EE9651
:104EA0000FAFEE97CB56DF4F1883C559D040CE5584
:104EB000DF4F3881C25AD040AE962FADAE97332324
:104EC00009F47FC0E2963FADE297E6964FADE697D4
:104ED000EA965FADEA976E966FAD6E97A2967FAD3C
:104EE000A297C8010E94B98E18160CF098C0AD9612
:104EF0004CAD5DAD6EAD7FADAD97441955096609FA
:104F00007709DB01CA0188589341A109B109B7FDAE
:104F100086C0A9968CAD9DADAEADBFADA9978819E1
:104F20009909AA09BB09B595A79597958795EFEFBC
:104F30002E163E0619F48093BE0707C0CE54DF4FED
:104F4000E881F981C25BD0408083C955DF4F488337
:104F500059836A837B83C75AD040AE96FFADAE9724
:104F6000C756DF4FF883C959D040E2962FADE2977C
:104F7000C356DF4F2883CD59D040E6963FADE69724
:104F8000C256DF4F3883CE59D040EA964FADEA97EC
:104F9000C156DF4F4883CF59D040AD968CAD9DAD03
:104FA000AEADBFADAD97CD55DF4F88839983AA8352
:104FB000BB83C35AD040CE55DF4F1882C25AD0406F
:104FC0002EC0E2963FADE297E6964FADE697EA96A1
:104FD0005FADEA976E966FAD6E97A2967FADA29782
:104FE000C8010E94928887FF1AC0AD968CAD9DAD16
:104FF000AEADBFADAD97CD55DF4F288139814A8128
:105000005B81C35AD040821B930BA40BB50BAC0140
:10501000BD01485853416109710977FF99C420E0E7
:1050200030E040EA51E4AE966FADAE97E2967FADC8
:10503000E297E6968FADE697EA969FADEA970E94D3
:10504000938C9B01AC016E966FAD6E97A2967FAD6F
:10505000A297C8010E94B98E18166CF4EAE2F5E036
:1050600084918F010F5F1F4F882309F4DBC30E94D7
:105070003536F801F5CF80E398EFAFEFBFEFC255BB
:10508000DF4F288139814A815B81CE5AD040821B13
:10509000930BA40BB50BAD962CAD3DAD4EAD5FADF6
:1050A000AD97820F931FA41FB51FB7FD13C00E94B9
:1050B000BA678AE00E943536AD968CAD9DADAEAD37
:1050C000BFADAD97C255DF4F88839983AA83BB8359
:1050D000CE5AD040AD968CAD9DADAEADBFADAD97C7
:1050E000880F991FAA1FBB1FCD55DF4F288139811B
:1050F0004A815B81C35AD040821B930BA40BB50B32
:1051000084199509A609B70981389F44A241B105C0
:1051100068F0ECE0F5E084918F010F5F1F4F88236A
:1051200009F480C30E943536F801F5CFC357DF4F2D
:1051300048815981CD58D040C555DF4F888199812C
:10514000CB5AD040841795070CF0FDCDEFEAF4E080
:1051500084918F010F5F1F4F882321F00E94353605
:10516000F801F6CF9FEF2916390619F003E314E092
:1051700002C003E913E0B8018DE994E00E94A23671
:10518000B701A60189E994E00E942C408AE00E94C0
:105190003536B80187E894E00E94A236CF56DF4F3B
:1051A000488159816A817B81C159D04083E894E06C
:1051B0000E942C408AE00E943536B80181E794E0D5
:1051C0000E94A236CF57DF4F488159816A817B8187
:1051D000C158D0408DE694E00E942C408AE00E94A5
:1051E0003536C355DF4FA881CD5AD040AA2309F4E4
:1051F00019C323202094A9F5C0923902D0923A0213
:10520000E0923B02F0923C022CE933E549E45EE394
:10521000CF56DF4F688179818A819B81C159D04007
:105220000E94F788609335027093360280933702AC
:10523000909338022CE933E549E45EE3CF57DF4F22
:10524000688179818A819B81C158D0400E946F8D8D
:105250006093310270933202809333029093340250
:10526000E1C2C0922902D0922A02E0922B02F0926F
:105270002C022CE933E549E45EE3CF56DF4F688129
:1052800079818A819B81C159D0400E94F7886093BF
:1052900025027093260280932702909328022CE91E
:1052A00033E549E45EE3CF57DF4F688179818A8136
:1052B0009B81C158D0400E946F8D60932D027093E6
:1052C0002E0280932F0290933002ACC2809118027C
:1052D0008111A8C20E942849A5C281E054D7A2C268
:1052E00083E50E948531882329F00E94C731182F59
:1052F00039D701C010E0F090D80D111103C0EDE5D1
:10530000FAE01AC0F110FBCFE3E1F9E084918F01DC
:105310000F5F1F4F882321F00E943536F801F6CF2A
:10532000ECEAF5E084918F010F5F1F4F882339F37A
:105330000E943536F801F6CF84918F010F5F1F4F21
:10534000882321F00E943536F801F6CFF11003C012
:105350006BE973E002C067E973E08EE995E00E94B3
:10536000A2368AE00E94353686E5CFD7882309F435
:1053700059C281EA93E00E94064154C2F801E0500C
:10538000FE4F2081318142815381F801E45FFD4F5E
:1053900060817181828193810E94938C20E030E052
:1053A00040E05FE30E94F7889B01AC01F10160815E
:1053B0007181828193810E94B98E181634F4C801DC
:1053C000865D934F0E949C3303C060E070E0CB0188
:1053D000D1018D909D90AD90BC90F801E453F24FB7
:1053E00020813181428153810E94938C9B01AC01C9
:1053F000C501B4010E94928C6B017C0120E030E079
:1054000040EA51EC0E94B98E1816CCF520E030E04D
:1054100040EA51E4C701B6010E94928887FF2FC07D
:105420006F96EEADFFAD6F974080518062807380C4
:10543000A7019601C301B2010E94928C6B017C010D
:10544000A30192010E94928C9B01AC01C501B401A1
:105450000E94938CD1016D937D938D939C931397B0
:105460006F96EEADFFAD6F97C082D182E282F3827C
:10547000AB968EAD9FADAB970E94BA349FC8E3E167
:10548000F9E084918F010F5F1F4F882321F00E9464
:105490003536F801F6CFEBECF5E084918F010F5F24
:1054A0001F4F882309F4BEC10E943536F801F5CF9D
:1054B00084918F010F5F1F4F882321F00E943536A2
:1054C000F801F6CFE9EEF5E084918F010F5F1F4FF1
:1054D000882309F4A7C10E943536F801F5CF0E9450
:1054E000FC5680E00E94B8529DC10E94FC569AC1B1
:1054F00083E50BD7882319F04AD791E089270E94CA
:10550000B85290C1EDE5FAE084918F010F5F1F4F13
:10551000882321F00E943536F801F6CFEDE0F6E061
:1055200084918F010F5F1F4F882321F00E94353631
:10553000F801F6CF80E20E9435368AE5E6D6882368
:10554000A9F16AD76B017C0120E030E040E252EC27
:105550000E94B98E87FD19C020E030E040E252E49D
:10556000C701B6010E94928818167CF0C0924002D2
:10557000D0924102E0924202F092430242E0C7011F
:10558000B6010E94C9390C94EE2068ED7FEF85E0EA
:1055900096E00E94763980E20E94353668E270E03B
:1055A0008DEF95E00E9476390C94EE2040914002F8
:1055B0005091410260914202709143028AEF95E05E
:1055C0000E942C400C94EE200E940E4F83E59DD645
:1055D000882331F0ADD690E09093B40E8093B30E53
:1055E0008091B30E9091B40E97FD93C082309105D7
:1055F0000CF493C0029709F08CC088E586D6882306
:1056000039F10AD76B017C010E94E4599B01AC017E
:1056100060E070E0CB010E94928C9B01AC01C7015D
:10562000B6010E94B98E181614F4F6D609C00E946D
:10563000E4599B01AC0160E070E0CB010E94928CC8
:1056400060936D0270936E0280936F02909370026C
:1056500082E55BD6882349F0DFD66093EB04709334
:10566000EC048093ED049093EE04EDE5FAE0849170
:105670008F010F5F1F4F882321F00E943536F801FC
:10568000F6CFE6E1F6E084918F010F5F1F4F88238C
:1056900021F00E943536F801F6CF80E20E943536BF
:1056A000609165087091660880916708909168081C
:1056B00042E00E94C9398CE20E94353660916D0843
:1056C00070916E0880916F089091700842E00E947E
:1056D000C93980E20E94353660916D0270916E0288
:1056E00080916F029091700242E00E94C9398CE271
:1056F0000E9435366091710870917208809173082C
:105700009091740842E00E94C9398AE00E943536BF
:1057100004C01092B40E1092B30E1092B50E1092F7
:10572000A60D1092B80E1092B90E1092BA0E1092E9
:10573000BB0E78C0E3E1F9E084918F010F5F1F4F4A
:10574000882321F00E943536F801F6CFE6E2F6E034
:1057500084918F010F5F1F4F882309F463C00E945B
:105760003536F801F5CF81E08093240283E5CDD56D
:10577000882309F4BBC20BD6811154C0B7C2182FBD
:1057800080916208181741F083E5BFD5082F882360
:1057900021F0FDD5082F01C001E086E4B6D58823AD
:1057A00051F03AD620E030E040E752E40E946F8D9D
:1057B000AB01BC0103C040E050E0BA01202F812FB3
:1057C0000E946E632FC080E02EC00E940E4F88E5BD
:1057D0009CD5882321F05F9A129A1092F20689E5EF
:1057E00094D5882321F08A9A479A1092F3068AE585
:1057F0008CD5882351F09FB7F8948091080181607F
:10580000809308019FBF1092F40685E47ED588231B
:1058100049F09FB7F8948091080182608093080155
:105820009FBF8D9A81E01092B70E1092B60E811133
:105830001AC00C943A0D84918F010F5F1F4F88237B
:1058400021F00E943536F801F6CF6091760670910E
:10585000770685E396E00E94A23682E20E94353602
:105860008AE00E9435360E94B57F6BC2D5D520E014
:1058700030E0A9010E949288882361F0CDD5209163
:10588000EB043091EC044091ED045091EE040E9441
:10589000938C03C060E070E0CB010E94D78D7093C1
:1058A000BC076093BB070C94DF1B0E944E410C9415
:1058B000ED1B88E52AD5882359F0AED524E0129F48
:1058C000F0011124EB59F74F608371838283938336
:1058D00089E51BD5882379F00091EA0410E09CD576
:1058E000000F111F000F111FF801E359F74F6083DC
:1058F0007183828393838AE508D5882379F00091A8
:10590000EA0410E089D5000F111F000F111FF801E4
:10591000EB58F74F6083718382839383EDE5FAE060
:1059200084918F010F5F1F4F882321F00E9435362D
:10593000F801F6CFEDE1F4E084918F010F5F1F4F86
:10594000882311F40C94C4200E943536F801F4CF5A
:10595000C357DF4F48815981CD58D04014161506E2
:105960000CF06FC1C955DF4F488059806A807B8039
:10597000C75AD040480E591E6A1E7B1EC955DF4FBC
:10598000288139814A815B81C75AD040281B390B55
:105990004A0B5B0BCA01B901A50194010E94488C16
:1059A000A30192010E948B8FA9968CAC9DACAEACEA
:1059B000BFACA997820E931EA41EB51E34E18316B8
:1059C0009104A104B1041CF14CEE84169104A104CD
:1059D000B1043CF450E885169104A104B1043CF1F3
:1059E00005C07BEE872E912CA12CB12CA9968CAEF4
:1059F0009DAEAEAEBFAEA9978EEF90E0A0E0B0E056
:105A000088199909AA09BB094C015D0116C024E156
:105A100030E040E050E0A9962CAF3DAF4EAF5FAF15
:105A2000A99764E1862E912CA12CB12C06C0A996D1
:105A30008CAE9DAEAEAEBFAEA997A9964CAD5DAD96
:105A40006EAD7FADA99786E995E00E945139B50109
:105A5000A40181E995E00E945139CB57DF4F48817D
:105A6000C558D040C757DF4F5881C958D040EE962F
:105A70006FADEE97CB56DF4F7881C559D0408AE89D
:105A800095E00E942C40C756DF4F4881C959D0404D
:105A9000C356DF4F5881CD59D040C256DF4F688181
:105AA000CE59D040C156DF4F7881CF59D04083E8DE
:105AB00095E00E942C40C357DF4F48815981CD5853
:105AC000D040433051050CF4BCC0C501B4010E9464
:105AD000988820E030E040E850E40E94F7886B01AD
